{
  "_format": "hh-sol-artifact-1",
  "contractName": "GoodMonkeyz",
  "sourceName": "contracts/GoodMonkeyz.sol",
  "abi": [
    {
      "inputs": [],
      "stateMutability": "nonpayable",
      "type": "constructor"
    },
    {
      "anonymous": false,
      "inputs": [
        {
          "indexed": true,
          "internalType": "address",
          "name": "owner",
          "type": "address"
        },
        {
          "indexed": true,
          "internalType": "address",
          "name": "approved",
          "type": "address"
        },
        {
          "indexed": true,
          "internalType": "uint256",
          "name": "tokenId",
          "type": "uint256"
        }
      ],
      "name": "Approval",
      "type": "event"
    },
    {
      "anonymous": false,
      "inputs": [
        {
          "indexed": true,
          "internalType": "address",
          "name": "owner",
          "type": "address"
        },
        {
          "indexed": true,
          "internalType": "address",
          "name": "operator",
          "type": "address"
        },
        {
          "indexed": false,
          "internalType": "bool",
          "name": "approved",
          "type": "bool"
        }
      ],
      "name": "ApprovalForAll",
      "type": "event"
    },
    {
      "anonymous": false,
      "inputs": [
        {
          "indexed": false,
          "internalType": "address",
          "name": "sender",
          "type": "address"
        },
        {
          "indexed": false,
          "internalType": "uint256",
          "name": "tokenId",
          "type": "uint256"
        }
      ],
      "name": "GMMinted",
      "type": "event"
    },
    {
      "anonymous": false,
      "inputs": [
        {
          "indexed": true,
          "internalType": "address",
          "name": "previousOwner",
          "type": "address"
        },
        {
          "indexed": true,
          "internalType": "address",
          "name": "newOwner",
          "type": "address"
        }
      ],
      "name": "OwnershipTransferred",
      "type": "event"
    },
    {
      "anonymous": false,
      "inputs": [
        {
          "indexed": true,
          "internalType": "address",
          "name": "from",
          "type": "address"
        },
        {
          "indexed": true,
          "internalType": "address",
          "name": "to",
          "type": "address"
        },
        {
          "indexed": true,
          "internalType": "uint256",
          "name": "tokenId",
          "type": "uint256"
        }
      ],
      "name": "Transfer",
      "type": "event"
    },
    {
      "inputs": [],
      "name": "ALLOW",
      "outputs": [
        {
          "internalType": "bool",
          "name": "",
          "type": "bool"
        }
      ],
      "stateMutability": "view",
      "type": "function"
    },
    {
      "inputs": [],
      "name": "ALLOW_MAX",
      "outputs": [
        {
          "internalType": "uint256",
          "name": "",
          "type": "uint256"
        }
      ],
      "stateMutability": "view",
      "type": "function"
    },
    {
      "inputs": [],
      "name": "BOOSTER",
      "outputs": [
        {
          "internalType": "bool",
          "name": "",
          "type": "bool"
        }
      ],
      "stateMutability": "view",
      "type": "function"
    },
    {
      "inputs": [],
      "name": "BOOSTER_MAX",
      "outputs": [
        {
          "internalType": "uint256",
          "name": "",
          "type": "uint256"
        }
      ],
      "stateMutability": "view",
      "type": "function"
    },
    {
      "inputs": [],
      "name": "BOOSTER_PACK_ID",
      "outputs": [
        {
          "internalType": "uint256",
          "name": "",
          "type": "uint256"
        }
      ],
      "stateMutability": "view",
      "type": "function"
    },
    {
      "inputs": [],
      "name": "GENERAL_SUPPLY",
      "outputs": [
        {
          "internalType": "uint256",
          "name": "",
          "type": "uint256"
        }
      ],
      "stateMutability": "view",
      "type": "function"
    },
    {
      "inputs": [],
      "name": "GMEditionsAddress",
      "outputs": [
        {
          "internalType": "address",
          "name": "",
          "type": "address"
        }
      ],
      "stateMutability": "view",
      "type": "function"
    },
    {
      "inputs": [],
      "name": "MINTPASS",
      "outputs": [
        {
          "internalType": "bool",
          "name": "",
          "type": "bool"
        }
      ],
      "stateMutability": "view",
      "type": "function"
    },
    {
      "inputs": [],
      "name": "MINTPASS_MAX",
      "outputs": [
        {
          "internalType": "uint256",
          "name": "",
          "type": "uint256"
        }
      ],
      "stateMutability": "view",
      "type": "function"
    },
    {
      "inputs": [],
      "name": "MINT_PASS_ID",
      "outputs": [
        {
          "internalType": "uint256",
          "name": "",
          "type": "uint256"
        }
      ],
      "stateMutability": "view",
      "type": "function"
    },
    {
      "inputs": [],
      "name": "PUBLIC",
      "outputs": [
        {
          "internalType": "bool",
          "name": "",
          "type": "bool"
        }
      ],
      "stateMutability": "view",
      "type": "function"
    },
    {
      "inputs": [
        {
          "internalType": "address",
          "name": "to",
          "type": "address"
        },
        {
          "internalType": "uint256",
          "name": "tokenId",
          "type": "uint256"
        }
      ],
      "name": "approve",
      "outputs": [],
      "stateMutability": "nonpayable",
      "type": "function"
    },
    {
      "inputs": [
        {
          "internalType": "address",
          "name": "owner",
          "type": "address"
        }
      ],
      "name": "balanceOf",
      "outputs": [
        {
          "internalType": "uint256",
          "name": "",
          "type": "uint256"
        }
      ],
      "stateMutability": "view",
      "type": "function"
    },
    {
      "inputs": [],
      "name": "boosterPacksOpened",
      "outputs": [
        {
          "internalType": "uint256",
          "name": "",
          "type": "uint256"
        }
      ],
      "stateMutability": "view",
      "type": "function"
    },
    {
      "inputs": [],
      "name": "contractURI",
      "outputs": [
        {
          "internalType": "string",
          "name": "",
          "type": "string"
        }
      ],
      "stateMutability": "view",
      "type": "function"
    },
    {
      "inputs": [],
      "name": "flipAllowState",
      "outputs": [],
      "stateMutability": "nonpayable",
      "type": "function"
    },
    {
      "inputs": [],
      "name": "flipBoosterState",
      "outputs": [],
      "stateMutability": "nonpayable",
      "type": "function"
    },
    {
      "inputs": [],
      "name": "flipPassState",
      "outputs": [],
      "stateMutability": "nonpayable",
      "type": "function"
    },
    {
      "inputs": [],
      "name": "flipPublicState",
      "outputs": [],
      "stateMutability": "nonpayable",
      "type": "function"
    },
    {
      "inputs": [],
      "name": "genStartingIndex",
      "outputs": [],
      "stateMutability": "nonpayable",
      "type": "function"
    },
    {
      "inputs": [
        {
          "internalType": "uint256",
          "name": "tokenId",
          "type": "uint256"
        }
      ],
      "name": "getApproved",
      "outputs": [
        {
          "internalType": "address",
          "name": "",
          "type": "address"
        }
      ],
      "stateMutability": "view",
      "type": "function"
    },
    {
      "inputs": [
        {
          "internalType": "address",
          "name": "owner",
          "type": "address"
        },
        {
          "internalType": "address",
          "name": "operator",
          "type": "address"
        }
      ],
      "name": "isApprovedForAll",
      "outputs": [
        {
          "internalType": "bool",
          "name": "",
          "type": "bool"
        }
      ],
      "stateMutability": "view",
      "type": "function"
    },
    {
      "inputs": [
        {
          "internalType": "uint256",
          "name": "_amount",
          "type": "uint256"
        }
      ],
      "name": "mint",
      "outputs": [],
      "stateMutability": "payable",
      "type": "function"
    },
    {
      "inputs": [
        {
          "internalType": "uint256",
          "name": "_amount",
          "type": "uint256"
        },
        {
          "internalType": "bytes",
          "name": "signature",
          "type": "bytes"
        }
      ],
      "name": "mintAllow",
      "outputs": [],
      "stateMutability": "payable",
      "type": "function"
    },
    {
      "inputs": [
        {
          "internalType": "address",
          "name": "",
          "type": "address"
        }
      ],
      "name": "mintList",
      "outputs": [
        {
          "internalType": "uint256",
          "name": "",
          "type": "uint256"
        }
      ],
      "stateMutability": "view",
      "type": "function"
    },
    {
      "inputs": [],
      "name": "mintPassUsed",
      "outputs": [
        {
          "internalType": "uint256",
          "name": "",
          "type": "uint256"
        }
      ],
      "stateMutability": "view",
      "type": "function"
    },
    {
      "inputs": [],
      "name": "mintWithBoosterPack",
      "outputs": [],
      "stateMutability": "nonpayable",
      "type": "function"
    },
    {
      "inputs": [],
      "name": "mintWithPass",
      "outputs": [],
      "stateMutability": "nonpayable",
      "type": "function"
    },
    {
      "inputs": [],
      "name": "name",
      "outputs": [
        {
          "internalType": "string",
          "name": "",
          "type": "string"
        }
      ],
      "stateMutability": "view",
      "type": "function"
    },
    {
      "inputs": [],
      "name": "owner",
      "outputs": [
        {
          "internalType": "address",
          "name": "",
          "type": "address"
        }
      ],
      "stateMutability": "view",
      "type": "function"
    },
    {
      "inputs": [
        {
          "internalType": "uint256",
          "name": "tokenId",
          "type": "uint256"
        }
      ],
      "name": "ownerOf",
      "outputs": [
        {
          "internalType": "address",
          "name": "",
          "type": "address"
        }
      ],
      "stateMutability": "view",
      "type": "function"
    },
    {
      "inputs": [],
      "name": "price",
      "outputs": [
        {
          "internalType": "uint256",
          "name": "",
          "type": "uint256"
        }
      ],
      "stateMutability": "view",
      "type": "function"
    },
    {
      "inputs": [
        {
          "internalType": "address",
          "name": "_address",
          "type": "address"
        },
        {
          "internalType": "bytes",
          "name": "signature",
          "type": "bytes"
        }
      ],
      "name": "recoverSigner",
      "outputs": [
        {
          "internalType": "address",
          "name": "",
          "type": "address"
        }
      ],
      "stateMutability": "pure",
      "type": "function"
    },
    {
      "inputs": [],
      "name": "renounceOwnership",
      "outputs": [],
      "stateMutability": "nonpayable",
      "type": "function"
    },
    {
      "inputs": [
        {
          "internalType": "address",
          "name": "from",
          "type": "address"
        },
        {
          "internalType": "address",
          "name": "to",
          "type": "address"
        },
        {
          "internalType": "uint256",
          "name": "tokenId",
          "type": "uint256"
        }
      ],
      "name": "safeTransferFrom",
      "outputs": [],
      "stateMutability": "nonpayable",
      "type": "function"
    },
    {
      "inputs": [
        {
          "internalType": "address",
          "name": "from",
          "type": "address"
        },
        {
          "internalType": "address",
          "name": "to",
          "type": "address"
        },
        {
          "internalType": "uint256",
          "name": "tokenId",
          "type": "uint256"
        },
        {
          "internalType": "bytes",
          "name": "_data",
          "type": "bytes"
        }
      ],
      "name": "safeTransferFrom",
      "outputs": [],
      "stateMutability": "nonpayable",
      "type": "function"
    },
    {
      "inputs": [
        {
          "internalType": "address",
          "name": "operator",
          "type": "address"
        },
        {
          "internalType": "bool",
          "name": "approved",
          "type": "bool"
        }
      ],
      "name": "setApprovalForAll",
      "outputs": [],
      "stateMutability": "nonpayable",
      "type": "function"
    },
    {
      "inputs": [
        {
          "internalType": "string",
          "name": "newURI",
          "type": "string"
        }
      ],
      "name": "setBaseURI",
      "outputs": [],
      "stateMutability": "nonpayable",
      "type": "function"
    },
    {
      "inputs": [
        {
          "internalType": "string",
          "name": "uri",
          "type": "string"
        }
      ],
      "name": "setContractURI",
      "outputs": [],
      "stateMutability": "nonpayable",
      "type": "function"
    },
    {
      "inputs": [
        {
          "internalType": "address",
          "name": "_GMEditionsAddress",
          "type": "address"
        }
      ],
      "name": "setMerchAddress",
      "outputs": [],
      "stateMutability": "nonpayable",
      "type": "function"
    },
    {
      "inputs": [],
      "name": "startingIndex",
      "outputs": [
        {
          "internalType": "uint256",
          "name": "",
          "type": "uint256"
        }
      ],
      "stateMutability": "view",
      "type": "function"
    },
    {
      "inputs": [
        {
          "internalType": "bytes4",
          "name": "interfaceId",
          "type": "bytes4"
        }
      ],
      "name": "supportsInterface",
      "outputs": [
        {
          "internalType": "bool",
          "name": "",
          "type": "bool"
        }
      ],
      "stateMutability": "view",
      "type": "function"
    },
    {
      "inputs": [],
      "name": "symbol",
      "outputs": [
        {
          "internalType": "string",
          "name": "",
          "type": "string"
        }
      ],
      "stateMutability": "view",
      "type": "function"
    },
    {
      "inputs": [
        {
          "internalType": "uint256",
          "name": "tokenId",
          "type": "uint256"
        }
      ],
      "name": "tokenURI",
      "outputs": [
        {
          "internalType": "string",
          "name": "",
          "type": "string"
        }
      ],
      "stateMutability": "view",
      "type": "function"
    },
    {
      "inputs": [],
      "name": "totalSupply",
      "outputs": [
        {
          "internalType": "uint256",
          "name": "",
          "type": "uint256"
        }
      ],
      "stateMutability": "view",
      "type": "function"
    },
    {
      "inputs": [
        {
          "internalType": "address",
          "name": "from",
          "type": "address"
        },
        {
          "internalType": "address",
          "name": "to",
          "type": "address"
        },
        {
          "internalType": "uint256",
          "name": "tokenId",
          "type": "uint256"
        }
      ],
      "name": "transferFrom",
      "outputs": [],
      "stateMutability": "nonpayable",
      "type": "function"
    },
    {
      "inputs": [
        {
          "internalType": "address",
          "name": "newOwner",
          "type": "address"
        }
      ],
      "name": "transferOwnership",
      "outputs": [],
      "stateMutability": "nonpayable",
      "type": "function"
    },
    {
      "inputs": [],
      "name": "withdraw",
      "outputs": [],
      "stateMutability": "nonpayable",
      "type": "function"
    }
  ],
  "bytecode": "0x608060405260016009556002600a55612328600b55611b58600c5560fa600d819055600e556701118f178fb48000600f556013805463ffffffff191690553480156200004a57600080fd5b50604080516020808201808452600080845284519283019094528382528251929391926200007a92919062000109565b5080516200009090600190602084019062000109565b505050620000ad620000a7620000b360201b60201c565b620000b7565b620001ec565b3390565b600680546001600160a01b038381166001600160a01b0319831681179093556040519116919082907f8be0079c531659141344cd1fd0a4f28419497f9722a3daafe3b4186f6b6457e090600090a35050565b8280546200011790620001af565b90600052602060002090601f0160209004810192826200013b576000855562000186565b82601f106200015657805160ff191683800117855562000186565b8280016001018555821562000186579182015b828111156200018657825182559160200191906001019062000169565b506200019492915062000198565b5090565b5b8082111562000194576000815560010162000199565b600181811c90821680620001c457607f821691505b60208210811415620001e657634e487b7160e01b600052602260045260246000fd5b50919050565b61319180620001fc6000396000f3fe6080604052600436106103135760003560e01c8063a0712d681161019a578063cb774d47116100e1578063e985e9c51161008a578063f8c3e57811610064578063f8c3e57814610845578063face47fc1461085b578063fd17af091461087057600080fd5b8063e985e9c5146107c7578063f2fde38b14610810578063f3c9237c1461083057600080fd5b8063da858dd8116100bb578063da858dd81461077c578063e53e3a0414610792578063e8a3d485146107b257600080fd5b8063cb774d471461073b578063cbcf4a8414610751578063d98e30281461076657600080fd5b8063bef432c611610143578063c11d561c1161011d578063c11d561c146106f0578063c87b56dd14610706578063ca6b40f81461072657600080fd5b8063bef432c614610693578063bf89e3d9146106c0578063c1179a7f146106d657600080fd5b8063b17669b911610174578063b17669b914610648578063b83b30331461065d578063b88d4fde1461067357600080fd5b8063a0712d68146105ff578063a12cc9d814610612578063a22cb4651461062857600080fd5b80635f9b96f81161025e578063882b18081161020757806395d89b41116101e157806395d89b41146105bf5780639757f8ec146105d4578063a035b1fe146105e957600080fd5b8063882b18081461056c5780638da5cb5b14610581578063938e3d7b1461059f57600080fd5b8063715018a611610238578063715018a614610516578063725896ac1461052b57806375b0ffd11461054b57600080fd5b80635f9b96f8146104b65780636352211e146104d657806370a08231146104f657600080fd5b806318160ddd116102c05780633ccfd60b1161029a5780633ccfd60b1461046157806342842e0e1461047657806355f804b31461049657600080fd5b806318160ddd1461040c5780631e5a41b81461042157806323b872dd1461044157600080fd5b8063095ea7b3116102f1578063095ea7b3146103a75780630b5dfc39146103c95780631166d34e146103e857600080fd5b806301ffc9a71461031857806306fdde031461034d578063081812fc1461036f575b600080fd5b34801561032457600080fd5b50610338610333366004612bb9565b610883565b60405190151581526020015b60405180910390f35b34801561035957600080fd5b50610362610920565b6040516103449190612c2e565b34801561037b57600080fd5b5061038f61038a366004612c41565b6109b2565b6040516001600160a01b039091168152602001610344565b3480156103b357600080fd5b506103c76103c2366004612c76565b610a4c565b005b3480156103d557600080fd5b5060135461033890610100900460ff1681565b3480156103f457600080fd5b506103fe60115481565b604051908152602001610344565b34801561041857600080fd5b506103fe610b7e565b34801561042d57600080fd5b506103c761043c366004612ca0565b610b8a565b34801561044d57600080fd5b506103c761045c366004612cbb565b610c30565b34801561046d57600080fd5b506103c7610cb7565b34801561048257600080fd5b506103c7610491366004612cbb565b610d9d565b3480156104a257600080fd5b506103c76104b1366004612d83565b610db8565b3480156104c257600080fd5b5060085461038f906001600160a01b031681565b3480156104e257600080fd5b5061038f6104f1366004612c41565b610e13565b34801561050257600080fd5b506103fe610511366004612ca0565b610e9e565b34801561052257600080fd5b506103c7610f38565b34801561053757600080fd5b506013546103389062010000900460ff1681565b34801561055757600080fd5b50601354610338906301000000900460ff1681565b34801561057857600080fd5b506103c7610f8c565b34801561058d57600080fd5b506006546001600160a01b031661038f565b3480156105ab57600080fd5b506103c76105ba366004612d83565b610fe8565b3480156105cb57600080fd5b50610362611043565b3480156105e057600080fd5b506103c7611052565b3480156105f557600080fd5b506103fe600f5481565b6103c761060d366004612c41565b6111d3565b34801561061e57600080fd5b506103fe60105481565b34801561063457600080fd5b506103c7610643366004612dcc565b611441565b34801561065457600080fd5b506103c761144c565b34801561066957600080fd5b506103fe600d5481565b34801561067f57600080fd5b506103c761068e366004612e28565b6114b5565b34801561069f57600080fd5b506103fe6106ae366004612ca0565b60166020526000908152604090205481565b3480156106cc57600080fd5b506103fe60095481565b3480156106e257600080fd5b506013546103389060ff1681565b3480156106fc57600080fd5b506103fe600a5481565b34801561071257600080fd5b50610362610721366004612c41565b611543565b34801561073257600080fd5b506103c761162c565b34801561074757600080fd5b506103fe60125481565b34801561075d57600080fd5b506103c7611693565b34801561077257600080fd5b506103fe600b5481565b34801561078857600080fd5b506103fe600e5481565b34801561079e57600080fd5b5061038f6107ad366004612e90565b611736565b3480156107be57600080fd5b506103626117cd565b3480156107d357600080fd5b506103386107e2366004612ede565b6001600160a01b03918216600090815260056020908152604080832093909416825291909152205460ff1690565b34801561081c57600080fd5b506103c761082b366004612ca0565b6117dc565b34801561083c57600080fd5b506103c76118a9565b34801561085157600080fd5b506103fe600c5481565b34801561086757600080fd5b506103c761190e565b6103c761087e366004612f11565b611a97565b60006001600160e01b031982167f80ac58cd0000000000000000000000000000000000000000000000000000000014806108e657506001600160e01b031982167f5b5e139f00000000000000000000000000000000000000000000000000000000145b8061091a57507f01ffc9a7000000000000000000000000000000000000000000000000000000006001600160e01b03198316145b92915050565b60606000805461092f90612f42565b80601f016020809104026020016040519081016040528092919081815260200182805461095b90612f42565b80156109a85780601f1061097d576101008083540402835291602001916109a8565b820191906000526020600020905b81548152906001019060200180831161098b57829003601f168201915b5050505050905090565b6000818152600260205260408120546001600160a01b0316610a305760405162461bcd60e51b815260206004820152602c60248201527f4552433732313a20617070726f76656420717565727920666f72206e6f6e657860448201526b34b9ba32b73a103a37b5b2b760a11b60648201526084015b60405180910390fd5b506000908152600460205260409020546001600160a01b031690565b6000610a5782610e13565b9050806001600160a01b0316836001600160a01b03161415610ae15760405162461bcd60e51b815260206004820152602160248201527f4552433732313a20617070726f76616c20746f2063757272656e74206f776e6560448201527f72000000000000000000000000000000000000000000000000000000000000006064820152608401610a27565b336001600160a01b0382161480610afd5750610afd81336107e2565b610b6f5760405162461bcd60e51b815260206004820152603860248201527f4552433732313a20617070726f76652063616c6c6572206973206e6f74206f7760448201527f6e6572206e6f7220617070726f76656420666f7220616c6c00000000000000006064820152608401610a27565b610b798383611d1e565b505050565b60008061091a60075490565b6006546001600160a01b03163314610bd25760405162461bcd60e51b8152602060048201819052602482015260008051602061313c8339815191526044820152606401610a27565b600880546001600160a01b0319166001600160a01b03831690811790915560408051808201909152601d81527f474d53484f5020436f6e7472616374207570646174656420746f2025730000006020820152610c2d91611d8c565b50565b610c3a3382611dff565b610cac5760405162461bcd60e51b815260206004820152603160248201527f4552433732313a207472616e736665722063616c6c6572206973206e6f74206f60448201527f776e6572206e6f7220617070726f7665640000000000000000000000000000006064820152608401610a27565b610b79838383611ef2565b6006546001600160a01b03163314610cff5760405162461bcd60e51b8152602060048201819052602482015260008051602061313c8339815191526044820152606401610a27565b6040514790600090339083908381818185875af1925050503d8060008114610d43576040519150601f19603f3d011682016040523d82523d6000602084013e610d48565b606091505b5050905080610d995760405162461bcd60e51b815260206004820152601960248201527f4661696c656420746f20776964746864726177204574686572000000000000006044820152606401610a27565b5050565b610b79838383604051806020016040528060008152506114b5565b6006546001600160a01b03163314610e005760405162461bcd60e51b8152602060048201819052602482015260008051602061313c8339815191526044820152606401610a27565b8051610d99906014906020840190612b0a565b6000818152600260205260408120546001600160a01b03168061091a5760405162461bcd60e51b815260206004820152602960248201527f4552433732313a206f776e657220717565727920666f72206e6f6e657869737460448201527f656e7420746f6b656e00000000000000000000000000000000000000000000006064820152608401610a27565b60006001600160a01b038216610f1c5760405162461bcd60e51b815260206004820152602a60248201527f4552433732313a2062616c616e636520717565727920666f7220746865207a6560448201527f726f2061646472657373000000000000000000000000000000000000000000006064820152608401610a27565b506001600160a01b031660009081526003602052604090205490565b6006546001600160a01b03163314610f805760405162461bcd60e51b8152602060048201819052602482015260008051602061313c8339815191526044820152606401610a27565b610f8a60006120bf565b565b6006546001600160a01b03163314610fd45760405162461bcd60e51b8152602060048201819052602482015260008051602061313c8339815191526044820152606401610a27565b6013805460ff19811660ff90911615179055565b6006546001600160a01b031633146110305760405162461bcd60e51b8152602060048201819052602482015260008051602061313c8339815191526044820152606401610a27565b8051610d99906015906020840190612b0a565b60606001805461092f90612f42565b6013546301000000900460ff166110d05760405162461bcd60e51b8152602060048201526024808201527f4d494e54494e47205749544820424f4f53544552205041434b202d204e4f542060448201527f4f50454e000000000000000000000000000000000000000000000000000000006064820152608401610a27565b600854600a54604051633477cc1b60e21b815233600482015260248101919091526001600160a01b039091169063d1df306c90604401600060405180830381600087803b15801561112057600080fd5b505af1158015611134573d6000803e3d6000fd5b5050505060005b60038110156111bd576111563361115160075490565b612111565b61119d6040518060400160405280600f81526020017f6d696e7420626f6f73746572202573000000000000000000000000000000000081525061119860075490565b61212b565b6111ab600780546001019055565b806111b581612f93565b91505061113b565b506011600081546111cd90612f93565b90915550565b60135460ff166112255760405162461bcd60e51b815260206004820152601260248201527f4d494e54494e47202d204e4f54204f50454e00000000000000000000000000006044820152606401610a27565b600a8111156112765760405162461bcd60e51b815260206004820152600e60248201527f4d4158203130204d4f4e4b45595a0000000000000000000000000000000000006044820152606401610a27565b80600f546112849190612fae565b3410156112d35760405162461bcd60e51b815260206004820152601360248201527f4e6f7420656e6f756768204554482073656e74000000000000000000000000006044820152606401610a27565b6112db61219e565b6007541061132b5760405162461bcd60e51b815260206004820152601a60248201527f5075626c696320416c6c6f636174696f6e20536f6c64206f75740000000000006044820152606401610a27565b33321461137a5760405162461bcd60e51b815260206004820152600760248201527f6e6f20626f7473000000000000000000000000000000000000000000000000006044820152606401610a27565b60005b81811015610d99576113923361115160075490565b6113d46040518060400160405280600e81526020017f6d696e74207075626c696320257300000000000000000000000000000000000081525061119860075490565b6113e2600780546001019055565b7fef31b38176d40d5e039a10dc804ba178c47478486ce20e46e6e7dcca99fe27053361140d60075490565b604080516001600160a01b03909316835260208301919091520160405180910390a18061143981612f93565b91505061137d565b610d993383836121ce565b6006546001600160a01b031633146114945760405162461bcd60e51b8152602060048201819052602482015260008051602061313c8339815191526044820152606401610a27565b6013805463ff00000019811663010000009182900460ff1615909102179055565b6114bf3383611dff565b6115315760405162461bcd60e51b815260206004820152603160248201527f4552433732313a207472616e736665722063616c6c6572206973206e6f74206f60448201527f776e6572206e6f7220617070726f7665640000000000000000000000000000006064820152608401610a27565b61153d8484848461229d565b50505050565b6000818152600260205260409020546060906001600160a01b03166115d05760405162461bcd60e51b815260206004820152602f60248201527f4552433732314d657461646174613a2055524920717565727920666f72206e6f60448201527f6e6578697374656e7420746f6b656e00000000000000000000000000000000006064820152608401610a27565b60006115da61231b565b905060008151116115fa5760405180602001604052806000815250611625565b806116048461232a565b604051602001611615929190612fcd565b6040516020818303038152906040525b9392505050565b6006546001600160a01b031633146116745760405162461bcd60e51b8152602060048201819052602482015260008051602061313c8339815191526044820152606401610a27565b6013805462ff0000198116620100009182900460ff1615909102179055565b6006546001600160a01b031633146116db5760405162461bcd60e51b8152602060048201819052602482015260008051602061313c8339815191526044820152606401610a27565b6127106116e9600143612ffc565b6116f4919040613029565b601281905560408051808201909152601081527f5354415254494e4720494e4445583a20000000000000000000000000000000006020820152610f8a9161212b565b6040516bffffffffffffffffffffffff19606084901b166020820152600090819060340160408051601f198184030181529082905280516020918201207f19457468657265756d205369676e6564204d6573736167653a0a33320000000091830191909152603c820152605c016040516020818303038152906040528051906020012090506117c5818461245c565b949350505050565b60606015805461092f90612f42565b6006546001600160a01b031633146118245760405162461bcd60e51b8152602060048201819052602482015260008051602061313c8339815191526044820152606401610a27565b6001600160a01b0381166118a05760405162461bcd60e51b815260206004820152602660248201527f4f776e61626c653a206e6577206f776e657220697320746865207a65726f206160448201527f64647265737300000000000000000000000000000000000000000000000000006064820152608401610a27565b610c2d816120bf565b6006546001600160a01b031633146118f15760405162461bcd60e51b8152602060048201819052602482015260008051602061313c8339815191526044820152606401610a27565b6013805461ff001981166101009182900460ff1615909102179055565b60135462010000900460ff166119665760405162461bcd60e51b815260206004820152601c60248201527f4d494e54494e4720574954482050415353202d204e4f54204f50454e000000006044820152606401610a27565b600d54601054106119b95760405162461bcd60e51b815260206004820152601960248201527f4d494e54205041535320414c4c4f434154494f4e2055534544000000000000006044820152606401610a27565b600854600954604051633477cc1b60e21b815233600482015260248101919091526001600160a01b039091169063d1df306c90604401600060405180830381600087803b158015611a0957600080fd5b505af1158015611a1d573d6000803e3d6000fd5b505050506000611a2c60075490565b9050611a383382612111565b611a46600780546001019055565b601060008154611a5590612f93565b9091555060408051808201909152601681527f4d494e542057495448204d494e545041535320232573000000000000000000006020820152610c2d908261212b565b601354610100900460ff16611aee5760405162461bcd60e51b815260206004820152601d60248201527f4d494e54494e4720414c4c4f57204c495354202d204e4f54204f50454e0000006044820152606401610a27565b81600f54611afc9190612fae565b341015611b4b5760405162461bcd60e51b815260206004820152601360248201527f4e6f7420656e6f756768204554482073656e74000000000000000000000000006044820152606401610a27565b601054600c54611b5b919061303d565b60075410611bab5760405162461bcd60e51b815260206004820152601360248201527f414c4c4f57206c69737420536f6c64206f7574000000000000000000000000006044820152606401610a27565b6006546001600160a01b0316611bc13383611736565b6001600160a01b031614611c175760405162461bcd60e51b815260206004820152601a60248201527f41646472657373206973206e6f7420616c6c6f776c69737465640000000000006044820152606401610a27565b33600090815260166020526040902054600290611c3590849061303d565b1115611c835760405162461bcd60e51b815260206004820152601560248201527f4f4e4c592032204d494e545320524553455256454400000000000000000000006044820152606401610a27565b60005b82811015610b7957611c9b3361115160075490565b611cdd6040518060400160405280600d81526020017f6d696e7420616c6c6f772025730000000000000000000000000000000000000081525061119860075490565b611ceb600780546001019055565b3360009081526016602052604081208054909190611d0890612f93565b9091555080611d1681612f93565b915050611c86565b600081815260046020526040902080546001600160a01b0319166001600160a01b0384169081179091558190611d5382610e13565b6001600160a01b03167f8c5be1e5ebec7d5bd14f71427d1e84f3dd0314c0f7b2291e5b200ac8c7c3b92560405160405180910390a45050565b610d998282604051602401611da2929190613055565b60408051601f198184030181529190526020810180517bffffffffffffffffffffffffffffffffffffffffffffffffffffffff167f319af33300000000000000000000000000000000000000000000000000000000179052612480565b6000818152600260205260408120546001600160a01b0316611e785760405162461bcd60e51b815260206004820152602c60248201527f4552433732313a206f70657261746f7220717565727920666f72206e6f6e657860448201526b34b9ba32b73a103a37b5b2b760a11b6064820152608401610a27565b6000611e8383610e13565b9050806001600160a01b0316846001600160a01b03161480611ebe5750836001600160a01b0316611eb3846109b2565b6001600160a01b0316145b806117c557506001600160a01b0380821660009081526005602090815260408083209388168352929052205460ff166117c5565b826001600160a01b0316611f0582610e13565b6001600160a01b031614611f815760405162461bcd60e51b815260206004820152602960248201527f4552433732313a207472616e73666572206f6620746f6b656e2074686174206960448201527f73206e6f74206f776e00000000000000000000000000000000000000000000006064820152608401610a27565b6001600160a01b038216611ffc5760405162461bcd60e51b8152602060048201526024808201527f4552433732313a207472616e7366657220746f20746865207a65726f2061646460448201527f72657373000000000000000000000000000000000000000000000000000000006064820152608401610a27565b612007600082611d1e565b6001600160a01b0383166000908152600360205260408120805460019290612030908490612ffc565b90915550506001600160a01b038216600090815260036020526040812080546001929061205e90849061303d565b909155505060008181526002602052604080822080546001600160a01b0319166001600160a01b0386811691821790925591518493918716917fddf252ad1be2c89b69c2b068fc378daa952ba7f163c4a11628f55a4df523b3ef91a4505050565b600680546001600160a01b038381166001600160a01b0319831681179093556040519116919082907f8be0079c531659141344cd1fd0a4f28419497f9722a3daafe3b4186f6b6457e090600090a35050565b610d998282604051806020016040528060008152506124a1565b610d998282604051602401612141929190613080565b60408051601f198184030181529190526020810180517bffffffffffffffffffffffffffffffffffffffffffffffffffffffff167f9710a9d000000000000000000000000000000000000000000000000000000000179052612480565b600060115460036121af9190612fae565b601054600b546121bf919061303d565b6121c9919061303d565b905090565b816001600160a01b0316836001600160a01b031614156122305760405162461bcd60e51b815260206004820152601960248201527f4552433732313a20617070726f766520746f2063616c6c6572000000000000006044820152606401610a27565b6001600160a01b03838116600081815260056020908152604080832094871680845294825291829020805460ff191686151590811790915591519182527f17307eab39ab6107e8899845ad3d59bd9653f200f220920489ca2b5937696c31910160405180910390a3505050565b6122a8848484611ef2565b6122b48484848461251f565b61153d5760405162461bcd60e51b815260206004820152603260248201527f4552433732313a207472616e7366657220746f206e6f6e20455243373231526560448201527131b2b4bb32b91034b6b83632b6b2b73a32b960711b6064820152608401610a27565b60606014805461092f90612f42565b60608161236a57505060408051808201909152600181527f3000000000000000000000000000000000000000000000000000000000000000602082015290565b8160005b8115612394578061237e81612f93565b915061238d9050600a836130a2565b915061236e565b60008167ffffffffffffffff8111156123af576123af612cf7565b6040519080825280601f01601f1916602001820160405280156123d9576020820181803683370190505b5090505b84156117c5576123ee600183612ffc565b91506123fb600a86613029565b61240690603061303d565b60f81b81838151811061241b5761241b6130b6565b60200101907effffffffffffffffffffffffffffffffffffffffffffffffffffffffffffff1916908160001a905350612455600a866130a2565b94506123dd565b600080600061246b8585612668565b91509150612478816126d8565b509392505050565b80516a636f6e736f6c652e6c6f67602083016000808483855afa5050505050565b6124ab8383612893565b6124b8600084848461251f565b610b795760405162461bcd60e51b815260206004820152603260248201527f4552433732313a207472616e7366657220746f206e6f6e20455243373231526560448201527131b2b4bb32b91034b6b83632b6b2b73a32b960711b6064820152608401610a27565b60006001600160a01b0384163b1561265d57604051630a85bd0160e11b81526001600160a01b0385169063150b7a02906125639033908990889088906004016130cc565b6020604051808303816000875af192505050801561259e575060408051601f3d908101601f1916820190925261259b91810190613108565b60015b612643573d8080156125cc576040519150601f19603f3d011682016040523d82523d6000602084013e6125d1565b606091505b50805161263b5760405162461bcd60e51b815260206004820152603260248201527f4552433732313a207472616e7366657220746f206e6f6e20455243373231526560448201527131b2b4bb32b91034b6b83632b6b2b73a32b960711b6064820152608401610a27565b805181602001fd5b6001600160e01b031916630a85bd0160e11b1490506117c5565b506001949350505050565b60008082516041141561269f5760208301516040840151606085015160001a612693878285856129d5565b945094505050506126d1565b8251604014156126c957602083015160408401516126be868383612ac2565b9350935050506126d1565b506000905060025b9250929050565b60008160048111156126ec576126ec613125565b14156126f55750565b600181600481111561270957612709613125565b14156127575760405162461bcd60e51b815260206004820152601860248201527f45434453413a20696e76616c6964207369676e617475726500000000000000006044820152606401610a27565b600281600481111561276b5761276b613125565b14156127b95760405162461bcd60e51b815260206004820152601f60248201527f45434453413a20696e76616c6964207369676e6174757265206c656e677468006044820152606401610a27565b60038160048111156127cd576127cd613125565b14156128265760405162461bcd60e51b815260206004820152602260248201527f45434453413a20696e76616c6964207369676e6174757265202773272076616c604482015261756560f01b6064820152608401610a27565b600481600481111561283a5761283a613125565b1415610c2d5760405162461bcd60e51b815260206004820152602260248201527f45434453413a20696e76616c6964207369676e6174757265202776272076616c604482015261756560f01b6064820152608401610a27565b6001600160a01b0382166128e95760405162461bcd60e51b815260206004820181905260248201527f4552433732313a206d696e7420746f20746865207a65726f20616464726573736044820152606401610a27565b6000818152600260205260409020546001600160a01b03161561294e5760405162461bcd60e51b815260206004820152601c60248201527f4552433732313a20746f6b656e20616c7265616479206d696e746564000000006044820152606401610a27565b6001600160a01b038216600090815260036020526040812080546001929061297790849061303d565b909155505060008181526002602052604080822080546001600160a01b0319166001600160a01b03861690811790915590518392907fddf252ad1be2c89b69c2b068fc378daa952ba7f163c4a11628f55a4df523b3ef908290a45050565b6000807f7fffffffffffffffffffffffffffffff5d576e7357a4501ddfe92f46681b20a0831115612a0c5750600090506003612ab9565b8460ff16601b14158015612a2457508460ff16601c14155b15612a355750600090506004612ab9565b6040805160008082526020820180845289905260ff881692820192909252606081018690526080810185905260019060a0016020604051602081039080840390855afa158015612a89573d6000803e3d6000fd5b5050604051601f1901519150506001600160a01b038116612ab257600060019250925050612ab9565b9150600090505b94509492505050565b6000807f7fffffffffffffffffffffffffffffffffffffffffffffffffffffffffffffff831660ff84901c601b01612afc878288856129d5565b935093505050935093915050565b828054612b1690612f42565b90600052602060002090601f016020900481019282612b385760008555612b7e565b82601f10612b5157805160ff1916838001178555612b7e565b82800160010185558215612b7e579182015b82811115612b7e578251825591602001919060010190612b63565b50612b8a929150612b8e565b5090565b5b80821115612b8a5760008155600101612b8f565b6001600160e01b031981168114610c2d57600080fd5b600060208284031215612bcb57600080fd5b813561162581612ba3565b60005b83811015612bf1578181015183820152602001612bd9565b8381111561153d5750506000910152565b60008151808452612c1a816020860160208601612bd6565b601f01601f19169290920160200192915050565b6020815260006116256020830184612c02565b600060208284031215612c5357600080fd5b5035919050565b80356001600160a01b0381168114612c7157600080fd5b919050565b60008060408385031215612c8957600080fd5b612c9283612c5a565b946020939093013593505050565b600060208284031215612cb257600080fd5b61162582612c5a565b600080600060608486031215612cd057600080fd5b612cd984612c5a565b9250612ce760208501612c5a565b9150604084013590509250925092565b634e487b7160e01b600052604160045260246000fd5b600067ffffffffffffffff80841115612d2857612d28612cf7565b604051601f8501601f19908116603f01168101908282118183101715612d5057612d50612cf7565b81604052809350858152868686011115612d6957600080fd5b858560208301376000602087830101525050509392505050565b600060208284031215612d9557600080fd5b813567ffffffffffffffff811115612dac57600080fd5b8201601f81018413612dbd57600080fd5b6117c584823560208401612d0d565b60008060408385031215612ddf57600080fd5b612de883612c5a565b915060208301358015158114612dfd57600080fd5b809150509250929050565b600082601f830112612e1957600080fd5b61162583833560208501612d0d565b60008060008060808587031215612e3e57600080fd5b612e4785612c5a565b9350612e5560208601612c5a565b925060408501359150606085013567ffffffffffffffff811115612e7857600080fd5b612e8487828801612e08565b91505092959194509250565b60008060408385031215612ea357600080fd5b612eac83612c5a565b9150602083013567ffffffffffffffff811115612ec857600080fd5b612ed485828601612e08565b9150509250929050565b60008060408385031215612ef157600080fd5b612efa83612c5a565b9150612f0860208401612c5a565b90509250929050565b60008060408385031215612f2457600080fd5b82359150602083013567ffffffffffffffff811115612ec857600080fd5b600181811c90821680612f5657607f821691505b60208210811415612f7757634e487b7160e01b600052602260045260246000fd5b50919050565b634e487b7160e01b600052601160045260246000fd5b6000600019821415612fa757612fa7612f7d565b5060010190565b6000816000190483118215151615612fc857612fc8612f7d565b500290565b60008351612fdf818460208801612bd6565b835190830190612ff3818360208801612bd6565b01949350505050565b60008282101561300e5761300e612f7d565b500390565b634e487b7160e01b600052601260045260246000fd5b60008261303857613038613013565b500690565b6000821982111561305057613050612f7d565b500190565b6040815260006130686040830185612c02565b90506001600160a01b03831660208301529392505050565b6040815260006130936040830185612c02565b90508260208301529392505050565b6000826130b1576130b1613013565b500490565b634e487b7160e01b600052603260045260246000fd5b60006001600160a01b038087168352808616602084015250836040830152608060608301526130fe6080830184612c02565b9695505050505050565b60006020828403121561311a57600080fd5b815161162581612ba3565b634e487b7160e01b600052602160045260246000fdfe4f776e61626c653a2063616c6c6572206973206e6f7420746865206f776e6572a26469706673582212209a4535aa41885c491756ff8c735b59c44e9a18526b455c69e9af037ddc26b4fb64736f6c634300080c0033",
  "linkReferences": {},
  "deployedLinkReferences": {}
}