{
  "_format": "hh-sol-artifact-1",
  "contractName": "GMA",
  "sourceName": "contracts/GMA.sol",
  "abi": [
    {
      "inputs": [],
      "stateMutability": "nonpayable",
      "type": "constructor"
    },
    {
      "inputs": [],
      "name": "ApprovalCallerNotOwnerNorApproved",
      "type": "error"
    },
    {
      "inputs": [],
      "name": "ApprovalQueryForNonexistentToken",
      "type": "error"
    },
    {
      "inputs": [],
      "name": "ApprovalToCurrentOwner",
      "type": "error"
    },
    {
      "inputs": [],
      "name": "ApproveToCaller",
      "type": "error"
    },
    {
      "inputs": [],
      "name": "BalanceQueryForZeroAddress",
      "type": "error"
    },
    {
      "inputs": [],
      "name": "MintToZeroAddress",
      "type": "error"
    },
    {
      "inputs": [],
      "name": "MintZeroQuantity",
      "type": "error"
    },
    {
      "inputs": [],
      "name": "OwnerQueryForNonexistentToken",
      "type": "error"
    },
    {
      "inputs": [],
      "name": "TransferCallerNotOwnerNorApproved",
      "type": "error"
    },
    {
      "inputs": [],
      "name": "TransferFromIncorrectOwner",
      "type": "error"
    },
    {
      "inputs": [],
      "name": "TransferToNonERC721ReceiverImplementer",
      "type": "error"
    },
    {
      "inputs": [],
      "name": "TransferToZeroAddress",
      "type": "error"
    },
    {
      "inputs": [],
      "name": "URIQueryForNonexistentToken",
      "type": "error"
    },
    {
      "anonymous": false,
      "inputs": [
        {
          "indexed": false,
          "internalType": "bool",
          "name": "status",
          "type": "bool"
        }
      ],
      "name": "AllowStatus",
      "type": "event"
    },
    {
      "anonymous": false,
      "inputs": [
        {
          "indexed": true,
          "internalType": "address",
          "name": "owner",
          "type": "address"
        },
        {
          "indexed": true,
          "internalType": "address",
          "name": "approved",
          "type": "address"
        },
        {
          "indexed": true,
          "internalType": "uint256",
          "name": "tokenId",
          "type": "uint256"
        }
      ],
      "name": "Approval",
      "type": "event"
    },
    {
      "anonymous": false,
      "inputs": [
        {
          "indexed": true,
          "internalType": "address",
          "name": "owner",
          "type": "address"
        },
        {
          "indexed": true,
          "internalType": "address",
          "name": "operator",
          "type": "address"
        },
        {
          "indexed": false,
          "internalType": "bool",
          "name": "approved",
          "type": "bool"
        }
      ],
      "name": "ApprovalForAll",
      "type": "event"
    },
    {
      "anonymous": false,
      "inputs": [
        {
          "indexed": false,
          "internalType": "bool",
          "name": "status",
          "type": "bool"
        }
      ],
      "name": "BoostStatus",
      "type": "event"
    },
    {
      "anonymous": false,
      "inputs": [
        {
          "indexed": false,
          "internalType": "address",
          "name": "sender",
          "type": "address"
        },
        {
          "indexed": false,
          "internalType": "uint256",
          "name": "tokenId",
          "type": "uint256"
        },
        {
          "indexed": false,
          "internalType": "uint256",
          "name": "amount",
          "type": "uint256"
        }
      ],
      "name": "GMMinted",
      "type": "event"
    },
    {
      "anonymous": false,
      "inputs": [
        {
          "indexed": false,
          "internalType": "bool",
          "name": "status",
          "type": "bool"
        }
      ],
      "name": "MintPassStatus",
      "type": "event"
    },
    {
      "anonymous": false,
      "inputs": [
        {
          "indexed": true,
          "internalType": "address",
          "name": "previousOwner",
          "type": "address"
        },
        {
          "indexed": true,
          "internalType": "address",
          "name": "newOwner",
          "type": "address"
        }
      ],
      "name": "OwnershipTransferred",
      "type": "event"
    },
    {
      "anonymous": false,
      "inputs": [
        {
          "indexed": false,
          "internalType": "bool",
          "name": "status",
          "type": "bool"
        }
      ],
      "name": "PublicStatus",
      "type": "event"
    },
    {
      "anonymous": false,
      "inputs": [
        {
          "indexed": true,
          "internalType": "address",
          "name": "from",
          "type": "address"
        },
        {
          "indexed": true,
          "internalType": "address",
          "name": "to",
          "type": "address"
        },
        {
          "indexed": true,
          "internalType": "uint256",
          "name": "tokenId",
          "type": "uint256"
        }
      ],
      "name": "Transfer",
      "type": "event"
    },
    {
      "inputs": [],
      "name": "ALLOW",
      "outputs": [
        {
          "internalType": "bool",
          "name": "",
          "type": "bool"
        }
      ],
      "stateMutability": "view",
      "type": "function"
    },
    {
      "inputs": [],
      "name": "ALLOW_MAX",
      "outputs": [
        {
          "internalType": "uint256",
          "name": "",
          "type": "uint256"
        }
      ],
      "stateMutability": "view",
      "type": "function"
    },
    {
      "inputs": [],
      "name": "BOOSTER",
      "outputs": [
        {
          "internalType": "bool",
          "name": "",
          "type": "bool"
        }
      ],
      "stateMutability": "view",
      "type": "function"
    },
    {
      "inputs": [],
      "name": "BOOSTER_MAX",
      "outputs": [
        {
          "internalType": "uint256",
          "name": "",
          "type": "uint256"
        }
      ],
      "stateMutability": "view",
      "type": "function"
    },
    {
      "inputs": [],
      "name": "BOOSTER_PACK_ID",
      "outputs": [
        {
          "internalType": "uint256",
          "name": "",
          "type": "uint256"
        }
      ],
      "stateMutability": "view",
      "type": "function"
    },
    {
      "inputs": [],
      "name": "GENERAL_SUPPLY",
      "outputs": [
        {
          "internalType": "uint256",
          "name": "",
          "type": "uint256"
        }
      ],
      "stateMutability": "view",
      "type": "function"
    },
    {
      "inputs": [],
      "name": "GMEditionsAddress",
      "outputs": [
        {
          "internalType": "address",
          "name": "",
          "type": "address"
        }
      ],
      "stateMutability": "view",
      "type": "function"
    },
    {
      "inputs": [],
      "name": "MINTPASS",
      "outputs": [
        {
          "internalType": "bool",
          "name": "",
          "type": "bool"
        }
      ],
      "stateMutability": "view",
      "type": "function"
    },
    {
      "inputs": [],
      "name": "MINTPASS_MAX",
      "outputs": [
        {
          "internalType": "uint256",
          "name": "",
          "type": "uint256"
        }
      ],
      "stateMutability": "view",
      "type": "function"
    },
    {
      "inputs": [],
      "name": "MINT_PASS_ID",
      "outputs": [
        {
          "internalType": "uint256",
          "name": "",
          "type": "uint256"
        }
      ],
      "stateMutability": "view",
      "type": "function"
    },
    {
      "inputs": [],
      "name": "PUBLIC",
      "outputs": [
        {
          "internalType": "bool",
          "name": "",
          "type": "bool"
        }
      ],
      "stateMutability": "view",
      "type": "function"
    },
    {
      "inputs": [],
      "name": "allowMintMax",
      "outputs": [
        {
          "internalType": "uint256",
          "name": "",
          "type": "uint256"
        }
      ],
      "stateMutability": "view",
      "type": "function"
    },
    {
      "inputs": [
        {
          "internalType": "address",
          "name": "to",
          "type": "address"
        },
        {
          "internalType": "uint256",
          "name": "tokenId",
          "type": "uint256"
        }
      ],
      "name": "approve",
      "outputs": [],
      "stateMutability": "nonpayable",
      "type": "function"
    },
    {
      "inputs": [
        {
          "internalType": "address",
          "name": "owner",
          "type": "address"
        }
      ],
      "name": "balanceOf",
      "outputs": [
        {
          "internalType": "uint256",
          "name": "",
          "type": "uint256"
        }
      ],
      "stateMutability": "view",
      "type": "function"
    },
    {
      "inputs": [],
      "name": "boosterPacksOpened",
      "outputs": [
        {
          "internalType": "uint256",
          "name": "",
          "type": "uint256"
        }
      ],
      "stateMutability": "view",
      "type": "function"
    },
    {
      "inputs": [],
      "name": "contractURI",
      "outputs": [
        {
          "internalType": "string",
          "name": "",
          "type": "string"
        }
      ],
      "stateMutability": "view",
      "type": "function"
    },
    {
      "inputs": [],
      "name": "flipAllowState",
      "outputs": [],
      "stateMutability": "nonpayable",
      "type": "function"
    },
    {
      "inputs": [],
      "name": "flipBoosterState",
      "outputs": [],
      "stateMutability": "nonpayable",
      "type": "function"
    },
    {
      "inputs": [],
      "name": "flipPassState",
      "outputs": [],
      "stateMutability": "nonpayable",
      "type": "function"
    },
    {
      "inputs": [],
      "name": "flipPublicState",
      "outputs": [],
      "stateMutability": "nonpayable",
      "type": "function"
    },
    {
      "inputs": [],
      "name": "genPrizeIndex",
      "outputs": [],
      "stateMutability": "nonpayable",
      "type": "function"
    },
    {
      "inputs": [],
      "name": "genStartingIndex",
      "outputs": [],
      "stateMutability": "nonpayable",
      "type": "function"
    },
    {
      "inputs": [
        {
          "internalType": "uint256",
          "name": "tokenId",
          "type": "uint256"
        }
      ],
      "name": "getApproved",
      "outputs": [
        {
          "internalType": "address",
          "name": "",
          "type": "address"
        }
      ],
      "stateMutability": "view",
      "type": "function"
    },
    {
      "inputs": [
        {
          "internalType": "address",
          "name": "owner",
          "type": "address"
        },
        {
          "internalType": "address",
          "name": "operator",
          "type": "address"
        }
      ],
      "name": "isApprovedForAll",
      "outputs": [
        {
          "internalType": "bool",
          "name": "",
          "type": "bool"
        }
      ],
      "stateMutability": "view",
      "type": "function"
    },
    {
      "inputs": [
        {
          "internalType": "uint256",
          "name": "_amount",
          "type": "uint256"
        }
      ],
      "name": "mint",
      "outputs": [],
      "stateMutability": "payable",
      "type": "function"
    },
    {
      "inputs": [
        {
          "internalType": "uint256",
          "name": "_amount",
          "type": "uint256"
        },
        {
          "internalType": "bytes",
          "name": "signature",
          "type": "bytes"
        }
      ],
      "name": "mintAllow",
      "outputs": [],
      "stateMutability": "payable",
      "type": "function"
    },
    {
      "inputs": [
        {
          "internalType": "address",
          "name": "",
          "type": "address"
        }
      ],
      "name": "mintList",
      "outputs": [
        {
          "internalType": "uint256",
          "name": "",
          "type": "uint256"
        }
      ],
      "stateMutability": "view",
      "type": "function"
    },
    {
      "inputs": [],
      "name": "mintPassUsed",
      "outputs": [
        {
          "internalType": "uint256",
          "name": "",
          "type": "uint256"
        }
      ],
      "stateMutability": "view",
      "type": "function"
    },
    {
      "inputs": [],
      "name": "mintWithBoosterPack",
      "outputs": [],
      "stateMutability": "nonpayable",
      "type": "function"
    },
    {
      "inputs": [],
      "name": "mintWithPass",
      "outputs": [],
      "stateMutability": "nonpayable",
      "type": "function"
    },
    {
      "inputs": [],
      "name": "name",
      "outputs": [
        {
          "internalType": "string",
          "name": "",
          "type": "string"
        }
      ],
      "stateMutability": "view",
      "type": "function"
    },
    {
      "inputs": [],
      "name": "owner",
      "outputs": [
        {
          "internalType": "address",
          "name": "",
          "type": "address"
        }
      ],
      "stateMutability": "view",
      "type": "function"
    },
    {
      "inputs": [
        {
          "internalType": "uint256",
          "name": "tokenId",
          "type": "uint256"
        }
      ],
      "name": "ownerOf",
      "outputs": [
        {
          "internalType": "address",
          "name": "",
          "type": "address"
        }
      ],
      "stateMutability": "view",
      "type": "function"
    },
    {
      "inputs": [],
      "name": "price",
      "outputs": [
        {
          "internalType": "uint256",
          "name": "",
          "type": "uint256"
        }
      ],
      "stateMutability": "view",
      "type": "function"
    },
    {
      "inputs": [],
      "name": "prizeIndex",
      "outputs": [
        {
          "internalType": "uint256",
          "name": "",
          "type": "uint256"
        }
      ],
      "stateMutability": "view",
      "type": "function"
    },
    {
      "inputs": [],
      "name": "publicMintMax",
      "outputs": [
        {
          "internalType": "uint256",
          "name": "",
          "type": "uint256"
        }
      ],
      "stateMutability": "view",
      "type": "function"
    },
    {
      "inputs": [
        {
          "internalType": "address",
          "name": "_address",
          "type": "address"
        },
        {
          "internalType": "bytes",
          "name": "signature",
          "type": "bytes"
        }
      ],
      "name": "recoverSigner",
      "outputs": [
        {
          "internalType": "address",
          "name": "",
          "type": "address"
        }
      ],
      "stateMutability": "pure",
      "type": "function"
    },
    {
      "inputs": [],
      "name": "renounceOwnership",
      "outputs": [],
      "stateMutability": "nonpayable",
      "type": "function"
    },
    {
      "inputs": [
        {
          "internalType": "address",
          "name": "from",
          "type": "address"
        },
        {
          "internalType": "address",
          "name": "to",
          "type": "address"
        },
        {
          "internalType": "uint256",
          "name": "tokenId",
          "type": "uint256"
        }
      ],
      "name": "safeTransferFrom",
      "outputs": [],
      "stateMutability": "nonpayable",
      "type": "function"
    },
    {
      "inputs": [
        {
          "internalType": "address",
          "name": "from",
          "type": "address"
        },
        {
          "internalType": "address",
          "name": "to",
          "type": "address"
        },
        {
          "internalType": "uint256",
          "name": "tokenId",
          "type": "uint256"
        },
        {
          "internalType": "bytes",
          "name": "_data",
          "type": "bytes"
        }
      ],
      "name": "safeTransferFrom",
      "outputs": [],
      "stateMutability": "nonpayable",
      "type": "function"
    },
    {
      "inputs": [
        {
          "internalType": "address",
          "name": "operator",
          "type": "address"
        },
        {
          "internalType": "bool",
          "name": "approved",
          "type": "bool"
        }
      ],
      "name": "setApprovalForAll",
      "outputs": [],
      "stateMutability": "nonpayable",
      "type": "function"
    },
    {
      "inputs": [
        {
          "internalType": "string",
          "name": "newURI",
          "type": "string"
        }
      ],
      "name": "setBaseURI",
      "outputs": [],
      "stateMutability": "nonpayable",
      "type": "function"
    },
    {
      "inputs": [
        {
          "internalType": "string",
          "name": "uri",
          "type": "string"
        }
      ],
      "name": "setContractURI",
      "outputs": [],
      "stateMutability": "nonpayable",
      "type": "function"
    },
    {
      "inputs": [
        {
          "internalType": "address",
          "name": "_GMEditionsAddress",
          "type": "address"
        }
      ],
      "name": "setMerchAddress",
      "outputs": [],
      "stateMutability": "nonpayable",
      "type": "function"
    },
    {
      "inputs": [
        {
          "internalType": "uint256",
          "name": "_max",
          "type": "uint256"
        }
      ],
      "name": "setNewAllowMax",
      "outputs": [],
      "stateMutability": "nonpayable",
      "type": "function"
    },
    {
      "inputs": [
        {
          "internalType": "uint256",
          "name": "_price",
          "type": "uint256"
        }
      ],
      "name": "setNewPrice",
      "outputs": [],
      "stateMutability": "nonpayable",
      "type": "function"
    },
    {
      "inputs": [
        {
          "internalType": "uint256",
          "name": "_max",
          "type": "uint256"
        }
      ],
      "name": "setNewPublicMax",
      "outputs": [],
      "stateMutability": "nonpayable",
      "type": "function"
    },
    {
      "inputs": [],
      "name": "startingIndex",
      "outputs": [
        {
          "internalType": "uint256",
          "name": "",
          "type": "uint256"
        }
      ],
      "stateMutability": "view",
      "type": "function"
    },
    {
      "inputs": [
        {
          "internalType": "bytes4",
          "name": "interfaceId",
          "type": "bytes4"
        }
      ],
      "name": "supportsInterface",
      "outputs": [
        {
          "internalType": "bool",
          "name": "",
          "type": "bool"
        }
      ],
      "stateMutability": "view",
      "type": "function"
    },
    {
      "inputs": [],
      "name": "symbol",
      "outputs": [
        {
          "internalType": "string",
          "name": "",
          "type": "string"
        }
      ],
      "stateMutability": "view",
      "type": "function"
    },
    {
      "inputs": [
        {
          "internalType": "uint256",
          "name": "tokenId",
          "type": "uint256"
        }
      ],
      "name": "tokenURI",
      "outputs": [
        {
          "internalType": "string",
          "name": "",
          "type": "string"
        }
      ],
      "stateMutability": "view",
      "type": "function"
    },
    {
      "inputs": [],
      "name": "totalSupply",
      "outputs": [
        {
          "internalType": "uint256",
          "name": "",
          "type": "uint256"
        }
      ],
      "stateMutability": "view",
      "type": "function"
    },
    {
      "inputs": [
        {
          "internalType": "address",
          "name": "from",
          "type": "address"
        },
        {
          "internalType": "address",
          "name": "to",
          "type": "address"
        },
        {
          "internalType": "uint256",
          "name": "tokenId",
          "type": "uint256"
        }
      ],
      "name": "transferFrom",
      "outputs": [],
      "stateMutability": "nonpayable",
      "type": "function"
    },
    {
      "inputs": [
        {
          "internalType": "address",
          "name": "newOwner",
          "type": "address"
        }
      ],
      "name": "transferOwnership",
      "outputs": [],
      "stateMutability": "nonpayable",
      "type": "function"
    },
    {
      "inputs": [],
      "name": "withdraw",
      "outputs": [],
      "stateMutability": "nonpayable",
      "type": "function"
    }
  ],
  "bytecode": "0x6080604052600980546001600160a01b0319167366722f13f6e5dceb94c5f2ab8e6a2028039e83931790556001600a556002600b819055612328600c55611b58600d5560fa600e819055600f5560036010556011556701118f178fb480006012556017805463ffffffff191690553480156200007a57600080fd5b5060405180604001604052806003815260200162474d4160e81b81525060405180604001604052806002815260200161474d60f01b8152508160029080519060200190620000ca9291906200014b565b508051620000e09060039060208401906200014b565b5050600160005550620000f333620000f9565b6200022e565b600880546001600160a01b038381166001600160a01b0319831681179093556040519116919082907f8be0079c531659141344cd1fd0a4f28419497f9722a3daafe3b4186f6b6457e090600090a35050565b8280546200015990620001f1565b90600052602060002090601f0160209004810192826200017d5760008555620001c8565b82601f106200019857805160ff1916838001178555620001c8565b82800160010185558215620001c8579182015b82811115620001c8578251825591602001919060010190620001ab565b50620001d6929150620001da565b5090565b5b80821115620001d65760008155600101620001db565b600181811c908216806200020657607f821691505b602082108114156200022857634e487b7160e01b600052602260045260246000fd5b50919050565b613396806200023e6000396000f3fe6080604052600436106103605760003560e01c8063a12cc9d8116101c6578063d0d03ba3116100f7578063ee8cdd4e11610095578063f6b6f2ba1161006f578063f6b6f2ba1461093b578063f8c3e57814610951578063face47fc14610967578063fd17af091461097c57600080fd5b8063ee8cdd4e146108e6578063f2fde38b14610906578063f3c9237c1461092657600080fd5b8063e4ffe7d7116100d1578063e4ffe7d714610852578063e53e3a0414610868578063e8a3d48514610888578063e985e9c51461089d57600080fd5b8063d0d03ba314610811578063d98e302814610826578063da858dd81461083c57600080fd5b8063c1179a7f11610164578063ca6b40f81161013e578063ca6b40f8146107bb578063cb774d47146107d0578063cbcf4a84146107e6578063d025a4e0146107fb57600080fd5b8063c1179a7f1461076b578063c11d561c14610785578063c87b56dd1461079b57600080fd5b8063b83b3033116101a0578063b83b3033146106f2578063b88d4fde14610708578063bef432c614610728578063bf89e3d91461075557600080fd5b8063a12cc9d8146106a7578063a22cb465146106bd578063b17669b9146106dd57600080fd5b80635f9b96f8116102a0578063882b18081161023e57806395d89b411161021857806395d89b41146106545780639757f8ec14610669578063a035b1fe1461067e578063a0712d681461069457600080fd5b8063882b1808146106015780638da5cb5b14610616578063938e3d7b1461063457600080fd5b8063715018a61161027a578063715018a61461058b578063725896ac146105a057806375b0ffd1146105c05780637d5b2008146105e157600080fd5b80635f9b96f81461052b5780636352211e1461054b57806370a082311461056b57600080fd5b806318160ddd1161030d57806323b872dd116102e757806323b872dd146104b65780633ccfd60b146104d657806342842e0e146104eb57806355f804b31461050b57600080fd5b806318160ddd146104595780631e5a41b814610476578063221c088f1461049657600080fd5b8063095ea7b31161033e578063095ea7b3146103f45780630b5dfc39146104165780631166d34e1461043557600080fd5b806301ffc9a71461036557806306fdde031461039a578063081812fc146103bc575b600080fd5b34801561037157600080fd5b50610385610380366004612d95565b61098f565b60405190151581526020015b60405180910390f35b3480156103a657600080fd5b506103af610a2c565b6040516103919190612e0a565b3480156103c857600080fd5b506103dc6103d7366004612e1d565b610abe565b6040516001600160a01b039091168152602001610391565b34801561040057600080fd5b5061041461040f366004612e52565b610b1b565b005b34801561042257600080fd5b5060175461038590610100900460ff1681565b34801561044157600080fd5b5061044b60145481565b604051908152602001610391565b34801561046557600080fd5b50600154600054036000190161044b565b34801561048257600080fd5b50610414610491366004612e7c565b610bdb565b3480156104a257600080fd5b506104146104b1366004612e1d565b610c57565b3480156104c257600080fd5b506104146104d1366004612e97565b610ca4565b3480156104e257600080fd5b50610414610caf565b3480156104f757600080fd5b50610414610506366004612e97565b610d95565b34801561051757600080fd5b50610414610526366004612f5f565b610db0565b34801561053757600080fd5b506009546103dc906001600160a01b031681565b34801561055757600080fd5b506103dc610566366004612e1d565b610e0b565b34801561057757600080fd5b5061044b610586366004612e7c565b610e1d565b34801561059757600080fd5b50610414610e85565b3480156105ac57600080fd5b506017546103859062010000900460ff1681565b3480156105cc57600080fd5b50601754610385906301000000900460ff1681565b3480156105ed57600080fd5b506104146105fc366004612e1d565b610ed9565b34801561060d57600080fd5b50610414610f26565b34801561062257600080fd5b506008546001600160a01b03166103dc565b34801561064057600080fd5b5061041461064f366004612f5f565b610fbc565b34801561066057600080fd5b506103af611017565b34801561067557600080fd5b50610414611026565b34801561068a57600080fd5b5061044b60125481565b6104146106a2366004612e1d565b6111ca565b3480156106b357600080fd5b5061044b60135481565b3480156106c957600080fd5b506104146106d8366004612fa8565b61141b565b3480156106e957600080fd5b506104146114ca565b3480156106fe57600080fd5b5061044b600e5481565b34801561071457600080fd5b50610414610723366004613004565b61156e565b34801561073457600080fd5b5061044b610743366004612e7c565b601a6020526000908152604090205481565b34801561076157600080fd5b5061044b600a5481565b34801561077757600080fd5b506017546103859060ff1681565b34801561079157600080fd5b5061044b600b5481565b3480156107a757600080fd5b506103af6107b6366004612e1d565b6115bf565b3480156107c757600080fd5b5061041461165d565b3480156107dc57600080fd5b5061044b60155481565b3480156107f257600080fd5b506104146116ff565b34801561080757600080fd5b5061044b60105481565b34801561081d57600080fd5b506104146117a2565b34801561083257600080fd5b5061044b600c5481565b34801561084857600080fd5b5061044b600f5481565b34801561085e57600080fd5b5061044b60165481565b34801561087457600080fd5b506103dc61088336600461306c565b611845565b34801561089457600080fd5b506103af6118dc565b3480156108a957600080fd5b506103856108b83660046130ba565b6001600160a01b03918216600090815260076020908152604080832093909416825291909152205460ff1690565b3480156108f257600080fd5b50610414610901366004612e1d565b6118eb565b34801561091257600080fd5b50610414610921366004612e7c565b611938565b34801561093257600080fd5b50610414611a05565b34801561094757600080fd5b5061044b60115481565b34801561095d57600080fd5b5061044b600d5481565b34801561097357600080fd5b50610414611aa5565b61041461098a3660046130ed565b611c56565b60006001600160e01b031982167f80ac58cd0000000000000000000000000000000000000000000000000000000014806109f257506001600160e01b031982167f5b5e139f00000000000000000000000000000000000000000000000000000000145b80610a2657507f01ffc9a7000000000000000000000000000000000000000000000000000000006001600160e01b03198316145b92915050565b606060028054610a3b9061311e565b80601f0160208091040260200160405190810160405280929190818152602001828054610a679061311e565b8015610ab45780601f10610a8957610100808354040283529160200191610ab4565b820191906000526020600020905b815481529060010190602001808311610a9757829003601f168201915b5050505050905090565b6000610ac982611f05565b610aff576040517fcf4700e400000000000000000000000000000000000000000000000000000000815260040160405180910390fd5b506000908152600660205260409020546001600160a01b031690565b6000610b2682610e0b565b9050806001600160a01b0316836001600160a01b03161415610b74576040517f943f7b8c00000000000000000000000000000000000000000000000000000000815260040160405180910390fd5b336001600160a01b03821614801590610b945750610b9281336108b8565b155b15610bcb576040517fcfb3b94200000000000000000000000000000000000000000000000000000000815260040160405180910390fd5b610bd6838383611f3e565b505050565b6008546001600160a01b03163314610c285760405162461bcd60e51b8152602060048201819052602482015260008051602061334183398151915260448201526064015b60405180910390fd5b6009805473ffffffffffffffffffffffffffffffffffffffff19166001600160a01b0392909216919091179055565b6008546001600160a01b03163314610c9f5760405162461bcd60e51b815260206004820181905260248201526000805160206133418339815191526044820152606401610c1f565b601055565b610bd6838383611fa7565b6008546001600160a01b03163314610cf75760405162461bcd60e51b815260206004820181905260248201526000805160206133418339815191526044820152606401610c1f565b6040514790600090339083908381818185875af1925050503d8060008114610d3b576040519150601f19603f3d011682016040523d82523d6000602084013e610d40565b606091505b5050905080610d915760405162461bcd60e51b815260206004820152601960248201527f4661696c656420746f20776964746864726177204574686572000000000000006044820152606401610c1f565b5050565b610bd68383836040518060200160405280600081525061156e565b6008546001600160a01b03163314610df85760405162461bcd60e51b815260206004820181905260248201526000805160206133418339815191526044820152606401610c1f565b8051610d91906018906020840190612ce6565b6000610e16826121e3565b5192915050565b60006001600160a01b038216610e5f576040517f8f4eb60400000000000000000000000000000000000000000000000000000000815260040160405180910390fd5b506001600160a01b031660009081526005602052604090205467ffffffffffffffff1690565b6008546001600160a01b03163314610ecd5760405162461bcd60e51b815260206004820181905260248201526000805160206133418339815191526044820152606401610c1f565b610ed76000612325565b565b6008546001600160a01b03163314610f215760405162461bcd60e51b815260206004820181905260248201526000805160206133418339815191526044820152606401610c1f565b601155565b6008546001600160a01b03163314610f6e5760405162461bcd60e51b815260206004820181905260248201526000805160206133418339815191526044820152606401610c1f565b6017805460ff8082161560ff1990921682179092556040519116151581527fa1a6774a405a5fcfb44fb66b9f85585f8d55822c54a4f55b1f7d8695c9411a7b906020015b60405180910390a1565b6008546001600160a01b031633146110045760405162461bcd60e51b815260206004820181905260248201526000805160206133418339815191526044820152606401610c1f565b8051610d91906019906020840190612ce6565b606060038054610a3b9061311e565b6017546301000000900460ff166110a45760405162461bcd60e51b8152602060048201526024808201527f4d494e54494e47205749544820424f4f53544552205041434b202d204e4f542060448201527f4f50454e000000000000000000000000000000000000000000000000000000006064820152608401610c1f565b600954600b54604051633477cc1b60e21b815233600482015260248101919091526001600160a01b039091169063d1df306c90604401600060405180830381600087803b1580156110f457600080fd5b505af1158015611108573d6000803e3d6000fd5b5050600054604080513381526020810192909252600382820152517fa3a54c26d4c468274affa0a1ec9c9f8a2d6bef5dbced695c9f2a689b52a012469350908190036060019150a160408051808201909152601181527f20626f6f7374657220257320257320257300000000000000000000000000000060208201526000546111aa919061119781600161316f565b6000546111a590600261316f565b612384565b6111b53360036123e6565b6014600081546111c490613187565b90915550565b60175460ff1661121c5760405162461bcd60e51b815260206004820152601260248201527f4d494e54494e47202d204e4f54204f50454e00000000000000000000000000006044820152606401610c1f565b60105481111561126e5760405162461bcd60e51b815260206004820152601160248201527f41424f5645204d4158204d4f4e4b45595a0000000000000000000000000000006044820152606401610c1f565b8060125461127c91906131a2565b3410156112cb5760405162461bcd60e51b815260206004820152601360248201527f4e6f7420656e6f756768204554482073656e74000000000000000000000000006044820152606401610c1f565b6112d3612400565b60015460005483919003600019016112eb919061316f565b11156113395760405162461bcd60e51b815260206004820152601a60248201527f5075626c696320416c6c6f636174696f6e20536f6c64206f75740000000000006044820152606401610c1f565b3332146113885760405162461bcd60e51b815260206004820152600760248201527f6e6f20626f7473000000000000000000000000000000000000000000000000006044820152606401610c1f565b60005460408051338152602081019290925281018290527fa3a54c26d4c468274affa0a1ec9c9f8a2d6bef5dbced695c9f2a689b52a012469060600160405180910390a161140e6040518060400160405280600b81526020017f206d696e7420257320257300000000000000000000000000000000000000000081525060005483612430565b61141833826123e6565b50565b6001600160a01b03821633141561145e576040517fb06307db00000000000000000000000000000000000000000000000000000000815260040160405180910390fd5b3360008181526007602090815260408083206001600160a01b03871680855290835292819020805460ff191686151590811790915590519081529192917f17307eab39ab6107e8899845ad3d59bd9653f200f220920489ca2b5937696c31910160405180910390a35050565b6008546001600160a01b031633146115125760405162461bcd60e51b815260206004820181905260248201526000805160206133418339815191526044820152606401610c1f565b6017805460ff6301000000808304821615810263ff0000001990931692909217928390556040517fc9506c77e986e37c2d83971790f9e8ba5396e09dc35d5302040cfa37204c9b0293610fb29390049091161515815260200190565b611579848484611fa7565b6001600160a01b0383163b1515801561159b575061159984848484612490565b155b156115b9576040516368d2bf6b60e11b815260040160405180910390fd5b50505050565b60606115ca82611f05565b611600576040517fa14c4b5000000000000000000000000000000000000000000000000000000000815260040160405180910390fd5b600061160a612578565b905080516000141561162b5760405180602001604052806000815250611656565b8061163584612587565b6040516020016116469291906131c1565b6040516020818303038152906040525b9392505050565b6008546001600160a01b031633146116a55760405162461bcd60e51b815260206004820181905260248201526000805160206133418339815191526044820152606401610c1f565b6017805460ff62010000808304821615810262ff00001990931692909217928390556040517f080b3e5d8d1bb1f23740b136e59393672a65dfa763769ddc24b0385ea8c8b84293610fb29390049091161515815260200190565b6008546001600160a01b031633146117475760405162461bcd60e51b815260206004820181905260248201526000805160206133418339815191526044820152606401610c1f565b6127106117556001436131f0565b61176091904061321d565b601581905560408051808201909152601081527f5354415254494e4720494e4445583a20000000000000000000000000000000006020820152610ed7916126b9565b6008546001600160a01b031633146117ea5760405162461bcd60e51b815260206004820181905260248201526000805160206133418339815191526044820152606401610c1f565b611b586117f86001436131f0565b61180391904061321d565b601681905560408051808201909152600d81527f5072697a6520494e4445583a20000000000000000000000000000000000000006020820152610ed7916126b9565b6040516bffffffffffffffffffffffff19606084901b166020820152600090819060340160408051601f198184030181529082905280516020918201207f19457468657265756d205369676e6564204d6573736167653a0a33320000000091830191909152603c820152605c016040516020818303038152906040528051906020012090506118d48184612717565b949350505050565b606060198054610a3b9061311e565b6008546001600160a01b031633146119335760405162461bcd60e51b815260206004820181905260248201526000805160206133418339815191526044820152606401610c1f565b601255565b6008546001600160a01b031633146119805760405162461bcd60e51b815260206004820181905260248201526000805160206133418339815191526044820152606401610c1f565b6001600160a01b0381166119fc5760405162461bcd60e51b815260206004820152602660248201527f4f776e61626c653a206e6577206f776e657220697320746865207a65726f206160448201527f64647265737300000000000000000000000000000000000000000000000000006064820152608401610c1f565b61141881612325565b6008546001600160a01b03163314611a4d5760405162461bcd60e51b815260206004820181905260248201526000805160206133418339815191526044820152606401610c1f565b6017805460ff610100808304821615810261ff001990931692909217928390556040517fe5e08b5a583973071c5df7f5da64b39b874e78e79697f329dcb93525ee2c70cc93610fb29390049091161515815260200190565b60175462010000900460ff16611afd5760405162461bcd60e51b815260206004820152601c60248201527f4d494e54494e4720574954482050415353202d204e4f54204f50454e000000006044820152606401610c1f565b600e5460135410611b505760405162461bcd60e51b815260206004820152601960248201527f4d494e54205041535320414c4c4f434154494f4e2055534544000000000000006044820152606401610c1f565b600954600a54604051633477cc1b60e21b815233600482015260248101919091526001600160a01b039091169063d1df306c90604401600060405180830381600087803b158015611ba057600080fd5b505af1158015611bb4573d6000803e3d6000fd5b50505050611bf96040518060400160405280600b81526020017f204d494e545041535325730000000000000000000000000000000000000000008152506000546126b9565b600054604080513381526020810192909252600182820152517fa3a54c26d4c468274affa0a1ec9c9f8a2d6bef5dbced695c9f2a689b52a012469181900360600190a1611c473360016123e6565b6013600081546111c490613187565b601754610100900460ff16611cad5760405162461bcd60e51b815260206004820152601d60248201527f4d494e54494e4720414c4c4f57204c495354202d204e4f54204f50454e0000006044820152606401610c1f565b81601254611cbb91906131a2565b341015611d0a5760405162461bcd60e51b815260206004820152601360248201527f4e6f7420656e6f756768204554482073656e74000000000000000000000000006044820152606401610c1f565b601354600d54611d1a919061316f565b6001546000548491900360001901611d32919061316f565b1115611d805760405162461bcd60e51b815260206004820152601360248201527f414c4c4f57206c69737420536f6c64206f7574000000000000000000000000006044820152606401610c1f565b6008546001600160a01b0316611d963383611845565b6001600160a01b031614611dec5760405162461bcd60e51b815260206004820152601a60248201527f41646472657373206973206e6f7420616c6c6f776c69737465640000000000006044820152606401610c1f565b601154336000908152601a6020526040902054611e0a90849061316f565b1115611e585760405162461bcd60e51b815260206004820152601860248201527f41424f5645204d4158204d494e545320524553455256454400000000000000006044820152606401610c1f565b60408051808201909152600c81527f20616c6c6f7720257320257300000000000000000000000000000000000000006020820152600054611ea49190611e9f81600161316f565b612430565b60005460408051338152602081019290925281018390527fa3a54c26d4c468274affa0a1ec9c9f8a2d6bef5dbced695c9f2a689b52a012469060600160405180910390a1611ef233836123e6565b50336000908152601a6020526040902055565b600081600111158015611f19575060005482105b8015610a26575050600090815260046020526040902054600160e01b900460ff161590565b600082815260066020526040808220805473ffffffffffffffffffffffffffffffffffffffff19166001600160a01b0387811691821790925591518593918516917f8c5be1e5ebec7d5bd14f71427d1e84f3dd0314c0f7b2291e5b200ac8c7c3b92591a4505050565b6000611fb2826121e3565b9050836001600160a01b031681600001516001600160a01b031614612003576040517fa114810000000000000000000000000000000000000000000000000000000000815260040160405180910390fd5b6000336001600160a01b0386161480612021575061202185336108b8565b8061203c57503361203184610abe565b6001600160a01b0316145b905080612075576040517f59c896be00000000000000000000000000000000000000000000000000000000815260040160405180910390fd5b6001600160a01b0384166120b5576040517fea553b3400000000000000000000000000000000000000000000000000000000815260040160405180910390fd5b6120c160008487611f3e565b6001600160a01b038581166000908152600560209081526040808320805467ffffffffffffffff1980821667ffffffffffffffff92831660001901831617909255898616808652838620805493841693831660019081018416949094179055898652600490945282852080546001600160e01b031916909417600160a01b42909216919091021783558701808452922080549193909116612197576000548214612197578054602086015167ffffffffffffffff16600160a01b026001600160e01b03199091166001600160a01b038a16171781555b50505082846001600160a01b0316866001600160a01b03167fddf252ad1be2c89b69c2b068fc378daa952ba7f163c4a11628f55a4df523b3ef60405160405180910390a45b5050505050565b60408051606081018252600080825260208201819052918101919091528180600111158015612213575060005481105b156122f357600081815260046020908152604091829020825160608101845290546001600160a01b0381168252600160a01b810467ffffffffffffffff1692820192909252600160e01b90910460ff161515918101829052906122f15780516001600160a01b031615612287579392505050565b5060001901600081815260046020908152604091829020825160608101845290546001600160a01b038116808352600160a01b820467ffffffffffffffff1693830193909352600160e01b900460ff16151592810192909252156122ec579392505050565b612287565b505b6040517fdf2d9b4200000000000000000000000000000000000000000000000000000000815260040160405180910390fd5b600880546001600160a01b0383811673ffffffffffffffffffffffffffffffffffffffff19831681179093556040519116919082907f8be0079c531659141344cd1fd0a4f28419497f9722a3daafe3b4186f6b6457e090600090a35050565b6115b98484848460405160240161239e9493929190613231565b60408051601f198184030181529190526020810180516001600160e01b03167f08ee56660000000000000000000000000000000000000000000000000000000017905261273b565b610d9182826040518060200160405280600081525061275c565b6000601454600361241191906131a2565b601354600c54612421919061316f565b61242b919061316f565b905090565b610bd683838360405160240161244893929190613260565b60408051601f198184030181529190526020810180516001600160e01b03167f969cdd030000000000000000000000000000000000000000000000000000000017905261273b565b604051630a85bd0160e11b81526000906001600160a01b0385169063150b7a02906124c5903390899088908890600401613285565b6020604051808303816000875af1925050508015612500575060408051601f3d908101601f191682019092526124fd918101906132c1565b60015b61255b573d80801561252e576040519150601f19603f3d011682016040523d82523d6000602084013e612533565b606091505b508051612553576040516368d2bf6b60e11b815260040160405180910390fd5b805181602001fd5b6001600160e01b031916630a85bd0160e11b149050949350505050565b606060188054610a3b9061311e565b6060816125c757505060408051808201909152600181527f3000000000000000000000000000000000000000000000000000000000000000602082015290565b8160005b81156125f157806125db81613187565b91506125ea9050600a836132de565b91506125cb565b60008167ffffffffffffffff81111561260c5761260c612ed3565b6040519080825280601f01601f191660200182016040528015612636576020820181803683370190505b5090505b84156118d45761264b6001836131f0565b9150612658600a8661321d565b61266390603061316f565b60f81b818381518110612678576126786132f2565b60200101907effffffffffffffffffffffffffffffffffffffffffffffffffffffffffffff1916908160001a9053506126b2600a866132de565b945061263a565b610d9182826040516024016126cf929190613308565b60408051601f198184030181529190526020810180516001600160e01b03167f9710a9d00000000000000000000000000000000000000000000000000000000017905261273b565b60008060006127268585612769565b91509150612733816127d9565b509392505050565b80516a636f6e736f6c652e6c6f67602083016000808483855afa5050505050565b610bd68383836001612994565b6000808251604114156127a05760208301516040840151606085015160001a61279487828585612ba7565b945094505050506127d2565b8251604014156127ca57602083015160408401516127bf868383612c94565b9350935050506127d2565b506000905060025b9250929050565b60008160048111156127ed576127ed61332a565b14156127f65750565b600181600481111561280a5761280a61332a565b14156128585760405162461bcd60e51b815260206004820152601860248201527f45434453413a20696e76616c6964207369676e617475726500000000000000006044820152606401610c1f565b600281600481111561286c5761286c61332a565b14156128ba5760405162461bcd60e51b815260206004820152601f60248201527f45434453413a20696e76616c6964207369676e6174757265206c656e677468006044820152606401610c1f565b60038160048111156128ce576128ce61332a565b14156129275760405162461bcd60e51b815260206004820152602260248201527f45434453413a20696e76616c6964207369676e6174757265202773272076616c604482015261756560f01b6064820152608401610c1f565b600481600481111561293b5761293b61332a565b14156114185760405162461bcd60e51b815260206004820152602260248201527f45434453413a20696e76616c6964207369676e6174757265202776272076616c604482015261756560f01b6064820152608401610c1f565b6000546001600160a01b0385166129d7576040517f2e07630000000000000000000000000000000000000000000000000000000000815260040160405180910390fd5b83612a0e576040517fb562e8dd00000000000000000000000000000000000000000000000000000000815260040160405180910390fd5b6001600160a01b038516600081815260056020908152604080832080547fffffffffffffffffffffffffffffffff00000000000000000000000000000000811667ffffffffffffffff8083168c0181169182176801000000000000000067ffffffffffffffff1990941690921783900481168c01811690920217909155858452600490925290912080546001600160e01b031916909217600160a01b429092169190910217905580808501838015612acf57506001600160a01b0387163b15155b15612b58575b60405182906001600160a01b038916906000907fddf252ad1be2c89b69c2b068fc378daa952ba7f163c4a11628f55a4df523b3ef908290a4612b206000888480600101955088612490565b612b3d576040516368d2bf6b60e11b815260040160405180910390fd5b80821415612ad5578260005414612b5357600080fd5b612b9e565b5b6040516001830192906001600160a01b038916906000907fddf252ad1be2c89b69c2b068fc378daa952ba7f163c4a11628f55a4df523b3ef908290a480821415612b59575b506000556121dc565b6000807f7fffffffffffffffffffffffffffffff5d576e7357a4501ddfe92f46681b20a0831115612bde5750600090506003612c8b565b8460ff16601b14158015612bf657508460ff16601c14155b15612c075750600090506004612c8b565b6040805160008082526020820180845289905260ff881692820192909252606081018690526080810185905260019060a0016020604051602081039080840390855afa158015612c5b573d6000803e3d6000fd5b5050604051601f1901519150506001600160a01b038116612c8457600060019250925050612c8b565b9150600090505b94509492505050565b6000807f7fffffffffffffffffffffffffffffffffffffffffffffffffffffffffffffff831681612cca60ff86901c601b61316f565b9050612cd887828885612ba7565b935093505050935093915050565b828054612cf29061311e565b90600052602060002090601f016020900481019282612d145760008555612d5a565b82601f10612d2d57805160ff1916838001178555612d5a565b82800160010185558215612d5a579182015b82811115612d5a578251825591602001919060010190612d3f565b50612d66929150612d6a565b5090565b5b80821115612d665760008155600101612d6b565b6001600160e01b03198116811461141857600080fd5b600060208284031215612da757600080fd5b813561165681612d7f565b60005b83811015612dcd578181015183820152602001612db5565b838111156115b95750506000910152565b60008151808452612df6816020860160208601612db2565b601f01601f19169290920160200192915050565b6020815260006116566020830184612dde565b600060208284031215612e2f57600080fd5b5035919050565b80356001600160a01b0381168114612e4d57600080fd5b919050565b60008060408385031215612e6557600080fd5b612e6e83612e36565b946020939093013593505050565b600060208284031215612e8e57600080fd5b61165682612e36565b600080600060608486031215612eac57600080fd5b612eb584612e36565b9250612ec360208501612e36565b9150604084013590509250925092565b634e487b7160e01b600052604160045260246000fd5b600067ffffffffffffffff80841115612f0457612f04612ed3565b604051601f8501601f19908116603f01168101908282118183101715612f2c57612f2c612ed3565b81604052809350858152868686011115612f4557600080fd5b858560208301376000602087830101525050509392505050565b600060208284031215612f7157600080fd5b813567ffffffffffffffff811115612f8857600080fd5b8201601f81018413612f9957600080fd5b6118d484823560208401612ee9565b60008060408385031215612fbb57600080fd5b612fc483612e36565b915060208301358015158114612fd957600080fd5b809150509250929050565b600082601f830112612ff557600080fd5b61165683833560208501612ee9565b6000806000806080858703121561301a57600080fd5b61302385612e36565b935061303160208601612e36565b925060408501359150606085013567ffffffffffffffff81111561305457600080fd5b61306087828801612fe4565b91505092959194509250565b6000806040838503121561307f57600080fd5b61308883612e36565b9150602083013567ffffffffffffffff8111156130a457600080fd5b6130b085828601612fe4565b9150509250929050565b600080604083850312156130cd57600080fd5b6130d683612e36565b91506130e460208401612e36565b90509250929050565b6000806040838503121561310057600080fd5b82359150602083013567ffffffffffffffff8111156130a457600080fd5b600181811c9082168061313257607f821691505b6020821081141561315357634e487b7160e01b600052602260045260246000fd5b50919050565b634e487b7160e01b600052601160045260246000fd5b6000821982111561318257613182613159565b500190565b600060001982141561319b5761319b613159565b5060010190565b60008160001904831182151516156131bc576131bc613159565b500290565b600083516131d3818460208801612db2565b8351908301906131e7818360208801612db2565b01949350505050565b60008282101561320257613202613159565b500390565b634e487b7160e01b600052601260045260246000fd5b60008261322c5761322c613207565b500690565b6080815260006132446080830187612dde565b6020830195909552506040810192909252606090910152919050565b6060815260006132736060830186612dde565b60208301949094525060400152919050565b60006001600160a01b038087168352808616602084015250836040830152608060608301526132b76080830184612dde565b9695505050505050565b6000602082840312156132d357600080fd5b815161165681612d7f565b6000826132ed576132ed613207565b500490565b634e487b7160e01b600052603260045260246000fd5b60408152600061331b6040830185612dde565b90508260208301529392505050565b634e487b7160e01b600052602160045260246000fdfe4f776e61626c653a2063616c6c6572206973206e6f7420746865206f776e6572a26469706673582212209b4b1670a9eef89229c3b6a03cf7283f2735c4ea9283a9bfc008c291e0059cd764736f6c634300080c0033",
  "linkReferences": {},
  "deployedLinkReferences": {}
}