{
    "_format": "hh-sol-artifact-1",
    "contractName": "GoodMonkeyz",
    "sourceName": "contracts/GoodMonkeyz.sol",
    "abi": [
        {
            "inputs": [],
            "stateMutability": "nonpayable",
            "type": "constructor"
        },
        {
            "anonymous": false,
            "inputs": [
                {
                    "indexed": true,
                    "internalType": "address",
                    "name": "owner",
                    "type": "address"
                },
                {
                    "indexed": true,
                    "internalType": "address",
                    "name": "approved",
                    "type": "address"
                },
                {
                    "indexed": true,
                    "internalType": "uint256",
                    "name": "tokenId",
                    "type": "uint256"
                }
            ],
            "name": "Approval",
            "type": "event"
        },
        {
            "anonymous": false,
            "inputs": [
                {
                    "indexed": true,
                    "internalType": "address",
                    "name": "owner",
                    "type": "address"
                },
                {
                    "indexed": true,
                    "internalType": "address",
                    "name": "operator",
                    "type": "address"
                },
                {
                    "indexed": false,
                    "internalType": "bool",
                    "name": "approved",
                    "type": "bool"
                }
            ],
            "name": "ApprovalForAll",
            "type": "event"
        },
        {
            "anonymous": false,
            "inputs": [
                {
                    "indexed": true,
                    "internalType": "address",
                    "name": "previousOwner",
                    "type": "address"
                },
                {
                    "indexed": true,
                    "internalType": "address",
                    "name": "newOwner",
                    "type": "address"
                }
            ],
            "name": "OwnershipTransferred",
            "type": "event"
        },
        {
            "anonymous": false,
            "inputs": [
                {
                    "indexed": true,
                    "internalType": "address",
                    "name": "from",
                    "type": "address"
                },
                {
                    "indexed": true,
                    "internalType": "address",
                    "name": "to",
                    "type": "address"
                },
                {
                    "indexed": true,
                    "internalType": "uint256",
                    "name": "tokenId",
                    "type": "uint256"
                }
            ],
            "name": "Transfer",
            "type": "event"
        },
        {
            "inputs": [],
            "name": "ALLOW",
            "outputs": [
                {
                    "internalType": "bool",
                    "name": "",
                    "type": "bool"
                }
            ],
            "stateMutability": "view",
            "type": "function"
        },
        {
            "inputs": [],
            "name": "ALLOW_MAX",
            "outputs": [
                {
                    "internalType": "uint256",
                    "name": "",
                    "type": "uint256"
                }
            ],
            "stateMutability": "view",
            "type": "function"
        },
        {
            "inputs": [],
            "name": "BOOSTER",
            "outputs": [
                {
                    "internalType": "bool",
                    "name": "",
                    "type": "bool"
                }
            ],
            "stateMutability": "view",
            "type": "function"
        },
        {
            "inputs": [],
            "name": "BOOSTER_MAX",
            "outputs": [
                {
                    "internalType": "uint256",
                    "name": "",
                    "type": "uint256"
                }
            ],
            "stateMutability": "view",
            "type": "function"
        },
        {
            "inputs": [],
            "name": "BOOSTER_PACK_ID",
            "outputs": [
                {
                    "internalType": "uint256",
                    "name": "",
                    "type": "uint256"
                }
            ],
            "stateMutability": "view",
            "type": "function"
        },
        {
            "inputs": [],
            "name": "GENERAL_SUPPLY",
            "outputs": [
                {
                    "internalType": "uint256",
                    "name": "",
                    "type": "uint256"
                }
            ],
            "stateMutability": "view",
            "type": "function"
        },
        {
            "inputs": [],
            "name": "GMEditionsAddress",
            "outputs": [
                {
                    "internalType": "address",
                    "name": "",
                    "type": "address"
                }
            ],
            "stateMutability": "view",
            "type": "function"
        },
        {
            "inputs": [],
            "name": "MINTPASS",
            "outputs": [
                {
                    "internalType": "bool",
                    "name": "",
                    "type": "bool"
                }
            ],
            "stateMutability": "view",
            "type": "function"
        },
        {
            "inputs": [],
            "name": "MINTPASS_MAX",
            "outputs": [
                {
                    "internalType": "uint256",
                    "name": "",
                    "type": "uint256"
                }
            ],
            "stateMutability": "view",
            "type": "function"
        },
        {
            "inputs": [],
            "name": "MINT_PASS_ID",
            "outputs": [
                {
                    "internalType": "uint256",
                    "name": "",
                    "type": "uint256"
                }
            ],
            "stateMutability": "view",
            "type": "function"
        },
        {
            "inputs": [],
            "name": "PUBLIC",
            "outputs": [
                {
                    "internalType": "bool",
                    "name": "",
                    "type": "bool"
                }
            ],
            "stateMutability": "view",
            "type": "function"
        },
        {
            "inputs": [
                {
                    "internalType": "address",
                    "name": "to",
                    "type": "address"
                },
                {
                    "internalType": "uint256",
                    "name": "tokenId",
                    "type": "uint256"
                }
            ],
            "name": "approve",
            "outputs": [],
            "stateMutability": "nonpayable",
            "type": "function"
        },
        {
            "inputs": [
                {
                    "internalType": "address",
                    "name": "owner",
                    "type": "address"
                }
            ],
            "name": "balanceOf",
            "outputs": [
                {
                    "internalType": "uint256",
                    "name": "",
                    "type": "uint256"
                }
            ],
            "stateMutability": "view",
            "type": "function"
        },
        {
            "inputs": [],
            "name": "boosterPacksOpened",
            "outputs": [
                {
                    "internalType": "uint256",
                    "name": "",
                    "type": "uint256"
                }
            ],
            "stateMutability": "view",
            "type": "function"
        },
        {
            "inputs": [],
            "name": "contractURI",
            "outputs": [
                {
                    "internalType": "string",
                    "name": "",
                    "type": "string"
                }
            ],
            "stateMutability": "view",
            "type": "function"
        },
        {
            "inputs": [],
            "name": "flipAllowState",
            "outputs": [],
            "stateMutability": "nonpayable",
            "type": "function"
        },
        {
            "inputs": [],
            "name": "flipBoosterState",
            "outputs": [],
            "stateMutability": "nonpayable",
            "type": "function"
        },
        {
            "inputs": [],
            "name": "flipPassState",
            "outputs": [],
            "stateMutability": "nonpayable",
            "type": "function"
        },
        {
            "inputs": [],
            "name": "flipPublicState",
            "outputs": [],
            "stateMutability": "nonpayable",
            "type": "function"
        },
        {
            "inputs": [],
            "name": "genStartingIndex",
            "outputs": [],
            "stateMutability": "nonpayable",
            "type": "function"
        },
        {
            "inputs": [
                {
                    "internalType": "uint256",
                    "name": "tokenId",
                    "type": "uint256"
                }
            ],
            "name": "getApproved",
            "outputs": [
                {
                    "internalType": "address",
                    "name": "",
                    "type": "address"
                }
            ],
            "stateMutability": "view",
            "type": "function"
        },
        {
            "inputs": [
                {
                    "internalType": "address",
                    "name": "owner",
                    "type": "address"
                },
                {
                    "internalType": "address",
                    "name": "operator",
                    "type": "address"
                }
            ],
            "name": "isApprovedForAll",
            "outputs": [
                {
                    "internalType": "bool",
                    "name": "",
                    "type": "bool"
                }
            ],
            "stateMutability": "view",
            "type": "function"
        },
        {
            "inputs": [
                {
                    "internalType": "uint256",
                    "name": "_amount",
                    "type": "uint256"
                }
            ],
            "name": "mint",
            "outputs": [],
            "stateMutability": "payable",
            "type": "function"
        },
        {
            "inputs": [
                {
                    "internalType": "uint256",
                    "name": "_amount",
                    "type": "uint256"
                },
                {
                    "internalType": "bytes",
                    "name": "signature",
                    "type": "bytes"
                }
            ],
            "name": "mintAllow",
            "outputs": [],
            "stateMutability": "payable",
            "type": "function"
        },
        {
            "inputs": [
                {
                    "internalType": "address",
                    "name": "",
                    "type": "address"
                }
            ],
            "name": "mintList",
            "outputs": [
                {
                    "internalType": "uint256",
                    "name": "",
                    "type": "uint256"
                }
            ],
            "stateMutability": "view",
            "type": "function"
        },
        {
            "inputs": [],
            "name": "mintPassUsed",
            "outputs": [
                {
                    "internalType": "uint256",
                    "name": "",
                    "type": "uint256"
                }
            ],
            "stateMutability": "view",
            "type": "function"
        },
        {
            "inputs": [],
            "name": "mintWithBoosterPack",
            "outputs": [],
            "stateMutability": "nonpayable",
            "type": "function"
        },
        {
            "inputs": [],
            "name": "mintWithPass",
            "outputs": [],
            "stateMutability": "nonpayable",
            "type": "function"
        },
        {
            "inputs": [],
            "name": "name",
            "outputs": [
                {
                    "internalType": "string",
                    "name": "",
                    "type": "string"
                }
            ],
            "stateMutability": "view",
            "type": "function"
        },
        {
            "inputs": [],
            "name": "owner",
            "outputs": [
                {
                    "internalType": "address",
                    "name": "",
                    "type": "address"
                }
            ],
            "stateMutability": "view",
            "type": "function"
        },
        {
            "inputs": [
                {
                    "internalType": "uint256",
                    "name": "tokenId",
                    "type": "uint256"
                }
            ],
            "name": "ownerOf",
            "outputs": [
                {
                    "internalType": "address",
                    "name": "",
                    "type": "address"
                }
            ],
            "stateMutability": "view",
            "type": "function"
        },
        {
            "inputs": [],
            "name": "price",
            "outputs": [
                {
                    "internalType": "uint256",
                    "name": "",
                    "type": "uint256"
                }
            ],
            "stateMutability": "view",
            "type": "function"
        },
        {
            "inputs": [
                {
                    "internalType": "address",
                    "name": "_address",
                    "type": "address"
                },
                {
                    "internalType": "bytes",
                    "name": "signature",
                    "type": "bytes"
                }
            ],
            "name": "recoverSigner",
            "outputs": [
                {
                    "internalType": "address",
                    "name": "",
                    "type": "address"
                }
            ],
            "stateMutability": "pure",
            "type": "function"
        },
        {
            "inputs": [],
            "name": "renounceOwnership",
            "outputs": [],
            "stateMutability": "nonpayable",
            "type": "function"
        },
        {
            "inputs": [
                {
                    "internalType": "address",
                    "name": "from",
                    "type": "address"
                },
                {
                    "internalType": "address",
                    "name": "to",
                    "type": "address"
                },
                {
                    "internalType": "uint256",
                    "name": "tokenId",
                    "type": "uint256"
                }
            ],
            "name": "safeTransferFrom",
            "outputs": [],
            "stateMutability": "nonpayable",
            "type": "function"
        },
        {
            "inputs": [
                {
                    "internalType": "address",
                    "name": "from",
                    "type": "address"
                },
                {
                    "internalType": "address",
                    "name": "to",
                    "type": "address"
                },
                {
                    "internalType": "uint256",
                    "name": "tokenId",
                    "type": "uint256"
                },
                {
                    "internalType": "bytes",
                    "name": "_data",
                    "type": "bytes"
                }
            ],
            "name": "safeTransferFrom",
            "outputs": [],
            "stateMutability": "nonpayable",
            "type": "function"
        },
        {
            "inputs": [
                {
                    "internalType": "address",
                    "name": "operator",
                    "type": "address"
                },
                {
                    "internalType": "bool",
                    "name": "approved",
                    "type": "bool"
                }
            ],
            "name": "setApprovalForAll",
            "outputs": [],
            "stateMutability": "nonpayable",
            "type": "function"
        },
        {
            "inputs": [
                {
                    "internalType": "string",
                    "name": "newURI",
                    "type": "string"
                }
            ],
            "name": "setBaseURI",
            "outputs": [],
            "stateMutability": "nonpayable",
            "type": "function"
        },
        {
            "inputs": [
                {
                    "internalType": "string",
                    "name": "uri",
                    "type": "string"
                }
            ],
            "name": "setContractURI",
            "outputs": [],
            "stateMutability": "nonpayable",
            "type": "function"
        },
        {
            "inputs": [
                {
                    "internalType": "address",
                    "name": "_GMEditionsAddress",
                    "type": "address"
                }
            ],
            "name": "setMerchAddress",
            "outputs": [],
            "stateMutability": "nonpayable",
            "type": "function"
        },
        {
            "inputs": [],
            "name": "startingIndex",
            "outputs": [
                {
                    "internalType": "uint256",
                    "name": "",
                    "type": "uint256"
                }
            ],
            "stateMutability": "view",
            "type": "function"
        },
        {
            "inputs": [
                {
                    "internalType": "bytes4",
                    "name": "interfaceId",
                    "type": "bytes4"
                }
            ],
            "name": "supportsInterface",
            "outputs": [
                {
                    "internalType": "bool",
                    "name": "",
                    "type": "bool"
                }
            ],
            "stateMutability": "view",
            "type": "function"
        },
        {
            "inputs": [],
            "name": "symbol",
            "outputs": [
                {
                    "internalType": "string",
                    "name": "",
                    "type": "string"
                }
            ],
            "stateMutability": "view",
            "type": "function"
        },
        {
            "inputs": [
                {
                    "internalType": "uint256",
                    "name": "tokenId",
                    "type": "uint256"
                }
            ],
            "name": "tokenURI",
            "outputs": [
                {
                    "internalType": "string",
                    "name": "",
                    "type": "string"
                }
            ],
            "stateMutability": "view",
            "type": "function"
        },
        {
            "inputs": [],
            "name": "totalSupply",
            "outputs": [
                {
                    "internalType": "uint256",
                    "name": "",
                    "type": "uint256"
                }
            ],
            "stateMutability": "view",
            "type": "function"
        },
        {
            "inputs": [
                {
                    "internalType": "address",
                    "name": "from",
                    "type": "address"
                },
                {
                    "internalType": "address",
                    "name": "to",
                    "type": "address"
                },
                {
                    "internalType": "uint256",
                    "name": "tokenId",
                    "type": "uint256"
                }
            ],
            "name": "transferFrom",
            "outputs": [],
            "stateMutability": "nonpayable",
            "type": "function"
        },
        {
            "inputs": [
                {
                    "internalType": "address",
                    "name": "newOwner",
                    "type": "address"
                }
            ],
            "name": "transferOwnership",
            "outputs": [],
            "stateMutability": "nonpayable",
            "type": "function"
        }
    ],
    "bytecode": "0x608060405260016009556002600a55612328600b55611f40600c5560fa600d819055600e556701118f178fb48000600f556013805463ffffffff191690553480156200004a57600080fd5b50604080518082018252600b81526a23b7b7b226b7b735b2bcbd60a91b602080830191825283518085019094526002845261474d60f01b908401528151919291620000989160009162000127565b508051620000ae90600190602084019062000127565b505050620000cb620000c5620000d160201b60201c565b620000d5565b6200020a565b3390565b600680546001600160a01b038381166001600160a01b0319831681179093556040519116919082907f8be0079c531659141344cd1fd0a4f28419497f9722a3daafe3b4186f6b6457e090600090a35050565b8280546200013590620001cd565b90600052602060002090601f016020900481019282620001595760008555620001a4565b82601f106200017457805160ff1916838001178555620001a4565b82800160010185558215620001a4579182015b82811115620001a457825182559160200191906001019062000187565b50620001b2929150620001b6565b5090565b5b80821115620001b25760008155600101620001b7565b600181811c90821680620001e257607f821691505b602082108114156200020457634e487b7160e01b600052602260045260246000fd5b50919050565b6130d6806200021a6000396000f3fe6080604052600436106103085760003560e01c8063a0712d681161019a578063cb774d47116100e1578063e985e9c51161008a578063f8c3e57811610064578063f8c3e57814610825578063face47fc1461083b578063fd17af091461085057600080fd5b8063e985e9c5146107a7578063f2fde38b146107f0578063f3c9237c1461081057600080fd5b8063da858dd8116100bb578063da858dd81461075c578063e53e3a0414610772578063e8a3d4851461079257600080fd5b8063cb774d471461071b578063cbcf4a8414610731578063d98e30281461074657600080fd5b8063bef432c611610143578063c11d561c1161011d578063c11d561c146106d0578063c87b56dd146106e6578063ca6b40f81461070657600080fd5b8063bef432c614610673578063bf89e3d9146106a0578063c1179a7f146106b657600080fd5b8063b17669b911610174578063b17669b914610628578063b83b30331461063d578063b88d4fde1461065357600080fd5b8063a0712d68146105df578063a12cc9d8146105f2578063a22cb4651461060857600080fd5b80635f9b96f81161025e578063882b18081161020757806395d89b41116101e157806395d89b411461059f5780639757f8ec146105b4578063a035b1fe146105c957600080fd5b8063882b18081461054c5780638da5cb5b14610561578063938e3d7b1461057f57600080fd5b8063715018a611610238578063715018a6146104f6578063725896ac1461050b57806375b0ffd11461052b57600080fd5b80635f9b96f8146104965780636352211e146104b657806370a08231146104d657600080fd5b80631166d34e116102c057806323b872dd1161029a57806323b872dd1461043657806342842e0e1461045657806355f804b31461047657600080fd5b80631166d34e146103dd57806318160ddd146104015780631e5a41b81461041657600080fd5b8063081812fc116102f1578063081812fc14610364578063095ea7b31461039c5780630b5dfc39146103be57600080fd5b806301ffc9a71461030d57806306fdde0314610342575b600080fd5b34801561031957600080fd5b5061032d610328366004612b1e565b610863565b60405190151581526020015b60405180910390f35b34801561034e57600080fd5b50610357610900565b6040516103399190612b93565b34801561037057600080fd5b5061038461037f366004612ba6565b610992565b6040516001600160a01b039091168152602001610339565b3480156103a857600080fd5b506103bc6103b7366004612bdb565b610a2c565b005b3480156103ca57600080fd5b5060135461032d90610100900460ff1681565b3480156103e957600080fd5b506103f360115481565b604051908152602001610339565b34801561040d57600080fd5b506103f3610b5e565b34801561042257600080fd5b506103bc610431366004612c05565b610b6a565b34801561044257600080fd5b506103bc610451366004612c20565b610c22565b34801561046257600080fd5b506103bc610471366004612c20565b610ca9565b34801561048257600080fd5b506103bc610491366004612ce8565b610cc4565b3480156104a257600080fd5b50600854610384906001600160a01b031681565b3480156104c257600080fd5b506103846104d1366004612ba6565b610d35565b3480156104e257600080fd5b506103f36104f1366004612c05565b610dc0565b34801561050257600080fd5b506103bc610e5a565b34801561051757600080fd5b5060135461032d9062010000900460ff1681565b34801561053757600080fd5b5060135461032d906301000000900460ff1681565b34801561055857600080fd5b506103bc610ec0565b34801561056d57600080fd5b506006546001600160a01b0316610384565b34801561058b57600080fd5b506103bc61059a366004612ce8565b610f2e565b3480156105ab57600080fd5b50610357610f9b565b3480156105c057600080fd5b506103bc610faa565b3480156105d557600080fd5b506103f3600f5481565b6103bc6105ed366004612ba6565b61112b565b3480156105fe57600080fd5b506103f360105481565b34801561061457600080fd5b506103bc610623366004612d31565b61134c565b34801561063457600080fd5b506103bc611357565b34801561064957600080fd5b506103f3600d5481565b34801561065f57600080fd5b506103bc61066e366004612d8d565b6113d2565b34801561067f57600080fd5b506103f361068e366004612c05565b60166020526000908152604090205481565b3480156106ac57600080fd5b506103f360095481565b3480156106c257600080fd5b5060135461032d9060ff1681565b3480156106dc57600080fd5b506103f3600a5481565b3480156106f257600080fd5b50610357610701366004612ba6565b611460565b34801561071257600080fd5b506103bc611549565b34801561072757600080fd5b506103f360125481565b34801561073d57600080fd5b506103bc6115c2565b34801561075257600080fd5b506103f3600b5481565b34801561076857600080fd5b506103f3600e5481565b34801561077e57600080fd5b5061038461078d366004612df5565b611677565b34801561079e57600080fd5b5061035761170e565b3480156107b357600080fd5b5061032d6107c2366004612e43565b6001600160a01b03918216600090815260056020908152604080832093909416825291909152205460ff1690565b3480156107fc57600080fd5b506103bc61080b366004612c05565b61171d565b34801561081c57600080fd5b506103bc6117fc565b34801561083157600080fd5b506103f3600c5481565b34801561084757600080fd5b506103bc611873565b6103bc61085e366004612e76565b6119fc565b60006001600160e01b031982167f80ac58cd0000000000000000000000000000000000000000000000000000000014806108c657506001600160e01b031982167f5b5e139f00000000000000000000000000000000000000000000000000000000145b806108fa57507f01ffc9a7000000000000000000000000000000000000000000000000000000006001600160e01b03198316145b92915050565b60606000805461090f90612ea7565b80601f016020809104026020016040519081016040528092919081815260200182805461093b90612ea7565b80156109885780601f1061095d57610100808354040283529160200191610988565b820191906000526020600020905b81548152906001019060200180831161096b57829003601f168201915b5050505050905090565b6000818152600260205260408120546001600160a01b0316610a105760405162461bcd60e51b815260206004820152602c60248201527f4552433732313a20617070726f76656420717565727920666f72206e6f6e657860448201526b34b9ba32b73a103a37b5b2b760a11b60648201526084015b60405180910390fd5b506000908152600460205260409020546001600160a01b031690565b6000610a3782610d35565b9050806001600160a01b0316836001600160a01b03161415610ac15760405162461bcd60e51b815260206004820152602160248201527f4552433732313a20617070726f76616c20746f2063757272656e74206f776e6560448201527f72000000000000000000000000000000000000000000000000000000000000006064820152608401610a07565b336001600160a01b0382161480610add5750610add81336107c2565b610b4f5760405162461bcd60e51b815260206004820152603860248201527f4552433732313a20617070726f76652063616c6c6572206973206e6f74206f7760448201527f6e6572206e6f7220617070726f76656420666f7220616c6c00000000000000006064820152608401610a07565b610b598383611c83565b505050565b6000806108fa60075490565b6006546001600160a01b03163314610bc45760405162461bcd60e51b815260206004820181905260248201527f4f776e61626c653a2063616c6c6572206973206e6f7420746865206f776e65726044820152606401610a07565b600880546001600160a01b0319166001600160a01b03831690811790915560408051808201909152601d81527f474d53484f5020436f6e7472616374207570646174656420746f2025730000006020820152610c1f91611cf1565b50565b610c2c3382611d64565b610c9e5760405162461bcd60e51b815260206004820152603160248201527f4552433732313a207472616e736665722063616c6c6572206973206e6f74206f60448201527f776e6572206e6f7220617070726f7665640000000000000000000000000000006064820152608401610a07565b610b59838383611e57565b610b59838383604051806020016040528060008152506113d2565b6006546001600160a01b03163314610d1e5760405162461bcd60e51b815260206004820181905260248201527f4f776e61626c653a2063616c6c6572206973206e6f7420746865206f776e65726044820152606401610a07565b8051610d31906014906020840190612a6f565b5050565b6000818152600260205260408120546001600160a01b0316806108fa5760405162461bcd60e51b815260206004820152602960248201527f4552433732313a206f776e657220717565727920666f72206e6f6e657869737460448201527f656e7420746f6b656e00000000000000000000000000000000000000000000006064820152608401610a07565b60006001600160a01b038216610e3e5760405162461bcd60e51b815260206004820152602a60248201527f4552433732313a2062616c616e636520717565727920666f7220746865207a6560448201527f726f2061646472657373000000000000000000000000000000000000000000006064820152608401610a07565b506001600160a01b031660009081526003602052604090205490565b6006546001600160a01b03163314610eb45760405162461bcd60e51b815260206004820181905260248201527f4f776e61626c653a2063616c6c6572206973206e6f7420746865206f776e65726044820152606401610a07565b610ebe6000612024565b565b6006546001600160a01b03163314610f1a5760405162461bcd60e51b815260206004820181905260248201527f4f776e61626c653a2063616c6c6572206973206e6f7420746865206f776e65726044820152606401610a07565b6013805460ff19811660ff90911615179055565b6006546001600160a01b03163314610f885760405162461bcd60e51b815260206004820181905260248201527f4f776e61626c653a2063616c6c6572206973206e6f7420746865206f776e65726044820152606401610a07565b8051610d31906015906020840190612a6f565b60606001805461090f90612ea7565b6013546301000000900460ff166110285760405162461bcd60e51b8152602060048201526024808201527f4d494e54494e47205749544820424f4f53544552205041434b202d204e4f542060448201527f4f50454e000000000000000000000000000000000000000000000000000000006064820152608401610a07565b600854600a54604051633477cc1b60e21b815233600482015260248101919091526001600160a01b039091169063d1df306c90604401600060405180830381600087803b15801561107857600080fd5b505af115801561108c573d6000803e3d6000fd5b5050505060005b6003811015611115576110ae336110a960075490565b612076565b6110f56040518060400160405280600f81526020017f6d696e7420626f6f7374657220257300000000000000000000000000000000008152506110f060075490565b612090565b611103600780546001019055565b8061110d81612ef8565b915050611093565b5060116000815461112590612ef8565b90915550565b60135460ff1661117d5760405162461bcd60e51b815260206004820152601260248201527f4d494e54494e47202d204e4f54204f50454e00000000000000000000000000006044820152606401610a07565b600a8111156111ce5760405162461bcd60e51b815260206004820152600e60248201527f4d4158203130204d4f4e4b45595a0000000000000000000000000000000000006044820152606401610a07565b80600f546111dc9190612f13565b34101561122b5760405162461bcd60e51b815260206004820152601360248201527f4e6f7420656e6f756768204554482073656e74000000000000000000000000006044820152606401610a07565b611233612103565b600754106112835760405162461bcd60e51b815260206004820152601a60248201527f5075626c696320416c6c6f636174696f6e20536f6c64206f75740000000000006044820152606401610a07565b3332146112d25760405162461bcd60e51b815260206004820152600760248201527f6e6f20626f7473000000000000000000000000000000000000000000000000006044820152606401610a07565b60005b81811015610d31576112ea336110a960075490565b61132c6040518060400160405280600e81526020017f6d696e74207075626c69632025730000000000000000000000000000000000008152506110f060075490565b61133a600780546001019055565b8061134481612ef8565b9150506112d5565b610d31338383612133565b6006546001600160a01b031633146113b15760405162461bcd60e51b815260206004820181905260248201527f4f776e61626c653a2063616c6c6572206973206e6f7420746865206f776e65726044820152606401610a07565b6013805463ff00000019811663010000009182900460ff1615909102179055565b6113dc3383611d64565b61144e5760405162461bcd60e51b815260206004820152603160248201527f4552433732313a207472616e736665722063616c6c6572206973206e6f74206f60448201527f776e6572206e6f7220617070726f7665640000000000000000000000000000006064820152608401610a07565b61145a84848484612202565b50505050565b6000818152600260205260409020546060906001600160a01b03166114ed5760405162461bcd60e51b815260206004820152602f60248201527f4552433732314d657461646174613a2055524920717565727920666f72206e6f60448201527f6e6578697374656e7420746f6b656e00000000000000000000000000000000006064820152608401610a07565b60006114f7612280565b905060008151116115175760405180602001604052806000815250611542565b806115218461228f565b604051602001611532929190612f32565b6040516020818303038152906040525b9392505050565b6006546001600160a01b031633146115a35760405162461bcd60e51b815260206004820181905260248201527f4f776e61626c653a2063616c6c6572206973206e6f7420746865206f776e65726044820152606401610a07565b6013805462ff0000198116620100009182900460ff1615909102179055565b6006546001600160a01b0316331461161c5760405162461bcd60e51b815260206004820181905260248201527f4f776e61626c653a2063616c6c6572206973206e6f7420746865206f776e65726044820152606401610a07565b61271061162a600143612f61565b611635919040612f8e565b601281905560408051808201909152601081527f5354415254494e4720494e4445583a20000000000000000000000000000000006020820152610ebe91612090565b6040516bffffffffffffffffffffffff19606084901b166020820152600090819060340160408051601f198184030181529082905280516020918201207f19457468657265756d205369676e6564204d6573736167653a0a33320000000091830191909152603c820152605c0160405160208183030381529060405280519060200120905061170681846123c1565b949350505050565b60606015805461090f90612ea7565b6006546001600160a01b031633146117775760405162461bcd60e51b815260206004820181905260248201527f4f776e61626c653a2063616c6c6572206973206e6f7420746865206f776e65726044820152606401610a07565b6001600160a01b0381166117f35760405162461bcd60e51b815260206004820152602660248201527f4f776e61626c653a206e6577206f776e657220697320746865207a65726f206160448201527f64647265737300000000000000000000000000000000000000000000000000006064820152608401610a07565b610c1f81612024565b6006546001600160a01b031633146118565760405162461bcd60e51b815260206004820181905260248201527f4f776e61626c653a2063616c6c6572206973206e6f7420746865206f776e65726044820152606401610a07565b6013805461ff001981166101009182900460ff1615909102179055565b60135462010000900460ff166118cb5760405162461bcd60e51b815260206004820152601c60248201527f4d494e54494e4720574954482050415353202d204e4f54204f50454e000000006044820152606401610a07565b600d546010541061191e5760405162461bcd60e51b815260206004820152601960248201527f4d494e54205041535320414c4c4f434154494f4e2055534544000000000000006044820152606401610a07565b600854600954604051633477cc1b60e21b815233600482015260248101919091526001600160a01b039091169063d1df306c90604401600060405180830381600087803b15801561196e57600080fd5b505af1158015611982573d6000803e3d6000fd5b50505050600061199160075490565b905061199d3382612076565b6119ab600780546001019055565b6010600081546119ba90612ef8565b9091555060408051808201909152601681527f4d494e542057495448204d494e545041535320232573000000000000000000006020820152610c1f9082612090565b601354610100900460ff16611a535760405162461bcd60e51b815260206004820152601d60248201527f4d494e54494e4720414c4c4f57204c495354202d204e4f54204f50454e0000006044820152606401610a07565b81600f54611a619190612f13565b341015611ab05760405162461bcd60e51b815260206004820152601360248201527f4e6f7420656e6f756768204554482073656e74000000000000000000000000006044820152606401610a07565b601054600c54611ac09190612fa2565b60075410611b105760405162461bcd60e51b815260206004820152601360248201527f414c4c4f57206c69737420536f6c64206f7574000000000000000000000000006044820152606401610a07565b6006546001600160a01b0316611b263383611677565b6001600160a01b031614611b7c5760405162461bcd60e51b815260206004820152601a60248201527f41646472657373206973206e6f7420616c6c6f776c69737465640000000000006044820152606401610a07565b33600090815260166020526040902054600290611b9a908490612fa2565b1115611be85760405162461bcd60e51b815260206004820152601560248201527f4f4e4c592032204d494e545320524553455256454400000000000000000000006044820152606401610a07565b60005b82811015610b5957611c00336110a960075490565b611c426040518060400160405280600d81526020017f6d696e7420616c6c6f77202573000000000000000000000000000000000000008152506110f060075490565b611c50600780546001019055565b3360009081526016602052604081208054909190611c6d90612ef8565b9091555080611c7b81612ef8565b915050611beb565b600081815260046020526040902080546001600160a01b0319166001600160a01b0384169081179091558190611cb882610d35565b6001600160a01b03167f8c5be1e5ebec7d5bd14f71427d1e84f3dd0314c0f7b2291e5b200ac8c7c3b92560405160405180910390a45050565b610d318282604051602401611d07929190612fba565b60408051601f198184030181529190526020810180517bffffffffffffffffffffffffffffffffffffffffffffffffffffffff167f319af333000000000000000000000000000000000000000000000000000000001790526123e5565b6000818152600260205260408120546001600160a01b0316611ddd5760405162461bcd60e51b815260206004820152602c60248201527f4552433732313a206f70657261746f7220717565727920666f72206e6f6e657860448201526b34b9ba32b73a103a37b5b2b760a11b6064820152608401610a07565b6000611de883610d35565b9050806001600160a01b0316846001600160a01b03161480611e235750836001600160a01b0316611e1884610992565b6001600160a01b0316145b8061170657506001600160a01b0380821660009081526005602090815260408083209388168352929052205460ff16611706565b826001600160a01b0316611e6a82610d35565b6001600160a01b031614611ee65760405162461bcd60e51b815260206004820152602960248201527f4552433732313a207472616e73666572206f6620746f6b656e2074686174206960448201527f73206e6f74206f776e00000000000000000000000000000000000000000000006064820152608401610a07565b6001600160a01b038216611f615760405162461bcd60e51b8152602060048201526024808201527f4552433732313a207472616e7366657220746f20746865207a65726f2061646460448201527f72657373000000000000000000000000000000000000000000000000000000006064820152608401610a07565b611f6c600082611c83565b6001600160a01b0383166000908152600360205260408120805460019290611f95908490612f61565b90915550506001600160a01b0382166000908152600360205260408120805460019290611fc3908490612fa2565b909155505060008181526002602052604080822080546001600160a01b0319166001600160a01b0386811691821790925591518493918716917fddf252ad1be2c89b69c2b068fc378daa952ba7f163c4a11628f55a4df523b3ef91a4505050565b600680546001600160a01b038381166001600160a01b0319831681179093556040519116919082907f8be0079c531659141344cd1fd0a4f28419497f9722a3daafe3b4186f6b6457e090600090a35050565b610d31828260405180602001604052806000815250612406565b610d3182826040516024016120a6929190612fe5565b60408051601f198184030181529190526020810180517bffffffffffffffffffffffffffffffffffffffffffffffffffffffff167f9710a9d0000000000000000000000000000000000000000000000000000000001790526123e5565b600060115460036121149190612f13565b601054600b546121249190612fa2565b61212e9190612fa2565b905090565b816001600160a01b0316836001600160a01b031614156121955760405162461bcd60e51b815260206004820152601960248201527f4552433732313a20617070726f766520746f2063616c6c6572000000000000006044820152606401610a07565b6001600160a01b03838116600081815260056020908152604080832094871680845294825291829020805460ff191686151590811790915591519182527f17307eab39ab6107e8899845ad3d59bd9653f200f220920489ca2b5937696c31910160405180910390a3505050565b61220d848484611e57565b61221984848484612484565b61145a5760405162461bcd60e51b815260206004820152603260248201527f4552433732313a207472616e7366657220746f206e6f6e20455243373231526560448201527131b2b4bb32b91034b6b83632b6b2b73a32b960711b6064820152608401610a07565b60606014805461090f90612ea7565b6060816122cf57505060408051808201909152600181527f3000000000000000000000000000000000000000000000000000000000000000602082015290565b8160005b81156122f957806122e381612ef8565b91506122f29050600a83613007565b91506122d3565b60008167ffffffffffffffff81111561231457612314612c5c565b6040519080825280601f01601f19166020018201604052801561233e576020820181803683370190505b5090505b841561170657612353600183612f61565b9150612360600a86612f8e565b61236b906030612fa2565b60f81b8183815181106123805761238061301b565b60200101907effffffffffffffffffffffffffffffffffffffffffffffffffffffffffffff1916908160001a9053506123ba600a86613007565b9450612342565b60008060006123d085856125cd565b915091506123dd8161263d565b509392505050565b80516a636f6e736f6c652e6c6f67602083016000808483855afa5050505050565b61241083836127f8565b61241d6000848484612484565b610b595760405162461bcd60e51b815260206004820152603260248201527f4552433732313a207472616e7366657220746f206e6f6e20455243373231526560448201527131b2b4bb32b91034b6b83632b6b2b73a32b960711b6064820152608401610a07565b60006001600160a01b0384163b156125c257604051630a85bd0160e11b81526001600160a01b0385169063150b7a02906124c8903390899088908890600401613031565b6020604051808303816000875af1925050508015612503575060408051601f3d908101601f191682019092526125009181019061306d565b60015b6125a8573d808015612531576040519150601f19603f3d011682016040523d82523d6000602084013e612536565b606091505b5080516125a05760405162461bcd60e51b815260206004820152603260248201527f4552433732313a207472616e7366657220746f206e6f6e20455243373231526560448201527131b2b4bb32b91034b6b83632b6b2b73a32b960711b6064820152608401610a07565b805181602001fd5b6001600160e01b031916630a85bd0160e11b149050611706565b506001949350505050565b6000808251604114156126045760208301516040840151606085015160001a6125f88782858561293a565b94509450505050612636565b82516040141561262e5760208301516040840151612623868383612a27565b935093505050612636565b506000905060025b9250929050565b60008160048111156126515761265161308a565b141561265a5750565b600181600481111561266e5761266e61308a565b14156126bc5760405162461bcd60e51b815260206004820152601860248201527f45434453413a20696e76616c6964207369676e617475726500000000000000006044820152606401610a07565b60028160048111156126d0576126d061308a565b141561271e5760405162461bcd60e51b815260206004820152601f60248201527f45434453413a20696e76616c6964207369676e6174757265206c656e677468006044820152606401610a07565b60038160048111156127325761273261308a565b141561278b5760405162461bcd60e51b815260206004820152602260248201527f45434453413a20696e76616c6964207369676e6174757265202773272076616c604482015261756560f01b6064820152608401610a07565b600481600481111561279f5761279f61308a565b1415610c1f5760405162461bcd60e51b815260206004820152602260248201527f45434453413a20696e76616c6964207369676e6174757265202776272076616c604482015261756560f01b6064820152608401610a07565b6001600160a01b03821661284e5760405162461bcd60e51b815260206004820181905260248201527f4552433732313a206d696e7420746f20746865207a65726f20616464726573736044820152606401610a07565b6000818152600260205260409020546001600160a01b0316156128b35760405162461bcd60e51b815260206004820152601c60248201527f4552433732313a20746f6b656e20616c7265616479206d696e746564000000006044820152606401610a07565b6001600160a01b03821660009081526003602052604081208054600192906128dc908490612fa2565b909155505060008181526002602052604080822080546001600160a01b0319166001600160a01b03861690811790915590518392907fddf252ad1be2c89b69c2b068fc378daa952ba7f163c4a11628f55a4df523b3ef908290a45050565b6000807f7fffffffffffffffffffffffffffffff5d576e7357a4501ddfe92f46681b20a08311156129715750600090506003612a1e565b8460ff16601b1415801561298957508460ff16601c14155b1561299a5750600090506004612a1e565b6040805160008082526020820180845289905260ff881692820192909252606081018690526080810185905260019060a0016020604051602081039080840390855afa1580156129ee573d6000803e3d6000fd5b5050604051601f1901519150506001600160a01b038116612a1757600060019250925050612a1e565b9150600090505b94509492505050565b6000807f7fffffffffffffffffffffffffffffffffffffffffffffffffffffffffffffff831660ff84901c601b01612a618782888561293a565b935093505050935093915050565b828054612a7b90612ea7565b90600052602060002090601f016020900481019282612a9d5760008555612ae3565b82601f10612ab657805160ff1916838001178555612ae3565b82800160010185558215612ae3579182015b82811115612ae3578251825591602001919060010190612ac8565b50612aef929150612af3565b5090565b5b80821115612aef5760008155600101612af4565b6001600160e01b031981168114610c1f57600080fd5b600060208284031215612b3057600080fd5b813561154281612b08565b60005b83811015612b56578181015183820152602001612b3e565b8381111561145a5750506000910152565b60008151808452612b7f816020860160208601612b3b565b601f01601f19169290920160200192915050565b6020815260006115426020830184612b67565b600060208284031215612bb857600080fd5b5035919050565b80356001600160a01b0381168114612bd657600080fd5b919050565b60008060408385031215612bee57600080fd5b612bf783612bbf565b946020939093013593505050565b600060208284031215612c1757600080fd5b61154282612bbf565b600080600060608486031215612c3557600080fd5b612c3e84612bbf565b9250612c4c60208501612bbf565b9150604084013590509250925092565b634e487b7160e01b600052604160045260246000fd5b600067ffffffffffffffff80841115612c8d57612c8d612c5c565b604051601f8501601f19908116603f01168101908282118183101715612cb557612cb5612c5c565b81604052809350858152868686011115612cce57600080fd5b858560208301376000602087830101525050509392505050565b600060208284031215612cfa57600080fd5b813567ffffffffffffffff811115612d1157600080fd5b8201601f81018413612d2257600080fd5b61170684823560208401612c72565b60008060408385031215612d4457600080fd5b612d4d83612bbf565b915060208301358015158114612d6257600080fd5b809150509250929050565b600082601f830112612d7e57600080fd5b61154283833560208501612c72565b60008060008060808587031215612da357600080fd5b612dac85612bbf565b9350612dba60208601612bbf565b925060408501359150606085013567ffffffffffffffff811115612ddd57600080fd5b612de987828801612d6d565b91505092959194509250565b60008060408385031215612e0857600080fd5b612e1183612bbf565b9150602083013567ffffffffffffffff811115612e2d57600080fd5b612e3985828601612d6d565b9150509250929050565b60008060408385031215612e5657600080fd5b612e5f83612bbf565b9150612e6d60208401612bbf565b90509250929050565b60008060408385031215612e8957600080fd5b82359150602083013567ffffffffffffffff811115612e2d57600080fd5b600181811c90821680612ebb57607f821691505b60208210811415612edc57634e487b7160e01b600052602260045260246000fd5b50919050565b634e487b7160e01b600052601160045260246000fd5b6000600019821415612f0c57612f0c612ee2565b5060010190565b6000816000190483118215151615612f2d57612f2d612ee2565b500290565b60008351612f44818460208801612b3b565b835190830190612f58818360208801612b3b565b01949350505050565b600082821015612f7357612f73612ee2565b500390565b634e487b7160e01b600052601260045260246000fd5b600082612f9d57612f9d612f78565b500690565b60008219821115612fb557612fb5612ee2565b500190565b604081526000612fcd6040830185612b67565b90506001600160a01b03831660208301529392505050565b604081526000612ff86040830185612b67565b90508260208301529392505050565b60008261301657613016612f78565b500490565b634e487b7160e01b600052603260045260246000fd5b60006001600160a01b038087168352808616602084015250836040830152608060608301526130636080830184612b67565b9695505050505050565b60006020828403121561307f57600080fd5b815161154281612b08565b634e487b7160e01b600052602160045260246000fdfea26469706673582212202f5718f34946f5a27bd009f03e532e21ddf5292ee95e6a5261391f71d6204b0564736f6c634300080c0033",
    "linkReferences": {},
    "deployedLinkReferences": {}
}