{
  "_format": "hh-sol-artifact-1",
  "contractName": "GoodMonkeyz",
  "sourceName": "contracts/GoodMonkeyz.sol",
  "abi": [
    {
      "inputs": [],
      "stateMutability": "nonpayable",
      "type": "constructor"
    },
    {
      "inputs": [],
      "name": "ApprovalCallerNotOwnerNorApproved",
      "type": "error"
    },
    {
      "inputs": [],
      "name": "ApprovalQueryForNonexistentToken",
      "type": "error"
    },
    {
      "inputs": [],
      "name": "ApprovalToCurrentOwner",
      "type": "error"
    },
    {
      "inputs": [],
      "name": "ApproveToCaller",
      "type": "error"
    },
    {
      "inputs": [],
      "name": "BalanceQueryForZeroAddress",
      "type": "error"
    },
    {
      "inputs": [],
      "name": "MintToZeroAddress",
      "type": "error"
    },
    {
      "inputs": [],
      "name": "MintZeroQuantity",
      "type": "error"
    },
    {
      "inputs": [],
      "name": "OwnerQueryForNonexistentToken",
      "type": "error"
    },
    {
      "inputs": [],
      "name": "TransferCallerNotOwnerNorApproved",
      "type": "error"
    },
    {
      "inputs": [],
      "name": "TransferFromIncorrectOwner",
      "type": "error"
    },
    {
      "inputs": [],
      "name": "TransferToNonERC721ReceiverImplementer",
      "type": "error"
    },
    {
      "inputs": [],
      "name": "TransferToZeroAddress",
      "type": "error"
    },
    {
      "inputs": [],
      "name": "URIQueryForNonexistentToken",
      "type": "error"
    },
    {
      "anonymous": false,
      "inputs": [
        {
          "indexed": false,
          "internalType": "bool",
          "name": "status",
          "type": "bool"
        }
      ],
      "name": "AllowStatus",
      "type": "event"
    },
    {
      "anonymous": false,
      "inputs": [
        {
          "indexed": true,
          "internalType": "address",
          "name": "owner",
          "type": "address"
        },
        {
          "indexed": true,
          "internalType": "address",
          "name": "approved",
          "type": "address"
        },
        {
          "indexed": true,
          "internalType": "uint256",
          "name": "tokenId",
          "type": "uint256"
        }
      ],
      "name": "Approval",
      "type": "event"
    },
    {
      "anonymous": false,
      "inputs": [
        {
          "indexed": true,
          "internalType": "address",
          "name": "owner",
          "type": "address"
        },
        {
          "indexed": true,
          "internalType": "address",
          "name": "operator",
          "type": "address"
        },
        {
          "indexed": false,
          "internalType": "bool",
          "name": "approved",
          "type": "bool"
        }
      ],
      "name": "ApprovalForAll",
      "type": "event"
    },
    {
      "anonymous": false,
      "inputs": [
        {
          "indexed": false,
          "internalType": "bool",
          "name": "status",
          "type": "bool"
        }
      ],
      "name": "BoostStatus",
      "type": "event"
    },
    {
      "anonymous": false,
      "inputs": [
        {
          "indexed": false,
          "internalType": "address",
          "name": "sender",
          "type": "address"
        },
        {
          "indexed": false,
          "internalType": "uint256",
          "name": "tokenId",
          "type": "uint256"
        },
        {
          "indexed": false,
          "internalType": "uint256",
          "name": "amount",
          "type": "uint256"
        }
      ],
      "name": "GMMinted",
      "type": "event"
    },
    {
      "anonymous": false,
      "inputs": [
        {
          "indexed": false,
          "internalType": "bool",
          "name": "status",
          "type": "bool"
        }
      ],
      "name": "MintPassStatus",
      "type": "event"
    },
    {
      "anonymous": false,
      "inputs": [
        {
          "indexed": true,
          "internalType": "address",
          "name": "previousOwner",
          "type": "address"
        },
        {
          "indexed": true,
          "internalType": "address",
          "name": "newOwner",
          "type": "address"
        }
      ],
      "name": "OwnershipTransferred",
      "type": "event"
    },
    {
      "anonymous": false,
      "inputs": [
        {
          "indexed": false,
          "internalType": "bool",
          "name": "status",
          "type": "bool"
        }
      ],
      "name": "PublicStatus",
      "type": "event"
    },
    {
      "anonymous": false,
      "inputs": [
        {
          "indexed": true,
          "internalType": "address",
          "name": "from",
          "type": "address"
        },
        {
          "indexed": true,
          "internalType": "address",
          "name": "to",
          "type": "address"
        },
        {
          "indexed": true,
          "internalType": "uint256",
          "name": "tokenId",
          "type": "uint256"
        }
      ],
      "name": "Transfer",
      "type": "event"
    },
    {
      "inputs": [],
      "name": "ALLOW",
      "outputs": [
        {
          "internalType": "bool",
          "name": "",
          "type": "bool"
        }
      ],
      "stateMutability": "view",
      "type": "function"
    },
    {
      "inputs": [],
      "name": "ALLOW_MAX",
      "outputs": [
        {
          "internalType": "uint256",
          "name": "",
          "type": "uint256"
        }
      ],
      "stateMutability": "view",
      "type": "function"
    },
    {
      "inputs": [],
      "name": "BOOSTER",
      "outputs": [
        {
          "internalType": "bool",
          "name": "",
          "type": "bool"
        }
      ],
      "stateMutability": "view",
      "type": "function"
    },
    {
      "inputs": [],
      "name": "BOOSTER_MAX",
      "outputs": [
        {
          "internalType": "uint256",
          "name": "",
          "type": "uint256"
        }
      ],
      "stateMutability": "view",
      "type": "function"
    },
    {
      "inputs": [],
      "name": "BOOSTER_PACK_ID",
      "outputs": [
        {
          "internalType": "uint256",
          "name": "",
          "type": "uint256"
        }
      ],
      "stateMutability": "view",
      "type": "function"
    },
    {
      "inputs": [],
      "name": "GENERAL_SUPPLY",
      "outputs": [
        {
          "internalType": "uint256",
          "name": "",
          "type": "uint256"
        }
      ],
      "stateMutability": "view",
      "type": "function"
    },
    {
      "inputs": [],
      "name": "GMEditionsAddress",
      "outputs": [
        {
          "internalType": "address",
          "name": "",
          "type": "address"
        }
      ],
      "stateMutability": "view",
      "type": "function"
    },
    {
      "inputs": [],
      "name": "MINTPASS",
      "outputs": [
        {
          "internalType": "bool",
          "name": "",
          "type": "bool"
        }
      ],
      "stateMutability": "view",
      "type": "function"
    },
    {
      "inputs": [],
      "name": "MINTPASS_MAX",
      "outputs": [
        {
          "internalType": "uint256",
          "name": "",
          "type": "uint256"
        }
      ],
      "stateMutability": "view",
      "type": "function"
    },
    {
      "inputs": [],
      "name": "MINT_PASS_ID",
      "outputs": [
        {
          "internalType": "uint256",
          "name": "",
          "type": "uint256"
        }
      ],
      "stateMutability": "view",
      "type": "function"
    },
    {
      "inputs": [],
      "name": "PUBLIC",
      "outputs": [
        {
          "internalType": "bool",
          "name": "",
          "type": "bool"
        }
      ],
      "stateMutability": "view",
      "type": "function"
    },
    {
      "inputs": [],
      "name": "allowMintMax",
      "outputs": [
        {
          "internalType": "uint256",
          "name": "",
          "type": "uint256"
        }
      ],
      "stateMutability": "view",
      "type": "function"
    },
    {
      "inputs": [
        {
          "internalType": "address",
          "name": "to",
          "type": "address"
        },
        {
          "internalType": "uint256",
          "name": "tokenId",
          "type": "uint256"
        }
      ],
      "name": "approve",
      "outputs": [],
      "stateMutability": "nonpayable",
      "type": "function"
    },
    {
      "inputs": [
        {
          "internalType": "address",
          "name": "owner",
          "type": "address"
        }
      ],
      "name": "balanceOf",
      "outputs": [
        {
          "internalType": "uint256",
          "name": "",
          "type": "uint256"
        }
      ],
      "stateMutability": "view",
      "type": "function"
    },
    {
      "inputs": [],
      "name": "boosterPacksOpened",
      "outputs": [
        {
          "internalType": "uint256",
          "name": "",
          "type": "uint256"
        }
      ],
      "stateMutability": "view",
      "type": "function"
    },
    {
      "inputs": [],
      "name": "contractURI",
      "outputs": [
        {
          "internalType": "string",
          "name": "",
          "type": "string"
        }
      ],
      "stateMutability": "view",
      "type": "function"
    },
    {
      "inputs": [],
      "name": "doublePrice",
      "outputs": [
        {
          "internalType": "uint256",
          "name": "",
          "type": "uint256"
        }
      ],
      "stateMutability": "view",
      "type": "function"
    },
    {
      "inputs": [],
      "name": "flipAllowState",
      "outputs": [],
      "stateMutability": "nonpayable",
      "type": "function"
    },
    {
      "inputs": [],
      "name": "flipBoosterState",
      "outputs": [],
      "stateMutability": "nonpayable",
      "type": "function"
    },
    {
      "inputs": [],
      "name": "flipPassState",
      "outputs": [],
      "stateMutability": "nonpayable",
      "type": "function"
    },
    {
      "inputs": [],
      "name": "flipPublicState",
      "outputs": [],
      "stateMutability": "nonpayable",
      "type": "function"
    },
    {
      "inputs": [],
      "name": "genStartingIndex",
      "outputs": [],
      "stateMutability": "nonpayable",
      "type": "function"
    },
    {
      "inputs": [
        {
          "internalType": "uint256",
          "name": "tokenId",
          "type": "uint256"
        }
      ],
      "name": "getApproved",
      "outputs": [
        {
          "internalType": "address",
          "name": "",
          "type": "address"
        }
      ],
      "stateMutability": "view",
      "type": "function"
    },
    {
      "inputs": [],
      "name": "indexSet",
      "outputs": [
        {
          "internalType": "bool",
          "name": "",
          "type": "bool"
        }
      ],
      "stateMutability": "view",
      "type": "function"
    },
    {
      "inputs": [
        {
          "internalType": "address",
          "name": "owner",
          "type": "address"
        },
        {
          "internalType": "address",
          "name": "operator",
          "type": "address"
        }
      ],
      "name": "isApprovedForAll",
      "outputs": [
        {
          "internalType": "bool",
          "name": "",
          "type": "bool"
        }
      ],
      "stateMutability": "view",
      "type": "function"
    },
    {
      "inputs": [
        {
          "internalType": "uint256",
          "name": "_amount",
          "type": "uint256"
        }
      ],
      "name": "mint",
      "outputs": [],
      "stateMutability": "payable",
      "type": "function"
    },
    {
      "inputs": [
        {
          "internalType": "uint256",
          "name": "_amount",
          "type": "uint256"
        },
        {
          "internalType": "bytes",
          "name": "signature",
          "type": "bytes"
        }
      ],
      "name": "mintAllow",
      "outputs": [],
      "stateMutability": "payable",
      "type": "function"
    },
    {
      "inputs": [
        {
          "internalType": "address",
          "name": "",
          "type": "address"
        }
      ],
      "name": "mintList",
      "outputs": [
        {
          "internalType": "uint256",
          "name": "",
          "type": "uint256"
        }
      ],
      "stateMutability": "view",
      "type": "function"
    },
    {
      "inputs": [],
      "name": "mintPassUsed",
      "outputs": [
        {
          "internalType": "uint256",
          "name": "",
          "type": "uint256"
        }
      ],
      "stateMutability": "view",
      "type": "function"
    },
    {
      "inputs": [],
      "name": "mintWithBoosterPack",
      "outputs": [],
      "stateMutability": "nonpayable",
      "type": "function"
    },
    {
      "inputs": [],
      "name": "mintWithPass",
      "outputs": [],
      "stateMutability": "nonpayable",
      "type": "function"
    },
    {
      "inputs": [],
      "name": "name",
      "outputs": [
        {
          "internalType": "string",
          "name": "",
          "type": "string"
        }
      ],
      "stateMutability": "view",
      "type": "function"
    },
    {
      "inputs": [],
      "name": "owner",
      "outputs": [
        {
          "internalType": "address",
          "name": "",
          "type": "address"
        }
      ],
      "stateMutability": "view",
      "type": "function"
    },
    {
      "inputs": [
        {
          "internalType": "uint256",
          "name": "tokenId",
          "type": "uint256"
        }
      ],
      "name": "ownerOf",
      "outputs": [
        {
          "internalType": "address",
          "name": "",
          "type": "address"
        }
      ],
      "stateMutability": "view",
      "type": "function"
    },
    {
      "inputs": [],
      "name": "povenanceSet",
      "outputs": [
        {
          "internalType": "bool",
          "name": "",
          "type": "bool"
        }
      ],
      "stateMutability": "view",
      "type": "function"
    },
    {
      "inputs": [],
      "name": "price",
      "outputs": [
        {
          "internalType": "uint256",
          "name": "",
          "type": "uint256"
        }
      ],
      "stateMutability": "view",
      "type": "function"
    },
    {
      "inputs": [],
      "name": "prizeIndex",
      "outputs": [
        {
          "internalType": "uint256",
          "name": "",
          "type": "uint256"
        }
      ],
      "stateMutability": "view",
      "type": "function"
    },
    {
      "inputs": [],
      "name": "prizeListHash",
      "outputs": [
        {
          "internalType": "string",
          "name": "",
          "type": "string"
        }
      ],
      "stateMutability": "view",
      "type": "function"
    },
    {
      "inputs": [],
      "name": "provenanceHash",
      "outputs": [
        {
          "internalType": "string",
          "name": "",
          "type": "string"
        }
      ],
      "stateMutability": "view",
      "type": "function"
    },
    {
      "inputs": [],
      "name": "publicMintMax",
      "outputs": [
        {
          "internalType": "uint256",
          "name": "",
          "type": "uint256"
        }
      ],
      "stateMutability": "view",
      "type": "function"
    },
    {
      "inputs": [
        {
          "internalType": "address",
          "name": "_address",
          "type": "address"
        },
        {
          "internalType": "bytes",
          "name": "signature",
          "type": "bytes"
        }
      ],
      "name": "recoverSigner",
      "outputs": [
        {
          "internalType": "address",
          "name": "",
          "type": "address"
        }
      ],
      "stateMutability": "pure",
      "type": "function"
    },
    {
      "inputs": [],
      "name": "renounceOwnership",
      "outputs": [],
      "stateMutability": "nonpayable",
      "type": "function"
    },
    {
      "inputs": [
        {
          "internalType": "address",
          "name": "from",
          "type": "address"
        },
        {
          "internalType": "address",
          "name": "to",
          "type": "address"
        },
        {
          "internalType": "uint256",
          "name": "tokenId",
          "type": "uint256"
        }
      ],
      "name": "safeTransferFrom",
      "outputs": [],
      "stateMutability": "nonpayable",
      "type": "function"
    },
    {
      "inputs": [
        {
          "internalType": "address",
          "name": "from",
          "type": "address"
        },
        {
          "internalType": "address",
          "name": "to",
          "type": "address"
        },
        {
          "internalType": "uint256",
          "name": "tokenId",
          "type": "uint256"
        },
        {
          "internalType": "bytes",
          "name": "_data",
          "type": "bytes"
        }
      ],
      "name": "safeTransferFrom",
      "outputs": [],
      "stateMutability": "nonpayable",
      "type": "function"
    },
    {
      "inputs": [
        {
          "internalType": "address",
          "name": "operator",
          "type": "address"
        },
        {
          "internalType": "bool",
          "name": "approved",
          "type": "bool"
        }
      ],
      "name": "setApprovalForAll",
      "outputs": [],
      "stateMutability": "nonpayable",
      "type": "function"
    },
    {
      "inputs": [
        {
          "internalType": "string",
          "name": "newURI",
          "type": "string"
        }
      ],
      "name": "setBaseURI",
      "outputs": [],
      "stateMutability": "nonpayable",
      "type": "function"
    },
    {
      "inputs": [
        {
          "internalType": "string",
          "name": "uri",
          "type": "string"
        }
      ],
      "name": "setContractURI",
      "outputs": [],
      "stateMutability": "nonpayable",
      "type": "function"
    },
    {
      "inputs": [
        {
          "internalType": "address",
          "name": "_GMEditionsAddress",
          "type": "address"
        }
      ],
      "name": "setMerchAddress",
      "outputs": [],
      "stateMutability": "nonpayable",
      "type": "function"
    },
    {
      "inputs": [
        {
          "internalType": "uint256",
          "name": "_max",
          "type": "uint256"
        }
      ],
      "name": "setNewAllowMax",
      "outputs": [],
      "stateMutability": "nonpayable",
      "type": "function"
    },
    {
      "inputs": [
        {
          "internalType": "uint256",
          "name": "_price",
          "type": "uint256"
        },
        {
          "internalType": "uint256",
          "name": "_doublePrice",
          "type": "uint256"
        }
      ],
      "name": "setNewPrice",
      "outputs": [],
      "stateMutability": "nonpayable",
      "type": "function"
    },
    {
      "inputs": [
        {
          "internalType": "uint256",
          "name": "_max",
          "type": "uint256"
        }
      ],
      "name": "setNewPublicMax",
      "outputs": [],
      "stateMutability": "nonpayable",
      "type": "function"
    },
    {
      "inputs": [
        {
          "internalType": "string",
          "name": "_provenanceHash",
          "type": "string"
        },
        {
          "internalType": "string",
          "name": "_prizeListHash",
          "type": "string"
        }
      ],
      "name": "setProvenance",
      "outputs": [],
      "stateMutability": "nonpayable",
      "type": "function"
    },
    {
      "inputs": [],
      "name": "startingIndex",
      "outputs": [
        {
          "internalType": "uint256",
          "name": "",
          "type": "uint256"
        }
      ],
      "stateMutability": "view",
      "type": "function"
    },
    {
      "inputs": [
        {
          "internalType": "bytes4",
          "name": "interfaceId",
          "type": "bytes4"
        }
      ],
      "name": "supportsInterface",
      "outputs": [
        {
          "internalType": "bool",
          "name": "",
          "type": "bool"
        }
      ],
      "stateMutability": "view",
      "type": "function"
    },
    {
      "inputs": [],
      "name": "symbol",
      "outputs": [
        {
          "internalType": "string",
          "name": "",
          "type": "string"
        }
      ],
      "stateMutability": "view",
      "type": "function"
    },
    {
      "inputs": [
        {
          "internalType": "uint256",
          "name": "tokenId",
          "type": "uint256"
        }
      ],
      "name": "tokenURI",
      "outputs": [
        {
          "internalType": "string",
          "name": "",
          "type": "string"
        }
      ],
      "stateMutability": "view",
      "type": "function"
    },
    {
      "inputs": [],
      "name": "totalSupply",
      "outputs": [
        {
          "internalType": "uint256",
          "name": "",
          "type": "uint256"
        }
      ],
      "stateMutability": "view",
      "type": "function"
    },
    {
      "inputs": [
        {
          "internalType": "address",
          "name": "from",
          "type": "address"
        },
        {
          "internalType": "address",
          "name": "to",
          "type": "address"
        },
        {
          "internalType": "uint256",
          "name": "tokenId",
          "type": "uint256"
        }
      ],
      "name": "transferFrom",
      "outputs": [],
      "stateMutability": "nonpayable",
      "type": "function"
    },
    {
      "inputs": [
        {
          "internalType": "address",
          "name": "newOwner",
          "type": "address"
        }
      ],
      "name": "transferOwnership",
      "outputs": [],
      "stateMutability": "nonpayable",
      "type": "function"
    },
    {
      "inputs": [],
      "name": "withdraw",
      "outputs": [],
      "stateMutability": "nonpayable",
      "type": "function"
    }
  ],
  "bytecode": "0x600980546001600160a01b0319167366722f13f6e5dceb94c5f2ab8e6a2028039e83931790556001600a556002600b819055612328600c55611f40600d5560fa600e819055600f5560108190556011556701118f178fb480006012556701daff710e784000601355601a805465ffffffffffff1916905560e06040526036608081815290620036da60a0398051620000a091601b91602090910190620001b8565b50604051806060016040528060358152602001620036a5603591398051620000d191601c91602090910190620001b8565b50348015620000df57600080fd5b506040518060400160405280600b81526020016a23b7b7b226b7b735b2bcbd60a91b81525060405180604001604052806002815260200161474d60f01b815250816002908051906020019062000137929190620001b8565b5080516200014d906003906020840190620001b8565b5050600160005550620001603362000166565b6200029b565b600880546001600160a01b038381166001600160a01b0319831681179093556040519116919082907f8be0079c531659141344cd1fd0a4f28419497f9722a3daafe3b4186f6b6457e090600090a35050565b828054620001c6906200025e565b90600052602060002090601f016020900481019282620001ea576000855562000235565b82601f106200020557805160ff191683800117855562000235565b8280016001018555821562000235579182015b828111156200023557825182559160200191906001019062000218565b506200024392915062000247565b5090565b5b8082111562000243576000815560010162000248565b600181811c908216806200027357607f821691505b602082108114156200029557634e487b7160e01b600052602260045260246000fd5b50919050565b6133fa80620002ab6000396000f3fe6080604052600436106103975760003560e01c8063a0712d68116101dc578063cbcf4a8411610102578063e8a3d485116100a0578063f6b6f2ba1161006f578063f6b6f2ba14610a02578063f8c3e57814610a18578063face47fc14610a2e578063fd17af0914610a4357600080fd5b8063e8a3d4851461096f578063e985e9c514610984578063f2fde38b146109cd578063f3c9237c146109ed57600080fd5b8063da858dd8116100dc578063da858dd814610903578063e23a60fe14610919578063e4ffe7d714610939578063e53e3a041461094f57600080fd5b8063cbcf4a84146108c2578063d025a4e0146108d7578063d98e3028146108ed57600080fd5b8063bef432c61161017a578063c6ab67a311610149578063c6ab67a314610862578063c87b56dd14610877578063ca6b40f814610897578063cb774d47146108ac57600080fd5b8063bef432c6146107e9578063bf89e3d914610816578063c1179a7f1461082c578063c11d561c1461084c57600080fd5b8063a22cb465116101b6578063a22cb4651461077e578063b17669b91461079e578063b83b3033146107b3578063b88d4fde146107c957600080fd5b8063a0712d6814610740578063a11bff2e14610753578063a12cc9d81461076857600080fd5b806342842e0e116102c157806375b0ffd11161025f578063938e3d7b1161022e578063938e3d7b146106e057806395d89b41146107005780639757f8ec14610715578063a035b1fe1461072a57600080fd5b806375b0ffd11461066a5780637d5b20081461068d578063882b1808146106ad5780638da5cb5b146106c257600080fd5b80636352211e1161029b5780636352211e146105f357806370a0823114610613578063715018a614610633578063725896ac1461064857600080fd5b806342842e0e1461059357806355f804b3146105b35780635f9b96f8146105d357600080fd5b80631166d34e1161033957806323b872dd1161030857806323b872dd1461051f57806338c410b51461053f5780633ccfd60b1461055f5780633d486e2c1461057457600080fd5b80631166d34e146104ac57806318160ddd146104c25780631e5a41b8146104df578063221c088f146104ff57600080fd5b8063081812fc11610375578063081812fc14610417578063095ea7b31461044f5780630b5dfc39146104715780630ee1598e1461049257600080fd5b806301ffc9a71461039c5780630303c609146103d157806306fdde03146103f5575b600080fd5b3480156103a857600080fd5b506103bc6103b7366004612e15565b610a56565b60405190151581526020015b60405180910390f35b3480156103dd57600080fd5b506103e760135481565b6040519081526020016103c8565b34801561040157600080fd5b5061040a610af3565b6040516103c89190612e8a565b34801561042357600080fd5b50610437610432366004612e9d565b610b85565b6040516001600160a01b0390911681526020016103c8565b34801561045b57600080fd5b5061046f61046a366004612ecd565b610be2565b005b34801561047d57600080fd5b50601a546103bc906301000000900460ff1681565b34801561049e57600080fd5b50601a546103bc9060ff1681565b3480156104b857600080fd5b506103e760155481565b3480156104ce57600080fd5b5060015460005403600019016103e7565b3480156104eb57600080fd5b5061046f6104fa366004612ef7565b610ca2565b34801561050b57600080fd5b5061046f61051a366004612e9d565b610d1e565b34801561052b57600080fd5b5061046f61053a366004612f12565b610d6b565b34801561054b57600080fd5b5061046f61055a366004612ff1565b610d76565b34801561056b57600080fd5b5061046f610e4a565b34801561058057600080fd5b50601a546103bc90610100900460ff1681565b34801561059f57600080fd5b5061046f6105ae366004612f12565b610f30565b3480156105bf57600080fd5b5061046f6105ce366004613055565b610f4b565b3480156105df57600080fd5b50600954610437906001600160a01b031681565b3480156105ff57600080fd5b5061043761060e366004612e9d565b610fa6565b34801561061f57600080fd5b506103e761062e366004612ef7565b610fb8565b34801561063f57600080fd5b5061046f611020565b34801561065457600080fd5b50601a546103bc90640100000000900460ff1681565b34801561067657600080fd5b50601a546103bc9065010000000000900460ff1681565b34801561069957600080fd5b5061046f6106a8366004612e9d565b611074565b3480156106b957600080fd5b5061046f6110c1565b3480156106ce57600080fd5b506008546001600160a01b0316610437565b3480156106ec57600080fd5b5061046f6106fb366004613055565b61116d565b34801561070c57600080fd5b5061040a6111c8565b34801561072157600080fd5b5061046f6111d7565b34801561073657600080fd5b506103e760125481565b61046f61074e366004612e9d565b611374565b34801561075f57600080fd5b5061040a611589565b34801561077457600080fd5b506103e760145481565b34801561078a57600080fd5b5061046f61079936600461308a565b611617565b3480156107aa57600080fd5b5061046f6116c6565b3480156107bf57600080fd5b506103e7600e5481565b3480156107d557600080fd5b5061046f6107e43660046130c6565b61176e565b3480156107f557600080fd5b506103e7610804366004612ef7565b601d6020526000908152604090205481565b34801561082257600080fd5b506103e7600a5481565b34801561083857600080fd5b50601a546103bc9062010000900460ff1681565b34801561085857600080fd5b506103e7600b5481565b34801561086e57600080fd5b5061040a6117bf565b34801561088357600080fd5b5061040a610892366004612e9d565b6117cc565b3480156108a357600080fd5b5061046f61186a565b3480156108b857600080fd5b506103e760185481565b3480156108ce57600080fd5b5061046f611910565b3480156108e357600080fd5b506103e760105481565b3480156108f957600080fd5b506103e7600c5481565b34801561090f57600080fd5b506103e7600f5481565b34801561092557600080fd5b5061046f61093436600461312e565b611a4b565b34801561094557600080fd5b506103e760195481565b34801561095b57600080fd5b5061043761096a366004613150565b611a9e565b34801561097b57600080fd5b5061040a611b35565b34801561099057600080fd5b506103bc61099f366004613194565b6001600160a01b03918216600090815260076020908152604080832093909416825291909152205460ff1690565b3480156109d957600080fd5b5061046f6109e8366004612ef7565b611b44565b3480156109f957600080fd5b5061046f611c11565b348015610a0e57600080fd5b506103e760115481565b348015610a2457600080fd5b506103e7600d5481565b348015610a3a57600080fd5b5061046f611cb5565b61046f610a513660046131c7565b611e2c565b60006001600160e01b031982167f80ac58cd000000000000000000000000000000000000000000000000000000001480610ab957506001600160e01b031982167f5b5e139f00000000000000000000000000000000000000000000000000000000145b80610aed57507f01ffc9a7000000000000000000000000000000000000000000000000000000006001600160e01b03198316145b92915050565b606060028054610b02906131f8565b80601f0160208091040260200160405190810160405280929190818152602001828054610b2e906131f8565b8015610b7b5780601f10610b5057610100808354040283529160200191610b7b565b820191906000526020600020905b815481529060010190602001808311610b5e57829003601f168201915b5050505050905090565b6000610b90826120a1565b610bc6576040517fcf4700e400000000000000000000000000000000000000000000000000000000815260040160405180910390fd5b506000908152600660205260409020546001600160a01b031690565b6000610bed82610fa6565b9050806001600160a01b0316836001600160a01b03161415610c3b576040517f943f7b8c00000000000000000000000000000000000000000000000000000000815260040160405180910390fd5b336001600160a01b03821614801590610c5b5750610c59813361099f565b155b15610c92576040517fcfb3b94200000000000000000000000000000000000000000000000000000000815260040160405180910390fd5b610c9d8383836120da565b505050565b6008546001600160a01b03163314610cef5760405162461bcd60e51b815260206004820181905260248201526000805160206133a583398151915260448201526064015b60405180910390fd5b6009805473ffffffffffffffffffffffffffffffffffffffff19166001600160a01b0392909216919091179055565b6008546001600160a01b03163314610d665760405162461bcd60e51b815260206004820181905260248201526000805160206133a58339815191526044820152606401610ce6565b601055565b610c9d838383612143565b6008546001600160a01b03163314610dbe5760405162461bcd60e51b815260206004820181905260248201526000805160206133a58339815191526044820152606401610ce6565b601a5460ff1615610e115760405162461bcd60e51b815260206004820152601a60248201527f50524f56454e414e43452043414e4e4f542042452052455345540000000000006044820152606401610ce6565b8151610e24906016906020850190612d66565b508051610e38906017906020840190612d66565b5050601a805460ff1916600117905550565b6008546001600160a01b03163314610e925760405162461bcd60e51b815260206004820181905260248201526000805160206133a58339815191526044820152606401610ce6565b6040514790600090339083908381818185875af1925050503d8060008114610ed6576040519150601f19603f3d011682016040523d82523d6000602084013e610edb565b606091505b5050905080610f2c5760405162461bcd60e51b815260206004820152601960248201527f4661696c656420746f20776964746864726177204574686572000000000000006044820152606401610ce6565b5050565b610c9d8383836040518060200160405280600081525061176e565b6008546001600160a01b03163314610f935760405162461bcd60e51b815260206004820181905260248201526000805160206133a58339815191526044820152606401610ce6565b8051610f2c90601b906020840190612d66565b6000610fb18261237f565b5192915050565b60006001600160a01b038216610ffa576040517f8f4eb60400000000000000000000000000000000000000000000000000000000815260040160405180910390fd5b506001600160a01b031660009081526005602052604090205467ffffffffffffffff1690565b6008546001600160a01b031633146110685760405162461bcd60e51b815260206004820181905260248201526000805160206133a58339815191526044820152606401610ce6565b61107260006124c1565b565b6008546001600160a01b031633146110bc5760405162461bcd60e51b815260206004820181905260248201526000805160206133a58339815191526044820152606401610ce6565b601155565b6008546001600160a01b031633146111095760405162461bcd60e51b815260206004820181905260248201526000805160206133a58339815191526044820152606401610ce6565b601a805460ff62010000808304821615810262ff00001990931692909217928390556040517fa1a6774a405a5fcfb44fb66b9f85585f8d55822c54a4f55b1f7d8695c9411a7b936111639390049091161515815260200190565b60405180910390a1565b6008546001600160a01b031633146111b55760405162461bcd60e51b815260206004820181905260248201526000805160206133a58339815191526044820152606401610ce6565b8051610f2c90601c906020840190612d66565b606060038054610b02906131f8565b601a5465010000000000900460ff166112575760405162461bcd60e51b8152602060048201526024808201527f4d494e54494e47205749544820424f4f53544552205041434b202d204e4f542060448201527f4f50454e000000000000000000000000000000000000000000000000000000006064820152608401610ce6565b600f54601554106112aa5760405162461bcd60e51b815260206004820152601c60248201527f424f4f53544552205041434b20414c4c4f434154494f4e2055534544000000006044820152606401610ce6565b600954600b54604051633477cc1b60e21b815233600482015260248101919091526001600160a01b039091169063d1df306c90604401600060405180830381600087803b1580156112fa57600080fd5b505af115801561130e573d6000803e3d6000fd5b5050600054604080513381526020810192909252600382820152517fa3a54c26d4c468274affa0a1ec9c9f8a2d6bef5dbced695c9f2a689b52a012469350908190036060019150a160156000815461136590613249565b90915550611072336003612520565b601a5462010000900460ff166113cc5760405162461bcd60e51b815260206004820152601260248201527f4d494e54494e47202d204e4f54204f50454e00000000000000000000000000006044820152606401610ce6565b60105481111561141e5760405162461bcd60e51b815260206004820152601860248201527f41424f5645204d4158204d4f4e4b45595a2050455220545800000000000000006044820152606401610ce6565b8060125461142c9190613264565b34101561147b5760405162461bcd60e51b815260206004820152601360248201527f4e6f7420656e6f756768204554482073656e74000000000000000000000000006044820152606401610ce6565b61148361253a565b600154600054839190036000190161149b9190613283565b11156114e95760405162461bcd60e51b815260206004820152601a60248201527f5075626c696320416c6c6f636174696f6e20536f6c64206f75740000000000006044820152606401610ce6565b3332146115385760405162461bcd60e51b815260206004820152600760248201527f6e6f20626f7473000000000000000000000000000000000000000000000000006044820152606401610ce6565b60005460408051338152602081019290925281018290527fa3a54c26d4c468274affa0a1ec9c9f8a2d6bef5dbced695c9f2a689b52a012469060600160405180910390a16115863382612520565b50565b60178054611596906131f8565b80601f01602080910402602001604051908101604052809291908181526020018280546115c2906131f8565b801561160f5780601f106115e45761010080835404028352916020019161160f565b820191906000526020600020905b8154815290600101906020018083116115f257829003601f168201915b505050505081565b6001600160a01b03821633141561165a576040517fb06307db00000000000000000000000000000000000000000000000000000000815260040160405180910390fd5b3360008181526007602090815260408083206001600160a01b03871680855290835292819020805460ff191686151590811790915590519081529192917f17307eab39ab6107e8899845ad3d59bd9653f200f220920489ca2b5937696c31910160405180910390a35050565b6008546001600160a01b0316331461170e5760405162461bcd60e51b815260206004820181905260248201526000805160206133a58339815191526044820152606401610ce6565b601a805460ff65010000000000808304821615810265ff00000000001990931692909217928390556040517fc9506c77e986e37c2d83971790f9e8ba5396e09dc35d5302040cfa37204c9b02936111639390049091161515815260200190565b611779848484612143565b6001600160a01b0383163b1515801561179b57506117998484848461256a565b155b156117b9576040516368d2bf6b60e11b815260040160405180910390fd5b50505050565b60168054611596906131f8565b60606117d7826120a1565b61180d576040517fa14c4b5000000000000000000000000000000000000000000000000000000000815260040160405180910390fd5b6000611817612652565b90508051600014156118385760405180602001604052806000815250611863565b8061184284612661565b60405160200161185392919061329b565b6040516020818303038152906040525b9392505050565b6008546001600160a01b031633146118b25760405162461bcd60e51b815260206004820181905260248201526000805160206133a58339815191526044820152606401610ce6565b601a805460ff640100000000808304821615810264ff000000001990931692909217928390556040517f080b3e5d8d1bb1f23740b136e59393672a65dfa763769ddc24b0385ea8c8b842936111639390049091161515815260200190565b6008546001600160a01b031633146119585760405162461bcd60e51b815260206004820181905260248201526000805160206133a58339815191526044820152606401610ce6565b601a5460ff166119aa5760405162461bcd60e51b815260206004820152601c60248201527f50524f56454e414e4345204d55535420424520534554204649525354000000006044820152606401610ce6565b601a54610100900460ff1615611a025760405162461bcd60e51b815260206004820152601560248201527f494e4445582043414e4e4f5420424520524553455400000000000000000000006044820152606401610ce6565b612710611a106001436132ca565b611a1b9190406132f7565b601855611f40611a2c6001436132ca565b611a379190406132f7565b601955601a805461ff001916610100179055565b6008546001600160a01b03163314611a935760405162461bcd60e51b815260206004820181905260248201526000805160206133a58339815191526044820152606401610ce6565b601291909155601355565b6040516bffffffffffffffffffffffff19606084901b166020820152600090819060340160408051601f198184030181529082905280516020918201207f19457468657265756d205369676e6564204d6573736167653a0a33320000000091830191909152603c820152605c01604051602081830303815290604052805190602001209050611b2d8184612793565b949350505050565b6060601c8054610b02906131f8565b6008546001600160a01b03163314611b8c5760405162461bcd60e51b815260206004820181905260248201526000805160206133a58339815191526044820152606401610ce6565b6001600160a01b038116611c085760405162461bcd60e51b815260206004820152602660248201527f4f776e61626c653a206e6577206f776e657220697320746865207a65726f206160448201527f64647265737300000000000000000000000000000000000000000000000000006064820152608401610ce6565b611586816124c1565b6008546001600160a01b03163314611c595760405162461bcd60e51b815260206004820181905260248201526000805160206133a58339815191526044820152606401610ce6565b601a805460ff6301000000808304821615810263ff0000001990931692909217928390556040517fe5e08b5a583973071c5df7f5da64b39b874e78e79697f329dcb93525ee2c70cc936111639390049091161515815260200190565b601a54640100000000900460ff16611d0f5760405162461bcd60e51b815260206004820152601c60248201527f4d494e54494e4720574954482050415353202d204e4f54204f50454e000000006044820152606401610ce6565b600e5460145410611d625760405162461bcd60e51b815260206004820152601960248201527f4d494e54205041535320414c4c4f434154494f4e2055534544000000000000006044820152606401610ce6565b600954600a54604051633477cc1b60e21b815233600482015260248101919091526001600160a01b039091169063d1df306c90604401600060405180830381600087803b158015611db257600080fd5b505af1158015611dc6573d6000803e3d6000fd5b5050600054604080513381526020810192909252600182820152517fa3a54c26d4c468274affa0a1ec9c9f8a2d6bef5dbced695c9f2a689b52a012469350908190036060019150a1601460008154611e1d90613249565b90915550611072336001612520565b601a546301000000900460ff16611e855760405162461bcd60e51b815260206004820152601d60248201527f4d494e54494e4720414c4c4f57204c495354202d204e4f54204f50454e0000006044820152606401610ce6565b611e8e826127b7565b341015611edd5760405162461bcd60e51b815260206004820152601360248201527f4e6f7420656e6f756768204554482073656e74000000000000000000000000006044820152606401610ce6565b601454600d54611eed9190613283565b6001546000548491900360001901611f059190613283565b1115611f535760405162461bcd60e51b815260206004820152601360248201527f414c4c4f57206c69737420536f6c64206f7574000000000000000000000000006044820152606401610ce6565b6008546001600160a01b0316611f693383611a9e565b6001600160a01b031614611fbf5760405162461bcd60e51b815260206004820152601a60248201527f41646472657373206973206e6f7420616c6c6f776c69737465640000000000006044820152606401610ce6565b601154336000908152601d6020526040902054611fdd908490613283565b111561202b5760405162461bcd60e51b815260206004820152601860248201527f41424f5645204d4158204d494e545320524553455256454400000000000000006044820152606401610ce6565b60005460408051338152602081019290925281018390527fa3a54c26d4c468274affa0a1ec9c9f8a2d6bef5dbced695c9f2a689b52a012469060600160405180910390a16120793383612520565b336000908152601d602052604081208054849290612098908490613283565b90915550505050565b6000816001111580156120b5575060005482105b8015610aed575050600090815260046020526040902054600160e01b900460ff161590565b600082815260066020526040808220805473ffffffffffffffffffffffffffffffffffffffff19166001600160a01b0387811691821790925591518593918516917f8c5be1e5ebec7d5bd14f71427d1e84f3dd0314c0f7b2291e5b200ac8c7c3b92591a4505050565b600061214e8261237f565b9050836001600160a01b031681600001516001600160a01b03161461219f576040517fa114810000000000000000000000000000000000000000000000000000000000815260040160405180910390fd5b6000336001600160a01b03861614806121bd57506121bd853361099f565b806121d85750336121cd84610b85565b6001600160a01b0316145b905080612211576040517f59c896be00000000000000000000000000000000000000000000000000000000815260040160405180910390fd5b6001600160a01b038416612251576040517fea553b3400000000000000000000000000000000000000000000000000000000815260040160405180910390fd5b61225d600084876120da565b6001600160a01b038581166000908152600560209081526040808320805467ffffffffffffffff1980821667ffffffffffffffff92831660001901831617909255898616808652838620805493841693831660019081018416949094179055898652600490945282852080546001600160e01b031916909417600160a01b42909216919091021783558701808452922080549193909116612333576000548214612333578054602086015167ffffffffffffffff16600160a01b026001600160e01b03199091166001600160a01b038a16171781555b50505082846001600160a01b0316866001600160a01b03167fddf252ad1be2c89b69c2b068fc378daa952ba7f163c4a11628f55a4df523b3ef60405160405180910390a45b5050505050565b604080516060810182526000808252602082018190529181019190915281806001111580156123af575060005481105b1561248f57600081815260046020908152604091829020825160608101845290546001600160a01b0381168252600160a01b810467ffffffffffffffff1692820192909252600160e01b90910460ff1615159181018290529061248d5780516001600160a01b031615612423579392505050565b5060001901600081815260046020908152604091829020825160608101845290546001600160a01b038116808352600160a01b820467ffffffffffffffff1693830193909352600160e01b900460ff1615159281019290925215612488579392505050565b612423565b505b6040517fdf2d9b4200000000000000000000000000000000000000000000000000000000815260040160405180910390fd5b600880546001600160a01b0383811673ffffffffffffffffffffffffffffffffffffffff19831681179093556040519116919082907f8be0079c531659141344cd1fd0a4f28419497f9722a3daafe3b4186f6b6457e090600090a35050565b610f2c8282604051806020016040528060008152506127dc565b6000601554600361254b9190613264565b601454600c5461255b9190613283565b6125659190613283565b905090565b604051630a85bd0160e11b81526000906001600160a01b0385169063150b7a029061259f90339089908890889060040161330b565b6020604051808303816000875af19250505080156125da575060408051601f3d908101601f191682019092526125d791810190613347565b60015b612635573d808015612608576040519150601f19603f3d011682016040523d82523d6000602084013e61260d565b606091505b50805161262d576040516368d2bf6b60e11b815260040160405180910390fd5b805181602001fd5b6001600160e01b031916630a85bd0160e11b149050949350505050565b6060601b8054610b02906131f8565b6060816126a157505060408051808201909152600181527f3000000000000000000000000000000000000000000000000000000000000000602082015290565b8160005b81156126cb57806126b581613249565b91506126c49050600a83613364565b91506126a5565b60008167ffffffffffffffff8111156126e6576126e6612f4e565b6040519080825280601f01601f191660200182016040528015612710576020820181803683370190505b5090505b8415611b2d576127256001836132ca565b9150612732600a866132f7565b61273d906030613283565b60f81b81838151811061275257612752613378565b60200101907effffffffffffffffffffffffffffffffffffffffffffffffffffffffffffff1916908160001a90535061278c600a86613364565b9450612714565b60008060006127a285856127e9565b915091506127af81612859565b509392505050565b600081600214156127ca57505060135490565b601254610aed9083613264565b919050565b610c9d8383836001612a14565b6000808251604114156128205760208301516040840151606085015160001a61281487828585612c27565b94509450505050612852565b82516040141561284a576020830151604084015161283f868383612d14565b935093505050612852565b506000905060025b9250929050565b600081600481111561286d5761286d61338e565b14156128765750565b600181600481111561288a5761288a61338e565b14156128d85760405162461bcd60e51b815260206004820152601860248201527f45434453413a20696e76616c6964207369676e617475726500000000000000006044820152606401610ce6565b60028160048111156128ec576128ec61338e565b141561293a5760405162461bcd60e51b815260206004820152601f60248201527f45434453413a20696e76616c6964207369676e6174757265206c656e677468006044820152606401610ce6565b600381600481111561294e5761294e61338e565b14156129a75760405162461bcd60e51b815260206004820152602260248201527f45434453413a20696e76616c6964207369676e6174757265202773272076616c604482015261756560f01b6064820152608401610ce6565b60048160048111156129bb576129bb61338e565b14156115865760405162461bcd60e51b815260206004820152602260248201527f45434453413a20696e76616c6964207369676e6174757265202776272076616c604482015261756560f01b6064820152608401610ce6565b6000546001600160a01b038516612a57576040517f2e07630000000000000000000000000000000000000000000000000000000000815260040160405180910390fd5b83612a8e576040517fb562e8dd00000000000000000000000000000000000000000000000000000000815260040160405180910390fd5b6001600160a01b038516600081815260056020908152604080832080547fffffffffffffffffffffffffffffffff00000000000000000000000000000000811667ffffffffffffffff8083168c0181169182176801000000000000000067ffffffffffffffff1990941690921783900481168c01811690920217909155858452600490925290912080546001600160e01b031916909217600160a01b429092169190910217905580808501838015612b4f57506001600160a01b0387163b15155b15612bd8575b60405182906001600160a01b038916906000907fddf252ad1be2c89b69c2b068fc378daa952ba7f163c4a11628f55a4df523b3ef908290a4612ba0600088848060010195508861256a565b612bbd576040516368d2bf6b60e11b815260040160405180910390fd5b80821415612b55578260005414612bd357600080fd5b612c1e565b5b6040516001830192906001600160a01b038916906000907fddf252ad1be2c89b69c2b068fc378daa952ba7f163c4a11628f55a4df523b3ef908290a480821415612bd9575b50600055612378565b6000807f7fffffffffffffffffffffffffffffff5d576e7357a4501ddfe92f46681b20a0831115612c5e5750600090506003612d0b565b8460ff16601b14158015612c7657508460ff16601c14155b15612c875750600090506004612d0b565b6040805160008082526020820180845289905260ff881692820192909252606081018690526080810185905260019060a0016020604051602081039080840390855afa158015612cdb573d6000803e3d6000fd5b5050604051601f1901519150506001600160a01b038116612d0457600060019250925050612d0b565b9150600090505b94509492505050565b6000807f7fffffffffffffffffffffffffffffffffffffffffffffffffffffffffffffff831681612d4a60ff86901c601b613283565b9050612d5887828885612c27565b935093505050935093915050565b828054612d72906131f8565b90600052602060002090601f016020900481019282612d945760008555612dda565b82601f10612dad57805160ff1916838001178555612dda565b82800160010185558215612dda579182015b82811115612dda578251825591602001919060010190612dbf565b50612de6929150612dea565b5090565b5b80821115612de65760008155600101612deb565b6001600160e01b03198116811461158657600080fd5b600060208284031215612e2757600080fd5b813561186381612dff565b60005b83811015612e4d578181015183820152602001612e35565b838111156117b95750506000910152565b60008151808452612e76816020860160208601612e32565b601f01601f19169290920160200192915050565b6020815260006118636020830184612e5e565b600060208284031215612eaf57600080fd5b5035919050565b80356001600160a01b03811681146127d757600080fd5b60008060408385031215612ee057600080fd5b612ee983612eb6565b946020939093013593505050565b600060208284031215612f0957600080fd5b61186382612eb6565b600080600060608486031215612f2757600080fd5b612f3084612eb6565b9250612f3e60208501612eb6565b9150604084013590509250925092565b634e487b7160e01b600052604160045260246000fd5b600082601f830112612f7557600080fd5b813567ffffffffffffffff80821115612f9057612f90612f4e565b604051601f8301601f19908116603f01168101908282118183101715612fb857612fb8612f4e565b81604052838152866020858801011115612fd157600080fd5b836020870160208301376000602085830101528094505050505092915050565b6000806040838503121561300457600080fd5b823567ffffffffffffffff8082111561301c57600080fd5b61302886838701612f64565b9350602085013591508082111561303e57600080fd5b5061304b85828601612f64565b9150509250929050565b60006020828403121561306757600080fd5b813567ffffffffffffffff81111561307e57600080fd5b611b2d84828501612f64565b6000806040838503121561309d57600080fd5b6130a683612eb6565b9150602083013580151581146130bb57600080fd5b809150509250929050565b600080600080608085870312156130dc57600080fd5b6130e585612eb6565b93506130f360208601612eb6565b925060408501359150606085013567ffffffffffffffff81111561311657600080fd5b61312287828801612f64565b91505092959194509250565b6000806040838503121561314157600080fd5b50508035926020909101359150565b6000806040838503121561316357600080fd5b61316c83612eb6565b9150602083013567ffffffffffffffff81111561318857600080fd5b61304b85828601612f64565b600080604083850312156131a757600080fd5b6131b083612eb6565b91506131be60208401612eb6565b90509250929050565b600080604083850312156131da57600080fd5b82359150602083013567ffffffffffffffff81111561318857600080fd5b600181811c9082168061320c57607f821691505b6020821081141561322d57634e487b7160e01b600052602260045260246000fd5b50919050565b634e487b7160e01b600052601160045260246000fd5b600060001982141561325d5761325d613233565b5060010190565b600081600019048311821515161561327e5761327e613233565b500290565b6000821982111561329657613296613233565b500190565b600083516132ad818460208801612e32565b8351908301906132c1818360208801612e32565b01949350505050565b6000828210156132dc576132dc613233565b500390565b634e487b7160e01b600052601260045260246000fd5b600082613306576133066132e1565b500690565b60006001600160a01b0380871683528086166020840152508360408301526080606083015261333d6080830184612e5e565b9695505050505050565b60006020828403121561335957600080fd5b815161186381612dff565b600082613373576133736132e1565b500490565b634e487b7160e01b600052603260045260246000fd5b634e487b7160e01b600052602160045260246000fdfe4f776e61626c653a2063616c6c6572206973206e6f7420746865206f776e6572a264697066735822122056d971f0fcc6a2d4376dfbe3a474420b854ba5dd5bf166bf8ecd20e06c9e73c264736f6c634300080c0033697066733a2f2f516d634742456376347068645442737758354e774e6d713172713775783858697935516566794c4c6b796e6d4d31697066733a2f2f516d55757a32717854565775437078796a55565a746b4e7368666b4b4863437567345168783975684a436334744d2f",
  "linkReferences": {},
  "deployedLinkReferences": {}
}