{
  "_format": "hh-sol-artifact-1",
  "contractName": "GMShop",
  "sourceName": "contracts/GMShop.sol",
  "abi": [
    {
      "inputs": [],
      "stateMutability": "nonpayable",
      "type": "constructor"
    },
    {
      "anonymous": false,
      "inputs": [
        {
          "indexed": true,
          "internalType": "address",
          "name": "account",
          "type": "address"
        },
        {
          "indexed": true,
          "internalType": "address",
          "name": "operator",
          "type": "address"
        },
        {
          "indexed": false,
          "internalType": "bool",
          "name": "approved",
          "type": "bool"
        }
      ],
      "name": "ApprovalForAll",
      "type": "event"
    },
    {
      "anonymous": false,
      "inputs": [
        {
          "indexed": false,
          "internalType": "address",
          "name": "sender",
          "type": "address"
        },
        {
          "indexed": false,
          "internalType": "uint256",
          "name": "tokenId",
          "type": "uint256"
        }
      ],
      "name": "GMShopNFTBurned",
      "type": "event"
    },
    {
      "anonymous": false,
      "inputs": [
        {
          "indexed": false,
          "internalType": "address",
          "name": "sender",
          "type": "address"
        },
        {
          "indexed": false,
          "internalType": "uint256",
          "name": "tokenId",
          "type": "uint256"
        }
      ],
      "name": "GMShopNFTMinted",
      "type": "event"
    },
    {
      "anonymous": false,
      "inputs": [
        {
          "indexed": true,
          "internalType": "address",
          "name": "previousOwner",
          "type": "address"
        },
        {
          "indexed": true,
          "internalType": "address",
          "name": "newOwner",
          "type": "address"
        }
      ],
      "name": "OwnershipTransferred",
      "type": "event"
    },
    {
      "anonymous": false,
      "inputs": [
        {
          "indexed": true,
          "internalType": "address",
          "name": "operator",
          "type": "address"
        },
        {
          "indexed": true,
          "internalType": "address",
          "name": "from",
          "type": "address"
        },
        {
          "indexed": true,
          "internalType": "address",
          "name": "to",
          "type": "address"
        },
        {
          "indexed": false,
          "internalType": "uint256[]",
          "name": "ids",
          "type": "uint256[]"
        },
        {
          "indexed": false,
          "internalType": "uint256[]",
          "name": "values",
          "type": "uint256[]"
        }
      ],
      "name": "TransferBatch",
      "type": "event"
    },
    {
      "anonymous": false,
      "inputs": [
        {
          "indexed": true,
          "internalType": "address",
          "name": "operator",
          "type": "address"
        },
        {
          "indexed": true,
          "internalType": "address",
          "name": "from",
          "type": "address"
        },
        {
          "indexed": true,
          "internalType": "address",
          "name": "to",
          "type": "address"
        },
        {
          "indexed": false,
          "internalType": "uint256",
          "name": "id",
          "type": "uint256"
        },
        {
          "indexed": false,
          "internalType": "uint256",
          "name": "value",
          "type": "uint256"
        }
      ],
      "name": "TransferSingle",
      "type": "event"
    },
    {
      "anonymous": false,
      "inputs": [
        {
          "indexed": false,
          "internalType": "string",
          "name": "value",
          "type": "string"
        },
        {
          "indexed": true,
          "internalType": "uint256",
          "name": "id",
          "type": "uint256"
        }
      ],
      "name": "URI",
      "type": "event"
    },
    {
      "inputs": [],
      "name": "GMPFPAddress",
      "outputs": [
        {
          "internalType": "address",
          "name": "",
          "type": "address"
        }
      ],
      "stateMutability": "view",
      "type": "function"
    },
    {
      "inputs": [
        {
          "internalType": "address",
          "name": "account",
          "type": "address"
        },
        {
          "internalType": "uint256",
          "name": "id",
          "type": "uint256"
        }
      ],
      "name": "balanceOf",
      "outputs": [
        {
          "internalType": "uint256",
          "name": "",
          "type": "uint256"
        }
      ],
      "stateMutability": "view",
      "type": "function"
    },
    {
      "inputs": [
        {
          "internalType": "address[]",
          "name": "accounts",
          "type": "address[]"
        },
        {
          "internalType": "uint256[]",
          "name": "ids",
          "type": "uint256[]"
        }
      ],
      "name": "balanceOfBatch",
      "outputs": [
        {
          "internalType": "uint256[]",
          "name": "",
          "type": "uint256[]"
        }
      ],
      "stateMutability": "view",
      "type": "function"
    },
    {
      "inputs": [
        {
          "internalType": "uint256",
          "name": "",
          "type": "uint256"
        }
      ],
      "name": "baseMintCost",
      "outputs": [
        {
          "internalType": "uint256",
          "name": "",
          "type": "uint256"
        }
      ],
      "stateMutability": "view",
      "type": "function"
    },
    {
      "inputs": [
        {
          "internalType": "address",
          "name": "account",
          "type": "address"
        },
        {
          "internalType": "uint256",
          "name": "id",
          "type": "uint256"
        },
        {
          "internalType": "uint256",
          "name": "value",
          "type": "uint256"
        }
      ],
      "name": "burn",
      "outputs": [],
      "stateMutability": "nonpayable",
      "type": "function"
    },
    {
      "inputs": [
        {
          "internalType": "address",
          "name": "account",
          "type": "address"
        },
        {
          "internalType": "uint256[]",
          "name": "ids",
          "type": "uint256[]"
        },
        {
          "internalType": "uint256[]",
          "name": "values",
          "type": "uint256[]"
        }
      ],
      "name": "burnBatch",
      "outputs": [],
      "stateMutability": "nonpayable",
      "type": "function"
    },
    {
      "inputs": [
        {
          "internalType": "address",
          "name": "user",
          "type": "address"
        },
        {
          "internalType": "uint256",
          "name": "id",
          "type": "uint256"
        }
      ],
      "name": "burnToken",
      "outputs": [],
      "stateMutability": "nonpayable",
      "type": "function"
    },
    {
      "inputs": [],
      "name": "getMerchBundlePrice",
      "outputs": [
        {
          "internalType": "uint256",
          "name": "",
          "type": "uint256"
        }
      ],
      "stateMutability": "view",
      "type": "function"
    },
    {
      "inputs": [],
      "name": "getMinted",
      "outputs": [
        {
          "internalType": "uint256[]",
          "name": "",
          "type": "uint256[]"
        }
      ],
      "stateMutability": "view",
      "type": "function"
    },
    {
      "inputs": [
        {
          "internalType": "address",
          "name": "account",
          "type": "address"
        },
        {
          "internalType": "address",
          "name": "operator",
          "type": "address"
        }
      ],
      "name": "isApprovedForAll",
      "outputs": [
        {
          "internalType": "bool",
          "name": "",
          "type": "bool"
        }
      ],
      "stateMutability": "view",
      "type": "function"
    },
    {
      "inputs": [],
      "name": "merchBundleIncrement",
      "outputs": [
        {
          "internalType": "uint256",
          "name": "",
          "type": "uint256"
        }
      ],
      "stateMutability": "view",
      "type": "function"
    },
    {
      "inputs": [],
      "name": "merchBundlePrice",
      "outputs": [
        {
          "internalType": "uint256",
          "name": "",
          "type": "uint256"
        }
      ],
      "stateMutability": "view",
      "type": "function"
    },
    {
      "inputs": [],
      "name": "mintMerch",
      "outputs": [],
      "stateMutability": "payable",
      "type": "function"
    },
    {
      "inputs": [
        {
          "internalType": "uint256",
          "name": "",
          "type": "uint256"
        }
      ],
      "name": "minted",
      "outputs": [
        {
          "internalType": "uint256",
          "name": "",
          "type": "uint256"
        }
      ],
      "stateMutability": "view",
      "type": "function"
    },
    {
      "inputs": [],
      "name": "owner",
      "outputs": [
        {
          "internalType": "address",
          "name": "",
          "type": "address"
        }
      ],
      "stateMutability": "view",
      "type": "function"
    },
    {
      "inputs": [],
      "name": "renounceOwnership",
      "outputs": [],
      "stateMutability": "nonpayable",
      "type": "function"
    },
    {
      "inputs": [
        {
          "internalType": "address",
          "name": "from",
          "type": "address"
        },
        {
          "internalType": "address",
          "name": "to",
          "type": "address"
        },
        {
          "internalType": "uint256[]",
          "name": "ids",
          "type": "uint256[]"
        },
        {
          "internalType": "uint256[]",
          "name": "amounts",
          "type": "uint256[]"
        },
        {
          "internalType": "bytes",
          "name": "data",
          "type": "bytes"
        }
      ],
      "name": "safeBatchTransferFrom",
      "outputs": [],
      "stateMutability": "nonpayable",
      "type": "function"
    },
    {
      "inputs": [
        {
          "internalType": "address",
          "name": "from",
          "type": "address"
        },
        {
          "internalType": "address",
          "name": "to",
          "type": "address"
        },
        {
          "internalType": "uint256",
          "name": "id",
          "type": "uint256"
        },
        {
          "internalType": "uint256",
          "name": "amount",
          "type": "uint256"
        },
        {
          "internalType": "bytes",
          "name": "data",
          "type": "bytes"
        }
      ],
      "name": "safeTransferFrom",
      "outputs": [],
      "stateMutability": "nonpayable",
      "type": "function"
    },
    {
      "inputs": [
        {
          "internalType": "address",
          "name": "operator",
          "type": "address"
        },
        {
          "internalType": "bool",
          "name": "approved",
          "type": "bool"
        }
      ],
      "name": "setApprovalForAll",
      "outputs": [],
      "stateMutability": "nonpayable",
      "type": "function"
    },
    {
      "inputs": [
        {
          "internalType": "string",
          "name": "newuri",
          "type": "string"
        }
      ],
      "name": "setURI",
      "outputs": [],
      "stateMutability": "nonpayable",
      "type": "function"
    },
    {
      "inputs": [
        {
          "internalType": "uint256",
          "name": "",
          "type": "uint256"
        }
      ],
      "name": "supply",
      "outputs": [
        {
          "internalType": "uint256",
          "name": "",
          "type": "uint256"
        }
      ],
      "stateMutability": "view",
      "type": "function"
    },
    {
      "inputs": [
        {
          "internalType": "bytes4",
          "name": "interfaceId",
          "type": "bytes4"
        }
      ],
      "name": "supportsInterface",
      "outputs": [
        {
          "internalType": "bool",
          "name": "",
          "type": "bool"
        }
      ],
      "stateMutability": "view",
      "type": "function"
    },
    {
      "inputs": [
        {
          "internalType": "address",
          "name": "newOwner",
          "type": "address"
        }
      ],
      "name": "transferOwnership",
      "outputs": [],
      "stateMutability": "nonpayable",
      "type": "function"
    },
    {
      "inputs": [
        {
          "internalType": "uint256",
          "name": "",
          "type": "uint256"
        }
      ],
      "name": "uri",
      "outputs": [
        {
          "internalType": "string",
          "name": "",
          "type": "string"
        }
      ],
      "stateMutability": "view",
      "type": "function"
    }
  ],
  "bytecode": "0x60806040526040518060800160405280600060ff168152602001600060ff168152602001600060ff168152602001600060ff1681525060049060046200004792919062000239565b506040518060800160405280604d61ffff168152602001604d61ffff16815260200160fa61ffff1681526020016102ee61ffff1681525060059060046200009092919062000290565b5066b1a2bc2ec500006006556601c6bf52634000600755604051806040016040528066038d7ea4c6800066ffffffffffffff1681526020016611c37937e0800066ffffffffffffff168152506008906002620000ee929190620002e8565b50348015620000fc57600080fd5b50604051806060016040528060338152602001620045b66033913962000128816200014f60201b60201c565b50620001496200013d6200016b60201b60201c565b6200017360201b60201c565b6200045a565b80600290805190602001906200016792919062000345565b5050565b600033905090565b6000600360009054906101000a900473ffffffffffffffffffffffffffffffffffffffff16905081600360006101000a81548173ffffffffffffffffffffffffffffffffffffffff021916908373ffffffffffffffffffffffffffffffffffffffff1602179055508173ffffffffffffffffffffffffffffffffffffffff168173ffffffffffffffffffffffffffffffffffffffff167f8be0079c531659141344cd1fd0a4f28419497f9722a3daafe3b4186f6b6457e060405160405180910390a35050565b8280548282559060005260206000209081019282156200027d579160200282015b828111156200027c578251829060ff169055916020019190600101906200025a565b5b5090506200028c9190620003d6565b5090565b828054828255906000526020600020908101928215620002d5579160200282015b82811115620002d4578251829061ffff16905591602001919060010190620002b1565b5b509050620002e49190620003d6565b5090565b82805482825590600052602060002090810192821562000332579160200282015b8281111562000331578251829066ffffffffffffff1690559160200191906001019062000309565b5b509050620003419190620003d6565b5090565b8280546200035390620003f5565b90600052602060002090601f016020900481019282620003775760008555620003c3565b82601f106200039257805160ff1916838001178555620003c3565b82800160010185558215620003c3579182015b82811115620003c2578251825591602001919060010190620003a5565b5b509050620003d29190620003d6565b5090565b5b80821115620003f1576000816000905550600101620003d7565b5090565b600060028204905060018216806200040e57607f821691505b602082108114156200042557620004246200042b565b5b50919050565b7f4e487b7100000000000000000000000000000000000000000000000000000000600052602260045260246000fd5b61414c806200046a6000396000f3fe60806040526004361061014a5760003560e01c8063846a1767116100b6578063cc050b501161006f578063cc050b50146104b7578063d1df306c146104c1578063e985e9c5146104ea578063f242432a14610527578063f2fde38b14610550578063f5298aca146105795761014a565b8063846a1767146103a5578063880e7e4d146103e25780638da5cb5b1461040d578063a22cb46514610438578063ac72200d14610461578063b1acb6231461048c5761014a565b80633ca2f2f0116101085780633ca2f2f014610295578063406c492b146102c05780634e1273f4146102eb5780636b20c45414610328578063715018a6146103515780637dc0bf3f146103685761014a565b8062fdd58e1461014f57806301ffc9a71461018c57806302fe5305146101c95780630e89341c146101f25780632eb2c2d61461022f5780633540302314610258575b600080fd5b34801561015b57600080fd5b5061017660048036038101906101719190612d5d565b6105a2565b60405161018391906136f7565b60405180910390f35b34801561019857600080fd5b506101b360048036038101906101ae9190612e54565b61066b565b6040516101c0919061341e565b60405180910390f35b3480156101d557600080fd5b506101f060048036038101906101eb9190612ea6565b61074d565b005b3480156101fe57600080fd5b5061021960048036038101906102149190612ee7565b6107d5565b6040516102269190613439565b60405180910390f35b34801561023b57600080fd5b5061025660048036038101906102519190612b54565b610869565b005b34801561026457600080fd5b5061027f600480360381019061027a9190612ee7565b61090a565b60405161028c91906136f7565b60405180910390f35b3480156102a157600080fd5b506102aa61092e565b6040516102b791906136f7565b60405180910390f35b3480156102cc57600080fd5b506102d5610934565b6040516102e29190613296565b60405180910390f35b3480156102f757600080fd5b50610312600480360381019061030d9190612de8565b61095a565b60405161031f91906133c5565b60405180910390f35b34801561033457600080fd5b5061034f600480360381019061034a9190612ca2565b610b0b565b005b34801561035d57600080fd5b50610366610ba8565b005b34801561037457600080fd5b5061038f600480360381019061038a9190612ee7565b610c30565b60405161039c91906136f7565b60405180910390f35b3480156103b157600080fd5b506103cc60048036038101906103c79190612ee7565b610c54565b6040516103d991906136f7565b60405180910390f35b3480156103ee57600080fd5b506103f7610c78565b60405161040491906136f7565b60405180910390f35b34801561041957600080fd5b50610422610c82565b60405161042f9190613296565b60405180910390f35b34801561044457600080fd5b5061045f600480360381019061045a9190612d21565b610cac565b005b34801561046d57600080fd5b50610476610cc2565b60405161048391906133c5565b60405180910390f35b34801561049857600080fd5b506104a1610d1a565b6040516104ae91906136f7565b60405180910390f35b6104bf610d20565b005b3480156104cd57600080fd5b506104e860048036038101906104e39190612d5d565b610f01565b005b3480156104f657600080fd5b50610511600480360381019061050c9190612b18565b610fb6565b60405161051e919061341e565b60405180910390f35b34801561053357600080fd5b5061054e60048036038101906105499190612c13565b61104a565b005b34801561055c57600080fd5b5061057760048036038101906105729190612aef565b6110eb565b005b34801561058557600080fd5b506105a0600480360381019061059b9190612d99565b6111e3565b005b60008073ffffffffffffffffffffffffffffffffffffffff168373ffffffffffffffffffffffffffffffffffffffff161415610613576040517f08c379a000000000000000000000000000000000000000000000000000000000815260040161060a90613517565b60405180910390fd5b60008083815260200190815260200160002060008473ffffffffffffffffffffffffffffffffffffffff1673ffffffffffffffffffffffffffffffffffffffff16815260200190815260200160002054905092915050565b60007fd9b67a26000000000000000000000000000000000000000000000000000000007bffffffffffffffffffffffffffffffffffffffffffffffffffffffff1916827bffffffffffffffffffffffffffffffffffffffffffffffffffffffff1916148061073657507f0e89341c000000000000000000000000000000000000000000000000000000007bffffffffffffffffffffffffffffffffffffffffffffffffffffffff1916827bffffffffffffffffffffffffffffffffffffffffffffffffffffffff1916145b80610746575061074582611280565b5b9050919050565b6107556112ea565b73ffffffffffffffffffffffffffffffffffffffff16610773610c82565b73ffffffffffffffffffffffffffffffffffffffff16146107c9576040517f08c379a00000000000000000000000000000000000000000000000000000000081526004016107c090613617565b60405180910390fd5b6107d2816112f2565b50565b6060600280546107e4906139a9565b80601f0160208091040260200160405190810160405280929190818152602001828054610810906139a9565b801561085d5780601f106108325761010080835404028352916020019161085d565b820191906000526020600020905b81548152906001019060200180831161084057829003601f168201915b50505050509050919050565b6108716112ea565b73ffffffffffffffffffffffffffffffffffffffff168573ffffffffffffffffffffffffffffffffffffffff1614806108b757506108b6856108b16112ea565b610fb6565b5b6108f6576040517f08c379a00000000000000000000000000000000000000000000000000000000081526004016108ed906135b7565b60405180910390fd5b610903858585858561130c565b5050505050565b6005818154811061091a57600080fd5b906000526020600020016000915090505481565b60065481565b600960009054906101000a900473ffffffffffffffffffffffffffffffffffffffff1681565b606081518351146109a0576040517f08c379a000000000000000000000000000000000000000000000000000000000815260040161099790613697565b60405180910390fd5b6000835167ffffffffffffffff8111156109e3577f4e487b7100000000000000000000000000000000000000000000000000000000600052604160045260246000fd5b604051908082528060200260200182016040528015610a115781602001602082028036833780820191505090505b50905060005b8451811015610b0057610aaa858281518110610a5c577f4e487b7100000000000000000000000000000000000000000000000000000000600052603260045260246000fd5b6020026020010151858381518110610a9d577f4e487b7100000000000000000000000000000000000000000000000000000000600052603260045260246000fd5b60200260200101516105a2565b828281518110610ae3577f4e487b7100000000000000000000000000000000000000000000000000000000600052603260045260246000fd5b60200260200101818152505080610af990613a0c565b9050610a17565b508091505092915050565b610b136112ea565b73ffffffffffffffffffffffffffffffffffffffff168373ffffffffffffffffffffffffffffffffffffffff161480610b595750610b5883610b536112ea565b610fb6565b5b610b98576040517f08c379a0000000000000000000000000000000000000000000000000000000008152600401610b8f90613577565b60405180910390fd5b610ba383838361166c565b505050565b610bb06112ea565b73ffffffffffffffffffffffffffffffffffffffff16610bce610c82565b73ffffffffffffffffffffffffffffffffffffffff1614610c24576040517f08c379a0000000000000000000000000000000000000000000000000000000008152600401610c1b90613617565b60405180910390fd5b610c2e6000611969565b565b60048181548110610c4057600080fd5b906000526020600020016000915090505481565b60088181548110610c6457600080fd5b906000526020600020016000915090505481565b6000600654905090565b6000600360009054906101000a900473ffffffffffffffffffffffffffffffffffffffff16905090565b610cbe610cb76112ea565b8383611a2f565b5050565b60606004805480602002602001604051908101604052809291908181526020018280548015610d1057602002820191906000526020600020905b815481526020019060010190808311610cfc575b5050505050905090565b60075481565b6006543411610d64576040517f08c379a0000000000000000000000000000000000000000000000000000000008152600401610d5b90613637565b60405180910390fd5b6005600081548110610d9f577f4e487b7100000000000000000000000000000000000000000000000000000000600052603260045260246000fd5b90600052602060002001546004600081548110610de5577f4e487b7100000000000000000000000000000000000000000000000000000000600052603260045260246000fd5b906000526020600020015410610e30576040517f08c379a0000000000000000000000000000000000000000000000000000000008152600401610e2790613657565b60405180910390fd5b610e4d336000600160405180602001604052806000815250611b9c565b60075460066000828254610e61919061388b565b9250508190555060016004600081548110610ea5577f4e487b7100000000000000000000000000000000000000000000000000000000600052603260045260246000fd5b906000526020600020016000828254610ebe919061388b565b925050819055507fceef10b103b9edb2875c75340d0792311a01f9c436249fb2032b51c41183e5de336000604051610ef7929190613373565b60405180910390a1565b610f496040518060400160405280600281526020017f2573000000000000000000000000000000000000000000000000000000000000815250610f448433610fb6565b611d32565b610f55828260016111e3565b610f796040518060600160405280603581526020016140e260359139828433611dce565b7f882bf1cfce179a946ed5ddac926348126e4142af1c22ba936506358713cc1e723382604051610faa92919061339c565b60405180910390a15050565b6000600160008473ffffffffffffffffffffffffffffffffffffffff1673ffffffffffffffffffffffffffffffffffffffff16815260200190815260200160002060008373ffffffffffffffffffffffffffffffffffffffff1673ffffffffffffffffffffffffffffffffffffffff16815260200190815260200160002060009054906101000a900460ff16905092915050565b6110526112ea565b73ffffffffffffffffffffffffffffffffffffffff168573ffffffffffffffffffffffffffffffffffffffff1614806110985750611097856110926112ea565b610fb6565b5b6110d7576040517f08c379a00000000000000000000000000000000000000000000000000000000081526004016110ce90613577565b60405180910390fd5b6110e48585858585611e70565b5050505050565b6110f36112ea565b73ffffffffffffffffffffffffffffffffffffffff16611111610c82565b73ffffffffffffffffffffffffffffffffffffffff1614611167576040517f08c379a000000000000000000000000000000000000000000000000000000000815260040161115e90613617565b60405180910390fd5b600073ffffffffffffffffffffffffffffffffffffffff168173ffffffffffffffffffffffffffffffffffffffff1614156111d7576040517f08c379a00000000000000000000000000000000000000000000000000000000081526004016111ce90613537565b60405180910390fd5b6111e081611969565b50565b6111eb6112ea565b73ffffffffffffffffffffffffffffffffffffffff168373ffffffffffffffffffffffffffffffffffffffff16148061123157506112308361122b6112ea565b610fb6565b5b611270576040517f08c379a000000000000000000000000000000000000000000000000000000000815260040161126790613577565b60405180910390fd5b61127b8383836120f2565b505050565b60007f01ffc9a7000000000000000000000000000000000000000000000000000000007bffffffffffffffffffffffffffffffffffffffffffffffffffffffff1916827bffffffffffffffffffffffffffffffffffffffffffffffffffffffff1916149050919050565b600033905090565b80600290805190602001906113089291906127e7565b5050565b8151835114611350576040517f08c379a0000000000000000000000000000000000000000000000000000000008152600401611347906136b7565b60405180910390fd5b600073ffffffffffffffffffffffffffffffffffffffff168473ffffffffffffffffffffffffffffffffffffffff1614156113c0576040517f08c379a00000000000000000000000000000000000000000000000000000000081526004016113b790613597565b60405180910390fd5b60006113ca6112ea565b90506113da81878787878761230f565b60005b84518110156115d7576000858281518110611421577f4e487b7100000000000000000000000000000000000000000000000000000000600052603260045260246000fd5b602002602001015190506000858381518110611466577f4e487b7100000000000000000000000000000000000000000000000000000000600052603260045260246000fd5b60200260200101519050600080600084815260200190815260200160002060008b73ffffffffffffffffffffffffffffffffffffffff1673ffffffffffffffffffffffffffffffffffffffff16815260200190815260200160002054905081811015611507576040517f08c379a00000000000000000000000000000000000000000000000000000000081526004016114fe906135f7565b60405180910390fd5b81810360008085815260200190815260200160002060008c73ffffffffffffffffffffffffffffffffffffffff1673ffffffffffffffffffffffffffffffffffffffff168152602001908152602001600020819055508160008085815260200190815260200160002060008b73ffffffffffffffffffffffffffffffffffffffff1673ffffffffffffffffffffffffffffffffffffffff16815260200190815260200160002060008282546115bc919061388b565b92505081905550505050806115d090613a0c565b90506113dd565b508473ffffffffffffffffffffffffffffffffffffffff168673ffffffffffffffffffffffffffffffffffffffff168273ffffffffffffffffffffffffffffffffffffffff167f4a39dc06d4c0dbc64b70af90fd698a233a518aa5d07e595d983b8c0526c8f7fb878760405161164e9291906133e7565b60405180910390a4611664818787878787612317565b505050505050565b600073ffffffffffffffffffffffffffffffffffffffff168373ffffffffffffffffffffffffffffffffffffffff1614156116dc576040517f08c379a00000000000000000000000000000000000000000000000000000000081526004016116d3906135d7565b60405180910390fd5b8051825114611720576040517f08c379a0000000000000000000000000000000000000000000000000000000008152600401611717906136b7565b60405180910390fd5b600061172a6112ea565b905061174a8185600086866040518060200160405280600081525061230f565b60005b83518110156118e3576000848281518110611791577f4e487b7100000000000000000000000000000000000000000000000000000000600052603260045260246000fd5b6020026020010151905060008483815181106117d6577f4e487b7100000000000000000000000000000000000000000000000000000000600052603260045260246000fd5b60200260200101519050600080600084815260200190815260200160002060008973ffffffffffffffffffffffffffffffffffffffff1673ffffffffffffffffffffffffffffffffffffffff16815260200190815260200160002054905081811015611877576040517f08c379a000000000000000000000000000000000000000000000000000000000815260040161186e90613557565b60405180910390fd5b81810360008085815260200190815260200160002060008a73ffffffffffffffffffffffffffffffffffffffff1673ffffffffffffffffffffffffffffffffffffffff1681526020019081526020016000208190555050505080806118db90613a0c565b91505061174d565b50600073ffffffffffffffffffffffffffffffffffffffff168473ffffffffffffffffffffffffffffffffffffffff168273ffffffffffffffffffffffffffffffffffffffff167f4a39dc06d4c0dbc64b70af90fd698a233a518aa5d07e595d983b8c0526c8f7fb868660405161195b9291906133e7565b60405180910390a450505050565b6000600360009054906101000a900473ffffffffffffffffffffffffffffffffffffffff16905081600360006101000a81548173ffffffffffffffffffffffffffffffffffffffff021916908373ffffffffffffffffffffffffffffffffffffffff1602179055508173ffffffffffffffffffffffffffffffffffffffff168173ffffffffffffffffffffffffffffffffffffffff167f8be0079c531659141344cd1fd0a4f28419497f9722a3daafe3b4186f6b6457e060405160405180910390a35050565b8173ffffffffffffffffffffffffffffffffffffffff168373ffffffffffffffffffffffffffffffffffffffff161415611a9e576040517f08c379a0000000000000000000000000000000000000000000000000000000008152600401611a9590613677565b60405180910390fd5b80600160008573ffffffffffffffffffffffffffffffffffffffff1673ffffffffffffffffffffffffffffffffffffffff16815260200190815260200160002060008473ffffffffffffffffffffffffffffffffffffffff1673ffffffffffffffffffffffffffffffffffffffff16815260200190815260200160002060006101000a81548160ff0219169083151502179055508173ffffffffffffffffffffffffffffffffffffffff168373ffffffffffffffffffffffffffffffffffffffff167f17307eab39ab6107e8899845ad3d59bd9653f200f220920489ca2b5937696c3183604051611b8f919061341e565b60405180910390a3505050565b600073ffffffffffffffffffffffffffffffffffffffff168473ffffffffffffffffffffffffffffffffffffffff161415611c0c576040517f08c379a0000000000000000000000000000000000000000000000000000000008152600401611c03906136d7565b60405180910390fd5b6000611c166112ea565b9050611c3781600087611c28886124fe565b611c31886124fe565b8761230f565b8260008086815260200190815260200160002060008773ffffffffffffffffffffffffffffffffffffffff1673ffffffffffffffffffffffffffffffffffffffff1681526020019081526020016000206000828254611c96919061388b565b925050819055508473ffffffffffffffffffffffffffffffffffffffff16600073ffffffffffffffffffffffffffffffffffffffff168273ffffffffffffffffffffffffffffffffffffffff167fc3d58168c5ae7397731d063d5bbf3d657854427343f4c083240f7aacaa2d0f628787604051611d14929190613712565b60405180910390a4611d2b816000878787876125c4565b5050505050565b611dca8282604051602401611d4892919061345b565b6040516020818303038152906040527fc3b55635000000000000000000000000000000000000000000000000000000007bffffffffffffffffffffffffffffffffffffffffffffffffffffffff19166020820180517bffffffffffffffffffffffffffffffffffffffffffffffffffffffff83818316178352505050506127ab565b5050565b611e6a84848484604051602401611de8949392919061348b565b6040516020818303038152906040527feac89281000000000000000000000000000000000000000000000000000000007bffffffffffffffffffffffffffffffffffffffffffffffffffffffff19166020820180517bffffffffffffffffffffffffffffffffffffffffffffffffffffffff83818316178352505050506127ab565b50505050565b600073ffffffffffffffffffffffffffffffffffffffff168473ffffffffffffffffffffffffffffffffffffffff161415611ee0576040517f08c379a0000000000000000000000000000000000000000000000000000000008152600401611ed790613597565b60405180910390fd5b6000611eea6112ea565b9050611f0a818787611efb886124fe565b611f04886124fe565b8761230f565b600080600086815260200190815260200160002060008873ffffffffffffffffffffffffffffffffffffffff1673ffffffffffffffffffffffffffffffffffffffff16815260200190815260200160002054905083811015611fa1576040517f08c379a0000000000000000000000000000000000000000000000000000000008152600401611f98906135f7565b60405180910390fd5b83810360008087815260200190815260200160002060008973ffffffffffffffffffffffffffffffffffffffff1673ffffffffffffffffffffffffffffffffffffffff168152602001908152602001600020819055508360008087815260200190815260200160002060008873ffffffffffffffffffffffffffffffffffffffff1673ffffffffffffffffffffffffffffffffffffffff1681526020019081526020016000206000828254612056919061388b565b925050819055508573ffffffffffffffffffffffffffffffffffffffff168773ffffffffffffffffffffffffffffffffffffffff168373ffffffffffffffffffffffffffffffffffffffff167fc3d58168c5ae7397731d063d5bbf3d657854427343f4c083240f7aacaa2d0f6288886040516120d3929190613712565b60405180910390a46120e98288888888886125c4565b50505050505050565b600073ffffffffffffffffffffffffffffffffffffffff168373ffffffffffffffffffffffffffffffffffffffff161415612162576040517f08c379a0000000000000000000000000000000000000000000000000000000008152600401612159906135d7565b60405180910390fd5b600061216c6112ea565b905061219c8185600061217e876124fe565b612187876124fe565b6040518060200160405280600081525061230f565b600080600085815260200190815260200160002060008673ffffffffffffffffffffffffffffffffffffffff1673ffffffffffffffffffffffffffffffffffffffff16815260200190815260200160002054905082811015612233576040517f08c379a000000000000000000000000000000000000000000000000000000000815260040161222a90613557565b60405180910390fd5b82810360008086815260200190815260200160002060008773ffffffffffffffffffffffffffffffffffffffff1673ffffffffffffffffffffffffffffffffffffffff16815260200190815260200160002081905550600073ffffffffffffffffffffffffffffffffffffffff168573ffffffffffffffffffffffffffffffffffffffff168373ffffffffffffffffffffffffffffffffffffffff167fc3d58168c5ae7397731d063d5bbf3d657854427343f4c083240f7aacaa2d0f628787604051612300929190613712565b60405180910390a45050505050565b505050505050565b6123368473ffffffffffffffffffffffffffffffffffffffff166127d4565b156124f6578373ffffffffffffffffffffffffffffffffffffffff1663bc197c8187878686866040518663ffffffff1660e01b815260040161237c9594939291906132b1565b602060405180830381600087803b15801561239657600080fd5b505af19250505080156123c757506040513d601f19601f820116820180604052508101906123c49190612e7d565b60015b61246d576123d3613ae2565b806308c379a0141561243057506123e8613fef565b806123f35750612432565b806040517f08c379a00000000000000000000000000000000000000000000000000000000081526004016124279190613439565b60405180910390fd5b505b6040517f08c379a0000000000000000000000000000000000000000000000000000000008152600401612464906134d7565b60405180910390fd5b63bc197c8160e01b7bffffffffffffffffffffffffffffffffffffffffffffffffffffffff1916817bffffffffffffffffffffffffffffffffffffffffffffffffffffffff1916146124f4576040517f08c379a00000000000000000000000000000000000000000000000000000000081526004016124eb906134f7565b60405180910390fd5b505b505050505050565b60606000600167ffffffffffffffff811115612543577f4e487b7100000000000000000000000000000000000000000000000000000000600052604160045260246000fd5b6040519080825280602002602001820160405280156125715781602001602082028036833780820191505090505b50905082816000815181106125af577f4e487b7100000000000000000000000000000000000000000000000000000000600052603260045260246000fd5b60200260200101818152505080915050919050565b6125e38473ffffffffffffffffffffffffffffffffffffffff166127d4565b156127a3578373ffffffffffffffffffffffffffffffffffffffff1663f23a6e6187878686866040518663ffffffff1660e01b8152600401612629959493929190613319565b602060405180830381600087803b15801561264357600080fd5b505af192505050801561267457506040513d601f19601f820116820180604052508101906126719190612e7d565b60015b61271a57612680613ae2565b806308c379a014156126dd5750612695613fef565b806126a057506126df565b806040517f08c379a00000000000000000000000000000000000000000000000000000000081526004016126d49190613439565b60405180910390fd5b505b6040517f08c379a0000000000000000000000000000000000000000000000000000000008152600401612711906134d7565b60405180910390fd5b63f23a6e6160e01b7bffffffffffffffffffffffffffffffffffffffffffffffffffffffff1916817bffffffffffffffffffffffffffffffffffffffffffffffffffffffff1916146127a1576040517f08c379a0000000000000000000000000000000000000000000000000000000008152600401612798906134f7565b60405180910390fd5b505b505050505050565b60008151905060006a636f6e736f6c652e6c6f679050602083016000808483855afa5050505050565b600080823b905060008111915050919050565b8280546127f3906139a9565b90600052602060002090601f016020900481019282612815576000855561285c565b82601f1061282e57805160ff191683800117855561285c565b8280016001018555821561285c579182015b8281111561285b578251825591602001919060010190612840565b5b509050612869919061286d565b5090565b5b8082111561288657600081600090555060010161286e565b5090565b600061289d61289884613760565b61373b565b905080838252602082019050828560208602820111156128bc57600080fd5b60005b858110156128ec57816128d288826129de565b8452602084019350602083019250506001810190506128bf565b5050509392505050565b60006129096129048461378c565b61373b565b9050808382526020820190508285602086028201111561292857600080fd5b60005b85811015612958578161293e8882612ada565b84526020840193506020830192505060018101905061292b565b5050509392505050565b6000612975612970846137b8565b61373b565b90508281526020810184848401111561298d57600080fd5b612998848285613967565b509392505050565b60006129b36129ae846137e9565b61373b565b9050828152602081018484840111156129cb57600080fd5b6129d6848285613967565b509392505050565b6000813590506129ed81614085565b92915050565b600082601f830112612a0457600080fd5b8135612a1484826020860161288a565b91505092915050565b600082601f830112612a2e57600080fd5b8135612a3e8482602086016128f6565b91505092915050565b600081359050612a568161409c565b92915050565b600081359050612a6b816140b3565b92915050565b600081519050612a80816140b3565b92915050565b600082601f830112612a9757600080fd5b8135612aa7848260208601612962565b91505092915050565b600082601f830112612ac157600080fd5b8135612ad18482602086016129a0565b91505092915050565b600081359050612ae9816140ca565b92915050565b600060208284031215612b0157600080fd5b6000612b0f848285016129de565b91505092915050565b60008060408385031215612b2b57600080fd5b6000612b39858286016129de565b9250506020612b4a858286016129de565b9150509250929050565b600080600080600060a08688031215612b6c57600080fd5b6000612b7a888289016129de565b9550506020612b8b888289016129de565b945050604086013567ffffffffffffffff811115612ba857600080fd5b612bb488828901612a1d565b935050606086013567ffffffffffffffff811115612bd157600080fd5b612bdd88828901612a1d565b925050608086013567ffffffffffffffff811115612bfa57600080fd5b612c0688828901612a86565b9150509295509295909350565b600080600080600060a08688031215612c2b57600080fd5b6000612c39888289016129de565b9550506020612c4a888289016129de565b9450506040612c5b88828901612ada565b9350506060612c6c88828901612ada565b925050608086013567ffffffffffffffff811115612c8957600080fd5b612c9588828901612a86565b9150509295509295909350565b600080600060608486031215612cb757600080fd5b6000612cc5868287016129de565b935050602084013567ffffffffffffffff811115612ce257600080fd5b612cee86828701612a1d565b925050604084013567ffffffffffffffff811115612d0b57600080fd5b612d1786828701612a1d565b9150509250925092565b60008060408385031215612d3457600080fd5b6000612d42858286016129de565b9250506020612d5385828601612a47565b9150509250929050565b60008060408385031215612d7057600080fd5b6000612d7e858286016129de565b9250506020612d8f85828601612ada565b9150509250929050565b600080600060608486031215612dae57600080fd5b6000612dbc868287016129de565b9350506020612dcd86828701612ada565b9250506040612dde86828701612ada565b9150509250925092565b60008060408385031215612dfb57600080fd5b600083013567ffffffffffffffff811115612e1557600080fd5b612e21858286016129f3565b925050602083013567ffffffffffffffff811115612e3e57600080fd5b612e4a85828601612a1d565b9150509250929050565b600060208284031215612e6657600080fd5b6000612e7484828501612a5c565b91505092915050565b600060208284031215612e8f57600080fd5b6000612e9d84828501612a71565b91505092915050565b600060208284031215612eb857600080fd5b600082013567ffffffffffffffff811115612ed257600080fd5b612ede84828501612ab0565b91505092915050565b600060208284031215612ef957600080fd5b6000612f0784828501612ada565b91505092915050565b6000612f1c8383613278565b60208301905092915050565b612f31816138e1565b82525050565b6000612f428261382a565b612f4c8185613858565b9350612f578361381a565b8060005b83811015612f88578151612f6f8882612f10565b9750612f7a8361384b565b925050600181019050612f5b565b5085935050505092915050565b612f9e816138f3565b82525050565b6000612faf82613835565b612fb98185613869565b9350612fc9818560208601613976565b612fd281613b04565b840191505092915050565b612fe681613955565b82525050565b6000612ff782613840565b613001818561387a565b9350613011818560208601613976565b61301a81613b04565b840191505092915050565b600061303260348361387a565b915061303d82613b22565b604082019050919050565b600061305560288361387a565b915061306082613b71565b604082019050919050565b6000613078602b8361387a565b915061308382613bc0565b604082019050919050565b600061309b60268361387a565b91506130a682613c0f565b604082019050919050565b60006130be60248361387a565b91506130c982613c5e565b604082019050919050565b60006130e160298361387a565b91506130ec82613cad565b604082019050919050565b600061310460258361387a565b915061310f82613cfc565b604082019050919050565b600061312760328361387a565b915061313282613d4b565b604082019050919050565b600061314a60238361387a565b915061315582613d9a565b604082019050919050565b600061316d602a8361387a565b915061317882613de9565b604082019050919050565b600061319060208361387a565b915061319b82613e38565b602082019050919050565b60006131b360138361387a565b91506131be82613e61565b602082019050919050565b60006131d660088361387a565b91506131e182613e8a565b602082019050919050565b60006131f960298361387a565b915061320482613eb3565b604082019050919050565b600061321c60298361387a565b915061322782613f02565b604082019050919050565b600061323f60288361387a565b915061324a82613f51565b604082019050919050565b600061326260218361387a565b915061326d82613fa0565b604082019050919050565b6132818161394b565b82525050565b6132908161394b565b82525050565b60006020820190506132ab6000830184612f28565b92915050565b600060a0820190506132c66000830188612f28565b6132d36020830187612f28565b81810360408301526132e58186612f37565b905081810360608301526132f98185612f37565b9050818103608083015261330d8184612fa4565b90509695505050505050565b600060a08201905061332e6000830188612f28565b61333b6020830187612f28565b6133486040830186613287565b6133556060830185613287565b81810360808301526133678184612fa4565b90509695505050505050565b60006040820190506133886000830185612f28565b6133956020830184612fdd565b9392505050565b60006040820190506133b16000830185612f28565b6133be6020830184613287565b9392505050565b600060208201905081810360008301526133df8184612f37565b905092915050565b600060408201905081810360008301526134018185612f37565b905081810360208301526134158184612f37565b90509392505050565b60006020820190506134336000830184612f95565b92915050565b600060208201905081810360008301526134538184612fec565b905092915050565b600060408201905081810360008301526134758185612fec565b90506134846020830184612f95565b9392505050565b600060808201905081810360008301526134a58187612fec565b90506134b46020830186613287565b6134c16040830185612f28565b6134ce6060830184612f28565b95945050505050565b600060208201905081810360008301526134f081613025565b9050919050565b6000602082019050818103600083015261351081613048565b9050919050565b600060208201905081810360008301526135308161306b565b9050919050565b600060208201905081810360008301526135508161308e565b9050919050565b60006020820190508181036000830152613570816130b1565b9050919050565b60006020820190508181036000830152613590816130d4565b9050919050565b600060208201905081810360008301526135b0816130f7565b9050919050565b600060208201905081810360008301526135d08161311a565b9050919050565b600060208201905081810360008301526135f08161313d565b9050919050565b6000602082019050818103600083015261361081613160565b9050919050565b6000602082019050818103600083015261363081613183565b9050919050565b60006020820190508181036000830152613650816131a6565b9050919050565b60006020820190508181036000830152613670816131c9565b9050919050565b60006020820190508181036000830152613690816131ec565b9050919050565b600060208201905081810360008301526136b08161320f565b9050919050565b600060208201905081810360008301526136d081613232565b9050919050565b600060208201905081810360008301526136f081613255565b9050919050565b600060208201905061370c6000830184613287565b92915050565b60006040820190506137276000830185613287565b6137346020830184613287565b9392505050565b6000613745613756565b905061375182826139db565b919050565b6000604051905090565b600067ffffffffffffffff82111561377b5761377a613ab3565b5b602082029050602081019050919050565b600067ffffffffffffffff8211156137a7576137a6613ab3565b5b602082029050602081019050919050565b600067ffffffffffffffff8211156137d3576137d2613ab3565b5b6137dc82613b04565b9050602081019050919050565b600067ffffffffffffffff82111561380457613803613ab3565b5b61380d82613b04565b9050602081019050919050565b6000819050602082019050919050565b600081519050919050565b600081519050919050565b600081519050919050565b6000602082019050919050565b600082825260208201905092915050565b600082825260208201905092915050565b600082825260208201905092915050565b60006138968261394b565b91506138a18361394b565b9250827fffffffffffffffffffffffffffffffffffffffffffffffffffffffffffffffff038211156138d6576138d5613a55565b5b828201905092915050565b60006138ec8261392b565b9050919050565b60008115159050919050565b60007fffffffff0000000000000000000000000000000000000000000000000000000082169050919050565b600073ffffffffffffffffffffffffffffffffffffffff82169050919050565b6000819050919050565b60006139608261394b565b9050919050565b82818337600083830152505050565b60005b83811015613994578082015181840152602081019050613979565b838111156139a3576000848401525b50505050565b600060028204905060018216806139c157607f821691505b602082108114156139d5576139d4613a84565b5b50919050565b6139e482613b04565b810181811067ffffffffffffffff82111715613a0357613a02613ab3565b5b80604052505050565b6000613a178261394b565b91507fffffffffffffffffffffffffffffffffffffffffffffffffffffffffffffffff821415613a4a57613a49613a55565b5b600182019050919050565b7f4e487b7100000000000000000000000000000000000000000000000000000000600052601160045260246000fd5b7f4e487b7100000000000000000000000000000000000000000000000000000000600052602260045260246000fd5b7f4e487b7100000000000000000000000000000000000000000000000000000000600052604160045260246000fd5b600060033d1115613b015760046000803e613afe600051613b15565b90505b90565b6000601f19601f8301169050919050565b60008160e01c9050919050565b7f455243313135353a207472616e7366657220746f206e6f6e204552433131353560008201527f526563656976657220696d706c656d656e746572000000000000000000000000602082015250565b7f455243313135353a204552433131353552656365697665722072656a6563746560008201527f6420746f6b656e73000000000000000000000000000000000000000000000000602082015250565b7f455243313135353a2062616c616e636520717565727920666f7220746865207a60008201527f65726f2061646472657373000000000000000000000000000000000000000000602082015250565b7f4f776e61626c653a206e6577206f776e657220697320746865207a65726f206160008201527f6464726573730000000000000000000000000000000000000000000000000000602082015250565b7f455243313135353a206275726e20616d6f756e7420657863656564732062616c60008201527f616e636500000000000000000000000000000000000000000000000000000000602082015250565b7f455243313135353a2063616c6c6572206973206e6f74206f776e6572206e6f7260008201527f20617070726f7665640000000000000000000000000000000000000000000000602082015250565b7f455243313135353a207472616e7366657220746f20746865207a65726f20616460008201527f6472657373000000000000000000000000000000000000000000000000000000602082015250565b7f455243313135353a207472616e736665722063616c6c6572206973206e6f742060008201527f6f776e6572206e6f7220617070726f7665640000000000000000000000000000602082015250565b7f455243313135353a206275726e2066726f6d20746865207a65726f206164647260008201527f6573730000000000000000000000000000000000000000000000000000000000602082015250565b7f455243313135353a20696e73756666696369656e742062616c616e636520666f60008201527f72207472616e7366657200000000000000000000000000000000000000000000602082015250565b7f4f776e61626c653a2063616c6c6572206973206e6f7420746865206f776e6572600082015250565b7f4e6f7420656e6f756768204554482073656e7400000000000000000000000000600082015250565b7f536f6c64206f7574000000000000000000000000000000000000000000000000600082015250565b7f455243313135353a2073657474696e6720617070726f76616c2073746174757360008201527f20666f722073656c660000000000000000000000000000000000000000000000602082015250565b7f455243313135353a206163636f756e747320616e6420696473206c656e67746860008201527f206d69736d617463680000000000000000000000000000000000000000000000602082015250565b7f455243313135353a2069647320616e6420616d6f756e7473206c656e6774682060008201527f6d69736d61746368000000000000000000000000000000000000000000000000602082015250565b7f455243313135353a206d696e7420746f20746865207a65726f2061646472657360008201527f7300000000000000000000000000000000000000000000000000000000000000602082015250565b600060443d1015613fff57614082565b614007613756565b60043d036004823e80513d602482011167ffffffffffffffff8211171561402f575050614082565b808201805167ffffffffffffffff81111561404d5750505050614082565b80602083010160043d03850181111561406a575050505050614082565b614079826020018501866139db565b82955050505050505b90565b61408e816138e1565b811461409957600080fd5b50565b6140a5816138f3565b81146140b057600080fd5b50565b6140bc816138ff565b81146140c757600080fd5b50565b6140d38161394b565b81146140de57600080fd5b5056fe416e204e465420772f20494420257320686173206265656e206275726e6564206f6e206163636f756e742025732066726f6d202573a26469706673582212203e6678ab91c23d38b3397a11a428a1e01a23213b39bad4d118b67f968b1f4dac64736f6c6343000804003368747470733a2f2f73616d62696c6c696e6768616d2e6769746875622e696f2f746573742d6a736f6e2f7b69647d2e6a736f6e",
  "linkReferences": {},
  "deployedLinkReferences": {}
}