{
  "_format": "hh-sol-artifact-1",
  "contractName": "GMMerchStrut",
  "sourceName": "contracts/GMMerchStrut.sol",
  "abi": [
    {
      "inputs": [],
      "stateMutability": "nonpayable",
      "type": "constructor"
    },
    {
      "anonymous": false,
      "inputs": [
        {
          "indexed": true,
          "internalType": "address",
          "name": "account",
          "type": "address"
        },
        {
          "indexed": true,
          "internalType": "address",
          "name": "operator",
          "type": "address"
        },
        {
          "indexed": false,
          "internalType": "bool",
          "name": "approved",
          "type": "bool"
        }
      ],
      "name": "ApprovalForAll",
      "type": "event"
    },
    {
      "anonymous": false,
      "inputs": [
        {
          "indexed": false,
          "internalType": "address",
          "name": "sender",
          "type": "address"
        },
        {
          "indexed": false,
          "internalType": "uint256",
          "name": "tokenId",
          "type": "uint256"
        }
      ],
      "name": "GMMinted",
      "type": "event"
    },
    {
      "anonymous": false,
      "inputs": [
        {
          "indexed": false,
          "internalType": "address",
          "name": "sender",
          "type": "address"
        },
        {
          "indexed": false,
          "internalType": "uint256",
          "name": "tokenId",
          "type": "uint256"
        }
      ],
      "name": "GmBurned",
      "type": "event"
    },
    {
      "anonymous": false,
      "inputs": [
        {
          "indexed": true,
          "internalType": "address",
          "name": "previousOwner",
          "type": "address"
        },
        {
          "indexed": true,
          "internalType": "address",
          "name": "newOwner",
          "type": "address"
        }
      ],
      "name": "OwnershipTransferred",
      "type": "event"
    },
    {
      "anonymous": false,
      "inputs": [
        {
          "indexed": true,
          "internalType": "address",
          "name": "operator",
          "type": "address"
        },
        {
          "indexed": true,
          "internalType": "address",
          "name": "from",
          "type": "address"
        },
        {
          "indexed": true,
          "internalType": "address",
          "name": "to",
          "type": "address"
        },
        {
          "indexed": false,
          "internalType": "uint256[]",
          "name": "ids",
          "type": "uint256[]"
        },
        {
          "indexed": false,
          "internalType": "uint256[]",
          "name": "values",
          "type": "uint256[]"
        }
      ],
      "name": "TransferBatch",
      "type": "event"
    },
    {
      "anonymous": false,
      "inputs": [
        {
          "indexed": true,
          "internalType": "address",
          "name": "operator",
          "type": "address"
        },
        {
          "indexed": true,
          "internalType": "address",
          "name": "from",
          "type": "address"
        },
        {
          "indexed": true,
          "internalType": "address",
          "name": "to",
          "type": "address"
        },
        {
          "indexed": false,
          "internalType": "uint256",
          "name": "id",
          "type": "uint256"
        },
        {
          "indexed": false,
          "internalType": "uint256",
          "name": "value",
          "type": "uint256"
        }
      ],
      "name": "TransferSingle",
      "type": "event"
    },
    {
      "anonymous": false,
      "inputs": [
        {
          "indexed": false,
          "internalType": "string",
          "name": "value",
          "type": "string"
        },
        {
          "indexed": true,
          "internalType": "uint256",
          "name": "id",
          "type": "uint256"
        }
      ],
      "name": "URI",
      "type": "event"
    },
    {
      "inputs": [
        {
          "internalType": "address",
          "name": "account",
          "type": "address"
        },
        {
          "internalType": "uint256",
          "name": "id",
          "type": "uint256"
        }
      ],
      "name": "balanceOf",
      "outputs": [
        {
          "internalType": "uint256",
          "name": "",
          "type": "uint256"
        }
      ],
      "stateMutability": "view",
      "type": "function"
    },
    {
      "inputs": [
        {
          "internalType": "address[]",
          "name": "accounts",
          "type": "address[]"
        },
        {
          "internalType": "uint256[]",
          "name": "ids",
          "type": "uint256[]"
        }
      ],
      "name": "balanceOfBatch",
      "outputs": [
        {
          "internalType": "uint256[]",
          "name": "",
          "type": "uint256[]"
        }
      ],
      "stateMutability": "view",
      "type": "function"
    },
    {
      "inputs": [
        {
          "internalType": "address",
          "name": "account",
          "type": "address"
        },
        {
          "internalType": "uint256",
          "name": "id",
          "type": "uint256"
        },
        {
          "internalType": "uint256",
          "name": "value",
          "type": "uint256"
        }
      ],
      "name": "burn",
      "outputs": [],
      "stateMutability": "nonpayable",
      "type": "function"
    },
    {
      "inputs": [
        {
          "internalType": "address",
          "name": "account",
          "type": "address"
        },
        {
          "internalType": "uint256[]",
          "name": "ids",
          "type": "uint256[]"
        },
        {
          "internalType": "uint256[]",
          "name": "values",
          "type": "uint256[]"
        }
      ],
      "name": "burnBatch",
      "outputs": [],
      "stateMutability": "nonpayable",
      "type": "function"
    },
    {
      "inputs": [
        {
          "internalType": "address",
          "name": "_address",
          "type": "address"
        },
        {
          "internalType": "uint256",
          "name": "id",
          "type": "uint256"
        }
      ],
      "name": "burnToken",
      "outputs": [],
      "stateMutability": "nonpayable",
      "type": "function"
    },
    {
      "inputs": [
        {
          "internalType": "uint256",
          "name": "_supply",
          "type": "uint256"
        },
        {
          "internalType": "uint256",
          "name": "_price",
          "type": "uint256"
        },
        {
          "internalType": "uint256",
          "name": "_increment",
          "type": "uint256"
        }
      ],
      "name": "createMerchItem",
      "outputs": [],
      "stateMutability": "nonpayable",
      "type": "function"
    },
    {
      "inputs": [],
      "name": "getMerchCount",
      "outputs": [
        {
          "internalType": "uint256",
          "name": "merchCount",
          "type": "uint256"
        }
      ],
      "stateMutability": "view",
      "type": "function"
    },
    {
      "inputs": [
        {
          "internalType": "address",
          "name": "account",
          "type": "address"
        },
        {
          "internalType": "address",
          "name": "operator",
          "type": "address"
        }
      ],
      "name": "isApprovedForAll",
      "outputs": [
        {
          "internalType": "bool",
          "name": "",
          "type": "bool"
        }
      ],
      "stateMutability": "view",
      "type": "function"
    },
    {
      "inputs": [
        {
          "internalType": "uint256",
          "name": "",
          "type": "uint256"
        }
      ],
      "name": "merch",
      "outputs": [
        {
          "internalType": "uint256",
          "name": "minted",
          "type": "uint256"
        },
        {
          "internalType": "uint256",
          "name": "burned",
          "type": "uint256"
        },
        {
          "internalType": "uint256",
          "name": "supply",
          "type": "uint256"
        },
        {
          "internalType": "uint256",
          "name": "price",
          "type": "uint256"
        },
        {
          "internalType": "uint256",
          "name": "increment",
          "type": "uint256"
        },
        {
          "internalType": "bool",
          "name": "allowMintable",
          "type": "bool"
        },
        {
          "internalType": "bool",
          "name": "publicMintable",
          "type": "bool"
        },
        {
          "internalType": "bool",
          "name": "mintPassIncluded",
          "type": "bool"
        }
      ],
      "stateMutability": "view",
      "type": "function"
    },
    {
      "inputs": [
        {
          "internalType": "address",
          "name": "to",
          "type": "address"
        },
        {
          "internalType": "uint256",
          "name": "id",
          "type": "uint256"
        },
        {
          "internalType": "uint256",
          "name": "amount",
          "type": "uint256"
        }
      ],
      "name": "mintAdmin",
      "outputs": [],
      "stateMutability": "nonpayable",
      "type": "function"
    },
    {
      "inputs": [
        {
          "internalType": "address",
          "name": "",
          "type": "address"
        },
        {
          "internalType": "uint256",
          "name": "",
          "type": "uint256"
        }
      ],
      "name": "mintList",
      "outputs": [
        {
          "internalType": "bool",
          "name": "",
          "type": "bool"
        }
      ],
      "stateMutability": "view",
      "type": "function"
    },
    {
      "inputs": [
        {
          "internalType": "uint256",
          "name": "id",
          "type": "uint256"
        }
      ],
      "name": "mintToken",
      "outputs": [],
      "stateMutability": "payable",
      "type": "function"
    },
    {
      "inputs": [
        {
          "internalType": "uint256",
          "name": "id",
          "type": "uint256"
        },
        {
          "internalType": "bytes",
          "name": "signature",
          "type": "bytes"
        }
      ],
      "name": "mintTokenAllow",
      "outputs": [],
      "stateMutability": "payable",
      "type": "function"
    },
    {
      "inputs": [],
      "name": "owner",
      "outputs": [
        {
          "internalType": "address",
          "name": "",
          "type": "address"
        }
      ],
      "stateMutability": "view",
      "type": "function"
    },
    {
      "inputs": [
        {
          "internalType": "address",
          "name": "_address",
          "type": "address"
        },
        {
          "internalType": "bytes",
          "name": "signature",
          "type": "bytes"
        },
        {
          "internalType": "uint256",
          "name": "id",
          "type": "uint256"
        }
      ],
      "name": "recoverSigner",
      "outputs": [
        {
          "internalType": "address",
          "name": "",
          "type": "address"
        }
      ],
      "stateMutability": "pure",
      "type": "function"
    },
    {
      "inputs": [],
      "name": "renounceOwnership",
      "outputs": [],
      "stateMutability": "nonpayable",
      "type": "function"
    },
    {
      "inputs": [
        {
          "internalType": "address",
          "name": "from",
          "type": "address"
        },
        {
          "internalType": "address",
          "name": "to",
          "type": "address"
        },
        {
          "internalType": "uint256[]",
          "name": "ids",
          "type": "uint256[]"
        },
        {
          "internalType": "uint256[]",
          "name": "amounts",
          "type": "uint256[]"
        },
        {
          "internalType": "bytes",
          "name": "data",
          "type": "bytes"
        }
      ],
      "name": "safeBatchTransferFrom",
      "outputs": [],
      "stateMutability": "nonpayable",
      "type": "function"
    },
    {
      "inputs": [
        {
          "internalType": "address",
          "name": "from",
          "type": "address"
        },
        {
          "internalType": "address",
          "name": "to",
          "type": "address"
        },
        {
          "internalType": "uint256",
          "name": "id",
          "type": "uint256"
        },
        {
          "internalType": "uint256",
          "name": "amount",
          "type": "uint256"
        },
        {
          "internalType": "bytes",
          "name": "data",
          "type": "bytes"
        }
      ],
      "name": "safeTransferFrom",
      "outputs": [],
      "stateMutability": "nonpayable",
      "type": "function"
    },
    {
      "inputs": [
        {
          "internalType": "address",
          "name": "operator",
          "type": "address"
        },
        {
          "internalType": "bool",
          "name": "approved",
          "type": "bool"
        }
      ],
      "name": "setApprovalForAll",
      "outputs": [],
      "stateMutability": "nonpayable",
      "type": "function"
    },
    {
      "inputs": [
        {
          "internalType": "string",
          "name": "newuri",
          "type": "string"
        }
      ],
      "name": "setURI",
      "outputs": [],
      "stateMutability": "nonpayable",
      "type": "function"
    },
    {
      "inputs": [
        {
          "internalType": "bytes4",
          "name": "interfaceId",
          "type": "bytes4"
        }
      ],
      "name": "supportsInterface",
      "outputs": [
        {
          "internalType": "bool",
          "name": "",
          "type": "bool"
        }
      ],
      "stateMutability": "view",
      "type": "function"
    },
    {
      "inputs": [
        {
          "internalType": "address",
          "name": "newOwner",
          "type": "address"
        }
      ],
      "name": "transferOwnership",
      "outputs": [],
      "stateMutability": "nonpayable",
      "type": "function"
    },
    {
      "inputs": [
        {
          "internalType": "uint256",
          "name": "_index",
          "type": "uint256"
        },
        {
          "internalType": "uint256",
          "name": "_supply",
          "type": "uint256"
        },
        {
          "internalType": "uint256",
          "name": "_price",
          "type": "uint256"
        },
        {
          "internalType": "uint256",
          "name": "_increment",
          "type": "uint256"
        },
        {
          "internalType": "bool",
          "name": "_allowMintable",
          "type": "bool"
        },
        {
          "internalType": "bool",
          "name": "_publicMintable",
          "type": "bool"
        },
        {
          "internalType": "bool",
          "name": "_mintPassIncluded",
          "type": "bool"
        }
      ],
      "name": "updateMerchItem",
      "outputs": [],
      "stateMutability": "nonpayable",
      "type": "function"
    },
    {
      "inputs": [
        {
          "internalType": "uint256",
          "name": "",
          "type": "uint256"
        }
      ],
      "name": "uri",
      "outputs": [
        {
          "internalType": "string",
          "name": "",
          "type": "string"
        }
      ],
      "stateMutability": "view",
      "type": "function"
    },
    {
      "inputs": [],
      "name": "withdraw",
      "outputs": [],
      "stateMutability": "nonpayable",
      "type": "function"
    }
  ],
  "bytecode": "0x60806040523480156200001157600080fd5b506040518060800160405280604d815260200162005dbd604d91396200003d816200006460201b60201c565b506200005e620000526200008060201b60201c565b6200008860201b60201c565b62000263565b80600290805190602001906200007c9291906200014e565b5050565b600033905090565b6000600360009054906101000a900473ffffffffffffffffffffffffffffffffffffffff16905081600360006101000a81548173ffffffffffffffffffffffffffffffffffffffff021916908373ffffffffffffffffffffffffffffffffffffffff1602179055508173ffffffffffffffffffffffffffffffffffffffff168173ffffffffffffffffffffffffffffffffffffffff167f8be0079c531659141344cd1fd0a4f28419497f9722a3daafe3b4186f6b6457e060405160405180910390a35050565b8280546200015c90620001fe565b90600052602060002090601f016020900481019282620001805760008555620001cc565b82601f106200019b57805160ff1916838001178555620001cc565b82800160010185558215620001cc579182015b82811115620001cb578251825591602001919060010190620001ae565b5b509050620001db9190620001df565b5090565b5b80821115620001fa576000816000905550600101620001e0565b5090565b600060028204905060018216806200021757607f821691505b602082108114156200022e576200022d62000234565b5b50919050565b7f4e487b7100000000000000000000000000000000000000000000000000000000600052602260045260246000fd5b615b4a80620002736000396000f3fe6080604052600436106101655760003560e01c80637bebcaeb116100d1578063d1df306c1161008a578063e985e9c511610064578063e985e9c514610520578063f242432a1461055d578063f2fde38b14610586578063f5298aca146105af57610165565b8063d1df306c146104b2578063e4dfe47f146104db578063e8c61e2b146104f757610165565b80637bebcaeb146103b15780637fdc1401146103ee5780638da5cb5b14610419578063a22cb46514610444578063ab3f22091461046d578063c634d0321461049657610165565b8063393b450811610123578063393b4508146102b05780633ccfd60b146102f45780634e1273f41461030b578063558a9ee4146103485780636b20c45414610371578063715018a61461039a57610165565b8062fdd58e1461016a57806301ffc9a7146101a757806302fe5305146101e45780630e89341c1461020d5780632eb2c2d61461024a57806335c2ec6014610273575b600080fd5b34801561017657600080fd5b50610191600480360381019061018c919061402c565b6105d8565b60405161019e9190614e03565b60405180910390f35b3480156101b357600080fd5b506101ce60048036038101906101c99190614123565b6106a1565b6040516101db9190614a41565b60405180910390f35b3480156101f057600080fd5b5061020b60048036038101906102069190614175565b610783565b005b34801561021957600080fd5b50610234600480360381019061022f91906141b6565b61080b565b6040516102419190614aa1565b60405180910390f35b34801561025657600080fd5b50610271600480360381019061026c9190613dbc565b61089f565b005b34801561027f57600080fd5b5061029a6004803603810190610295919061402c565b610940565b6040516102a79190614a41565b60405180910390f35b3480156102bc57600080fd5b506102d760048036038101906102d291906141b6565b61096f565b6040516102eb989796959493929190614e47565b60405180910390f35b34801561030057600080fd5b506103096109ee565b005b34801561031757600080fd5b50610332600480360381019061032d91906140b7565b610b1f565b60405161033f91906149e8565b60405180910390f35b34801561035457600080fd5b5061036f600480360381019061036a9190614282565b610cd0565b005b34801561037d57600080fd5b5061039860048036038101906103939190613f0a565b610d95565b005b3480156103a657600080fd5b506103af610e32565b005b3480156103bd57600080fd5b506103d860048036038101906103d39190613fc5565b610eba565b6040516103e591906148e2565b60405180910390f35b3480156103fa57600080fd5b50610403610f22565b6040516104109190614e03565b60405180910390f35b34801561042557600080fd5b5061042e610f2f565b60405161043b91906148e2565b60405180910390f35b34801561045057600080fd5b5061046b60048036038101906104669190613f89565b610f59565b005b34801561047957600080fd5b50610494600480360381019061048f9190614068565b610f6f565b005b6104b060048036038101906104ab91906141b6565b61106e565b005b3480156104be57600080fd5b506104d960048036038101906104d4919061402c565b611628565b005b6104f560048036038101906104f091906141df565b6116d4565b005b34801561050357600080fd5b5061051e60048036038101906105199190614233565b611caa565b005b34801561052c57600080fd5b5061054760048036038101906105429190613d80565b611e2f565b6040516105549190614a41565b60405180910390f35b34801561056957600080fd5b50610584600480360381019061057f9190613e7b565b611ec3565b005b34801561059257600080fd5b506105ad60048036038101906105a89190613d57565b611f64565b005b3480156105bb57600080fd5b506105d660048036038101906105d19190614068565b61205c565b005b60008073ffffffffffffffffffffffffffffffffffffffff168373ffffffffffffffffffffffffffffffffffffffff161415610649576040517f08c379a000000000000000000000000000000000000000000000000000000000815260040161064090614b63565b60405180910390fd5b60008083815260200190815260200160002060008473ffffffffffffffffffffffffffffffffffffffff1673ffffffffffffffffffffffffffffffffffffffff16815260200190815260200160002054905092915050565b60007fd9b67a26000000000000000000000000000000000000000000000000000000007bffffffffffffffffffffffffffffffffffffffffffffffffffffffff1916827bffffffffffffffffffffffffffffffffffffffffffffffffffffffff1916148061076c57507f0e89341c000000000000000000000000000000000000000000000000000000007bffffffffffffffffffffffffffffffffffffffffffffffffffffffff1916827bffffffffffffffffffffffffffffffffffffffffffffffffffffffff1916145b8061077c575061077b826120f9565b5b9050919050565b61078b612163565b73ffffffffffffffffffffffffffffffffffffffff166107a9610f2f565b73ffffffffffffffffffffffffffffffffffffffff16146107ff576040517f08c379a00000000000000000000000000000000000000000000000000000000081526004016107f690614cc3565b60405180910390fd5b6108088161216b565b50565b60606002805461081a9061514e565b80601f01602080910402602001604051908101604052809291908181526020018280546108469061514e565b80156108935780601f1061086857610100808354040283529160200191610893565b820191906000526020600020905b81548152906001019060200180831161087657829003601f168201915b50505050509050919050565b6108a7612163565b73ffffffffffffffffffffffffffffffffffffffff168573ffffffffffffffffffffffffffffffffffffffff1614806108ed57506108ec856108e7612163565b611e2f565b5b61092c576040517f08c379a000000000000000000000000000000000000000000000000000000000815260040161092390614c23565b60405180910390fd5b6109398585858585612185565b5050505050565b60046020528160005260406000206020528060005260406000206000915091509054906101000a900460ff1681565b6005818154811061097f57600080fd5b90600052602060002090600602016000915090508060000154908060010154908060020154908060030154908060040154908060050160009054906101000a900460ff16908060050160019054906101000a900460ff16908060050160029054906101000a900460ff16905088565b6109f6612163565b73ffffffffffffffffffffffffffffffffffffffff16610a14610f2f565b73ffffffffffffffffffffffffffffffffffffffff1614610a6a576040517f08c379a0000000000000000000000000000000000000000000000000000000008152600401610a6190614cc3565b60405180910390fd5b600047905060003373ffffffffffffffffffffffffffffffffffffffff1682604051610a95906148cd565b60006040518083038185875af1925050503d8060008114610ad2576040519150601f19603f3d011682016040523d82523d6000602084013e610ad7565b606091505b5050905080610b1b576040517f08c379a0000000000000000000000000000000000000000000000000000000008152600401610b1290614d03565b60405180910390fd5b5050565b60608151835114610b65576040517f08c379a0000000000000000000000000000000000000000000000000000000008152600401610b5c90614da3565b60405180910390fd5b6000835167ffffffffffffffff811115610ba8577f4e487b7100000000000000000000000000000000000000000000000000000000600052604160045260246000fd5b604051908082528060200260200182016040528015610bd65781602001602082028036833780820191505090505b50905060005b8451811015610cc557610c6f858281518110610c21577f4e487b7100000000000000000000000000000000000000000000000000000000600052603260045260246000fd5b6020026020010151858381518110610c62577f4e487b7100000000000000000000000000000000000000000000000000000000600052603260045260246000fd5b60200260200101516105d8565b828281518110610ca8577f4e487b7100000000000000000000000000000000000000000000000000000000600052603260045260246000fd5b60200260200101818152505080610cbe906151b1565b9050610bdc565b508091505092915050565b600060058881548110610d0c577f4e487b7100000000000000000000000000000000000000000000000000000000600052603260045260246000fd5b90600052602060002090600602019050868160020181905550858160030181905550848160040181905550838160050160006101000a81548160ff021916908315150217905550828160050160016101000a81548160ff021916908315150217905550818160050160026101000a81548160ff0219169083151502179055505050505050505050565b610d9d612163565b73ffffffffffffffffffffffffffffffffffffffff168373ffffffffffffffffffffffffffffffffffffffff161480610de35750610de283610ddd612163565b611e2f565b5b610e22576040517f08c379a0000000000000000000000000000000000000000000000000000000008152600401610e1990614bc3565b60405180910390fd5b610e2d8383836124e5565b505050565b610e3a612163565b73ffffffffffffffffffffffffffffffffffffffff16610e58610f2f565b73ffffffffffffffffffffffffffffffffffffffff1614610eae576040517f08c379a0000000000000000000000000000000000000000000000000000000008152600401610ea590614cc3565b60405180910390fd5b610eb860006127e2565b565b6000808483604051602001610ed092919061487b565b60405160208183030381529060405280519060200120604051602001610ef691906148a7565b604051602081830303815290604052805190602001209050610f1881856128a8565b9150509392505050565b6000600580549050905090565b6000600360009054906101000a900473ffffffffffffffffffffffffffffffffffffffff16905090565b610f6b610f64612163565b83836128cf565b5050565b610f77612163565b73ffffffffffffffffffffffffffffffffffffffff16610f95610f2f565b73ffffffffffffffffffffffffffffffffffffffff1614610feb576040517f08c379a0000000000000000000000000000000000000000000000000000000008152600401610fe290614cc3565b60405180910390fd5b61100683838360405180602001604052806000815250612a3c565b600160058381548110611042577f4e487b7100000000000000000000000000000000000000000000000000000000600052603260045260246000fd5b90600052602060002090600602016000016000828254611062919061502b565b92505081905550505050565b600581815481106110a8577f4e487b7100000000000000000000000000000000000000000000000000000000600052603260045260246000fd5b906000526020600020906006020160050160019054906101000a900460ff16611106576040517f08c379a00000000000000000000000000000000000000000000000000000000081526004016110fd90614d43565b60405180910390fd5b60058181548110611140577f4e487b7100000000000000000000000000000000000000000000000000000000600052603260045260246000fd5b906000526020600020906006020160030154341015611194576040517f08c379a000000000000000000000000000000000000000000000000000000000815260040161118b90614ce3565b60405180910390fd5b600581815481106111ce577f4e487b7100000000000000000000000000000000000000000000000000000000600052603260045260246000fd5b9060005260206000209060060201600201546005828154811061121a577f4e487b7100000000000000000000000000000000000000000000000000000000600052603260045260246000fd5b906000526020600020906006020160000154111561126d576040517f08c379a000000000000000000000000000000000000000000000000000000000815260040161126490614d23565b60405180910390fd5b600460003373ffffffffffffffffffffffffffffffffffffffff1673ffffffffffffffffffffffffffffffffffffffff168152602001908152602001600020600082815260200190815260200160002060009054906101000a900460ff161561130b576040517f08c379a000000000000000000000000000000000000000000000000000000000815260040161130290614b23565b60405180910390fd5b6113273382600160405180602001604052806000815250612a3c565b60006005600160058481548110611367577f4e487b7100000000000000000000000000000000000000000000000000000000600052603260045260246000fd5b906000526020600020906006020160000154611383919061502b565b61138d9190615232565b141561144157600581815481106113cd577f4e487b7100000000000000000000000000000000000000000000000000000000600052603260045260246000fd5b90600052602060002090600602016004015460058281548110611419577f4e487b7100000000000000000000000000000000000000000000000000000000600052603260045260246000fd5b90600052602060002090600602016003016000828254611439919061502b565b925050819055505b60016005828154811061147d577f4e487b7100000000000000000000000000000000000000000000000000000000600052603260045260246000fd5b9060005260206000209060060201600001600082825461149d919061502b565b925050819055506001600460003373ffffffffffffffffffffffffffffffffffffffff1673ffffffffffffffffffffffffffffffffffffffff168152602001908152602001600020600083815260200190815260200160002060006101000a81548160ff02191690831515021790555060058181548110611547577f4e487b7100000000000000000000000000000000000000000000000000000000600052603260045260246000fd5b906000526020600020906006020160050160029054906101000a900460ff16156115ec57600160056001815481106115a8577f4e487b7100000000000000000000000000000000000000000000000000000000600052603260045260246000fd5b906000526020600020906006020160000160008282546115c8919061502b565b925050819055506115eb3360018060405180602001604052806000815250612a3c565b5b7fef31b38176d40d5e039a10dc804ba178c47478486ce20e46e6e7dcca99fe2705338260405161161d9291906149bf565b60405180910390a150565b6116348282600161205c565b600160058281548110611670577f4e487b7100000000000000000000000000000000000000000000000000000000600052603260045260246000fd5b90600052602060002090600602016001016000828254611690919061502b565b925050819055507f50b71add01f85c822c32b69b20290a8fb2a972a7e632a5f0fe09a4163de8f7d782826040516116c89291906149bf565b60405180910390a15050565b6005828154811061170e577f4e487b7100000000000000000000000000000000000000000000000000000000600052603260045260246000fd5b906000526020600020906006020160050160009054906101000a900460ff1661176c576040517f08c379a000000000000000000000000000000000000000000000000000000000815260040161176390614d63565b60405180910390fd5b600582815481106117a6577f4e487b7100000000000000000000000000000000000000000000000000000000600052603260045260246000fd5b9060005260206000209060060201600301543410156117fa576040517f08c379a00000000000000000000000000000000000000000000000000000000081526004016117f190614ce3565b60405180910390fd5b60058281548110611834577f4e487b7100000000000000000000000000000000000000000000000000000000600052603260045260246000fd5b90600052602060002090600602016002015460058381548110611880577f4e487b7100000000000000000000000000000000000000000000000000000000600052603260045260246000fd5b90600052602060002090600602016000015411156118d3576040517f08c379a00000000000000000000000000000000000000000000000000000000081526004016118ca90614d23565b60405180910390fd5b6118db610f2f565b73ffffffffffffffffffffffffffffffffffffffff166118fc338385610eba565b73ffffffffffffffffffffffffffffffffffffffff1614611952576040517f08c379a000000000000000000000000000000000000000000000000000000000815260040161194990614c43565b60405180910390fd5b600460003373ffffffffffffffffffffffffffffffffffffffff1673ffffffffffffffffffffffffffffffffffffffff168152602001908152602001600020600083815260200190815260200160002060009054906101000a900460ff16156119f0576040517f08c379a00000000000000000000000000000000000000000000000000000000081526004016119e790614b23565b60405180910390fd5b611a0c3383600160405180602001604052806000815250612a3c565b600160058381548110611a48577f4e487b7100000000000000000000000000000000000000000000000000000000600052603260045260246000fd5b90600052602060002090600602016000016000828254611a68919061502b565b925050819055506001600460003373ffffffffffffffffffffffffffffffffffffffff1673ffffffffffffffffffffffffffffffffffffffff168152602001908152602001600020600084815260200190815260200160002060006101000a81548160ff02191690831515021790555060006005600160058581548110611b18577f4e487b7100000000000000000000000000000000000000000000000000000000600052603260045260246000fd5b906000526020600020906006020160000154611b34919061502b565b611b3e9190615232565b1415611bf25760058281548110611b7e577f4e487b7100000000000000000000000000000000000000000000000000000000600052603260045260246000fd5b90600052602060002090600602016004015460058381548110611bca577f4e487b7100000000000000000000000000000000000000000000000000000000600052603260045260246000fd5b90600052602060002090600602016003016000828254611bea919061502b565b925050819055505b60058281548110611c2c577f4e487b7100000000000000000000000000000000000000000000000000000000600052603260045260246000fd5b906000526020600020906006020160050160029054906101000a900460ff1615611c6d57611c6c3360018060405180602001604052806000815250612a3c565b5b7fef31b38176d40d5e039a10dc804ba178c47478486ce20e46e6e7dcca99fe27053383604051611c9e9291906149bf565b60405180910390a15050565b611cb2612163565b73ffffffffffffffffffffffffffffffffffffffff16611cd0610f2f565b73ffffffffffffffffffffffffffffffffffffffff1614611d26576040517f08c379a0000000000000000000000000000000000000000000000000000000008152600401611d1d90614cc3565b60405180910390fd5b60056040518061010001604052806000815260200160008152602001858152602001848152602001838152602001600015158152602001600015158152602001600015158152509080600181540180825580915050600190039060005260206000209060060201600090919091909150600082015181600001556020820151816001015560408201518160020155606082015181600301556080820151816004015560a08201518160050160006101000a81548160ff02191690831515021790555060c08201518160050160016101000a81548160ff02191690831515021790555060e08201518160050160026101000a81548160ff0219169083151502179055505050505050565b6000600160008473ffffffffffffffffffffffffffffffffffffffff1673ffffffffffffffffffffffffffffffffffffffff16815260200190815260200160002060008373ffffffffffffffffffffffffffffffffffffffff1673ffffffffffffffffffffffffffffffffffffffff16815260200190815260200160002060009054906101000a900460ff16905092915050565b611ecb612163565b73ffffffffffffffffffffffffffffffffffffffff168573ffffffffffffffffffffffffffffffffffffffff161480611f115750611f1085611f0b612163565b611e2f565b5b611f50576040517f08c379a0000000000000000000000000000000000000000000000000000000008152600401611f4790614bc3565b60405180910390fd5b611f5d8585858585612bd2565b5050505050565b611f6c612163565b73ffffffffffffffffffffffffffffffffffffffff16611f8a610f2f565b73ffffffffffffffffffffffffffffffffffffffff1614611fe0576040517f08c379a0000000000000000000000000000000000000000000000000000000008152600401611fd790614cc3565b60405180910390fd5b600073ffffffffffffffffffffffffffffffffffffffff168173ffffffffffffffffffffffffffffffffffffffff161415612050576040517f08c379a000000000000000000000000000000000000000000000000000000000815260040161204790614b83565b60405180910390fd5b612059816127e2565b50565b612064612163565b73ffffffffffffffffffffffffffffffffffffffff168373ffffffffffffffffffffffffffffffffffffffff1614806120aa57506120a9836120a4612163565b611e2f565b5b6120e9576040517f08c379a00000000000000000000000000000000000000000000000000000000081526004016120e090614bc3565b60405180910390fd5b6120f4838383612e54565b505050565b60007f01ffc9a7000000000000000000000000000000000000000000000000000000007bffffffffffffffffffffffffffffffffffffffffffffffffffffffff1916827bffffffffffffffffffffffffffffffffffffffffffffffffffffffff1916149050919050565b600033905090565b8060029080519060200190612181929190613a4f565b5050565b81518351146121c9576040517f08c379a00000000000000000000000000000000000000000000000000000000081526004016121c090614dc3565b60405180910390fd5b600073ffffffffffffffffffffffffffffffffffffffff168473ffffffffffffffffffffffffffffffffffffffff161415612239576040517f08c379a000000000000000000000000000000000000000000000000000000000815260040161223090614c03565b60405180910390fd5b6000612243612163565b9050612253818787878787613071565b60005b845181101561245057600085828151811061229a577f4e487b7100000000000000000000000000000000000000000000000000000000600052603260045260246000fd5b6020026020010151905060008583815181106122df577f4e487b7100000000000000000000000000000000000000000000000000000000600052603260045260246000fd5b60200260200101519050600080600084815260200190815260200160002060008b73ffffffffffffffffffffffffffffffffffffffff1673ffffffffffffffffffffffffffffffffffffffff16815260200190815260200160002054905081811015612380576040517f08c379a000000000000000000000000000000000000000000000000000000000815260040161237790614ca3565b60405180910390fd5b81810360008085815260200190815260200160002060008c73ffffffffffffffffffffffffffffffffffffffff1673ffffffffffffffffffffffffffffffffffffffff168152602001908152602001600020819055508160008085815260200190815260200160002060008b73ffffffffffffffffffffffffffffffffffffffff1673ffffffffffffffffffffffffffffffffffffffff1681526020019081526020016000206000828254612435919061502b565b9250508190555050505080612449906151b1565b9050612256565b508473ffffffffffffffffffffffffffffffffffffffff168673ffffffffffffffffffffffffffffffffffffffff168273ffffffffffffffffffffffffffffffffffffffff167f4a39dc06d4c0dbc64b70af90fd698a233a518aa5d07e595d983b8c0526c8f7fb87876040516124c7929190614a0a565b60405180910390a46124dd818787878787613079565b505050505050565b600073ffffffffffffffffffffffffffffffffffffffff168373ffffffffffffffffffffffffffffffffffffffff161415612555576040517f08c379a000000000000000000000000000000000000000000000000000000000815260040161254c90614c83565b60405180910390fd5b8051825114612599576040517f08c379a000000000000000000000000000000000000000000000000000000000815260040161259090614dc3565b60405180910390fd5b60006125a3612163565b90506125c381856000868660405180602001604052806000815250613071565b60005b835181101561275c57600084828151811061260a577f4e487b7100000000000000000000000000000000000000000000000000000000600052603260045260246000fd5b60200260200101519050600084838151811061264f577f4e487b7100000000000000000000000000000000000000000000000000000000600052603260045260246000fd5b60200260200101519050600080600084815260200190815260200160002060008973ffffffffffffffffffffffffffffffffffffffff1673ffffffffffffffffffffffffffffffffffffffff168152602001908152602001600020549050818110156126f0576040517f08c379a00000000000000000000000000000000000000000000000000000000081526004016126e790614ba3565b60405180910390fd5b81810360008085815260200190815260200160002060008a73ffffffffffffffffffffffffffffffffffffffff1673ffffffffffffffffffffffffffffffffffffffff168152602001908152602001600020819055505050508080612754906151b1565b9150506125c6565b50600073ffffffffffffffffffffffffffffffffffffffff168473ffffffffffffffffffffffffffffffffffffffff168273ffffffffffffffffffffffffffffffffffffffff167f4a39dc06d4c0dbc64b70af90fd698a233a518aa5d07e595d983b8c0526c8f7fb86866040516127d4929190614a0a565b60405180910390a450505050565b6000600360009054906101000a900473ffffffffffffffffffffffffffffffffffffffff16905081600360006101000a81548173ffffffffffffffffffffffffffffffffffffffff021916908373ffffffffffffffffffffffffffffffffffffffff1602179055508173ffffffffffffffffffffffffffffffffffffffff168173ffffffffffffffffffffffffffffffffffffffff167f8be0079c531659141344cd1fd0a4f28419497f9722a3daafe3b4186f6b6457e060405160405180910390a35050565b60008060006128b78585613260565b915091506128c4816132e3565b819250505092915050565b8173ffffffffffffffffffffffffffffffffffffffff168373ffffffffffffffffffffffffffffffffffffffff16141561293e576040517f08c379a000000000000000000000000000000000000000000000000000000000815260040161293590614d83565b60405180910390fd5b80600160008573ffffffffffffffffffffffffffffffffffffffff1673ffffffffffffffffffffffffffffffffffffffff16815260200190815260200160002060008473ffffffffffffffffffffffffffffffffffffffff1673ffffffffffffffffffffffffffffffffffffffff16815260200190815260200160002060006101000a81548160ff0219169083151502179055508173ffffffffffffffffffffffffffffffffffffffff168373ffffffffffffffffffffffffffffffffffffffff167f17307eab39ab6107e8899845ad3d59bd9653f200f220920489ca2b5937696c3183604051612a2f9190614a41565b60405180910390a3505050565b600073ffffffffffffffffffffffffffffffffffffffff168473ffffffffffffffffffffffffffffffffffffffff161415612aac576040517f08c379a0000000000000000000000000000000000000000000000000000000008152600401612aa390614de3565b60405180910390fd5b6000612ab6612163565b9050612ad781600087612ac888613634565b612ad188613634565b87613071565b8260008086815260200190815260200160002060008773ffffffffffffffffffffffffffffffffffffffff1673ffffffffffffffffffffffffffffffffffffffff1681526020019081526020016000206000828254612b36919061502b565b925050819055508473ffffffffffffffffffffffffffffffffffffffff16600073ffffffffffffffffffffffffffffffffffffffff168273ffffffffffffffffffffffffffffffffffffffff167fc3d58168c5ae7397731d063d5bbf3d657854427343f4c083240f7aacaa2d0f628787604051612bb4929190614e1e565b60405180910390a4612bcb816000878787876136fa565b5050505050565b600073ffffffffffffffffffffffffffffffffffffffff168473ffffffffffffffffffffffffffffffffffffffff161415612c42576040517f08c379a0000000000000000000000000000000000000000000000000000000008152600401612c3990614c03565b60405180910390fd5b6000612c4c612163565b9050612c6c818787612c5d88613634565b612c6688613634565b87613071565b600080600086815260200190815260200160002060008873ffffffffffffffffffffffffffffffffffffffff1673ffffffffffffffffffffffffffffffffffffffff16815260200190815260200160002054905083811015612d03576040517f08c379a0000000000000000000000000000000000000000000000000000000008152600401612cfa90614ca3565b60405180910390fd5b83810360008087815260200190815260200160002060008973ffffffffffffffffffffffffffffffffffffffff1673ffffffffffffffffffffffffffffffffffffffff168152602001908152602001600020819055508360008087815260200190815260200160002060008873ffffffffffffffffffffffffffffffffffffffff1673ffffffffffffffffffffffffffffffffffffffff1681526020019081526020016000206000828254612db8919061502b565b925050819055508573ffffffffffffffffffffffffffffffffffffffff168773ffffffffffffffffffffffffffffffffffffffff168373ffffffffffffffffffffffffffffffffffffffff167fc3d58168c5ae7397731d063d5bbf3d657854427343f4c083240f7aacaa2d0f628888604051612e35929190614e1e565b60405180910390a4612e4b8288888888886136fa565b50505050505050565b600073ffffffffffffffffffffffffffffffffffffffff168373ffffffffffffffffffffffffffffffffffffffff161415612ec4576040517f08c379a0000000000000000000000000000000000000000000000000000000008152600401612ebb90614c83565b60405180910390fd5b6000612ece612163565b9050612efe81856000612ee087613634565b612ee987613634565b60405180602001604052806000815250613071565b600080600085815260200190815260200160002060008673ffffffffffffffffffffffffffffffffffffffff1673ffffffffffffffffffffffffffffffffffffffff16815260200190815260200160002054905082811015612f95576040517f08c379a0000000000000000000000000000000000000000000000000000000008152600401612f8c90614ba3565b60405180910390fd5b82810360008086815260200190815260200160002060008773ffffffffffffffffffffffffffffffffffffffff1673ffffffffffffffffffffffffffffffffffffffff16815260200190815260200160002081905550600073ffffffffffffffffffffffffffffffffffffffff168573ffffffffffffffffffffffffffffffffffffffff168373ffffffffffffffffffffffffffffffffffffffff167fc3d58168c5ae7397731d063d5bbf3d657854427343f4c083240f7aacaa2d0f628787604051613062929190614e1e565b60405180910390a45050505050565b505050505050565b6130988473ffffffffffffffffffffffffffffffffffffffff166138e1565b15613258578373ffffffffffffffffffffffffffffffffffffffff1663bc197c8187878686866040518663ffffffff1660e01b81526004016130de9594939291906148fd565b602060405180830381600087803b1580156130f857600080fd5b505af192505050801561312957506040513d601f19601f82011682018060405250810190613126919061414c565b60015b6131cf5761313561531f565b806308c379a01415613192575061314a615a22565b806131555750613194565b806040517f08c379a00000000000000000000000000000000000000000000000000000000081526004016131899190614aa1565b60405180910390fd5b505b6040517f08c379a00000000000000000000000000000000000000000000000000000000081526004016131c690614ae3565b60405180910390fd5b63bc197c8160e01b7bffffffffffffffffffffffffffffffffffffffffffffffffffffffff1916817bffffffffffffffffffffffffffffffffffffffffffffffffffffffff191614613256576040517f08c379a000000000000000000000000000000000000000000000000000000000815260040161324d90614b03565b60405180910390fd5b505b505050505050565b6000806041835114156132a25760008060006020860151925060408601519150606086015160001a9050613296878285856138f4565b945094505050506132dc565b6040835114156132d35760008060208501519150604085015190506132c8868383613a01565b9350935050506132dc565b60006002915091505b9250929050565b6000600481111561331d577f4e487b7100000000000000000000000000000000000000000000000000000000600052602160045260246000fd5b816004811115613356577f4e487b7100000000000000000000000000000000000000000000000000000000600052602160045260246000fd5b141561336157613631565b6001600481111561339b577f4e487b7100000000000000000000000000000000000000000000000000000000600052602160045260246000fd5b8160048111156133d4577f4e487b7100000000000000000000000000000000000000000000000000000000600052602160045260246000fd5b1415613415576040517f08c379a000000000000000000000000000000000000000000000000000000000815260040161340c90614ac3565b60405180910390fd5b6002600481111561344f577f4e487b7100000000000000000000000000000000000000000000000000000000600052602160045260246000fd5b816004811115613488577f4e487b7100000000000000000000000000000000000000000000000000000000600052602160045260246000fd5b14156134c9576040517f08c379a00000000000000000000000000000000000000000000000000000000081526004016134c090614b43565b60405180910390fd5b60036004811115613503577f4e487b7100000000000000000000000000000000000000000000000000000000600052602160045260246000fd5b81600481111561353c577f4e487b7100000000000000000000000000000000000000000000000000000000600052602160045260246000fd5b141561357d576040517f08c379a000000000000000000000000000000000000000000000000000000000815260040161357490614be3565b60405180910390fd5b6004808111156135b6577f4e487b7100000000000000000000000000000000000000000000000000000000600052602160045260246000fd5b8160048111156135ef577f4e487b7100000000000000000000000000000000000000000000000000000000600052602160045260246000fd5b1415613630576040517f08c379a000000000000000000000000000000000000000000000000000000000815260040161362790614c63565b60405180910390fd5b5b50565b60606000600167ffffffffffffffff811115613679577f4e487b7100000000000000000000000000000000000000000000000000000000600052604160045260246000fd5b6040519080825280602002602001820160405280156136a75781602001602082028036833780820191505090505b50905082816000815181106136e5577f4e487b7100000000000000000000000000000000000000000000000000000000600052603260045260246000fd5b60200260200101818152505080915050919050565b6137198473ffffffffffffffffffffffffffffffffffffffff166138e1565b156138d9578373ffffffffffffffffffffffffffffffffffffffff1663f23a6e6187878686866040518663ffffffff1660e01b815260040161375f959493929190614965565b602060405180830381600087803b15801561377957600080fd5b505af19250505080156137aa57506040513d601f19601f820116820180604052508101906137a7919061414c565b60015b613850576137b661531f565b806308c379a0141561381357506137cb615a22565b806137d65750613815565b806040517f08c379a000000000000000000000000000000000000000000000000000000000815260040161380a9190614aa1565b60405180910390fd5b505b6040517f08c379a000000000000000000000000000000000000000000000000000000000815260040161384790614ae3565b60405180910390fd5b63f23a6e6160e01b7bffffffffffffffffffffffffffffffffffffffffffffffffffffffff1916817bffffffffffffffffffffffffffffffffffffffffffffffffffffffff1916146138d7576040517f08c379a00000000000000000000000000000000000000000000000000000000081526004016138ce90614b03565b60405180910390fd5b505b505050505050565b600080823b905060008111915050919050565b6000807f7fffffffffffffffffffffffffffffff5d576e7357a4501ddfe92f46681b20a08360001c111561392f5760006003915091506139f8565b601b8560ff16141580156139475750601c8560ff1614155b156139595760006004915091506139f8565b60006001878787876040516000815260200160405260405161397e9493929190614a5c565b6020604051602081039080840390855afa1580156139a0573d6000803e3d6000fd5b505050602060405103519050600073ffffffffffffffffffffffffffffffffffffffff168173ffffffffffffffffffffffffffffffffffffffff1614156139ef576000600192509250506139f8565b80600092509250505b94509492505050565b6000806000807f7fffffffffffffffffffffffffffffffffffffffffffffffffffffffffffffff85169150601b8560ff1c019050613a41878288856138f4565b935093505050935093915050565b828054613a5b9061514e565b90600052602060002090601f016020900481019282613a7d5760008555613ac4565b82601f10613a9657805160ff1916838001178555613ac4565b82800160010185558215613ac4579182015b82811115613ac3578251825591602001919060010190613aa8565b5b509050613ad19190613ad5565b5090565b5b80821115613aee576000816000905550600101613ad6565b5090565b6000613b05613b0084614eea565b614ec5565b90508083825260208201905082856020860282011115613b2457600080fd5b60005b85811015613b545781613b3a8882613c46565b845260208401935060208301925050600181019050613b27565b5050509392505050565b6000613b71613b6c84614f16565b614ec5565b90508083825260208201905082856020860282011115613b9057600080fd5b60005b85811015613bc05781613ba68882613d42565b845260208401935060208301925050600181019050613b93565b5050509392505050565b6000613bdd613bd884614f42565b614ec5565b905082815260208101848484011115613bf557600080fd5b613c0084828561510c565b509392505050565b6000613c1b613c1684614f73565b614ec5565b905082815260208101848484011115613c3357600080fd5b613c3e84828561510c565b509392505050565b600081359050613c5581615ab8565b92915050565b600082601f830112613c6c57600080fd5b8135613c7c848260208601613af2565b91505092915050565b600082601f830112613c9657600080fd5b8135613ca6848260208601613b5e565b91505092915050565b600081359050613cbe81615acf565b92915050565b600081359050613cd381615ae6565b92915050565b600081519050613ce881615ae6565b92915050565b600082601f830112613cff57600080fd5b8135613d0f848260208601613bca565b91505092915050565b600082601f830112613d2957600080fd5b8135613d39848260208601613c08565b91505092915050565b600081359050613d5181615afd565b92915050565b600060208284031215613d6957600080fd5b6000613d7784828501613c46565b91505092915050565b60008060408385031215613d9357600080fd5b6000613da185828601613c46565b9250506020613db285828601613c46565b9150509250929050565b600080600080600060a08688031215613dd457600080fd5b6000613de288828901613c46565b9550506020613df388828901613c46565b945050604086013567ffffffffffffffff811115613e1057600080fd5b613e1c88828901613c85565b935050606086013567ffffffffffffffff811115613e3957600080fd5b613e4588828901613c85565b925050608086013567ffffffffffffffff811115613e6257600080fd5b613e6e88828901613cee565b9150509295509295909350565b600080600080600060a08688031215613e9357600080fd5b6000613ea188828901613c46565b9550506020613eb288828901613c46565b9450506040613ec388828901613d42565b9350506060613ed488828901613d42565b925050608086013567ffffffffffffffff811115613ef157600080fd5b613efd88828901613cee565b9150509295509295909350565b600080600060608486031215613f1f57600080fd5b6000613f2d86828701613c46565b935050602084013567ffffffffffffffff811115613f4a57600080fd5b613f5686828701613c85565b925050604084013567ffffffffffffffff811115613f7357600080fd5b613f7f86828701613c85565b9150509250925092565b60008060408385031215613f9c57600080fd5b6000613faa85828601613c46565b9250506020613fbb85828601613caf565b9150509250929050565b600080600060608486031215613fda57600080fd5b6000613fe886828701613c46565b935050602084013567ffffffffffffffff81111561400557600080fd5b61401186828701613cee565b925050604061402286828701613d42565b9150509250925092565b6000806040838503121561403f57600080fd5b600061404d85828601613c46565b925050602061405e85828601613d42565b9150509250929050565b60008060006060848603121561407d57600080fd5b600061408b86828701613c46565b935050602061409c86828701613d42565b92505060406140ad86828701613d42565b9150509250925092565b600080604083850312156140ca57600080fd5b600083013567ffffffffffffffff8111156140e457600080fd5b6140f085828601613c5b565b925050602083013567ffffffffffffffff81111561410d57600080fd5b61411985828601613c85565b9150509250929050565b60006020828403121561413557600080fd5b600061414384828501613cc4565b91505092915050565b60006020828403121561415e57600080fd5b600061416c84828501613cd9565b91505092915050565b60006020828403121561418757600080fd5b600082013567ffffffffffffffff8111156141a157600080fd5b6141ad84828501613d18565b91505092915050565b6000602082840312156141c857600080fd5b60006141d684828501613d42565b91505092915050565b600080604083850312156141f257600080fd5b600061420085828601613d42565b925050602083013567ffffffffffffffff81111561421d57600080fd5b61422985828601613cee565b9150509250929050565b60008060006060848603121561424857600080fd5b600061425686828701613d42565b935050602061426786828701613d42565b925050604061427886828701613d42565b9150509250925092565b600080600080600080600060e0888a03121561429d57600080fd5b60006142ab8a828b01613d42565b97505060206142bc8a828b01613d42565b96505060406142cd8a828b01613d42565b95505060606142de8a828b01613d42565b94505060806142ef8a828b01613caf565b93505060a06143008a828b01613caf565b92505060c06143118a828b01613caf565b91505092959891949750929550565b600061432c8383614837565b60208301905092915050565b61434181615081565b82525050565b61435861435382615081565b6151fa565b82525050565b600061436982614fb4565b6143738185614fe2565b935061437e83614fa4565b8060005b838110156143af5781516143968882614320565b97506143a183614fd5565b925050600181019050614382565b5085935050505092915050565b6143c581615093565b82525050565b6143d48161509f565b82525050565b6143eb6143e68261509f565b61520c565b82525050565b60006143fc82614fbf565b6144068185614ff3565b935061441681856020860161511b565b61441f81615341565b840191505092915050565b600061443582614fca565b61443f818561500f565b935061444f81856020860161511b565b61445881615341565b840191505092915050565b600061447060188361500f565b915061447b8261536c565b602082019050919050565b600061449360348361500f565b915061449e82615395565b604082019050919050565b60006144b660288361500f565b91506144c1826153e4565b604082019050919050565b60006144d960168361500f565b91506144e482615433565b602082019050919050565b60006144fc601f8361500f565b91506145078261545c565b602082019050919050565b600061451f601c83615020565b915061452a82615485565b601c82019050919050565b6000614542602b8361500f565b915061454d826154ae565b604082019050919050565b600061456560268361500f565b9150614570826154fd565b604082019050919050565b600061458860248361500f565b91506145938261554c565b604082019050919050565b60006145ab60298361500f565b91506145b68261559b565b604082019050919050565b60006145ce60228361500f565b91506145d9826155ea565b604082019050919050565b60006145f160258361500f565b91506145fc82615639565b604082019050919050565b600061461460328361500f565b915061461f82615688565b604082019050919050565b6000614637601a8361500f565b9150614642826156d7565b602082019050919050565b600061465a60228361500f565b915061466582615700565b604082019050919050565b600061467d60238361500f565b91506146888261574f565b604082019050919050565b60006146a0602a8361500f565b91506146ab8261579e565b604082019050919050565b60006146c360208361500f565b91506146ce826157ed565b602082019050919050565b60006146e660138361500f565b91506146f182615816565b602082019050919050565b600061470960198361500f565b91506147148261583f565b602082019050919050565b600061472c600083615004565b915061473782615868565b600082019050919050565b600061474f60088361500f565b915061475a8261586b565b602082019050919050565b600061477260148361500f565b915061477d82615894565b602082019050919050565b600061479560128361500f565b91506147a0826158bd565b602082019050919050565b60006147b860298361500f565b91506147c3826158e6565b604082019050919050565b60006147db60298361500f565b91506147e682615935565b604082019050919050565b60006147fe60288361500f565b915061480982615984565b604082019050919050565b600061482160218361500f565b915061482c826159d3565b604082019050919050565b614840816150f5565b82525050565b61484f816150f5565b82525050565b614866614861826150f5565b615228565b82525050565b614875816150ff565b82525050565b60006148878285614347565b6014820191506148978284614855565b6020820191508190509392505050565b60006148b282614512565b91506148be82846143da565b60208201915081905092915050565b60006148d88261471f565b9150819050919050565b60006020820190506148f76000830184614338565b92915050565b600060a0820190506149126000830188614338565b61491f6020830187614338565b8181036040830152614931818661435e565b90508181036060830152614945818561435e565b9050818103608083015261495981846143f1565b90509695505050505050565b600060a08201905061497a6000830188614338565b6149876020830187614338565b6149946040830186614846565b6149a16060830185614846565b81810360808301526149b381846143f1565b90509695505050505050565b60006040820190506149d46000830185614338565b6149e16020830184614846565b9392505050565b60006020820190508181036000830152614a02818461435e565b905092915050565b60006040820190508181036000830152614a24818561435e565b90508181036020830152614a38818461435e565b90509392505050565b6000602082019050614a5660008301846143bc565b92915050565b6000608082019050614a7160008301876143cb565b614a7e602083018661486c565b614a8b60408301856143cb565b614a9860608301846143cb565b95945050505050565b60006020820190508181036000830152614abb818461442a565b905092915050565b60006020820190508181036000830152614adc81614463565b9050919050565b60006020820190508181036000830152614afc81614486565b9050919050565b60006020820190508181036000830152614b1c816144a9565b9050919050565b60006020820190508181036000830152614b3c816144cc565b9050919050565b60006020820190508181036000830152614b5c816144ef565b9050919050565b60006020820190508181036000830152614b7c81614535565b9050919050565b60006020820190508181036000830152614b9c81614558565b9050919050565b60006020820190508181036000830152614bbc8161457b565b9050919050565b60006020820190508181036000830152614bdc8161459e565b9050919050565b60006020820190508181036000830152614bfc816145c1565b9050919050565b60006020820190508181036000830152614c1c816145e4565b9050919050565b60006020820190508181036000830152614c3c81614607565b9050919050565b60006020820190508181036000830152614c5c8161462a565b9050919050565b60006020820190508181036000830152614c7c8161464d565b9050919050565b60006020820190508181036000830152614c9c81614670565b9050919050565b60006020820190508181036000830152614cbc81614693565b9050919050565b60006020820190508181036000830152614cdc816146b6565b9050919050565b60006020820190508181036000830152614cfc816146d9565b9050919050565b60006020820190508181036000830152614d1c816146fc565b9050919050565b60006020820190508181036000830152614d3c81614742565b9050919050565b60006020820190508181036000830152614d5c81614765565b9050919050565b60006020820190508181036000830152614d7c81614788565b9050919050565b60006020820190508181036000830152614d9c816147ab565b9050919050565b60006020820190508181036000830152614dbc816147ce565b9050919050565b60006020820190508181036000830152614ddc816147f1565b9050919050565b60006020820190508181036000830152614dfc81614814565b9050919050565b6000602082019050614e186000830184614846565b92915050565b6000604082019050614e336000830185614846565b614e406020830184614846565b9392505050565b600061010082019050614e5d600083018b614846565b614e6a602083018a614846565b614e776040830189614846565b614e846060830188614846565b614e916080830187614846565b614e9e60a08301866143bc565b614eab60c08301856143bc565b614eb860e08301846143bc565b9998505050505050505050565b6000614ecf614ee0565b9050614edb8282615180565b919050565b6000604051905090565b600067ffffffffffffffff821115614f0557614f046152f0565b5b602082029050602081019050919050565b600067ffffffffffffffff821115614f3157614f306152f0565b5b602082029050602081019050919050565b600067ffffffffffffffff821115614f5d57614f5c6152f0565b5b614f6682615341565b9050602081019050919050565b600067ffffffffffffffff821115614f8e57614f8d6152f0565b5b614f9782615341565b9050602081019050919050565b6000819050602082019050919050565b600081519050919050565b600081519050919050565b600081519050919050565b6000602082019050919050565b600082825260208201905092915050565b600082825260208201905092915050565b600081905092915050565b600082825260208201905092915050565b600081905092915050565b6000615036826150f5565b9150615041836150f5565b9250827fffffffffffffffffffffffffffffffffffffffffffffffffffffffffffffffff0382111561507657615075615263565b5b828201905092915050565b600061508c826150d5565b9050919050565b60008115159050919050565b6000819050919050565b60007fffffffff0000000000000000000000000000000000000000000000000000000082169050919050565b600073ffffffffffffffffffffffffffffffffffffffff82169050919050565b6000819050919050565b600060ff82169050919050565b82818337600083830152505050565b60005b8381101561513957808201518184015260208101905061511e565b83811115615148576000848401525b50505050565b6000600282049050600182168061516657607f821691505b6020821081141561517a576151796152c1565b5b50919050565b61518982615341565b810181811067ffffffffffffffff821117156151a8576151a76152f0565b5b80604052505050565b60006151bc826150f5565b91507fffffffffffffffffffffffffffffffffffffffffffffffffffffffffffffffff8214156151ef576151ee615263565b5b600182019050919050565b600061520582615216565b9050919050565b6000819050919050565b600061522182615352565b9050919050565b6000819050919050565b600061523d826150f5565b9150615248836150f5565b92508261525857615257615292565b5b828206905092915050565b7f4e487b7100000000000000000000000000000000000000000000000000000000600052601160045260246000fd5b7f4e487b7100000000000000000000000000000000000000000000000000000000600052601260045260246000fd5b7f4e487b7100000000000000000000000000000000000000000000000000000000600052602260045260246000fd5b7f4e487b7100000000000000000000000000000000000000000000000000000000600052604160045260246000fd5b600060033d111561533e5760046000803e61533b60005161535f565b90505b90565b6000601f19601f8301169050919050565b60008160601b9050919050565b60008160e01c9050919050565b7f45434453413a20696e76616c6964207369676e61747572650000000000000000600082015250565b7f455243313135353a207472616e7366657220746f206e6f6e204552433131353560008201527f526563656976657220696d706c656d656e746572000000000000000000000000602082015250565b7f455243313135353a204552433131353552656365697665722072656a6563746560008201527f6420746f6b656e73000000000000000000000000000000000000000000000000602082015250565b7f4f4e4c592031204d494e54205045522057414c4c455400000000000000000000600082015250565b7f45434453413a20696e76616c6964207369676e6174757265206c656e67746800600082015250565b7f19457468657265756d205369676e6564204d6573736167653a0a333200000000600082015250565b7f455243313135353a2062616c616e636520717565727920666f7220746865207a60008201527f65726f2061646472657373000000000000000000000000000000000000000000602082015250565b7f4f776e61626c653a206e6577206f776e657220697320746865207a65726f206160008201527f6464726573730000000000000000000000000000000000000000000000000000602082015250565b7f455243313135353a206275726e20616d6f756e7420657863656564732062616c60008201527f616e636500000000000000000000000000000000000000000000000000000000602082015250565b7f455243313135353a2063616c6c6572206973206e6f74206f776e6572206e6f7260008201527f20617070726f7665640000000000000000000000000000000000000000000000602082015250565b7f45434453413a20696e76616c6964207369676e6174757265202773272076616c60008201527f7565000000000000000000000000000000000000000000000000000000000000602082015250565b7f455243313135353a207472616e7366657220746f20746865207a65726f20616460008201527f6472657373000000000000000000000000000000000000000000000000000000602082015250565b7f455243313135353a207472616e736665722063616c6c6572206973206e6f742060008201527f6f776e6572206e6f7220617070726f7665640000000000000000000000000000602082015250565b7f41646472657373206973206e6f7420616c6c6f776c6973746564000000000000600082015250565b7f45434453413a20696e76616c6964207369676e6174757265202776272076616c60008201527f7565000000000000000000000000000000000000000000000000000000000000602082015250565b7f455243313135353a206275726e2066726f6d20746865207a65726f206164647260008201527f6573730000000000000000000000000000000000000000000000000000000000602082015250565b7f455243313135353a20696e73756666696369656e742062616c616e636520666f60008201527f72207472616e7366657200000000000000000000000000000000000000000000602082015250565b7f4f776e61626c653a2063616c6c6572206973206e6f7420746865206f776e6572600082015250565b7f4e6f7420656e6f756768204554482073656e7400000000000000000000000000600082015250565b7f4661696c656420746f2077696474686472617720457468657200000000000000600082015250565b50565b7f536f6c64206f7574000000000000000000000000000000000000000000000000600082015250565b7f4d494e54494e47202d20414c4c4f57204f4e4c59000000000000000000000000600082015250565b7f4d494e54494e47202d204e4f54204f50454e0000000000000000000000000000600082015250565b7f455243313135353a2073657474696e6720617070726f76616c2073746174757360008201527f20666f722073656c660000000000000000000000000000000000000000000000602082015250565b7f455243313135353a206163636f756e747320616e6420696473206c656e67746860008201527f206d69736d617463680000000000000000000000000000000000000000000000602082015250565b7f455243313135353a2069647320616e6420616d6f756e7473206c656e6774682060008201527f6d69736d61746368000000000000000000000000000000000000000000000000602082015250565b7f455243313135353a206d696e7420746f20746865207a65726f2061646472657360008201527f7300000000000000000000000000000000000000000000000000000000000000602082015250565b600060443d1015615a3257615ab5565b615a3a614ee0565b60043d036004823e80513d602482011167ffffffffffffffff82111715615a62575050615ab5565b808201805167ffffffffffffffff811115615a805750505050615ab5565b80602083010160043d038501811115615a9d575050505050615ab5565b615aac82602001850186615180565b82955050505050505b90565b615ac181615081565b8114615acc57600080fd5b50565b615ad881615093565b8114615ae357600080fd5b50565b615aef816150a9565b8114615afa57600080fd5b50565b615b06816150f5565b8114615b1157600080fd5b5056fea26469706673582212202dd15bd509bb9c51f61759617c3e08e1384319c9ee1c85738943e554fe5f44d164736f6c6343000804003368747470733a2f2f697066732e696f2f697066732f516d50444c5a686874466b4e7039345059706136334135734b50617834646f67394b33536f3150556a6f713970662f7b69647d2e6a736f6e",
  "linkReferences": {},
  "deployedLinkReferences": {}
}