{
  "_format": "hh-sol-artifact-1",
  "contractName": "GMMerch",
  "sourceName": "contracts/GMMerch.sol",
  "abi": [
    {
      "inputs": [],
      "stateMutability": "nonpayable",
      "type": "constructor"
    },
    {
      "anonymous": false,
      "inputs": [
        {
          "indexed": true,
          "internalType": "address",
          "name": "account",
          "type": "address"
        },
        {
          "indexed": true,
          "internalType": "address",
          "name": "operator",
          "type": "address"
        },
        {
          "indexed": false,
          "internalType": "bool",
          "name": "approved",
          "type": "bool"
        }
      ],
      "name": "ApprovalForAll",
      "type": "event"
    },
    {
      "anonymous": false,
      "inputs": [
        {
          "indexed": false,
          "internalType": "address",
          "name": "sender",
          "type": "address"
        },
        {
          "indexed": false,
          "internalType": "uint256",
          "name": "tokenId",
          "type": "uint256"
        }
      ],
      "name": "GMMinted",
      "type": "event"
    },
    {
      "anonymous": false,
      "inputs": [
        {
          "indexed": false,
          "internalType": "address",
          "name": "sender",
          "type": "address"
        },
        {
          "indexed": false,
          "internalType": "uint256",
          "name": "tokenId",
          "type": "uint256"
        }
      ],
      "name": "GmBurned",
      "type": "event"
    },
    {
      "anonymous": false,
      "inputs": [
        {
          "indexed": true,
          "internalType": "address",
          "name": "previousOwner",
          "type": "address"
        },
        {
          "indexed": true,
          "internalType": "address",
          "name": "newOwner",
          "type": "address"
        }
      ],
      "name": "OwnershipTransferred",
      "type": "event"
    },
    {
      "anonymous": false,
      "inputs": [
        {
          "indexed": true,
          "internalType": "address",
          "name": "operator",
          "type": "address"
        },
        {
          "indexed": true,
          "internalType": "address",
          "name": "from",
          "type": "address"
        },
        {
          "indexed": true,
          "internalType": "address",
          "name": "to",
          "type": "address"
        },
        {
          "indexed": false,
          "internalType": "uint256[]",
          "name": "ids",
          "type": "uint256[]"
        },
        {
          "indexed": false,
          "internalType": "uint256[]",
          "name": "values",
          "type": "uint256[]"
        }
      ],
      "name": "TransferBatch",
      "type": "event"
    },
    {
      "anonymous": false,
      "inputs": [
        {
          "indexed": true,
          "internalType": "address",
          "name": "operator",
          "type": "address"
        },
        {
          "indexed": true,
          "internalType": "address",
          "name": "from",
          "type": "address"
        },
        {
          "indexed": true,
          "internalType": "address",
          "name": "to",
          "type": "address"
        },
        {
          "indexed": false,
          "internalType": "uint256",
          "name": "id",
          "type": "uint256"
        },
        {
          "indexed": false,
          "internalType": "uint256",
          "name": "value",
          "type": "uint256"
        }
      ],
      "name": "TransferSingle",
      "type": "event"
    },
    {
      "anonymous": false,
      "inputs": [
        {
          "indexed": false,
          "internalType": "string",
          "name": "value",
          "type": "string"
        },
        {
          "indexed": true,
          "internalType": "uint256",
          "name": "id",
          "type": "uint256"
        }
      ],
      "name": "URI",
      "type": "event"
    },
    {
      "inputs": [
        {
          "internalType": "address",
          "name": "account",
          "type": "address"
        },
        {
          "internalType": "uint256",
          "name": "id",
          "type": "uint256"
        }
      ],
      "name": "balanceOf",
      "outputs": [
        {
          "internalType": "uint256",
          "name": "",
          "type": "uint256"
        }
      ],
      "stateMutability": "view",
      "type": "function"
    },
    {
      "inputs": [
        {
          "internalType": "address[]",
          "name": "accounts",
          "type": "address[]"
        },
        {
          "internalType": "uint256[]",
          "name": "ids",
          "type": "uint256[]"
        }
      ],
      "name": "balanceOfBatch",
      "outputs": [
        {
          "internalType": "uint256[]",
          "name": "",
          "type": "uint256[]"
        }
      ],
      "stateMutability": "view",
      "type": "function"
    },
    {
      "inputs": [
        {
          "internalType": "address",
          "name": "account",
          "type": "address"
        },
        {
          "internalType": "uint256",
          "name": "id",
          "type": "uint256"
        },
        {
          "internalType": "uint256",
          "name": "value",
          "type": "uint256"
        }
      ],
      "name": "burn",
      "outputs": [],
      "stateMutability": "nonpayable",
      "type": "function"
    },
    {
      "inputs": [
        {
          "internalType": "address",
          "name": "account",
          "type": "address"
        },
        {
          "internalType": "uint256[]",
          "name": "ids",
          "type": "uint256[]"
        },
        {
          "internalType": "uint256[]",
          "name": "values",
          "type": "uint256[]"
        }
      ],
      "name": "burnBatch",
      "outputs": [],
      "stateMutability": "nonpayable",
      "type": "function"
    },
    {
      "inputs": [
        {
          "internalType": "address",
          "name": "_address",
          "type": "address"
        },
        {
          "internalType": "uint256",
          "name": "id",
          "type": "uint256"
        }
      ],
      "name": "burnToken",
      "outputs": [],
      "stateMutability": "nonpayable",
      "type": "function"
    },
    {
      "inputs": [
        {
          "internalType": "uint256",
          "name": "_supply",
          "type": "uint256"
        },
        {
          "internalType": "uint256",
          "name": "_price",
          "type": "uint256"
        },
        {
          "internalType": "uint256",
          "name": "_increment",
          "type": "uint256"
        }
      ],
      "name": "createMerchItem",
      "outputs": [],
      "stateMutability": "nonpayable",
      "type": "function"
    },
    {
      "inputs": [],
      "name": "getMerchCount",
      "outputs": [
        {
          "internalType": "uint256",
          "name": "merchCount",
          "type": "uint256"
        }
      ],
      "stateMutability": "view",
      "type": "function"
    },
    {
      "inputs": [
        {
          "internalType": "address",
          "name": "account",
          "type": "address"
        },
        {
          "internalType": "address",
          "name": "operator",
          "type": "address"
        }
      ],
      "name": "isApprovedForAll",
      "outputs": [
        {
          "internalType": "bool",
          "name": "",
          "type": "bool"
        }
      ],
      "stateMutability": "view",
      "type": "function"
    },
    {
      "inputs": [
        {
          "internalType": "uint256",
          "name": "",
          "type": "uint256"
        }
      ],
      "name": "merch",
      "outputs": [
        {
          "internalType": "uint256",
          "name": "minted",
          "type": "uint256"
        },
        {
          "internalType": "uint256",
          "name": "burned",
          "type": "uint256"
        },
        {
          "internalType": "uint256",
          "name": "supply",
          "type": "uint256"
        },
        {
          "internalType": "uint256",
          "name": "price",
          "type": "uint256"
        },
        {
          "internalType": "uint256",
          "name": "increment",
          "type": "uint256"
        },
        {
          "internalType": "uint256",
          "name": "incrementInterval",
          "type": "uint256"
        },
        {
          "internalType": "bool",
          "name": "allowMintable",
          "type": "bool"
        },
        {
          "internalType": "bool",
          "name": "publicMintable",
          "type": "bool"
        },
        {
          "internalType": "bool",
          "name": "mintPassIncluded",
          "type": "bool"
        }
      ],
      "stateMutability": "view",
      "type": "function"
    },
    {
      "inputs": [
        {
          "internalType": "address",
          "name": "to",
          "type": "address"
        },
        {
          "internalType": "uint256",
          "name": "id",
          "type": "uint256"
        },
        {
          "internalType": "uint256",
          "name": "amount",
          "type": "uint256"
        }
      ],
      "name": "mintAdmin",
      "outputs": [],
      "stateMutability": "nonpayable",
      "type": "function"
    },
    {
      "inputs": [
        {
          "internalType": "address",
          "name": "",
          "type": "address"
        },
        {
          "internalType": "uint256",
          "name": "",
          "type": "uint256"
        }
      ],
      "name": "mintList",
      "outputs": [
        {
          "internalType": "bool",
          "name": "",
          "type": "bool"
        }
      ],
      "stateMutability": "view",
      "type": "function"
    },
    {
      "inputs": [
        {
          "internalType": "uint256",
          "name": "id",
          "type": "uint256"
        }
      ],
      "name": "mintToken",
      "outputs": [],
      "stateMutability": "payable",
      "type": "function"
    },
    {
      "inputs": [
        {
          "internalType": "uint256",
          "name": "id",
          "type": "uint256"
        },
        {
          "internalType": "bytes",
          "name": "signature",
          "type": "bytes"
        }
      ],
      "name": "mintTokenAllow",
      "outputs": [],
      "stateMutability": "payable",
      "type": "function"
    },
    {
      "inputs": [],
      "name": "owner",
      "outputs": [
        {
          "internalType": "address",
          "name": "",
          "type": "address"
        }
      ],
      "stateMutability": "view",
      "type": "function"
    },
    {
      "inputs": [
        {
          "internalType": "address",
          "name": "_address",
          "type": "address"
        },
        {
          "internalType": "bytes",
          "name": "signature",
          "type": "bytes"
        },
        {
          "internalType": "uint256",
          "name": "id",
          "type": "uint256"
        }
      ],
      "name": "recoverSigner",
      "outputs": [
        {
          "internalType": "address",
          "name": "",
          "type": "address"
        }
      ],
      "stateMutability": "pure",
      "type": "function"
    },
    {
      "inputs": [],
      "name": "renounceOwnership",
      "outputs": [],
      "stateMutability": "nonpayable",
      "type": "function"
    },
    {
      "inputs": [
        {
          "internalType": "address",
          "name": "from",
          "type": "address"
        },
        {
          "internalType": "address",
          "name": "to",
          "type": "address"
        },
        {
          "internalType": "uint256[]",
          "name": "ids",
          "type": "uint256[]"
        },
        {
          "internalType": "uint256[]",
          "name": "amounts",
          "type": "uint256[]"
        },
        {
          "internalType": "bytes",
          "name": "data",
          "type": "bytes"
        }
      ],
      "name": "safeBatchTransferFrom",
      "outputs": [],
      "stateMutability": "nonpayable",
      "type": "function"
    },
    {
      "inputs": [
        {
          "internalType": "address",
          "name": "from",
          "type": "address"
        },
        {
          "internalType": "address",
          "name": "to",
          "type": "address"
        },
        {
          "internalType": "uint256",
          "name": "id",
          "type": "uint256"
        },
        {
          "internalType": "uint256",
          "name": "amount",
          "type": "uint256"
        },
        {
          "internalType": "bytes",
          "name": "data",
          "type": "bytes"
        }
      ],
      "name": "safeTransferFrom",
      "outputs": [],
      "stateMutability": "nonpayable",
      "type": "function"
    },
    {
      "inputs": [
        {
          "internalType": "address",
          "name": "operator",
          "type": "address"
        },
        {
          "internalType": "bool",
          "name": "approved",
          "type": "bool"
        }
      ],
      "name": "setApprovalForAll",
      "outputs": [],
      "stateMutability": "nonpayable",
      "type": "function"
    },
    {
      "inputs": [
        {
          "internalType": "string",
          "name": "newuri",
          "type": "string"
        }
      ],
      "name": "setURI",
      "outputs": [],
      "stateMutability": "nonpayable",
      "type": "function"
    },
    {
      "inputs": [
        {
          "internalType": "bytes4",
          "name": "interfaceId",
          "type": "bytes4"
        }
      ],
      "name": "supportsInterface",
      "outputs": [
        {
          "internalType": "bool",
          "name": "",
          "type": "bool"
        }
      ],
      "stateMutability": "view",
      "type": "function"
    },
    {
      "inputs": [
        {
          "internalType": "address",
          "name": "newOwner",
          "type": "address"
        }
      ],
      "name": "transferOwnership",
      "outputs": [],
      "stateMutability": "nonpayable",
      "type": "function"
    },
    {
      "inputs": [
        {
          "internalType": "uint256",
          "name": "_index",
          "type": "uint256"
        },
        {
          "internalType": "uint256",
          "name": "_supply",
          "type": "uint256"
        },
        {
          "internalType": "uint256",
          "name": "_price",
          "type": "uint256"
        },
        {
          "internalType": "uint256",
          "name": "_increment",
          "type": "uint256"
        },
        {
          "internalType": "uint256",
          "name": "_incrementInterval",
          "type": "uint256"
        },
        {
          "internalType": "bool",
          "name": "_allowMintable",
          "type": "bool"
        },
        {
          "internalType": "bool",
          "name": "_publicMintable",
          "type": "bool"
        },
        {
          "internalType": "bool",
          "name": "_mintPassIncluded",
          "type": "bool"
        }
      ],
      "name": "updateMerchItem",
      "outputs": [],
      "stateMutability": "nonpayable",
      "type": "function"
    },
    {
      "inputs": [
        {
          "internalType": "uint256",
          "name": "",
          "type": "uint256"
        }
      ],
      "name": "uri",
      "outputs": [
        {
          "internalType": "string",
          "name": "",
          "type": "string"
        }
      ],
      "stateMutability": "view",
      "type": "function"
    },
    {
      "inputs": [],
      "name": "withdraw",
      "outputs": [],
      "stateMutability": "nonpayable",
      "type": "function"
    }
  ],
  "bytecode": "0x60806040523480156200001157600080fd5b506040518060800160405280604d815260200162005e97604d91396200003d816200006460201b60201c565b506200005e620000526200008060201b60201c565b6200008860201b60201c565b62000263565b80600290805190602001906200007c9291906200014e565b5050565b600033905090565b6000600360009054906101000a900473ffffffffffffffffffffffffffffffffffffffff16905081600360006101000a81548173ffffffffffffffffffffffffffffffffffffffff021916908373ffffffffffffffffffffffffffffffffffffffff1602179055508173ffffffffffffffffffffffffffffffffffffffff168173ffffffffffffffffffffffffffffffffffffffff167f8be0079c531659141344cd1fd0a4f28419497f9722a3daafe3b4186f6b6457e060405160405180910390a35050565b8280546200015c90620001fe565b90600052602060002090601f016020900481019282620001805760008555620001cc565b82601f106200019b57805160ff1916838001178555620001cc565b82800160010185558215620001cc579182015b82811115620001cb578251825591602001919060010190620001ae565b5b509050620001db9190620001df565b5090565b5b80821115620001fa576000816000905550600101620001e0565b5090565b600060028204905060018216806200021757607f821691505b602082108114156200022e576200022d62000234565b5b50919050565b7f4e487b7100000000000000000000000000000000000000000000000000000000600052602260045260246000fd5b615c2480620002736000396000f3fe6080604052600436106101655760003560e01c80637bebcaeb116100d1578063d1df306c1161008a578063e985e9c511610064578063e985e9c514610521578063f242432a1461055e578063f2fde38b14610587578063f5298aca146105b057610165565b8063d1df306c146104b3578063e4dfe47f146104dc578063e8c61e2b146104f857610165565b80637bebcaeb146103b25780637fdc1401146103ef5780638da5cb5b1461041a578063a22cb46514610445578063ab3f22091461046e578063c634d0321461049757610165565b8063393b450811610123578063393b4508146102b05780633ccfd60b146102f55780634e1273f41461030c5780635d337321146103495780636b20c45414610372578063715018a61461039b57610165565b8062fdd58e1461016a57806301ffc9a7146101a757806302fe5305146101e45780630e89341c1461020d5780632eb2c2d61461024a57806335c2ec6014610273575b600080fd5b34801561017657600080fd5b50610191600480360381019061018c91906140e3565b6105d9565b60405161019e9190614ece565b60405180910390f35b3480156101b357600080fd5b506101ce60048036038101906101c991906141da565b6106a2565b6040516101db9190614b0c565b60405180910390f35b3480156101f057600080fd5b5061020b6004803603810190610206919061422c565b610784565b005b34801561021957600080fd5b50610234600480360381019061022f919061426d565b61080c565b6040516102419190614b6c565b60405180910390f35b34801561025657600080fd5b50610271600480360381019061026c9190613e73565b6108a0565b005b34801561027f57600080fd5b5061029a600480360381019061029591906140e3565b610941565b6040516102a79190614b0c565b60405180910390f35b3480156102bc57600080fd5b506102d760048036038101906102d2919061426d565b610970565b6040516102ec99989796959493929190614f12565b60405180910390f35b34801561030157600080fd5b5061030a6109f5565b005b34801561031857600080fd5b50610333600480360381019061032e919061416e565b610b26565b6040516103409190614ab3565b60405180910390f35b34801561035557600080fd5b50610370600480360381019061036b9190614339565b610cd7565b005b34801561037e57600080fd5b5061039960048036038101906103949190613fc1565b610da6565b005b3480156103a757600080fd5b506103b0610e43565b005b3480156103be57600080fd5b506103d960048036038101906103d4919061407c565b610ecb565b6040516103e691906149ad565b60405180910390f35b3480156103fb57600080fd5b50610404610f33565b6040516104119190614ece565b60405180910390f35b34801561042657600080fd5b5061042f610f40565b60405161043c91906149ad565b60405180910390f35b34801561045157600080fd5b5061046c60048036038101906104679190614040565b610f6a565b005b34801561047a57600080fd5b506104956004803603810190610490919061411f565b610f80565b005b6104b160048036038101906104ac919061426d565b61107f565b005b3480156104bf57600080fd5b506104da60048036038101906104d591906140e3565b611683565b005b6104f660048036038101906104f19190614296565b61172f565b005b34801561050457600080fd5b5061051f600480360381019061051a91906142ea565b611d4f565b005b34801561052d57600080fd5b5061054860048036038101906105439190613e37565b611ee6565b6040516105559190614b0c565b60405180910390f35b34801561056a57600080fd5b5061058560048036038101906105809190613f32565b611f7a565b005b34801561059357600080fd5b506105ae60048036038101906105a99190613e0e565b61201b565b005b3480156105bc57600080fd5b506105d760048036038101906105d2919061411f565b612113565b005b60008073ffffffffffffffffffffffffffffffffffffffff168373ffffffffffffffffffffffffffffffffffffffff16141561064a576040517f08c379a000000000000000000000000000000000000000000000000000000000815260040161064190614c2e565b60405180910390fd5b60008083815260200190815260200160002060008473ffffffffffffffffffffffffffffffffffffffff1673ffffffffffffffffffffffffffffffffffffffff16815260200190815260200160002054905092915050565b60007fd9b67a26000000000000000000000000000000000000000000000000000000007bffffffffffffffffffffffffffffffffffffffffffffffffffffffff1916827bffffffffffffffffffffffffffffffffffffffffffffffffffffffff1916148061076d57507f0e89341c000000000000000000000000000000000000000000000000000000007bffffffffffffffffffffffffffffffffffffffffffffffffffffffff1916827bffffffffffffffffffffffffffffffffffffffffffffffffffffffff1916145b8061077d575061077c826121b0565b5b9050919050565b61078c61221a565b73ffffffffffffffffffffffffffffffffffffffff166107aa610f40565b73ffffffffffffffffffffffffffffffffffffffff1614610800576040517f08c379a00000000000000000000000000000000000000000000000000000000081526004016107f790614d8e565b60405180910390fd5b61080981612222565b50565b60606002805461081b90615228565b80601f016020809104026020016040519081016040528092919081815260200182805461084790615228565b80156108945780601f1061086957610100808354040283529160200191610894565b820191906000526020600020905b81548152906001019060200180831161087757829003601f168201915b50505050509050919050565b6108a861221a565b73ffffffffffffffffffffffffffffffffffffffff168573ffffffffffffffffffffffffffffffffffffffff1614806108ee57506108ed856108e861221a565b611ee6565b5b61092d576040517f08c379a000000000000000000000000000000000000000000000000000000000815260040161092490614cee565b60405180910390fd5b61093a858585858561223c565b5050505050565b60046020528160005260406000206020528060005260406000206000915091509054906101000a900460ff1681565b6005818154811061098057600080fd5b90600052602060002090600702016000915090508060000154908060010154908060020154908060030154908060040154908060050154908060060160009054906101000a900460ff16908060060160019054906101000a900460ff16908060060160029054906101000a900460ff16905089565b6109fd61221a565b73ffffffffffffffffffffffffffffffffffffffff16610a1b610f40565b73ffffffffffffffffffffffffffffffffffffffff1614610a71576040517f08c379a0000000000000000000000000000000000000000000000000000000008152600401610a6890614d8e565b60405180910390fd5b600047905060003373ffffffffffffffffffffffffffffffffffffffff1682604051610a9c90614998565b60006040518083038185875af1925050503d8060008114610ad9576040519150601f19603f3d011682016040523d82523d6000602084013e610ade565b606091505b5050905080610b22576040517f08c379a0000000000000000000000000000000000000000000000000000000008152600401610b1990614dce565b60405180910390fd5b5050565b60608151835114610b6c576040517f08c379a0000000000000000000000000000000000000000000000000000000008152600401610b6390614e6e565b60405180910390fd5b6000835167ffffffffffffffff811115610baf577f4e487b7100000000000000000000000000000000000000000000000000000000600052604160045260246000fd5b604051908082528060200260200182016040528015610bdd5781602001602082028036833780820191505090505b50905060005b8451811015610ccc57610c76858281518110610c28577f4e487b7100000000000000000000000000000000000000000000000000000000600052603260045260246000fd5b6020026020010151858381518110610c69577f4e487b7100000000000000000000000000000000000000000000000000000000600052603260045260246000fd5b60200260200101516105d9565b828281518110610caf577f4e487b7100000000000000000000000000000000000000000000000000000000600052603260045260246000fd5b60200260200101818152505080610cc59061528b565b9050610be3565b508091505092915050565b600060058981548110610d13577f4e487b7100000000000000000000000000000000000000000000000000000000600052603260045260246000fd5b90600052602060002090600702019050878160020181905550868160030181905550858160040181905550848160050181905550838160060160006101000a81548160ff021916908315150217905550828160060160016101000a81548160ff021916908315150217905550818160060160026101000a81548160ff021916908315150217905550505050505050505050565b610dae61221a565b73ffffffffffffffffffffffffffffffffffffffff168373ffffffffffffffffffffffffffffffffffffffff161480610df45750610df383610dee61221a565b611ee6565b5b610e33576040517f08c379a0000000000000000000000000000000000000000000000000000000008152600401610e2a90614c8e565b60405180910390fd5b610e3e83838361259c565b505050565b610e4b61221a565b73ffffffffffffffffffffffffffffffffffffffff16610e69610f40565b73ffffffffffffffffffffffffffffffffffffffff1614610ebf576040517f08c379a0000000000000000000000000000000000000000000000000000000008152600401610eb690614d8e565b60405180910390fd5b610ec96000612899565b565b6000808483604051602001610ee1929190614946565b60405160208183030381529060405280519060200120604051602001610f079190614972565b604051602081830303815290604052805190602001209050610f29818561295f565b9150509392505050565b6000600580549050905090565b6000600360009054906101000a900473ffffffffffffffffffffffffffffffffffffffff16905090565b610f7c610f7561221a565b8383612986565b5050565b610f8861221a565b73ffffffffffffffffffffffffffffffffffffffff16610fa6610f40565b73ffffffffffffffffffffffffffffffffffffffff1614610ffc576040517f08c379a0000000000000000000000000000000000000000000000000000000008152600401610ff390614d8e565b60405180910390fd5b61101783838360405180602001604052806000815250612af3565b600160058381548110611053577f4e487b7100000000000000000000000000000000000000000000000000000000600052603260045260246000fd5b906000526020600020906007020160000160008282546110739190615105565b92505081905550505050565b600581815481106110b9577f4e487b7100000000000000000000000000000000000000000000000000000000600052603260045260246000fd5b906000526020600020906007020160060160019054906101000a900460ff16611117576040517f08c379a000000000000000000000000000000000000000000000000000000000815260040161110e90614e0e565b60405180910390fd5b60058181548110611151577f4e487b7100000000000000000000000000000000000000000000000000000000600052603260045260246000fd5b9060005260206000209060070201600301543410156111a5576040517f08c379a000000000000000000000000000000000000000000000000000000000815260040161119c90614dae565b60405180910390fd5b600581815481106111df577f4e487b7100000000000000000000000000000000000000000000000000000000600052603260045260246000fd5b9060005260206000209060070201600201546005828154811061122b577f4e487b7100000000000000000000000000000000000000000000000000000000600052603260045260246000fd5b906000526020600020906007020160000154111561127e576040517f08c379a000000000000000000000000000000000000000000000000000000000815260040161127590614dee565b60405180910390fd5b600460003373ffffffffffffffffffffffffffffffffffffffff1673ffffffffffffffffffffffffffffffffffffffff168152602001908152602001600020600082815260200190815260200160002060009054906101000a900460ff161561131c576040517f08c379a000000000000000000000000000000000000000000000000000000000815260040161131390614bee565b60405180910390fd5b6113383382600160405180602001604052806000815250612af3565b600060058281548110611374577f4e487b7100000000000000000000000000000000000000000000000000000000600052603260045260246000fd5b9060005260206000209060070201600501546001600584815481106113c2577f4e487b7100000000000000000000000000000000000000000000000000000000600052603260045260246000fd5b9060005260206000209060070201600001546113de9190615105565b6113e8919061530c565b141561149c5760058181548110611428577f4e487b7100000000000000000000000000000000000000000000000000000000600052603260045260246000fd5b90600052602060002090600702016004015460058281548110611474577f4e487b7100000000000000000000000000000000000000000000000000000000600052603260045260246000fd5b906000526020600020906007020160030160008282546114949190615105565b925050819055505b6001600582815481106114d8577f4e487b7100000000000000000000000000000000000000000000000000000000600052603260045260246000fd5b906000526020600020906007020160000160008282546114f89190615105565b925050819055506001600460003373ffffffffffffffffffffffffffffffffffffffff1673ffffffffffffffffffffffffffffffffffffffff168152602001908152602001600020600083815260200190815260200160002060006101000a81548160ff021916908315150217905550600581815481106115a2577f4e487b7100000000000000000000000000000000000000000000000000000000600052603260045260246000fd5b906000526020600020906007020160060160029054906101000a900460ff16156116475760016005600181548110611603577f4e487b7100000000000000000000000000000000000000000000000000000000600052603260045260246000fd5b906000526020600020906007020160000160008282546116239190615105565b925050819055506116463360018060405180602001604052806000815250612af3565b5b7fef31b38176d40d5e039a10dc804ba178c47478486ce20e46e6e7dcca99fe27053382604051611678929190614a8a565b60405180910390a150565b61168f82826001612113565b6001600582815481106116cb577f4e487b7100000000000000000000000000000000000000000000000000000000600052603260045260246000fd5b906000526020600020906007020160010160008282546116eb9190615105565b925050819055507f50b71add01f85c822c32b69b20290a8fb2a972a7e632a5f0fe09a4163de8f7d78282604051611723929190614a8a565b60405180910390a15050565b60058281548110611769577f4e487b7100000000000000000000000000000000000000000000000000000000600052603260045260246000fd5b906000526020600020906007020160060160009054906101000a900460ff166117c7576040517f08c379a00000000000000000000000000000000000000000000000000000000081526004016117be90614e2e565b60405180910390fd5b60058281548110611801577f4e487b7100000000000000000000000000000000000000000000000000000000600052603260045260246000fd5b906000526020600020906007020160030154341015611855576040517f08c379a000000000000000000000000000000000000000000000000000000000815260040161184c90614dae565b60405180910390fd5b6005828154811061188f577f4e487b7100000000000000000000000000000000000000000000000000000000600052603260045260246000fd5b906000526020600020906007020160020154600583815481106118db577f4e487b7100000000000000000000000000000000000000000000000000000000600052603260045260246000fd5b906000526020600020906007020160000154111561192e576040517f08c379a000000000000000000000000000000000000000000000000000000000815260040161192590614dee565b60405180910390fd5b611936610f40565b73ffffffffffffffffffffffffffffffffffffffff16611957338385610ecb565b73ffffffffffffffffffffffffffffffffffffffff16146119ad576040517f08c379a00000000000000000000000000000000000000000000000000000000081526004016119a490614d0e565b60405180910390fd5b600460003373ffffffffffffffffffffffffffffffffffffffff1673ffffffffffffffffffffffffffffffffffffffff168152602001908152602001600020600083815260200190815260200160002060009054906101000a900460ff1615611a4b576040517f08c379a0000000000000000000000000000000000000000000000000000000008152600401611a4290614bee565b60405180910390fd5b611a673383600160405180602001604052806000815250612af3565b600160058381548110611aa3577f4e487b7100000000000000000000000000000000000000000000000000000000600052603260045260246000fd5b90600052602060002090600702016000016000828254611ac39190615105565b925050819055506001600460003373ffffffffffffffffffffffffffffffffffffffff1673ffffffffffffffffffffffffffffffffffffffff168152602001908152602001600020600084815260200190815260200160002060006101000a81548160ff021916908315150217905550600060058381548110611b6f577f4e487b7100000000000000000000000000000000000000000000000000000000600052603260045260246000fd5b906000526020600020906007020160050154600160058581548110611bbd577f4e487b7100000000000000000000000000000000000000000000000000000000600052603260045260246000fd5b906000526020600020906007020160000154611bd99190615105565b611be3919061530c565b1415611c975760058281548110611c23577f4e487b7100000000000000000000000000000000000000000000000000000000600052603260045260246000fd5b90600052602060002090600702016004015460058381548110611c6f577f4e487b7100000000000000000000000000000000000000000000000000000000600052603260045260246000fd5b90600052602060002090600702016003016000828254611c8f9190615105565b925050819055505b60058281548110611cd1577f4e487b7100000000000000000000000000000000000000000000000000000000600052603260045260246000fd5b906000526020600020906007020160060160029054906101000a900460ff1615611d1257611d113360018060405180602001604052806000815250612af3565b5b7fef31b38176d40d5e039a10dc804ba178c47478486ce20e46e6e7dcca99fe27053383604051611d43929190614a8a565b60405180910390a15050565b611d5761221a565b73ffffffffffffffffffffffffffffffffffffffff16611d75610f40565b73ffffffffffffffffffffffffffffffffffffffff1614611dcb576040517f08c379a0000000000000000000000000000000000000000000000000000000008152600401611dc290614d8e565b60405180910390fd5b6005604051806101200160405280600081526020016000815260200185815260200184815260200183815260200160058152602001600015158152602001600015158152602001600015158152509080600181540180825580915050600190039060005260206000209060070201600090919091909150600082015181600001556020820151816001015560408201518160020155606082015181600301556080820151816004015560a0820151816005015560c08201518160060160006101000a81548160ff02191690831515021790555060e08201518160060160016101000a81548160ff0219169083151502179055506101008201518160060160026101000a81548160ff0219169083151502179055505050505050565b6000600160008473ffffffffffffffffffffffffffffffffffffffff1673ffffffffffffffffffffffffffffffffffffffff16815260200190815260200160002060008373ffffffffffffffffffffffffffffffffffffffff1673ffffffffffffffffffffffffffffffffffffffff16815260200190815260200160002060009054906101000a900460ff16905092915050565b611f8261221a565b73ffffffffffffffffffffffffffffffffffffffff168573ffffffffffffffffffffffffffffffffffffffff161480611fc85750611fc785611fc261221a565b611ee6565b5b612007576040517f08c379a0000000000000000000000000000000000000000000000000000000008152600401611ffe90614c8e565b60405180910390fd5b6120148585858585612c89565b5050505050565b61202361221a565b73ffffffffffffffffffffffffffffffffffffffff16612041610f40565b73ffffffffffffffffffffffffffffffffffffffff1614612097576040517f08c379a000000000000000000000000000000000000000000000000000000000815260040161208e90614d8e565b60405180910390fd5b600073ffffffffffffffffffffffffffffffffffffffff168173ffffffffffffffffffffffffffffffffffffffff161415612107576040517f08c379a00000000000000000000000000000000000000000000000000000000081526004016120fe90614c4e565b60405180910390fd5b61211081612899565b50565b61211b61221a565b73ffffffffffffffffffffffffffffffffffffffff168373ffffffffffffffffffffffffffffffffffffffff16148061216157506121608361215b61221a565b611ee6565b5b6121a0576040517f08c379a000000000000000000000000000000000000000000000000000000000815260040161219790614c8e565b60405180910390fd5b6121ab838383612f0b565b505050565b60007f01ffc9a7000000000000000000000000000000000000000000000000000000007bffffffffffffffffffffffffffffffffffffffffffffffffffffffff1916827bffffffffffffffffffffffffffffffffffffffffffffffffffffffff1916149050919050565b600033905090565b8060029080519060200190612238929190613b06565b5050565b8151835114612280576040517f08c379a000000000000000000000000000000000000000000000000000000000815260040161227790614e8e565b60405180910390fd5b600073ffffffffffffffffffffffffffffffffffffffff168473ffffffffffffffffffffffffffffffffffffffff1614156122f0576040517f08c379a00000000000000000000000000000000000000000000000000000000081526004016122e790614cce565b60405180910390fd5b60006122fa61221a565b905061230a818787878787613128565b60005b8451811015612507576000858281518110612351577f4e487b7100000000000000000000000000000000000000000000000000000000600052603260045260246000fd5b602002602001015190506000858381518110612396577f4e487b7100000000000000000000000000000000000000000000000000000000600052603260045260246000fd5b60200260200101519050600080600084815260200190815260200160002060008b73ffffffffffffffffffffffffffffffffffffffff1673ffffffffffffffffffffffffffffffffffffffff16815260200190815260200160002054905081811015612437576040517f08c379a000000000000000000000000000000000000000000000000000000000815260040161242e90614d6e565b60405180910390fd5b81810360008085815260200190815260200160002060008c73ffffffffffffffffffffffffffffffffffffffff1673ffffffffffffffffffffffffffffffffffffffff168152602001908152602001600020819055508160008085815260200190815260200160002060008b73ffffffffffffffffffffffffffffffffffffffff1673ffffffffffffffffffffffffffffffffffffffff16815260200190815260200160002060008282546124ec9190615105565b92505081905550505050806125009061528b565b905061230d565b508473ffffffffffffffffffffffffffffffffffffffff168673ffffffffffffffffffffffffffffffffffffffff168273ffffffffffffffffffffffffffffffffffffffff167f4a39dc06d4c0dbc64b70af90fd698a233a518aa5d07e595d983b8c0526c8f7fb878760405161257e929190614ad5565b60405180910390a4612594818787878787613130565b505050505050565b600073ffffffffffffffffffffffffffffffffffffffff168373ffffffffffffffffffffffffffffffffffffffff16141561260c576040517f08c379a000000000000000000000000000000000000000000000000000000000815260040161260390614d4e565b60405180910390fd5b8051825114612650576040517f08c379a000000000000000000000000000000000000000000000000000000000815260040161264790614e8e565b60405180910390fd5b600061265a61221a565b905061267a81856000868660405180602001604052806000815250613128565b60005b83518110156128135760008482815181106126c1577f4e487b7100000000000000000000000000000000000000000000000000000000600052603260045260246000fd5b602002602001015190506000848381518110612706577f4e487b7100000000000000000000000000000000000000000000000000000000600052603260045260246000fd5b60200260200101519050600080600084815260200190815260200160002060008973ffffffffffffffffffffffffffffffffffffffff1673ffffffffffffffffffffffffffffffffffffffff168152602001908152602001600020549050818110156127a7576040517f08c379a000000000000000000000000000000000000000000000000000000000815260040161279e90614c6e565b60405180910390fd5b81810360008085815260200190815260200160002060008a73ffffffffffffffffffffffffffffffffffffffff1673ffffffffffffffffffffffffffffffffffffffff16815260200190815260200160002081905550505050808061280b9061528b565b91505061267d565b50600073ffffffffffffffffffffffffffffffffffffffff168473ffffffffffffffffffffffffffffffffffffffff168273ffffffffffffffffffffffffffffffffffffffff167f4a39dc06d4c0dbc64b70af90fd698a233a518aa5d07e595d983b8c0526c8f7fb868660405161288b929190614ad5565b60405180910390a450505050565b6000600360009054906101000a900473ffffffffffffffffffffffffffffffffffffffff16905081600360006101000a81548173ffffffffffffffffffffffffffffffffffffffff021916908373ffffffffffffffffffffffffffffffffffffffff1602179055508173ffffffffffffffffffffffffffffffffffffffff168173ffffffffffffffffffffffffffffffffffffffff167f8be0079c531659141344cd1fd0a4f28419497f9722a3daafe3b4186f6b6457e060405160405180910390a35050565b600080600061296e8585613317565b9150915061297b8161339a565b819250505092915050565b8173ffffffffffffffffffffffffffffffffffffffff168373ffffffffffffffffffffffffffffffffffffffff1614156129f5576040517f08c379a00000000000000000000000000000000000000000000000000000000081526004016129ec90614e4e565b60405180910390fd5b80600160008573ffffffffffffffffffffffffffffffffffffffff1673ffffffffffffffffffffffffffffffffffffffff16815260200190815260200160002060008473ffffffffffffffffffffffffffffffffffffffff1673ffffffffffffffffffffffffffffffffffffffff16815260200190815260200160002060006101000a81548160ff0219169083151502179055508173ffffffffffffffffffffffffffffffffffffffff168373ffffffffffffffffffffffffffffffffffffffff167f17307eab39ab6107e8899845ad3d59bd9653f200f220920489ca2b5937696c3183604051612ae69190614b0c565b60405180910390a3505050565b600073ffffffffffffffffffffffffffffffffffffffff168473ffffffffffffffffffffffffffffffffffffffff161415612b63576040517f08c379a0000000000000000000000000000000000000000000000000000000008152600401612b5a90614eae565b60405180910390fd5b6000612b6d61221a565b9050612b8e81600087612b7f886136eb565b612b88886136eb565b87613128565b8260008086815260200190815260200160002060008773ffffffffffffffffffffffffffffffffffffffff1673ffffffffffffffffffffffffffffffffffffffff1681526020019081526020016000206000828254612bed9190615105565b925050819055508473ffffffffffffffffffffffffffffffffffffffff16600073ffffffffffffffffffffffffffffffffffffffff168273ffffffffffffffffffffffffffffffffffffffff167fc3d58168c5ae7397731d063d5bbf3d657854427343f4c083240f7aacaa2d0f628787604051612c6b929190614ee9565b60405180910390a4612c82816000878787876137b1565b5050505050565b600073ffffffffffffffffffffffffffffffffffffffff168473ffffffffffffffffffffffffffffffffffffffff161415612cf9576040517f08c379a0000000000000000000000000000000000000000000000000000000008152600401612cf090614cce565b60405180910390fd5b6000612d0361221a565b9050612d23818787612d14886136eb565b612d1d886136eb565b87613128565b600080600086815260200190815260200160002060008873ffffffffffffffffffffffffffffffffffffffff1673ffffffffffffffffffffffffffffffffffffffff16815260200190815260200160002054905083811015612dba576040517f08c379a0000000000000000000000000000000000000000000000000000000008152600401612db190614d6e565b60405180910390fd5b83810360008087815260200190815260200160002060008973ffffffffffffffffffffffffffffffffffffffff1673ffffffffffffffffffffffffffffffffffffffff168152602001908152602001600020819055508360008087815260200190815260200160002060008873ffffffffffffffffffffffffffffffffffffffff1673ffffffffffffffffffffffffffffffffffffffff1681526020019081526020016000206000828254612e6f9190615105565b925050819055508573ffffffffffffffffffffffffffffffffffffffff168773ffffffffffffffffffffffffffffffffffffffff168373ffffffffffffffffffffffffffffffffffffffff167fc3d58168c5ae7397731d063d5bbf3d657854427343f4c083240f7aacaa2d0f628888604051612eec929190614ee9565b60405180910390a4612f028288888888886137b1565b50505050505050565b600073ffffffffffffffffffffffffffffffffffffffff168373ffffffffffffffffffffffffffffffffffffffff161415612f7b576040517f08c379a0000000000000000000000000000000000000000000000000000000008152600401612f7290614d4e565b60405180910390fd5b6000612f8561221a565b9050612fb581856000612f97876136eb565b612fa0876136eb565b60405180602001604052806000815250613128565b600080600085815260200190815260200160002060008673ffffffffffffffffffffffffffffffffffffffff1673ffffffffffffffffffffffffffffffffffffffff1681526020019081526020016000205490508281101561304c576040517f08c379a000000000000000000000000000000000000000000000000000000000815260040161304390614c6e565b60405180910390fd5b82810360008086815260200190815260200160002060008773ffffffffffffffffffffffffffffffffffffffff1673ffffffffffffffffffffffffffffffffffffffff16815260200190815260200160002081905550600073ffffffffffffffffffffffffffffffffffffffff168573ffffffffffffffffffffffffffffffffffffffff168373ffffffffffffffffffffffffffffffffffffffff167fc3d58168c5ae7397731d063d5bbf3d657854427343f4c083240f7aacaa2d0f628787604051613119929190614ee9565b60405180910390a45050505050565b505050505050565b61314f8473ffffffffffffffffffffffffffffffffffffffff16613998565b1561330f578373ffffffffffffffffffffffffffffffffffffffff1663bc197c8187878686866040518663ffffffff1660e01b81526004016131959594939291906149c8565b602060405180830381600087803b1580156131af57600080fd5b505af19250505080156131e057506040513d601f19601f820116820180604052508101906131dd9190614203565b60015b613286576131ec6153f9565b806308c379a014156132495750613201615afc565b8061320c575061324b565b806040517f08c379a00000000000000000000000000000000000000000000000000000000081526004016132409190614b6c565b60405180910390fd5b505b6040517f08c379a000000000000000000000000000000000000000000000000000000000815260040161327d90614bae565b60405180910390fd5b63bc197c8160e01b7bffffffffffffffffffffffffffffffffffffffffffffffffffffffff1916817bffffffffffffffffffffffffffffffffffffffffffffffffffffffff19161461330d576040517f08c379a000000000000000000000000000000000000000000000000000000000815260040161330490614bce565b60405180910390fd5b505b505050505050565b6000806041835114156133595760008060006020860151925060408601519150606086015160001a905061334d878285856139ab565b94509450505050613393565b60408351141561338a57600080602085015191506040850151905061337f868383613ab8565b935093505050613393565b60006002915091505b9250929050565b600060048111156133d4577f4e487b7100000000000000000000000000000000000000000000000000000000600052602160045260246000fd5b81600481111561340d577f4e487b7100000000000000000000000000000000000000000000000000000000600052602160045260246000fd5b1415613418576136e8565b60016004811115613452577f4e487b7100000000000000000000000000000000000000000000000000000000600052602160045260246000fd5b81600481111561348b577f4e487b7100000000000000000000000000000000000000000000000000000000600052602160045260246000fd5b14156134cc576040517f08c379a00000000000000000000000000000000000000000000000000000000081526004016134c390614b8e565b60405180910390fd5b60026004811115613506577f4e487b7100000000000000000000000000000000000000000000000000000000600052602160045260246000fd5b81600481111561353f577f4e487b7100000000000000000000000000000000000000000000000000000000600052602160045260246000fd5b1415613580576040517f08c379a000000000000000000000000000000000000000000000000000000000815260040161357790614c0e565b60405180910390fd5b600360048111156135ba577f4e487b7100000000000000000000000000000000000000000000000000000000600052602160045260246000fd5b8160048111156135f3577f4e487b7100000000000000000000000000000000000000000000000000000000600052602160045260246000fd5b1415613634576040517f08c379a000000000000000000000000000000000000000000000000000000000815260040161362b90614cae565b60405180910390fd5b60048081111561366d577f4e487b7100000000000000000000000000000000000000000000000000000000600052602160045260246000fd5b8160048111156136a6577f4e487b7100000000000000000000000000000000000000000000000000000000600052602160045260246000fd5b14156136e7576040517f08c379a00000000000000000000000000000000000000000000000000000000081526004016136de90614d2e565b60405180910390fd5b5b50565b60606000600167ffffffffffffffff811115613730577f4e487b7100000000000000000000000000000000000000000000000000000000600052604160045260246000fd5b60405190808252806020026020018201604052801561375e5781602001602082028036833780820191505090505b509050828160008151811061379c577f4e487b7100000000000000000000000000000000000000000000000000000000600052603260045260246000fd5b60200260200101818152505080915050919050565b6137d08473ffffffffffffffffffffffffffffffffffffffff16613998565b15613990578373ffffffffffffffffffffffffffffffffffffffff1663f23a6e6187878686866040518663ffffffff1660e01b8152600401613816959493929190614a30565b602060405180830381600087803b15801561383057600080fd5b505af192505050801561386157506040513d601f19601f8201168201806040525081019061385e9190614203565b60015b6139075761386d6153f9565b806308c379a014156138ca5750613882615afc565b8061388d57506138cc565b806040517f08c379a00000000000000000000000000000000000000000000000000000000081526004016138c19190614b6c565b60405180910390fd5b505b6040517f08c379a00000000000000000000000000000000000000000000000000000000081526004016138fe90614bae565b60405180910390fd5b63f23a6e6160e01b7bffffffffffffffffffffffffffffffffffffffffffffffffffffffff1916817bffffffffffffffffffffffffffffffffffffffffffffffffffffffff19161461398e576040517f08c379a000000000000000000000000000000000000000000000000000000000815260040161398590614bce565b60405180910390fd5b505b505050505050565b600080823b905060008111915050919050565b6000807f7fffffffffffffffffffffffffffffff5d576e7357a4501ddfe92f46681b20a08360001c11156139e6576000600391509150613aaf565b601b8560ff16141580156139fe5750601c8560ff1614155b15613a10576000600491509150613aaf565b600060018787878760405160008152602001604052604051613a359493929190614b27565b6020604051602081039080840390855afa158015613a57573d6000803e3d6000fd5b505050602060405103519050600073ffffffffffffffffffffffffffffffffffffffff168173ffffffffffffffffffffffffffffffffffffffff161415613aa657600060019250925050613aaf565b80600092509250505b94509492505050565b6000806000807f7fffffffffffffffffffffffffffffffffffffffffffffffffffffffffffffff85169150601b8560ff1c019050613af8878288856139ab565b935093505050935093915050565b828054613b1290615228565b90600052602060002090601f016020900481019282613b345760008555613b7b565b82601f10613b4d57805160ff1916838001178555613b7b565b82800160010185558215613b7b579182015b82811115613b7a578251825591602001919060010190613b5f565b5b509050613b889190613b8c565b5090565b5b80821115613ba5576000816000905550600101613b8d565b5090565b6000613bbc613bb784614fc4565b614f9f565b90508083825260208201905082856020860282011115613bdb57600080fd5b60005b85811015613c0b5781613bf18882613cfd565b845260208401935060208301925050600181019050613bde565b5050509392505050565b6000613c28613c2384614ff0565b614f9f565b90508083825260208201905082856020860282011115613c4757600080fd5b60005b85811015613c775781613c5d8882613df9565b845260208401935060208301925050600181019050613c4a565b5050509392505050565b6000613c94613c8f8461501c565b614f9f565b905082815260208101848484011115613cac57600080fd5b613cb78482856151e6565b509392505050565b6000613cd2613ccd8461504d565b614f9f565b905082815260208101848484011115613cea57600080fd5b613cf58482856151e6565b509392505050565b600081359050613d0c81615b92565b92915050565b600082601f830112613d2357600080fd5b8135613d33848260208601613ba9565b91505092915050565b600082601f830112613d4d57600080fd5b8135613d5d848260208601613c15565b91505092915050565b600081359050613d7581615ba9565b92915050565b600081359050613d8a81615bc0565b92915050565b600081519050613d9f81615bc0565b92915050565b600082601f830112613db657600080fd5b8135613dc6848260208601613c81565b91505092915050565b600082601f830112613de057600080fd5b8135613df0848260208601613cbf565b91505092915050565b600081359050613e0881615bd7565b92915050565b600060208284031215613e2057600080fd5b6000613e2e84828501613cfd565b91505092915050565b60008060408385031215613e4a57600080fd5b6000613e5885828601613cfd565b9250506020613e6985828601613cfd565b9150509250929050565b600080600080600060a08688031215613e8b57600080fd5b6000613e9988828901613cfd565b9550506020613eaa88828901613cfd565b945050604086013567ffffffffffffffff811115613ec757600080fd5b613ed388828901613d3c565b935050606086013567ffffffffffffffff811115613ef057600080fd5b613efc88828901613d3c565b925050608086013567ffffffffffffffff811115613f1957600080fd5b613f2588828901613da5565b9150509295509295909350565b600080600080600060a08688031215613f4a57600080fd5b6000613f5888828901613cfd565b9550506020613f6988828901613cfd565b9450506040613f7a88828901613df9565b9350506060613f8b88828901613df9565b925050608086013567ffffffffffffffff811115613fa857600080fd5b613fb488828901613da5565b9150509295509295909350565b600080600060608486031215613fd657600080fd5b6000613fe486828701613cfd565b935050602084013567ffffffffffffffff81111561400157600080fd5b61400d86828701613d3c565b925050604084013567ffffffffffffffff81111561402a57600080fd5b61403686828701613d3c565b9150509250925092565b6000806040838503121561405357600080fd5b600061406185828601613cfd565b925050602061407285828601613d66565b9150509250929050565b60008060006060848603121561409157600080fd5b600061409f86828701613cfd565b935050602084013567ffffffffffffffff8111156140bc57600080fd5b6140c886828701613da5565b92505060406140d986828701613df9565b9150509250925092565b600080604083850312156140f657600080fd5b600061410485828601613cfd565b925050602061411585828601613df9565b9150509250929050565b60008060006060848603121561413457600080fd5b600061414286828701613cfd565b935050602061415386828701613df9565b925050604061416486828701613df9565b9150509250925092565b6000806040838503121561418157600080fd5b600083013567ffffffffffffffff81111561419b57600080fd5b6141a785828601613d12565b925050602083013567ffffffffffffffff8111156141c457600080fd5b6141d085828601613d3c565b9150509250929050565b6000602082840312156141ec57600080fd5b60006141fa84828501613d7b565b91505092915050565b60006020828403121561421557600080fd5b600061422384828501613d90565b91505092915050565b60006020828403121561423e57600080fd5b600082013567ffffffffffffffff81111561425857600080fd5b61426484828501613dcf565b91505092915050565b60006020828403121561427f57600080fd5b600061428d84828501613df9565b91505092915050565b600080604083850312156142a957600080fd5b60006142b785828601613df9565b925050602083013567ffffffffffffffff8111156142d457600080fd5b6142e085828601613da5565b9150509250929050565b6000806000606084860312156142ff57600080fd5b600061430d86828701613df9565b935050602061431e86828701613df9565b925050604061432f86828701613df9565b9150509250925092565b600080600080600080600080610100898b03121561435657600080fd5b60006143648b828c01613df9565b98505060206143758b828c01613df9565b97505060406143868b828c01613df9565b96505060606143978b828c01613df9565b95505060806143a88b828c01613df9565b94505060a06143b98b828c01613d66565b93505060c06143ca8b828c01613d66565b92505060e06143db8b828c01613d66565b9150509295985092959890939650565b60006143f78383614902565b60208301905092915050565b61440c8161515b565b82525050565b61442361441e8261515b565b6152d4565b82525050565b60006144348261508e565b61443e81856150bc565b93506144498361507e565b8060005b8381101561447a57815161446188826143eb565b975061446c836150af565b92505060018101905061444d565b5085935050505092915050565b6144908161516d565b82525050565b61449f81615179565b82525050565b6144b66144b182615179565b6152e6565b82525050565b60006144c782615099565b6144d181856150cd565b93506144e18185602086016151f5565b6144ea8161541b565b840191505092915050565b6000614500826150a4565b61450a81856150e9565b935061451a8185602086016151f5565b6145238161541b565b840191505092915050565b600061453b6018836150e9565b915061454682615446565b602082019050919050565b600061455e6034836150e9565b91506145698261546f565b604082019050919050565b60006145816028836150e9565b915061458c826154be565b604082019050919050565b60006145a46016836150e9565b91506145af8261550d565b602082019050919050565b60006145c7601f836150e9565b91506145d282615536565b602082019050919050565b60006145ea601c836150fa565b91506145f58261555f565b601c82019050919050565b600061460d602b836150e9565b915061461882615588565b604082019050919050565b60006146306026836150e9565b915061463b826155d7565b604082019050919050565b60006146536024836150e9565b915061465e82615626565b604082019050919050565b60006146766029836150e9565b915061468182615675565b604082019050919050565b60006146996022836150e9565b91506146a4826156c4565b604082019050919050565b60006146bc6025836150e9565b91506146c782615713565b604082019050919050565b60006146df6032836150e9565b91506146ea82615762565b604082019050919050565b6000614702601a836150e9565b915061470d826157b1565b602082019050919050565b60006147256022836150e9565b9150614730826157da565b604082019050919050565b60006147486023836150e9565b915061475382615829565b604082019050919050565b600061476b602a836150e9565b915061477682615878565b604082019050919050565b600061478e6020836150e9565b9150614799826158c7565b602082019050919050565b60006147b16013836150e9565b91506147bc826158f0565b602082019050919050565b60006147d46019836150e9565b91506147df82615919565b602082019050919050565b60006147f76000836150de565b915061480282615942565b600082019050919050565b600061481a6008836150e9565b915061482582615945565b602082019050919050565b600061483d6014836150e9565b91506148488261596e565b602082019050919050565b60006148606012836150e9565b915061486b82615997565b602082019050919050565b60006148836029836150e9565b915061488e826159c0565b604082019050919050565b60006148a66029836150e9565b91506148b182615a0f565b604082019050919050565b60006148c96028836150e9565b91506148d482615a5e565b604082019050919050565b60006148ec6021836150e9565b91506148f782615aad565b604082019050919050565b61490b816151cf565b82525050565b61491a816151cf565b82525050565b61493161492c826151cf565b615302565b82525050565b614940816151d9565b82525050565b60006149528285614412565b6014820191506149628284614920565b6020820191508190509392505050565b600061497d826145dd565b915061498982846144a5565b60208201915081905092915050565b60006149a3826147ea565b9150819050919050565b60006020820190506149c26000830184614403565b92915050565b600060a0820190506149dd6000830188614403565b6149ea6020830187614403565b81810360408301526149fc8186614429565b90508181036060830152614a108185614429565b90508181036080830152614a2481846144bc565b90509695505050505050565b600060a082019050614a456000830188614403565b614a526020830187614403565b614a5f6040830186614911565b614a6c6060830185614911565b8181036080830152614a7e81846144bc565b90509695505050505050565b6000604082019050614a9f6000830185614403565b614aac6020830184614911565b9392505050565b60006020820190508181036000830152614acd8184614429565b905092915050565b60006040820190508181036000830152614aef8185614429565b90508181036020830152614b038184614429565b90509392505050565b6000602082019050614b216000830184614487565b92915050565b6000608082019050614b3c6000830187614496565b614b496020830186614937565b614b566040830185614496565b614b636060830184614496565b95945050505050565b60006020820190508181036000830152614b8681846144f5565b905092915050565b60006020820190508181036000830152614ba78161452e565b9050919050565b60006020820190508181036000830152614bc781614551565b9050919050565b60006020820190508181036000830152614be781614574565b9050919050565b60006020820190508181036000830152614c0781614597565b9050919050565b60006020820190508181036000830152614c27816145ba565b9050919050565b60006020820190508181036000830152614c4781614600565b9050919050565b60006020820190508181036000830152614c6781614623565b9050919050565b60006020820190508181036000830152614c8781614646565b9050919050565b60006020820190508181036000830152614ca781614669565b9050919050565b60006020820190508181036000830152614cc78161468c565b9050919050565b60006020820190508181036000830152614ce7816146af565b9050919050565b60006020820190508181036000830152614d07816146d2565b9050919050565b60006020820190508181036000830152614d27816146f5565b9050919050565b60006020820190508181036000830152614d4781614718565b9050919050565b60006020820190508181036000830152614d678161473b565b9050919050565b60006020820190508181036000830152614d878161475e565b9050919050565b60006020820190508181036000830152614da781614781565b9050919050565b60006020820190508181036000830152614dc7816147a4565b9050919050565b60006020820190508181036000830152614de7816147c7565b9050919050565b60006020820190508181036000830152614e078161480d565b9050919050565b60006020820190508181036000830152614e2781614830565b9050919050565b60006020820190508181036000830152614e4781614853565b9050919050565b60006020820190508181036000830152614e6781614876565b9050919050565b60006020820190508181036000830152614e8781614899565b9050919050565b60006020820190508181036000830152614ea7816148bc565b9050919050565b60006020820190508181036000830152614ec7816148df565b9050919050565b6000602082019050614ee36000830184614911565b92915050565b6000604082019050614efe6000830185614911565b614f0b6020830184614911565b9392505050565b600061012082019050614f28600083018c614911565b614f35602083018b614911565b614f42604083018a614911565b614f4f6060830189614911565b614f5c6080830188614911565b614f6960a0830187614911565b614f7660c0830186614487565b614f8360e0830185614487565b614f91610100830184614487565b9a9950505050505050505050565b6000614fa9614fba565b9050614fb5828261525a565b919050565b6000604051905090565b600067ffffffffffffffff821115614fdf57614fde6153ca565b5b602082029050602081019050919050565b600067ffffffffffffffff82111561500b5761500a6153ca565b5b602082029050602081019050919050565b600067ffffffffffffffff821115615037576150366153ca565b5b6150408261541b565b9050602081019050919050565b600067ffffffffffffffff821115615068576150676153ca565b5b6150718261541b565b9050602081019050919050565b6000819050602082019050919050565b600081519050919050565b600081519050919050565b600081519050919050565b6000602082019050919050565b600082825260208201905092915050565b600082825260208201905092915050565b600081905092915050565b600082825260208201905092915050565b600081905092915050565b6000615110826151cf565b915061511b836151cf565b9250827fffffffffffffffffffffffffffffffffffffffffffffffffffffffffffffffff038211156151505761514f61533d565b5b828201905092915050565b6000615166826151af565b9050919050565b60008115159050919050565b6000819050919050565b60007fffffffff0000000000000000000000000000000000000000000000000000000082169050919050565b600073ffffffffffffffffffffffffffffffffffffffff82169050919050565b6000819050919050565b600060ff82169050919050565b82818337600083830152505050565b60005b838110156152135780820151818401526020810190506151f8565b83811115615222576000848401525b50505050565b6000600282049050600182168061524057607f821691505b602082108114156152545761525361539b565b5b50919050565b6152638261541b565b810181811067ffffffffffffffff82111715615282576152816153ca565b5b80604052505050565b6000615296826151cf565b91507fffffffffffffffffffffffffffffffffffffffffffffffffffffffffffffffff8214156152c9576152c861533d565b5b600182019050919050565b60006152df826152f0565b9050919050565b6000819050919050565b60006152fb8261542c565b9050919050565b6000819050919050565b6000615317826151cf565b9150615322836151cf565b9250826153325761533161536c565b5b828206905092915050565b7f4e487b7100000000000000000000000000000000000000000000000000000000600052601160045260246000fd5b7f4e487b7100000000000000000000000000000000000000000000000000000000600052601260045260246000fd5b7f4e487b7100000000000000000000000000000000000000000000000000000000600052602260045260246000fd5b7f4e487b7100000000000000000000000000000000000000000000000000000000600052604160045260246000fd5b600060033d11156154185760046000803e615415600051615439565b90505b90565b6000601f19601f8301169050919050565b60008160601b9050919050565b60008160e01c9050919050565b7f45434453413a20696e76616c6964207369676e61747572650000000000000000600082015250565b7f455243313135353a207472616e7366657220746f206e6f6e204552433131353560008201527f526563656976657220696d706c656d656e746572000000000000000000000000602082015250565b7f455243313135353a204552433131353552656365697665722072656a6563746560008201527f6420746f6b656e73000000000000000000000000000000000000000000000000602082015250565b7f4f4e4c592031204d494e54205045522057414c4c455400000000000000000000600082015250565b7f45434453413a20696e76616c6964207369676e6174757265206c656e67746800600082015250565b7f19457468657265756d205369676e6564204d6573736167653a0a333200000000600082015250565b7f455243313135353a2062616c616e636520717565727920666f7220746865207a60008201527f65726f2061646472657373000000000000000000000000000000000000000000602082015250565b7f4f776e61626c653a206e6577206f776e657220697320746865207a65726f206160008201527f6464726573730000000000000000000000000000000000000000000000000000602082015250565b7f455243313135353a206275726e20616d6f756e7420657863656564732062616c60008201527f616e636500000000000000000000000000000000000000000000000000000000602082015250565b7f455243313135353a2063616c6c6572206973206e6f74206f776e6572206e6f7260008201527f20617070726f7665640000000000000000000000000000000000000000000000602082015250565b7f45434453413a20696e76616c6964207369676e6174757265202773272076616c60008201527f7565000000000000000000000000000000000000000000000000000000000000602082015250565b7f455243313135353a207472616e7366657220746f20746865207a65726f20616460008201527f6472657373000000000000000000000000000000000000000000000000000000602082015250565b7f455243313135353a207472616e736665722063616c6c6572206973206e6f742060008201527f6f776e6572206e6f7220617070726f7665640000000000000000000000000000602082015250565b7f41646472657373206973206e6f7420616c6c6f776c6973746564000000000000600082015250565b7f45434453413a20696e76616c6964207369676e6174757265202776272076616c60008201527f7565000000000000000000000000000000000000000000000000000000000000602082015250565b7f455243313135353a206275726e2066726f6d20746865207a65726f206164647260008201527f6573730000000000000000000000000000000000000000000000000000000000602082015250565b7f455243313135353a20696e73756666696369656e742062616c616e636520666f60008201527f72207472616e7366657200000000000000000000000000000000000000000000602082015250565b7f4f776e61626c653a2063616c6c6572206973206e6f7420746865206f776e6572600082015250565b7f4e6f7420656e6f756768204554482073656e7400000000000000000000000000600082015250565b7f4661696c656420746f2077696474686472617720457468657200000000000000600082015250565b50565b7f536f6c64206f7574000000000000000000000000000000000000000000000000600082015250565b7f4d494e54494e47202d20414c4c4f57204f4e4c59000000000000000000000000600082015250565b7f4d494e54494e47202d204e4f54204f50454e0000000000000000000000000000600082015250565b7f455243313135353a2073657474696e6720617070726f76616c2073746174757360008201527f20666f722073656c660000000000000000000000000000000000000000000000602082015250565b7f455243313135353a206163636f756e747320616e6420696473206c656e67746860008201527f206d69736d617463680000000000000000000000000000000000000000000000602082015250565b7f455243313135353a2069647320616e6420616d6f756e7473206c656e6774682060008201527f6d69736d61746368000000000000000000000000000000000000000000000000602082015250565b7f455243313135353a206d696e7420746f20746865207a65726f2061646472657360008201527f7300000000000000000000000000000000000000000000000000000000000000602082015250565b600060443d1015615b0c57615b8f565b615b14614fba565b60043d036004823e80513d602482011167ffffffffffffffff82111715615b3c575050615b8f565b808201805167ffffffffffffffff811115615b5a5750505050615b8f565b80602083010160043d038501811115615b77575050505050615b8f565b615b868260200185018661525a565b82955050505050505b90565b615b9b8161515b565b8114615ba657600080fd5b50565b615bb28161516d565b8114615bbd57600080fd5b50565b615bc981615183565b8114615bd457600080fd5b50565b615be0816151cf565b8114615beb57600080fd5b5056fea2646970667358221220c7ab32317360298508558d08e6e2e1e3353e76bcb2b13363a915a1fccefa29aa64736f6c6343000804003368747470733a2f2f697066732e696f2f697066732f516d50444c5a686874466b4e7039345059706136334135734b50617834646f67394b33536f3150556a6f713970662f7b69647d2e6a736f6e",
  "linkReferences": {},
  "deployedLinkReferences": {}
}