{
  "_format": "hh-sol-artifact-1",
  "contractName": "GMMerchStrut",
  "sourceName": "contracts/GMMerchStrut.sol",
  "abi": [
    {
      "inputs": [],
      "stateMutability": "nonpayable",
      "type": "constructor"
    },
    {
      "anonymous": false,
      "inputs": [
        {
          "indexed": true,
          "internalType": "address",
          "name": "account",
          "type": "address"
        },
        {
          "indexed": true,
          "internalType": "address",
          "name": "operator",
          "type": "address"
        },
        {
          "indexed": false,
          "internalType": "bool",
          "name": "approved",
          "type": "bool"
        }
      ],
      "name": "ApprovalForAll",
      "type": "event"
    },
    {
      "anonymous": false,
      "inputs": [
        {
          "indexed": false,
          "internalType": "address",
          "name": "sender",
          "type": "address"
        },
        {
          "indexed": false,
          "internalType": "uint256",
          "name": "tokenId",
          "type": "uint256"
        }
      ],
      "name": "GMMinted",
      "type": "event"
    },
    {
      "anonymous": false,
      "inputs": [
        {
          "indexed": false,
          "internalType": "address",
          "name": "sender",
          "type": "address"
        },
        {
          "indexed": false,
          "internalType": "uint256",
          "name": "tokenId",
          "type": "uint256"
        }
      ],
      "name": "GmBurned",
      "type": "event"
    },
    {
      "anonymous": false,
      "inputs": [
        {
          "indexed": true,
          "internalType": "address",
          "name": "previousOwner",
          "type": "address"
        },
        {
          "indexed": true,
          "internalType": "address",
          "name": "newOwner",
          "type": "address"
        }
      ],
      "name": "OwnershipTransferred",
      "type": "event"
    },
    {
      "anonymous": false,
      "inputs": [
        {
          "indexed": true,
          "internalType": "address",
          "name": "operator",
          "type": "address"
        },
        {
          "indexed": true,
          "internalType": "address",
          "name": "from",
          "type": "address"
        },
        {
          "indexed": true,
          "internalType": "address",
          "name": "to",
          "type": "address"
        },
        {
          "indexed": false,
          "internalType": "uint256[]",
          "name": "ids",
          "type": "uint256[]"
        },
        {
          "indexed": false,
          "internalType": "uint256[]",
          "name": "values",
          "type": "uint256[]"
        }
      ],
      "name": "TransferBatch",
      "type": "event"
    },
    {
      "anonymous": false,
      "inputs": [
        {
          "indexed": true,
          "internalType": "address",
          "name": "operator",
          "type": "address"
        },
        {
          "indexed": true,
          "internalType": "address",
          "name": "from",
          "type": "address"
        },
        {
          "indexed": true,
          "internalType": "address",
          "name": "to",
          "type": "address"
        },
        {
          "indexed": false,
          "internalType": "uint256",
          "name": "id",
          "type": "uint256"
        },
        {
          "indexed": false,
          "internalType": "uint256",
          "name": "value",
          "type": "uint256"
        }
      ],
      "name": "TransferSingle",
      "type": "event"
    },
    {
      "anonymous": false,
      "inputs": [
        {
          "indexed": false,
          "internalType": "string",
          "name": "value",
          "type": "string"
        },
        {
          "indexed": true,
          "internalType": "uint256",
          "name": "id",
          "type": "uint256"
        }
      ],
      "name": "URI",
      "type": "event"
    },
    {
      "inputs": [
        {
          "internalType": "address",
          "name": "",
          "type": "address"
        }
      ],
      "name": "allowList",
      "outputs": [
        {
          "internalType": "uint8",
          "name": "",
          "type": "uint8"
        }
      ],
      "stateMutability": "view",
      "type": "function"
    },
    {
      "inputs": [
        {
          "internalType": "address",
          "name": "account",
          "type": "address"
        },
        {
          "internalType": "uint256",
          "name": "id",
          "type": "uint256"
        }
      ],
      "name": "balanceOf",
      "outputs": [
        {
          "internalType": "uint256",
          "name": "",
          "type": "uint256"
        }
      ],
      "stateMutability": "view",
      "type": "function"
    },
    {
      "inputs": [
        {
          "internalType": "address[]",
          "name": "accounts",
          "type": "address[]"
        },
        {
          "internalType": "uint256[]",
          "name": "ids",
          "type": "uint256[]"
        }
      ],
      "name": "balanceOfBatch",
      "outputs": [
        {
          "internalType": "uint256[]",
          "name": "",
          "type": "uint256[]"
        }
      ],
      "stateMutability": "view",
      "type": "function"
    },
    {
      "inputs": [
        {
          "internalType": "address",
          "name": "account",
          "type": "address"
        },
        {
          "internalType": "uint256",
          "name": "id",
          "type": "uint256"
        },
        {
          "internalType": "uint256",
          "name": "value",
          "type": "uint256"
        }
      ],
      "name": "burn",
      "outputs": [],
      "stateMutability": "nonpayable",
      "type": "function"
    },
    {
      "inputs": [
        {
          "internalType": "address",
          "name": "account",
          "type": "address"
        },
        {
          "internalType": "uint256[]",
          "name": "ids",
          "type": "uint256[]"
        },
        {
          "internalType": "uint256[]",
          "name": "values",
          "type": "uint256[]"
        }
      ],
      "name": "burnBatch",
      "outputs": [],
      "stateMutability": "nonpayable",
      "type": "function"
    },
    {
      "inputs": [
        {
          "internalType": "address",
          "name": "_address",
          "type": "address"
        },
        {
          "internalType": "uint256",
          "name": "id",
          "type": "uint256"
        }
      ],
      "name": "burnToken",
      "outputs": [],
      "stateMutability": "nonpayable",
      "type": "function"
    },
    {
      "inputs": [
        {
          "internalType": "address",
          "name": "_address",
          "type": "address"
        }
      ],
      "name": "clearAllowListAddress",
      "outputs": [],
      "stateMutability": "nonpayable",
      "type": "function"
    },
    {
      "inputs": [
        {
          "internalType": "uint256",
          "name": "_supply",
          "type": "uint256"
        },
        {
          "internalType": "uint256",
          "name": "_price",
          "type": "uint256"
        },
        {
          "internalType": "uint256",
          "name": "_increment",
          "type": "uint256"
        }
      ],
      "name": "createMerchItem",
      "outputs": [],
      "stateMutability": "nonpayable",
      "type": "function"
    },
    {
      "inputs": [],
      "name": "getMerchCount",
      "outputs": [
        {
          "internalType": "uint256",
          "name": "merchCount",
          "type": "uint256"
        }
      ],
      "stateMutability": "view",
      "type": "function"
    },
    {
      "inputs": [
        {
          "internalType": "address",
          "name": "account",
          "type": "address"
        },
        {
          "internalType": "address",
          "name": "operator",
          "type": "address"
        }
      ],
      "name": "isApprovedForAll",
      "outputs": [
        {
          "internalType": "bool",
          "name": "",
          "type": "bool"
        }
      ],
      "stateMutability": "view",
      "type": "function"
    },
    {
      "inputs": [
        {
          "internalType": "uint256",
          "name": "",
          "type": "uint256"
        }
      ],
      "name": "merch",
      "outputs": [
        {
          "internalType": "uint256",
          "name": "minted",
          "type": "uint256"
        },
        {
          "internalType": "uint256",
          "name": "burned",
          "type": "uint256"
        },
        {
          "internalType": "uint256",
          "name": "supply",
          "type": "uint256"
        },
        {
          "internalType": "uint256",
          "name": "price",
          "type": "uint256"
        },
        {
          "internalType": "uint256",
          "name": "increment",
          "type": "uint256"
        },
        {
          "internalType": "bool",
          "name": "allowMintable",
          "type": "bool"
        },
        {
          "internalType": "bool",
          "name": "publicMintable",
          "type": "bool"
        },
        {
          "internalType": "bool",
          "name": "mintPassIncluded",
          "type": "bool"
        }
      ],
      "stateMutability": "view",
      "type": "function"
    },
    {
      "inputs": [
        {
          "internalType": "address",
          "name": "to",
          "type": "address"
        },
        {
          "internalType": "uint256",
          "name": "id",
          "type": "uint256"
        },
        {
          "internalType": "uint256",
          "name": "amount",
          "type": "uint256"
        }
      ],
      "name": "mintAdmin",
      "outputs": [],
      "stateMutability": "nonpayable",
      "type": "function"
    },
    {
      "inputs": [
        {
          "internalType": "uint256",
          "name": "id",
          "type": "uint256"
        }
      ],
      "name": "mintToken",
      "outputs": [],
      "stateMutability": "payable",
      "type": "function"
    },
    {
      "inputs": [
        {
          "internalType": "uint256",
          "name": "id",
          "type": "uint256"
        }
      ],
      "name": "mintTokenAllow",
      "outputs": [],
      "stateMutability": "payable",
      "type": "function"
    },
    {
      "inputs": [],
      "name": "owner",
      "outputs": [
        {
          "internalType": "address",
          "name": "",
          "type": "address"
        }
      ],
      "stateMutability": "view",
      "type": "function"
    },
    {
      "inputs": [],
      "name": "renounceOwnership",
      "outputs": [],
      "stateMutability": "nonpayable",
      "type": "function"
    },
    {
      "inputs": [
        {
          "internalType": "address",
          "name": "from",
          "type": "address"
        },
        {
          "internalType": "address",
          "name": "to",
          "type": "address"
        },
        {
          "internalType": "uint256[]",
          "name": "ids",
          "type": "uint256[]"
        },
        {
          "internalType": "uint256[]",
          "name": "amounts",
          "type": "uint256[]"
        },
        {
          "internalType": "bytes",
          "name": "data",
          "type": "bytes"
        }
      ],
      "name": "safeBatchTransferFrom",
      "outputs": [],
      "stateMutability": "nonpayable",
      "type": "function"
    },
    {
      "inputs": [
        {
          "internalType": "address",
          "name": "from",
          "type": "address"
        },
        {
          "internalType": "address",
          "name": "to",
          "type": "address"
        },
        {
          "internalType": "uint256",
          "name": "id",
          "type": "uint256"
        },
        {
          "internalType": "uint256",
          "name": "amount",
          "type": "uint256"
        },
        {
          "internalType": "bytes",
          "name": "data",
          "type": "bytes"
        }
      ],
      "name": "safeTransferFrom",
      "outputs": [],
      "stateMutability": "nonpayable",
      "type": "function"
    },
    {
      "inputs": [
        {
          "internalType": "address[]",
          "name": "addresses",
          "type": "address[]"
        }
      ],
      "name": "setAllowList",
      "outputs": [],
      "stateMutability": "nonpayable",
      "type": "function"
    },
    {
      "inputs": [
        {
          "internalType": "address",
          "name": "operator",
          "type": "address"
        },
        {
          "internalType": "bool",
          "name": "approved",
          "type": "bool"
        }
      ],
      "name": "setApprovalForAll",
      "outputs": [],
      "stateMutability": "nonpayable",
      "type": "function"
    },
    {
      "inputs": [
        {
          "internalType": "string",
          "name": "newuri",
          "type": "string"
        }
      ],
      "name": "setURI",
      "outputs": [],
      "stateMutability": "nonpayable",
      "type": "function"
    },
    {
      "inputs": [
        {
          "internalType": "bytes4",
          "name": "interfaceId",
          "type": "bytes4"
        }
      ],
      "name": "supportsInterface",
      "outputs": [
        {
          "internalType": "bool",
          "name": "",
          "type": "bool"
        }
      ],
      "stateMutability": "view",
      "type": "function"
    },
    {
      "inputs": [
        {
          "internalType": "address",
          "name": "newOwner",
          "type": "address"
        }
      ],
      "name": "transferOwnership",
      "outputs": [],
      "stateMutability": "nonpayable",
      "type": "function"
    },
    {
      "inputs": [
        {
          "internalType": "uint256",
          "name": "_index",
          "type": "uint256"
        },
        {
          "internalType": "uint256",
          "name": "_supply",
          "type": "uint256"
        },
        {
          "internalType": "uint256",
          "name": "_price",
          "type": "uint256"
        },
        {
          "internalType": "uint256",
          "name": "_increment",
          "type": "uint256"
        },
        {
          "internalType": "bool",
          "name": "_allowMintable",
          "type": "bool"
        },
        {
          "internalType": "bool",
          "name": "_publicMintable",
          "type": "bool"
        },
        {
          "internalType": "bool",
          "name": "_mintPassIncluded",
          "type": "bool"
        }
      ],
      "name": "updateMerchItem",
      "outputs": [],
      "stateMutability": "nonpayable",
      "type": "function"
    },
    {
      "inputs": [
        {
          "internalType": "uint256",
          "name": "",
          "type": "uint256"
        }
      ],
      "name": "uri",
      "outputs": [
        {
          "internalType": "string",
          "name": "",
          "type": "string"
        }
      ],
      "stateMutability": "view",
      "type": "function"
    },
    {
      "inputs": [],
      "name": "withdraw",
      "outputs": [],
      "stateMutability": "nonpayable",
      "type": "function"
    }
  ],
  "bytecode": "0x60806040523480156200001157600080fd5b506040518060800160405280604d8152602001620054d1604d91396200003d816200006460201b60201c565b506200005e620000526200008060201b60201c565b6200008860201b60201c565b62000263565b80600290805190602001906200007c9291906200014e565b5050565b600033905090565b6000600360009054906101000a900473ffffffffffffffffffffffffffffffffffffffff16905081600360006101000a81548173ffffffffffffffffffffffffffffffffffffffff021916908373ffffffffffffffffffffffffffffffffffffffff1602179055508173ffffffffffffffffffffffffffffffffffffffff168173ffffffffffffffffffffffffffffffffffffffff167f8be0079c531659141344cd1fd0a4f28419497f9722a3daafe3b4186f6b6457e060405160405180910390a35050565b8280546200015c90620001fe565b90600052602060002090601f016020900481019282620001805760008555620001cc565b82601f106200019b57805160ff1916838001178555620001cc565b82800160010185558215620001cc579182015b82811115620001cb578251825591602001919060010190620001ae565b5b509050620001db9190620001df565b5090565b5b80821115620001fa576000816000905550600101620001e0565b5090565b600060028204905060018216806200021757607f821691505b602082108114156200022e576200022d62000234565b5b50919050565b7f4e487b7100000000000000000000000000000000000000000000000000000000600052602260045260246000fd5b61525e80620002736000396000f3fe6080604052600436106101805760003560e01c8063715018a6116100d1578063c634d0321161008a578063e985e9c511610064578063e985e9c514610550578063f242432a1461058d578063f2fde38b146105b6578063f5298aca146105df57610180565b8063c634d032146104e2578063d1df306c146104fe578063e8c61e2b1461052757610180565b8063715018a6146104075780637fdc14011461041e5780638da5cb5b14610449578063a22cb46514610474578063ab3f22091461049d578063b622a65e146104c657610180565b80632eb2c2d61161013e5780634e1273f4116101185780634e1273f41461034f578063558a9ee41461038c5780636447c35d146103b55780636b20c454146103de57610180565b80632eb2c2d6146102cb578063393b4508146102f45780633ccfd60b1461033857610180565b8062fdd58e1461018557806301338f31146101c257806301ffc9a7146101eb57806302fe5305146102285780630e89341c146102515780632848aeaf1461028e575b600080fd5b34801561019157600080fd5b506101ac60048036038101906101a79190613ac2565b610608565b6040516101b9919061462d565b60405180910390f35b3480156101ce57600080fd5b506101e960048036038101906101e49190613854565b6106d1565b005b3480156101f757600080fd5b50610212600480360381019061020d9190613bfe565b6107a9565b60405161021f9190614350565b60405180910390f35b34801561023457600080fd5b5061024f600480360381019061024a9190613c50565b61088b565b005b34801561025d57600080fd5b5061027860048036038101906102739190613c91565b610913565b604051610285919061436b565b60405180910390f35b34801561029a57600080fd5b506102b560048036038101906102b09190613854565b6109a7565b6040516102c291906146ef565b60405180910390f35b3480156102d757600080fd5b506102f260048036038101906102ed91906138b9565b6109c7565b005b34801561030057600080fd5b5061031b60048036038101906103169190613c91565b610a68565b60405161032f989796959493929190614671565b60405180910390f35b34801561034457600080fd5b5061034d610ae7565b005b34801561035b57600080fd5b5061037660048036038101906103719190613b92565b610c18565b60405161038391906142f7565b60405180910390f35b34801561039857600080fd5b506103b360048036038101906103ae9190613d09565b610dc9565b005b3480156103c157600080fd5b506103dc60048036038101906103d79190613b4d565b610e8e565b005b3480156103ea57600080fd5b5061040560048036038101906104009190613a07565b610ff1565b005b34801561041357600080fd5b5061041c61108e565b005b34801561042a57600080fd5b50610433611116565b604051610440919061462d565b60405180910390f35b34801561045557600080fd5b5061045e611123565b60405161046b91906141f1565b60405180910390f35b34801561048057600080fd5b5061049b60048036038101906104969190613a86565b61114d565b005b3480156104a957600080fd5b506104c460048036038101906104bf9190613afe565b611163565b005b6104e060048036038101906104db9190613c91565b611262565b005b6104fc60048036038101906104f79190613c91565b6117b8565b005b34801561050a57600080fd5b5061052560048036038101906105209190613ac2565b611c07565b005b34801561053357600080fd5b5061054e60048036038101906105499190613cba565b611cb3565b005b34801561055c57600080fd5b506105776004803603810190610572919061387d565b611e38565b6040516105849190614350565b60405180910390f35b34801561059957600080fd5b506105b460048036038101906105af9190613978565b611ecc565b005b3480156105c257600080fd5b506105dd60048036038101906105d89190613854565b611f6d565b005b3480156105eb57600080fd5b5061060660048036038101906106019190613afe565b612065565b005b60008073ffffffffffffffffffffffffffffffffffffffff168373ffffffffffffffffffffffffffffffffffffffff161415610679576040517f08c379a0000000000000000000000000000000000000000000000000000000008152600401610670906143cd565b60405180910390fd5b60008083815260200190815260200160002060008473ffffffffffffffffffffffffffffffffffffffff1673ffffffffffffffffffffffffffffffffffffffff16815260200190815260200160002054905092915050565b6106d9612102565b73ffffffffffffffffffffffffffffffffffffffff166106f7611123565b73ffffffffffffffffffffffffffffffffffffffff161461074d576040517f08c379a0000000000000000000000000000000000000000000000000000000008152600401610744906144ed565b60405180910390fd5b6000600560008373ffffffffffffffffffffffffffffffffffffffff1673ffffffffffffffffffffffffffffffffffffffff16815260200190815260200160002060006101000a81548160ff021916908360ff16021790555050565b60007fd9b67a26000000000000000000000000000000000000000000000000000000007bffffffffffffffffffffffffffffffffffffffffffffffffffffffff1916827bffffffffffffffffffffffffffffffffffffffffffffffffffffffff1916148061087457507f0e89341c000000000000000000000000000000000000000000000000000000007bffffffffffffffffffffffffffffffffffffffffffffffffffffffff1916827bffffffffffffffffffffffffffffffffffffffffffffffffffffffff1916145b8061088457506108838261210a565b5b9050919050565b610893612102565b73ffffffffffffffffffffffffffffffffffffffff166108b1611123565b73ffffffffffffffffffffffffffffffffffffffff1614610907576040517f08c379a00000000000000000000000000000000000000000000000000000000081526004016108fe906144ed565b60405180910390fd5b61091081612174565b50565b606060028054610922906149e9565b80601f016020809104026020016040519081016040528092919081815260200182805461094e906149e9565b801561099b5780601f106109705761010080835404028352916020019161099b565b820191906000526020600020905b81548152906001019060200180831161097e57829003601f168201915b50505050509050919050565b60056020528060005260406000206000915054906101000a900460ff1681565b6109cf612102565b73ffffffffffffffffffffffffffffffffffffffff168573ffffffffffffffffffffffffffffffffffffffff161480610a155750610a1485610a0f612102565b611e38565b5b610a54576040517f08c379a0000000000000000000000000000000000000000000000000000000008152600401610a4b9061448d565b60405180910390fd5b610a61858585858561218e565b5050505050565b60048181548110610a7857600080fd5b90600052602060002090600602016000915090508060000154908060010154908060020154908060030154908060040154908060050160009054906101000a900460ff16908060050160019054906101000a900460ff16908060050160029054906101000a900460ff16905088565b610aef612102565b73ffffffffffffffffffffffffffffffffffffffff16610b0d611123565b73ffffffffffffffffffffffffffffffffffffffff1614610b63576040517f08c379a0000000000000000000000000000000000000000000000000000000008152600401610b5a906144ed565b60405180910390fd5b600047905060003373ffffffffffffffffffffffffffffffffffffffff1682604051610b8e906141dc565b60006040518083038185875af1925050503d8060008114610bcb576040519150601f19603f3d011682016040523d82523d6000602084013e610bd0565b606091505b5050905080610c14576040517f08c379a0000000000000000000000000000000000000000000000000000000008152600401610c0b9061452d565b60405180910390fd5b5050565b60608151835114610c5e576040517f08c379a0000000000000000000000000000000000000000000000000000000008152600401610c55906145cd565b60405180910390fd5b6000835167ffffffffffffffff811115610ca1577f4e487b7100000000000000000000000000000000000000000000000000000000600052604160045260246000fd5b604051908082528060200260200182016040528015610ccf5781602001602082028036833780820191505090505b50905060005b8451811015610dbe57610d68858281518110610d1a577f4e487b7100000000000000000000000000000000000000000000000000000000600052603260045260246000fd5b6020026020010151858381518110610d5b577f4e487b7100000000000000000000000000000000000000000000000000000000600052603260045260246000fd5b6020026020010151610608565b828281518110610da1577f4e487b7100000000000000000000000000000000000000000000000000000000600052603260045260246000fd5b60200260200101818152505080610db790614a4c565b9050610cd5565b508091505092915050565b600060048881548110610e05577f4e487b7100000000000000000000000000000000000000000000000000000000600052603260045260246000fd5b90600052602060002090600602019050868160020181905550858160030181905550848160040181905550838160050160006101000a81548160ff021916908315150217905550828160050160016101000a81548160ff021916908315150217905550818160050160026101000a81548160ff0219169083151502179055505050505050505050565b610e96612102565b73ffffffffffffffffffffffffffffffffffffffff16610eb4611123565b73ffffffffffffffffffffffffffffffffffffffff1614610f0a576040517f08c379a0000000000000000000000000000000000000000000000000000000008152600401610f01906144ed565b60405180910390fd5b60005b82829050811015610fec57600160056000858585818110610f57577f4e487b7100000000000000000000000000000000000000000000000000000000600052603260045260246000fd5b9050602002016020810190610f6c9190613854565b73ffffffffffffffffffffffffffffffffffffffff1673ffffffffffffffffffffffffffffffffffffffff16815260200190815260200160002060008282829054906101000a900460ff16610fc191906148bb565b92506101000a81548160ff021916908360ff1602179055508080610fe490614a4c565b915050610f0d565b505050565b610ff9612102565b73ffffffffffffffffffffffffffffffffffffffff168373ffffffffffffffffffffffffffffffffffffffff16148061103f575061103e83611039612102565b611e38565b5b61107e576040517f08c379a00000000000000000000000000000000000000000000000000000000081526004016110759061442d565b60405180910390fd5b6110898383836124ee565b505050565b611096612102565b73ffffffffffffffffffffffffffffffffffffffff166110b4611123565b73ffffffffffffffffffffffffffffffffffffffff161461110a576040517f08c379a0000000000000000000000000000000000000000000000000000000008152600401611101906144ed565b60405180910390fd5b61111460006127eb565b565b6000600480549050905090565b6000600360009054906101000a900473ffffffffffffffffffffffffffffffffffffffff16905090565b61115f611158612102565b83836128b1565b5050565b61116b612102565b73ffffffffffffffffffffffffffffffffffffffff16611189611123565b73ffffffffffffffffffffffffffffffffffffffff16146111df576040517f08c379a00000000000000000000000000000000000000000000000000000000081526004016111d6906144ed565b60405180910390fd5b6111fa83838360405180602001604052806000815250612a1e565b600160048381548110611236577f4e487b7100000000000000000000000000000000000000000000000000000000600052603260045260246000fd5b906000526020600020906006020160000160008282546112569190614865565b92505081905550505050565b6004818154811061129c577f4e487b7100000000000000000000000000000000000000000000000000000000600052603260045260246000fd5b906000526020600020906006020160050160009054906101000a900460ff166112fa576040517f08c379a00000000000000000000000000000000000000000000000000000000081526004016112f19061458d565b60405180910390fd5b60048181548110611334577f4e487b7100000000000000000000000000000000000000000000000000000000600052603260045260246000fd5b906000526020600020906006020160030154341015611388576040517f08c379a000000000000000000000000000000000000000000000000000000000815260040161137f9061450d565b60405180910390fd5b600481815481106113c2577f4e487b7100000000000000000000000000000000000000000000000000000000600052603260045260246000fd5b9060005260206000209060060201600201546004828154811061140e577f4e487b7100000000000000000000000000000000000000000000000000000000600052603260045260246000fd5b9060005260206000209060060201600001541115611461576040517f08c379a00000000000000000000000000000000000000000000000000000000081526004016114589061454d565b60405180910390fd5b6001600560003373ffffffffffffffffffffffffffffffffffffffff1673ffffffffffffffffffffffffffffffffffffffff16815260200190815260200160002060009054906101000a900460ff1660ff1610156114f4576040517f08c379a00000000000000000000000000000000000000000000000000000000081526004016114eb9061444d565b60405180910390fd5b6115103382600160405180602001604052806000815250612a1e565b6001600560003373ffffffffffffffffffffffffffffffffffffffff1673ffffffffffffffffffffffffffffffffffffffff16815260200190815260200160002060008282829054906101000a900460ff1661156c91906148f2565b92506101000a81548160ff021916908360ff160217905550600060056001600484815481106115c4577f4e487b7100000000000000000000000000000000000000000000000000000000600052603260045260246000fd5b9060005260206000209060060201600001546115e09190614865565b6115ea9190614a95565b141561169e576004818154811061162a577f4e487b7100000000000000000000000000000000000000000000000000000000600052603260045260246000fd5b90600052602060002090600602016004015460048281548110611676577f4e487b7100000000000000000000000000000000000000000000000000000000600052603260045260246000fd5b906000526020600020906006020160030160008282546116969190614865565b925050819055505b6001600482815481106116da577f4e487b7100000000000000000000000000000000000000000000000000000000600052603260045260246000fd5b906000526020600020906006020160000160008282546116fa9190614865565b925050819055506004818154811061173b577f4e487b7100000000000000000000000000000000000000000000000000000000600052603260045260246000fd5b906000526020600020906006020160050160029054906101000a900460ff161561177c5761177b3360018060405180602001604052806000815250612a1e565b5b7fef31b38176d40d5e039a10dc804ba178c47478486ce20e46e6e7dcca99fe270533826040516117ad9291906142ce565b60405180910390a150565b600481815481106117f2577f4e487b7100000000000000000000000000000000000000000000000000000000600052603260045260246000fd5b906000526020600020906006020160050160019054906101000a900460ff16611850576040517f08c379a00000000000000000000000000000000000000000000000000000000081526004016118479061456d565b60405180910390fd5b6004818154811061188a577f4e487b7100000000000000000000000000000000000000000000000000000000600052603260045260246000fd5b9060005260206000209060060201600301543410156118de576040517f08c379a00000000000000000000000000000000000000000000000000000000081526004016118d59061450d565b60405180910390fd5b60048181548110611918577f4e487b7100000000000000000000000000000000000000000000000000000000600052603260045260246000fd5b90600052602060002090600602016002015460048281548110611964577f4e487b7100000000000000000000000000000000000000000000000000000000600052603260045260246000fd5b90600052602060002090600602016000015411156119b7576040517f08c379a00000000000000000000000000000000000000000000000000000000081526004016119ae9061454d565b60405180910390fd5b6119d33382600160405180602001604052806000815250612a1e565b60006005600160048481548110611a13577f4e487b7100000000000000000000000000000000000000000000000000000000600052603260045260246000fd5b906000526020600020906006020160000154611a2f9190614865565b611a399190614a95565b1415611aed5760048181548110611a79577f4e487b7100000000000000000000000000000000000000000000000000000000600052603260045260246000fd5b90600052602060002090600602016004015460048281548110611ac5577f4e487b7100000000000000000000000000000000000000000000000000000000600052603260045260246000fd5b90600052602060002090600602016003016000828254611ae59190614865565b925050819055505b600160048281548110611b29577f4e487b7100000000000000000000000000000000000000000000000000000000600052603260045260246000fd5b90600052602060002090600602016000016000828254611b499190614865565b9250508190555060048181548110611b8a577f4e487b7100000000000000000000000000000000000000000000000000000000600052603260045260246000fd5b906000526020600020906006020160050160029054906101000a900460ff1615611bcb57611bca3360018060405180602001604052806000815250612a1e565b5b7fef31b38176d40d5e039a10dc804ba178c47478486ce20e46e6e7dcca99fe27053382604051611bfc9291906142ce565b60405180910390a150565b611c1382826001612065565b600160048281548110611c4f577f4e487b7100000000000000000000000000000000000000000000000000000000600052603260045260246000fd5b90600052602060002090600602016001016000828254611c6f9190614865565b925050819055507f50b71add01f85c822c32b69b20290a8fb2a972a7e632a5f0fe09a4163de8f7d78282604051611ca79291906142ce565b60405180910390a15050565b611cbb612102565b73ffffffffffffffffffffffffffffffffffffffff16611cd9611123565b73ffffffffffffffffffffffffffffffffffffffff1614611d2f576040517f08c379a0000000000000000000000000000000000000000000000000000000008152600401611d26906144ed565b60405180910390fd5b60046040518061010001604052806000815260200160008152602001858152602001848152602001838152602001600015158152602001600015158152602001600015158152509080600181540180825580915050600190039060005260206000209060060201600090919091909150600082015181600001556020820151816001015560408201518160020155606082015181600301556080820151816004015560a08201518160050160006101000a81548160ff02191690831515021790555060c08201518160050160016101000a81548160ff02191690831515021790555060e08201518160050160026101000a81548160ff0219169083151502179055505050505050565b6000600160008473ffffffffffffffffffffffffffffffffffffffff1673ffffffffffffffffffffffffffffffffffffffff16815260200190815260200160002060008373ffffffffffffffffffffffffffffffffffffffff1673ffffffffffffffffffffffffffffffffffffffff16815260200190815260200160002060009054906101000a900460ff16905092915050565b611ed4612102565b73ffffffffffffffffffffffffffffffffffffffff168573ffffffffffffffffffffffffffffffffffffffff161480611f1a5750611f1985611f14612102565b611e38565b5b611f59576040517f08c379a0000000000000000000000000000000000000000000000000000000008152600401611f509061442d565b60405180910390fd5b611f668585858585612bb4565b5050505050565b611f75612102565b73ffffffffffffffffffffffffffffffffffffffff16611f93611123565b73ffffffffffffffffffffffffffffffffffffffff1614611fe9576040517f08c379a0000000000000000000000000000000000000000000000000000000008152600401611fe0906144ed565b60405180910390fd5b600073ffffffffffffffffffffffffffffffffffffffff168173ffffffffffffffffffffffffffffffffffffffff161415612059576040517f08c379a0000000000000000000000000000000000000000000000000000000008152600401612050906143ed565b60405180910390fd5b612062816127eb565b50565b61206d612102565b73ffffffffffffffffffffffffffffffffffffffff168373ffffffffffffffffffffffffffffffffffffffff1614806120b357506120b2836120ad612102565b611e38565b5b6120f2576040517f08c379a00000000000000000000000000000000000000000000000000000000081526004016120e99061442d565b60405180910390fd5b6120fd838383612e36565b505050565b600033905090565b60007f01ffc9a7000000000000000000000000000000000000000000000000000000007bffffffffffffffffffffffffffffffffffffffffffffffffffffffff1916827bffffffffffffffffffffffffffffffffffffffffffffffffffffffff1916149050919050565b806002908051906020019061218a929190613502565b5050565b81518351146121d2576040517f08c379a00000000000000000000000000000000000000000000000000000000081526004016121c9906145ed565b60405180910390fd5b600073ffffffffffffffffffffffffffffffffffffffff168473ffffffffffffffffffffffffffffffffffffffff161415612242576040517f08c379a00000000000000000000000000000000000000000000000000000000081526004016122399061446d565b60405180910390fd5b600061224c612102565b905061225c818787878787613053565b60005b84518110156124595760008582815181106122a3577f4e487b7100000000000000000000000000000000000000000000000000000000600052603260045260246000fd5b6020026020010151905060008583815181106122e8577f4e487b7100000000000000000000000000000000000000000000000000000000600052603260045260246000fd5b60200260200101519050600080600084815260200190815260200160002060008b73ffffffffffffffffffffffffffffffffffffffff1673ffffffffffffffffffffffffffffffffffffffff16815260200190815260200160002054905081811015612389576040517f08c379a0000000000000000000000000000000000000000000000000000000008152600401612380906144cd565b60405180910390fd5b81810360008085815260200190815260200160002060008c73ffffffffffffffffffffffffffffffffffffffff1673ffffffffffffffffffffffffffffffffffffffff168152602001908152602001600020819055508160008085815260200190815260200160002060008b73ffffffffffffffffffffffffffffffffffffffff1673ffffffffffffffffffffffffffffffffffffffff168152602001908152602001600020600082825461243e9190614865565b925050819055505050508061245290614a4c565b905061225f565b508473ffffffffffffffffffffffffffffffffffffffff168673ffffffffffffffffffffffffffffffffffffffff168273ffffffffffffffffffffffffffffffffffffffff167f4a39dc06d4c0dbc64b70af90fd698a233a518aa5d07e595d983b8c0526c8f7fb87876040516124d0929190614319565b60405180910390a46124e681878787878761305b565b505050505050565b600073ffffffffffffffffffffffffffffffffffffffff168373ffffffffffffffffffffffffffffffffffffffff16141561255e576040517f08c379a0000000000000000000000000000000000000000000000000000000008152600401612555906144ad565b60405180910390fd5b80518251146125a2576040517f08c379a0000000000000000000000000000000000000000000000000000000008152600401612599906145ed565b60405180910390fd5b60006125ac612102565b90506125cc81856000868660405180602001604052806000815250613053565b60005b8351811015612765576000848281518110612613577f4e487b7100000000000000000000000000000000000000000000000000000000600052603260045260246000fd5b602002602001015190506000848381518110612658577f4e487b7100000000000000000000000000000000000000000000000000000000600052603260045260246000fd5b60200260200101519050600080600084815260200190815260200160002060008973ffffffffffffffffffffffffffffffffffffffff1673ffffffffffffffffffffffffffffffffffffffff168152602001908152602001600020549050818110156126f9576040517f08c379a00000000000000000000000000000000000000000000000000000000081526004016126f09061440d565b60405180910390fd5b81810360008085815260200190815260200160002060008a73ffffffffffffffffffffffffffffffffffffffff1673ffffffffffffffffffffffffffffffffffffffff16815260200190815260200160002081905550505050808061275d90614a4c565b9150506125cf565b50600073ffffffffffffffffffffffffffffffffffffffff168473ffffffffffffffffffffffffffffffffffffffff168273ffffffffffffffffffffffffffffffffffffffff167f4a39dc06d4c0dbc64b70af90fd698a233a518aa5d07e595d983b8c0526c8f7fb86866040516127dd929190614319565b60405180910390a450505050565b6000600360009054906101000a900473ffffffffffffffffffffffffffffffffffffffff16905081600360006101000a81548173ffffffffffffffffffffffffffffffffffffffff021916908373ffffffffffffffffffffffffffffffffffffffff1602179055508173ffffffffffffffffffffffffffffffffffffffff168173ffffffffffffffffffffffffffffffffffffffff167f8be0079c531659141344cd1fd0a4f28419497f9722a3daafe3b4186f6b6457e060405160405180910390a35050565b8173ffffffffffffffffffffffffffffffffffffffff168373ffffffffffffffffffffffffffffffffffffffff161415612920576040517f08c379a0000000000000000000000000000000000000000000000000000000008152600401612917906145ad565b60405180910390fd5b80600160008573ffffffffffffffffffffffffffffffffffffffff1673ffffffffffffffffffffffffffffffffffffffff16815260200190815260200160002060008473ffffffffffffffffffffffffffffffffffffffff1673ffffffffffffffffffffffffffffffffffffffff16815260200190815260200160002060006101000a81548160ff0219169083151502179055508173ffffffffffffffffffffffffffffffffffffffff168373ffffffffffffffffffffffffffffffffffffffff167f17307eab39ab6107e8899845ad3d59bd9653f200f220920489ca2b5937696c3183604051612a119190614350565b60405180910390a3505050565b600073ffffffffffffffffffffffffffffffffffffffff168473ffffffffffffffffffffffffffffffffffffffff161415612a8e576040517f08c379a0000000000000000000000000000000000000000000000000000000008152600401612a859061460d565b60405180910390fd5b6000612a98612102565b9050612ab981600087612aaa88613242565b612ab388613242565b87613053565b8260008086815260200190815260200160002060008773ffffffffffffffffffffffffffffffffffffffff1673ffffffffffffffffffffffffffffffffffffffff1681526020019081526020016000206000828254612b189190614865565b925050819055508473ffffffffffffffffffffffffffffffffffffffff16600073ffffffffffffffffffffffffffffffffffffffff168273ffffffffffffffffffffffffffffffffffffffff167fc3d58168c5ae7397731d063d5bbf3d657854427343f4c083240f7aacaa2d0f628787604051612b96929190614648565b60405180910390a4612bad81600087878787613308565b5050505050565b600073ffffffffffffffffffffffffffffffffffffffff168473ffffffffffffffffffffffffffffffffffffffff161415612c24576040517f08c379a0000000000000000000000000000000000000000000000000000000008152600401612c1b9061446d565b60405180910390fd5b6000612c2e612102565b9050612c4e818787612c3f88613242565b612c4888613242565b87613053565b600080600086815260200190815260200160002060008873ffffffffffffffffffffffffffffffffffffffff1673ffffffffffffffffffffffffffffffffffffffff16815260200190815260200160002054905083811015612ce5576040517f08c379a0000000000000000000000000000000000000000000000000000000008152600401612cdc906144cd565b60405180910390fd5b83810360008087815260200190815260200160002060008973ffffffffffffffffffffffffffffffffffffffff1673ffffffffffffffffffffffffffffffffffffffff168152602001908152602001600020819055508360008087815260200190815260200160002060008873ffffffffffffffffffffffffffffffffffffffff1673ffffffffffffffffffffffffffffffffffffffff1681526020019081526020016000206000828254612d9a9190614865565b925050819055508573ffffffffffffffffffffffffffffffffffffffff168773ffffffffffffffffffffffffffffffffffffffff168373ffffffffffffffffffffffffffffffffffffffff167fc3d58168c5ae7397731d063d5bbf3d657854427343f4c083240f7aacaa2d0f628888604051612e17929190614648565b60405180910390a4612e2d828888888888613308565b50505050505050565b600073ffffffffffffffffffffffffffffffffffffffff168373ffffffffffffffffffffffffffffffffffffffff161415612ea6576040517f08c379a0000000000000000000000000000000000000000000000000000000008152600401612e9d906144ad565b60405180910390fd5b6000612eb0612102565b9050612ee081856000612ec287613242565b612ecb87613242565b60405180602001604052806000815250613053565b600080600085815260200190815260200160002060008673ffffffffffffffffffffffffffffffffffffffff1673ffffffffffffffffffffffffffffffffffffffff16815260200190815260200160002054905082811015612f77576040517f08c379a0000000000000000000000000000000000000000000000000000000008152600401612f6e9061440d565b60405180910390fd5b82810360008086815260200190815260200160002060008773ffffffffffffffffffffffffffffffffffffffff1673ffffffffffffffffffffffffffffffffffffffff16815260200190815260200160002081905550600073ffffffffffffffffffffffffffffffffffffffff168573ffffffffffffffffffffffffffffffffffffffff168373ffffffffffffffffffffffffffffffffffffffff167fc3d58168c5ae7397731d063d5bbf3d657854427343f4c083240f7aacaa2d0f628787604051613044929190614648565b60405180910390a45050505050565b505050505050565b61307a8473ffffffffffffffffffffffffffffffffffffffff166134ef565b1561323a578373ffffffffffffffffffffffffffffffffffffffff1663bc197c8187878686866040518663ffffffff1660e01b81526004016130c095949392919061420c565b602060405180830381600087803b1580156130da57600080fd5b505af192505050801561310b57506040513d601f19601f820116820180604052508101906131089190613c27565b60015b6131b157613117614b82565b806308c379a01415613174575061312c615136565b806131375750613176565b806040517f08c379a000000000000000000000000000000000000000000000000000000000815260040161316b919061436b565b60405180910390fd5b505b6040517f08c379a00000000000000000000000000000000000000000000000000000000081526004016131a89061438d565b60405180910390fd5b63bc197c8160e01b7bffffffffffffffffffffffffffffffffffffffffffffffffffffffff1916817bffffffffffffffffffffffffffffffffffffffffffffffffffffffff191614613238576040517f08c379a000000000000000000000000000000000000000000000000000000000815260040161322f906143ad565b60405180910390fd5b505b505050505050565b60606000600167ffffffffffffffff811115613287577f4e487b7100000000000000000000000000000000000000000000000000000000600052604160045260246000fd5b6040519080825280602002602001820160405280156132b55781602001602082028036833780820191505090505b50905082816000815181106132f3577f4e487b7100000000000000000000000000000000000000000000000000000000600052603260045260246000fd5b60200260200101818152505080915050919050565b6133278473ffffffffffffffffffffffffffffffffffffffff166134ef565b156134e7578373ffffffffffffffffffffffffffffffffffffffff1663f23a6e6187878686866040518663ffffffff1660e01b815260040161336d959493929190614274565b602060405180830381600087803b15801561338757600080fd5b505af19250505080156133b857506040513d601f19601f820116820180604052508101906133b59190613c27565b60015b61345e576133c4614b82565b806308c379a0141561342157506133d9615136565b806133e45750613423565b806040517f08c379a0000000000000000000000000000000000000000000000000000000008152600401613418919061436b565b60405180910390fd5b505b6040517f08c379a00000000000000000000000000000000000000000000000000000000081526004016134559061438d565b60405180910390fd5b63f23a6e6160e01b7bffffffffffffffffffffffffffffffffffffffffffffffffffffffff1916817bffffffffffffffffffffffffffffffffffffffffffffffffffffffff1916146134e5576040517f08c379a00000000000000000000000000000000000000000000000000000000081526004016134dc906143ad565b60405180910390fd5b505b505050505050565b600080823b905060008111915050919050565b82805461350e906149e9565b90600052602060002090601f0160209004810192826135305760008555613577565b82601f1061354957805160ff1916838001178555613577565b82800160010185558215613577579182015b8281111561357657825182559160200191906001019061355b565b5b5090506135849190613588565b5090565b5b808211156135a1576000816000905550600101613589565b5090565b60006135b86135b38461472f565b61470a565b905080838252602082019050828560208602820111156135d757600080fd5b60005b8581101561360757816135ed88826136f9565b8452602084019350602083019250506001810190506135da565b5050509392505050565b600061362461361f8461475b565b61470a565b9050808382526020820190508285602086028201111561364357600080fd5b60005b858110156136735781613659888261383f565b845260208401935060208301925050600181019050613646565b5050509392505050565b600061369061368b84614787565b61470a565b9050828152602081018484840111156136a857600080fd5b6136b38482856149a7565b509392505050565b60006136ce6136c9846147b8565b61470a565b9050828152602081018484840111156136e657600080fd5b6136f18482856149a7565b509392505050565b600081359050613708816151cc565b92915050565b60008083601f84011261372057600080fd5b8235905067ffffffffffffffff81111561373957600080fd5b60208301915083602082028301111561375157600080fd5b9250929050565b600082601f83011261376957600080fd5b81356137798482602086016135a5565b91505092915050565b600082601f83011261379357600080fd5b81356137a3848260208601613611565b91505092915050565b6000813590506137bb816151e3565b92915050565b6000813590506137d0816151fa565b92915050565b6000815190506137e5816151fa565b92915050565b600082601f8301126137fc57600080fd5b813561380c84826020860161367d565b91505092915050565b600082601f83011261382657600080fd5b81356138368482602086016136bb565b91505092915050565b60008135905061384e81615211565b92915050565b60006020828403121561386657600080fd5b6000613874848285016136f9565b91505092915050565b6000806040838503121561389057600080fd5b600061389e858286016136f9565b92505060206138af858286016136f9565b9150509250929050565b600080600080600060a086880312156138d157600080fd5b60006138df888289016136f9565b95505060206138f0888289016136f9565b945050604086013567ffffffffffffffff81111561390d57600080fd5b61391988828901613782565b935050606086013567ffffffffffffffff81111561393657600080fd5b61394288828901613782565b925050608086013567ffffffffffffffff81111561395f57600080fd5b61396b888289016137eb565b9150509295509295909350565b600080600080600060a0868803121561399057600080fd5b600061399e888289016136f9565b95505060206139af888289016136f9565b94505060406139c08882890161383f565b93505060606139d18882890161383f565b925050608086013567ffffffffffffffff8111156139ee57600080fd5b6139fa888289016137eb565b9150509295509295909350565b600080600060608486031215613a1c57600080fd5b6000613a2a868287016136f9565b935050602084013567ffffffffffffffff811115613a4757600080fd5b613a5386828701613782565b925050604084013567ffffffffffffffff811115613a7057600080fd5b613a7c86828701613782565b9150509250925092565b60008060408385031215613a9957600080fd5b6000613aa7858286016136f9565b9250506020613ab8858286016137ac565b9150509250929050565b60008060408385031215613ad557600080fd5b6000613ae3858286016136f9565b9250506020613af48582860161383f565b9150509250929050565b600080600060608486031215613b1357600080fd5b6000613b21868287016136f9565b9350506020613b328682870161383f565b9250506040613b438682870161383f565b9150509250925092565b60008060208385031215613b6057600080fd5b600083013567ffffffffffffffff811115613b7a57600080fd5b613b868582860161370e565b92509250509250929050565b60008060408385031215613ba557600080fd5b600083013567ffffffffffffffff811115613bbf57600080fd5b613bcb85828601613758565b925050602083013567ffffffffffffffff811115613be857600080fd5b613bf485828601613782565b9150509250929050565b600060208284031215613c1057600080fd5b6000613c1e848285016137c1565b91505092915050565b600060208284031215613c3957600080fd5b6000613c47848285016137d6565b91505092915050565b600060208284031215613c6257600080fd5b600082013567ffffffffffffffff811115613c7c57600080fd5b613c8884828501613815565b91505092915050565b600060208284031215613ca357600080fd5b6000613cb18482850161383f565b91505092915050565b600080600060608486031215613ccf57600080fd5b6000613cdd8682870161383f565b9350506020613cee8682870161383f565b9250506040613cff8682870161383f565b9150509250925092565b600080600080600080600060e0888a031215613d2457600080fd5b6000613d328a828b0161383f565b9750506020613d438a828b0161383f565b9650506040613d548a828b0161383f565b9550506060613d658a828b0161383f565b9450506080613d768a828b016137ac565b93505060a0613d878a828b016137ac565b92505060c0613d988a828b016137ac565b91505092959891949750929550565b6000613db383836141af565b60208301905092915050565b613dc881614926565b82525050565b6000613dd9826147f9565b613de38185614827565b9350613dee836147e9565b8060005b83811015613e1f578151613e068882613da7565b9750613e118361481a565b925050600181019050613df2565b5085935050505092915050565b613e3581614938565b82525050565b6000613e4682614804565b613e508185614838565b9350613e608185602086016149b6565b613e6981614ba4565b840191505092915050565b6000613e7f8261480f565b613e898185614854565b9350613e998185602086016149b6565b613ea281614ba4565b840191505092915050565b6000613eba603483614854565b9150613ec582614bc2565b604082019050919050565b6000613edd602883614854565b9150613ee882614c11565b604082019050919050565b6000613f00602b83614854565b9150613f0b82614c60565b604082019050919050565b6000613f23602683614854565b9150613f2e82614caf565b604082019050919050565b6000613f46602483614854565b9150613f5182614cfe565b604082019050919050565b6000613f69602983614854565b9150613f7482614d4d565b604082019050919050565b6000613f8c601883614854565b9150613f9782614d9c565b602082019050919050565b6000613faf602583614854565b9150613fba82614dc5565b604082019050919050565b6000613fd2603283614854565b9150613fdd82614e14565b604082019050919050565b6000613ff5602383614854565b915061400082614e63565b604082019050919050565b6000614018602a83614854565b915061402382614eb2565b604082019050919050565b600061403b602083614854565b915061404682614f01565b602082019050919050565b600061405e601383614854565b915061406982614f2a565b602082019050919050565b6000614081601983614854565b915061408c82614f53565b602082019050919050565b60006140a4600083614849565b91506140af82614f7c565b600082019050919050565b60006140c7600883614854565b91506140d282614f7f565b602082019050919050565b60006140ea601483614854565b91506140f582614fa8565b602082019050919050565b600061410d601283614854565b915061411882614fd1565b602082019050919050565b6000614130602983614854565b915061413b82614ffa565b604082019050919050565b6000614153602983614854565b915061415e82615049565b604082019050919050565b6000614176602883614854565b915061418182615098565b604082019050919050565b6000614199602183614854565b91506141a4826150e7565b604082019050919050565b6141b881614990565b82525050565b6141c781614990565b82525050565b6141d68161499a565b82525050565b60006141e782614097565b9150819050919050565b60006020820190506142066000830184613dbf565b92915050565b600060a0820190506142216000830188613dbf565b61422e6020830187613dbf565b81810360408301526142408186613dce565b905081810360608301526142548185613dce565b905081810360808301526142688184613e3b565b90509695505050505050565b600060a0820190506142896000830188613dbf565b6142966020830187613dbf565b6142a360408301866141be565b6142b060608301856141be565b81810360808301526142c28184613e3b565b90509695505050505050565b60006040820190506142e36000830185613dbf565b6142f060208301846141be565b9392505050565b600060208201905081810360008301526143118184613dce565b905092915050565b600060408201905081810360008301526143338185613dce565b905081810360208301526143478184613dce565b90509392505050565b60006020820190506143656000830184613e2c565b92915050565b600060208201905081810360008301526143858184613e74565b905092915050565b600060208201905081810360008301526143a681613ead565b9050919050565b600060208201905081810360008301526143c681613ed0565b9050919050565b600060208201905081810360008301526143e681613ef3565b9050919050565b6000602082019050818103600083015261440681613f16565b9050919050565b6000602082019050818103600083015261442681613f39565b9050919050565b6000602082019050818103600083015261444681613f5c565b9050919050565b6000602082019050818103600083015261446681613f7f565b9050919050565b6000602082019050818103600083015261448681613fa2565b9050919050565b600060208201905081810360008301526144a681613fc5565b9050919050565b600060208201905081810360008301526144c681613fe8565b9050919050565b600060208201905081810360008301526144e68161400b565b9050919050565b600060208201905081810360008301526145068161402e565b9050919050565b6000602082019050818103600083015261452681614051565b9050919050565b6000602082019050818103600083015261454681614074565b9050919050565b60006020820190508181036000830152614566816140ba565b9050919050565b60006020820190508181036000830152614586816140dd565b9050919050565b600060208201905081810360008301526145a681614100565b9050919050565b600060208201905081810360008301526145c681614123565b9050919050565b600060208201905081810360008301526145e681614146565b9050919050565b6000602082019050818103600083015261460681614169565b9050919050565b600060208201905081810360008301526146268161418c565b9050919050565b600060208201905061464260008301846141be565b92915050565b600060408201905061465d60008301856141be565b61466a60208301846141be565b9392505050565b600061010082019050614687600083018b6141be565b614694602083018a6141be565b6146a160408301896141be565b6146ae60608301886141be565b6146bb60808301876141be565b6146c860a0830186613e2c565b6146d560c0830185613e2c565b6146e260e0830184613e2c565b9998505050505050505050565b600060208201905061470460008301846141cd565b92915050565b6000614714614725565b90506147208282614a1b565b919050565b6000604051905090565b600067ffffffffffffffff82111561474a57614749614b53565b5b602082029050602081019050919050565b600067ffffffffffffffff82111561477657614775614b53565b5b602082029050602081019050919050565b600067ffffffffffffffff8211156147a2576147a1614b53565b5b6147ab82614ba4565b9050602081019050919050565b600067ffffffffffffffff8211156147d3576147d2614b53565b5b6147dc82614ba4565b9050602081019050919050565b6000819050602082019050919050565b600081519050919050565b600081519050919050565b600081519050919050565b6000602082019050919050565b600082825260208201905092915050565b600082825260208201905092915050565b600081905092915050565b600082825260208201905092915050565b600061487082614990565b915061487b83614990565b9250827fffffffffffffffffffffffffffffffffffffffffffffffffffffffffffffffff038211156148b0576148af614ac6565b5b828201905092915050565b60006148c68261499a565b91506148d18361499a565b92508260ff038211156148e7576148e6614ac6565b5b828201905092915050565b60006148fd8261499a565b91506149088361499a565b92508282101561491b5761491a614ac6565b5b828203905092915050565b600061493182614970565b9050919050565b60008115159050919050565b60007fffffffff0000000000000000000000000000000000000000000000000000000082169050919050565b600073ffffffffffffffffffffffffffffffffffffffff82169050919050565b6000819050919050565b600060ff82169050919050565b82818337600083830152505050565b60005b838110156149d45780820151818401526020810190506149b9565b838111156149e3576000848401525b50505050565b60006002820490506001821680614a0157607f821691505b60208210811415614a1557614a14614b24565b5b50919050565b614a2482614ba4565b810181811067ffffffffffffffff82111715614a4357614a42614b53565b5b80604052505050565b6000614a5782614990565b91507fffffffffffffffffffffffffffffffffffffffffffffffffffffffffffffffff821415614a8a57614a89614ac6565b5b600182019050919050565b6000614aa082614990565b9150614aab83614990565b925082614abb57614aba614af5565b5b828206905092915050565b7f4e487b7100000000000000000000000000000000000000000000000000000000600052601160045260246000fd5b7f4e487b7100000000000000000000000000000000000000000000000000000000600052601260045260246000fd5b7f4e487b7100000000000000000000000000000000000000000000000000000000600052602260045260246000fd5b7f4e487b7100000000000000000000000000000000000000000000000000000000600052604160045260246000fd5b600060033d1115614ba15760046000803e614b9e600051614bb5565b90505b90565b6000601f19601f8301169050919050565b60008160e01c9050919050565b7f455243313135353a207472616e7366657220746f206e6f6e204552433131353560008201527f526563656976657220696d706c656d656e746572000000000000000000000000602082015250565b7f455243313135353a204552433131353552656365697665722072656a6563746560008201527f6420746f6b656e73000000000000000000000000000000000000000000000000602082015250565b7f455243313135353a2062616c616e636520717565727920666f7220746865207a60008201527f65726f2061646472657373000000000000000000000000000000000000000000602082015250565b7f4f776e61626c653a206e6577206f776e657220697320746865207a65726f206160008201527f6464726573730000000000000000000000000000000000000000000000000000602082015250565b7f455243313135353a206275726e20616d6f756e7420657863656564732062616c60008201527f616e636500000000000000000000000000000000000000000000000000000000602082015250565b7f455243313135353a2063616c6c6572206973206e6f74206f776e6572206e6f7260008201527f20617070726f7665640000000000000000000000000000000000000000000000602082015250565b7f4e4f20414c4c4f57204c49535420414c4c4f434154494f4e0000000000000000600082015250565b7f455243313135353a207472616e7366657220746f20746865207a65726f20616460008201527f6472657373000000000000000000000000000000000000000000000000000000602082015250565b7f455243313135353a207472616e736665722063616c6c6572206973206e6f742060008201527f6f776e6572206e6f7220617070726f7665640000000000000000000000000000602082015250565b7f455243313135353a206275726e2066726f6d20746865207a65726f206164647260008201527f6573730000000000000000000000000000000000000000000000000000000000602082015250565b7f455243313135353a20696e73756666696369656e742062616c616e636520666f60008201527f72207472616e7366657200000000000000000000000000000000000000000000602082015250565b7f4f776e61626c653a2063616c6c6572206973206e6f7420746865206f776e6572600082015250565b7f4e6f7420656e6f756768204554482073656e7400000000000000000000000000600082015250565b7f4661696c656420746f2077696474686472617720457468657200000000000000600082015250565b50565b7f536f6c64206f7574000000000000000000000000000000000000000000000000600082015250565b7f4d494e54494e47202d20414c4c4f57204f4e4c59000000000000000000000000600082015250565b7f4d494e54494e47202d204e4f54204f50454e0000000000000000000000000000600082015250565b7f455243313135353a2073657474696e6720617070726f76616c2073746174757360008201527f20666f722073656c660000000000000000000000000000000000000000000000602082015250565b7f455243313135353a206163636f756e747320616e6420696473206c656e67746860008201527f206d69736d617463680000000000000000000000000000000000000000000000602082015250565b7f455243313135353a2069647320616e6420616d6f756e7473206c656e6774682060008201527f6d69736d61746368000000000000000000000000000000000000000000000000602082015250565b7f455243313135353a206d696e7420746f20746865207a65726f2061646472657360008201527f7300000000000000000000000000000000000000000000000000000000000000602082015250565b600060443d1015615146576151c9565b61514e614725565b60043d036004823e80513d602482011167ffffffffffffffff821117156151765750506151c9565b808201805167ffffffffffffffff81111561519457505050506151c9565b80602083010160043d0385018111156151b15750505050506151c9565b6151c082602001850186614a1b565b82955050505050505b90565b6151d581614926565b81146151e057600080fd5b50565b6151ec81614938565b81146151f757600080fd5b50565b61520381614944565b811461520e57600080fd5b50565b61521a81614990565b811461522557600080fd5b5056fea26469706673582212208a52499a640d489a208e10af2ee7a0530928dac31aeae28504fd740ad6dc906464736f6c6343000804003368747470733a2f2f697066732e696f2f697066732f516d50444c5a686874466b4e7039345059706136334135734b50617834646f67394b33536f3150556a6f713970662f7b69647d2e6a736f6e",
  "linkReferences": {},
  "deployedLinkReferences": {}
}