{
    "_format": "hh-sol-artifact-1",
    "contractName": "GMShop",
    "sourceName": "contracts/GMShop.sol",
    "abi": [
        {
            "inputs": [],
            "stateMutability": "nonpayable",
            "type": "constructor"
        },
        {
            "anonymous": false,
            "inputs": [
                {
                    "indexed": true,
                    "internalType": "address",
                    "name": "account",
                    "type": "address"
                },
                {
                    "indexed": true,
                    "internalType": "address",
                    "name": "operator",
                    "type": "address"
                },
                {
                    "indexed": false,
                    "internalType": "bool",
                    "name": "approved",
                    "type": "bool"
                }
            ],
            "name": "ApprovalForAll",
            "type": "event"
        },
        {
            "anonymous": false,
            "inputs": [
                {
                    "indexed": false,
                    "internalType": "address",
                    "name": "sender",
                    "type": "address"
                },
                {
                    "indexed": false,
                    "internalType": "uint256",
                    "name": "tokenId",
                    "type": "uint256"
                }
            ],
            "name": "GMShopNFTBurned",
            "type": "event"
        },
        {
            "anonymous": false,
            "inputs": [
                {
                    "indexed": false,
                    "internalType": "address",
                    "name": "sender",
                    "type": "address"
                },
                {
                    "indexed": false,
                    "internalType": "uint256",
                    "name": "tokenId",
                    "type": "uint256"
                }
            ],
            "name": "GMShopNFTMinted",
            "type": "event"
        },
        {
            "anonymous": false,
            "inputs": [
                {
                    "indexed": true,
                    "internalType": "address",
                    "name": "previousOwner",
                    "type": "address"
                },
                {
                    "indexed": true,
                    "internalType": "address",
                    "name": "newOwner",
                    "type": "address"
                }
            ],
            "name": "OwnershipTransferred",
            "type": "event"
        },
        {
            "anonymous": false,
            "inputs": [
                {
                    "indexed": true,
                    "internalType": "address",
                    "name": "operator",
                    "type": "address"
                },
                {
                    "indexed": true,
                    "internalType": "address",
                    "name": "from",
                    "type": "address"
                },
                {
                    "indexed": true,
                    "internalType": "address",
                    "name": "to",
                    "type": "address"
                },
                {
                    "indexed": false,
                    "internalType": "uint256[]",
                    "name": "ids",
                    "type": "uint256[]"
                },
                {
                    "indexed": false,
                    "internalType": "uint256[]",
                    "name": "values",
                    "type": "uint256[]"
                }
            ],
            "name": "TransferBatch",
            "type": "event"
        },
        {
            "anonymous": false,
            "inputs": [
                {
                    "indexed": true,
                    "internalType": "address",
                    "name": "operator",
                    "type": "address"
                },
                {
                    "indexed": true,
                    "internalType": "address",
                    "name": "from",
                    "type": "address"
                },
                {
                    "indexed": true,
                    "internalType": "address",
                    "name": "to",
                    "type": "address"
                },
                {
                    "indexed": false,
                    "internalType": "uint256",
                    "name": "id",
                    "type": "uint256"
                },
                {
                    "indexed": false,
                    "internalType": "uint256",
                    "name": "value",
                    "type": "uint256"
                }
            ],
            "name": "TransferSingle",
            "type": "event"
        },
        {
            "anonymous": false,
            "inputs": [
                {
                    "indexed": false,
                    "internalType": "string",
                    "name": "value",
                    "type": "string"
                },
                {
                    "indexed": true,
                    "internalType": "uint256",
                    "name": "id",
                    "type": "uint256"
                }
            ],
            "name": "URI",
            "type": "event"
        },
        {
            "inputs": [],
            "name": "GMPFPAddress",
            "outputs": [
                {
                    "internalType": "address",
                    "name": "",
                    "type": "address"
                }
            ],
            "stateMutability": "view",
            "type": "function"
        },
        {
            "inputs": [
                {
                    "internalType": "address",
                    "name": "account",
                    "type": "address"
                },
                {
                    "internalType": "uint256",
                    "name": "id",
                    "type": "uint256"
                }
            ],
            "name": "balanceOf",
            "outputs": [
                {
                    "internalType": "uint256",
                    "name": "",
                    "type": "uint256"
                }
            ],
            "stateMutability": "view",
            "type": "function"
        },
        {
            "inputs": [
                {
                    "internalType": "address[]",
                    "name": "accounts",
                    "type": "address[]"
                },
                {
                    "internalType": "uint256[]",
                    "name": "ids",
                    "type": "uint256[]"
                }
            ],
            "name": "balanceOfBatch",
            "outputs": [
                {
                    "internalType": "uint256[]",
                    "name": "",
                    "type": "uint256[]"
                }
            ],
            "stateMutability": "view",
            "type": "function"
        },
        {
            "inputs": [
                {
                    "internalType": "address",
                    "name": "account",
                    "type": "address"
                },
                {
                    "internalType": "uint256",
                    "name": "id",
                    "type": "uint256"
                },
                {
                    "internalType": "uint256",
                    "name": "value",
                    "type": "uint256"
                }
            ],
            "name": "burn",
            "outputs": [],
            "stateMutability": "nonpayable",
            "type": "function"
        },
        {
            "inputs": [
                {
                    "internalType": "address",
                    "name": "account",
                    "type": "address"
                },
                {
                    "internalType": "uint256[]",
                    "name": "ids",
                    "type": "uint256[]"
                },
                {
                    "internalType": "uint256[]",
                    "name": "values",
                    "type": "uint256[]"
                }
            ],
            "name": "burnBatch",
            "outputs": [],
            "stateMutability": "nonpayable",
            "type": "function"
        },
        {
            "inputs": [
                {
                    "internalType": "address",
                    "name": "user",
                    "type": "address"
                },
                {
                    "internalType": "uint256",
                    "name": "id",
                    "type": "uint256"
                }
            ],
            "name": "burnToken",
            "outputs": [],
            "stateMutability": "nonpayable",
            "type": "function"
        },
        {
            "inputs": [],
            "name": "getMinted",
            "outputs": [
                {
                    "internalType": "uint256[]",
                    "name": "",
                    "type": "uint256[]"
                }
            ],
            "stateMutability": "view",
            "type": "function"
        },
        {
            "inputs": [
                {
                    "internalType": "address",
                    "name": "account",
                    "type": "address"
                },
                {
                    "internalType": "address",
                    "name": "operator",
                    "type": "address"
                }
            ],
            "name": "isApprovedForAll",
            "outputs": [
                {
                    "internalType": "bool",
                    "name": "",
                    "type": "bool"
                }
            ],
            "stateMutability": "view",
            "type": "function"
        },
        {
            "inputs": [
                {
                    "internalType": "uint256",
                    "name": "id",
                    "type": "uint256"
                }
            ],
            "name": "mint",
            "outputs": [],
            "stateMutability": "payable",
            "type": "function"
        },
        {
            "inputs": [],
            "name": "mintCost",
            "outputs": [
                {
                    "internalType": "uint256",
                    "name": "",
                    "type": "uint256"
                }
            ],
            "stateMutability": "view",
            "type": "function"
        },
        {
            "inputs": [
                {
                    "internalType": "uint256",
                    "name": "",
                    "type": "uint256"
                }
            ],
            "name": "minted",
            "outputs": [
                {
                    "internalType": "uint256",
                    "name": "",
                    "type": "uint256"
                }
            ],
            "stateMutability": "view",
            "type": "function"
        },
        {
            "inputs": [],
            "name": "owner",
            "outputs": [
                {
                    "internalType": "address",
                    "name": "",
                    "type": "address"
                }
            ],
            "stateMutability": "view",
            "type": "function"
        },
        {
            "inputs": [],
            "name": "renounceOwnership",
            "outputs": [],
            "stateMutability": "nonpayable",
            "type": "function"
        },
        {
            "inputs": [
                {
                    "internalType": "address",
                    "name": "from",
                    "type": "address"
                },
                {
                    "internalType": "address",
                    "name": "to",
                    "type": "address"
                },
                {
                    "internalType": "uint256[]",
                    "name": "ids",
                    "type": "uint256[]"
                },
                {
                    "internalType": "uint256[]",
                    "name": "amounts",
                    "type": "uint256[]"
                },
                {
                    "internalType": "bytes",
                    "name": "data",
                    "type": "bytes"
                }
            ],
            "name": "safeBatchTransferFrom",
            "outputs": [],
            "stateMutability": "nonpayable",
            "type": "function"
        },
        {
            "inputs": [
                {
                    "internalType": "address",
                    "name": "from",
                    "type": "address"
                },
                {
                    "internalType": "address",
                    "name": "to",
                    "type": "address"
                },
                {
                    "internalType": "uint256",
                    "name": "id",
                    "type": "uint256"
                },
                {
                    "internalType": "uint256",
                    "name": "amount",
                    "type": "uint256"
                },
                {
                    "internalType": "bytes",
                    "name": "data",
                    "type": "bytes"
                }
            ],
            "name": "safeTransferFrom",
            "outputs": [],
            "stateMutability": "nonpayable",
            "type": "function"
        },
        {
            "inputs": [
                {
                    "internalType": "address",
                    "name": "operator",
                    "type": "address"
                },
                {
                    "internalType": "bool",
                    "name": "approved",
                    "type": "bool"
                }
            ],
            "name": "setApprovalForAll",
            "outputs": [],
            "stateMutability": "nonpayable",
            "type": "function"
        },
        {
            "inputs": [
                {
                    "internalType": "string",
                    "name": "newuri",
                    "type": "string"
                }
            ],
            "name": "setURI",
            "outputs": [],
            "stateMutability": "nonpayable",
            "type": "function"
        },
        {
            "inputs": [
                {
                    "internalType": "uint256",
                    "name": "",
                    "type": "uint256"
                }
            ],
            "name": "supply",
            "outputs": [
                {
                    "internalType": "uint256",
                    "name": "",
                    "type": "uint256"
                }
            ],
            "stateMutability": "view",
            "type": "function"
        },
        {
            "inputs": [
                {
                    "internalType": "bytes4",
                    "name": "interfaceId",
                    "type": "bytes4"
                }
            ],
            "name": "supportsInterface",
            "outputs": [
                {
                    "internalType": "bool",
                    "name": "",
                    "type": "bool"
                }
            ],
            "stateMutability": "view",
            "type": "function"
        },
        {
            "inputs": [
                {
                    "internalType": "address",
                    "name": "newOwner",
                    "type": "address"
                }
            ],
            "name": "transferOwnership",
            "outputs": [],
            "stateMutability": "nonpayable",
            "type": "function"
        },
        {
            "inputs": [
                {
                    "internalType": "uint256",
                    "name": "",
                    "type": "uint256"
                }
            ],
            "name": "uri",
            "outputs": [
                {
                    "internalType": "string",
                    "name": "",
                    "type": "string"
                }
            ],
            "stateMutability": "view",
            "type": "function"
        }
    ],
    "bytecode": "0x6080604052655af3107a40006004556040518060a00160405280600060ff168152602001600060ff168152602001600060ff168152602001600060ff168152602001600060ff1681525060059060056200005b929190620001f4565b506040518060a00160405280600260ff168152602001600260ff168152602001600260ff168152602001600260ff168152602001600260ff168152506006906005620000a9929190620001f4565b50348015620000b757600080fd5b50604051806060016040528060338152602001620044a260339139620000e3816200010a60201b60201c565b5062000104620000f86200012660201b60201c565b6200012e60201b60201c565b62000360565b8060029080519060200190620001229291906200024b565b5050565b600033905090565b6000600360009054906101000a900473ffffffffffffffffffffffffffffffffffffffff16905081600360006101000a81548173ffffffffffffffffffffffffffffffffffffffff021916908373ffffffffffffffffffffffffffffffffffffffff1602179055508173ffffffffffffffffffffffffffffffffffffffff168173ffffffffffffffffffffffffffffffffffffffff167f8be0079c531659141344cd1fd0a4f28419497f9722a3daafe3b4186f6b6457e060405160405180910390a35050565b82805482825590600052602060002090810192821562000238579160200282015b8281111562000237578251829060ff1690559160200191906001019062000215565b5b509050620002479190620002dc565b5090565b8280546200025990620002fb565b90600052602060002090601f0160209004810192826200027d5760008555620002c9565b82601f106200029857805160ff1916838001178555620002c9565b82800160010185558215620002c9579182015b82811115620002c8578251825591602001919060010190620002ab565b5b509050620002d89190620002dc565b5090565b5b80821115620002f7576000816000905550600101620002dd565b5090565b600060028204905060018216806200031457607f821691505b602082108114156200032b576200032a62000331565b5b50919050565b7f4e487b7100000000000000000000000000000000000000000000000000000000600052602260045260246000fd5b61413280620003706000396000f3fe6080604052600436106101295760003560e01c80637dc0bf3f116100ab578063bdb4b8481161006f578063bdb4b848146103f4578063d1df306c1461041f578063e985e9c514610448578063f242432a14610485578063f2fde38b146104ae578063f5298aca146104d757610129565b80637dc0bf3f1461031c5780638da5cb5b14610359578063a0712d6814610384578063a22cb465146103a0578063ac72200d146103c957610129565b806335403023116100f25780633540302314610237578063406c492b146102745780634e1273f41461029f5780636b20c454146102dc578063715018a61461030557610129565b8062fdd58e1461012e57806301ffc9a71461016b57806302fe5305146101a85780630e89341c146101d15780632eb2c2d61461020e575b600080fd5b34801561013a57600080fd5b5061015560048036038101906101509190612d2a565b610500565b60405161016291906136ca565b60405180910390f35b34801561017757600080fd5b50610192600480360381019061018d9190612e21565b6105c9565b60405161019f91906133b3565b60405180910390f35b3480156101b457600080fd5b506101cf60048036038101906101ca9190612e73565b6106ab565b005b3480156101dd57600080fd5b506101f860048036038101906101f39190612eb4565b610733565b60405161020591906133ce565b60405180910390f35b34801561021a57600080fd5b5061023560048036038101906102309190612b21565b6107c7565b005b34801561024357600080fd5b5061025e60048036038101906102599190612eb4565b610868565b60405161026b91906136ca565b60405180910390f35b34801561028057600080fd5b5061028961088c565b6040516102969190613254565b60405180910390f35b3480156102ab57600080fd5b506102c660048036038101906102c19190612db5565b6108b2565b6040516102d3919061335a565b60405180910390f35b3480156102e857600080fd5b5061030360048036038101906102fe9190612c6f565b610a63565b005b34801561031157600080fd5b5061031a610b00565b005b34801561032857600080fd5b50610343600480360381019061033e9190612eb4565b610b88565b60405161035091906136ca565b60405180910390f35b34801561036557600080fd5b5061036e610bac565b60405161037b9190613254565b60405180910390f35b61039e60048036038101906103999190612eb4565b610bd6565b005b3480156103ac57600080fd5b506103c760048036038101906103c29190612cee565b610dbb565b005b3480156103d557600080fd5b506103de610dd1565b6040516103eb919061335a565b60405180910390f35b34801561040057600080fd5b50610409610e29565b60405161041691906136ca565b60405180910390f35b34801561042b57600080fd5b5061044660048036038101906104419190612d2a565b610e2f565b005b34801561045457600080fd5b5061046f600480360381019061046a9190612ae5565b610ee4565b60405161047c91906133b3565b60405180910390f35b34801561049157600080fd5b506104ac60048036038101906104a79190612be0565b610f78565b005b3480156104ba57600080fd5b506104d560048036038101906104d09190612abc565b611019565b005b3480156104e357600080fd5b506104fe60048036038101906104f99190612d66565b611111565b005b60008073ffffffffffffffffffffffffffffffffffffffff168373ffffffffffffffffffffffffffffffffffffffff161415610571576040517f08c379a0000000000000000000000000000000000000000000000000000000008152600401610568906134ea565b60405180910390fd5b60008083815260200190815260200160002060008473ffffffffffffffffffffffffffffffffffffffff1673ffffffffffffffffffffffffffffffffffffffff16815260200190815260200160002054905092915050565b60007fd9b67a26000000000000000000000000000000000000000000000000000000007bffffffffffffffffffffffffffffffffffffffffffffffffffffffff1916827bffffffffffffffffffffffffffffffffffffffffffffffffffffffff1916148061069457507f0e89341c000000000000000000000000000000000000000000000000000000007bffffffffffffffffffffffffffffffffffffffffffffffffffffffff1916827bffffffffffffffffffffffffffffffffffffffffffffffffffffffff1916145b806106a457506106a3826111ae565b5b9050919050565b6106b3611218565b73ffffffffffffffffffffffffffffffffffffffff166106d1610bac565b73ffffffffffffffffffffffffffffffffffffffff1614610727576040517f08c379a000000000000000000000000000000000000000000000000000000000815260040161071e906135ea565b60405180910390fd5b61073081611220565b50565b6060600280546107429061396a565b80601f016020809104026020016040519081016040528092919081815260200182805461076e9061396a565b80156107bb5780601f10610790576101008083540402835291602001916107bb565b820191906000526020600020905b81548152906001019060200180831161079e57829003601f168201915b50505050509050919050565b6107cf611218565b73ffffffffffffffffffffffffffffffffffffffff168573ffffffffffffffffffffffffffffffffffffffff16148061081557506108148561080f611218565b610ee4565b5b610854576040517f08c379a000000000000000000000000000000000000000000000000000000000815260040161084b9061358a565b60405180910390fd5b610861858585858561123a565b5050505050565b6006818154811061087857600080fd5b906000526020600020016000915090505481565b600760009054906101000a900473ffffffffffffffffffffffffffffffffffffffff1681565b606081518351146108f8576040517f08c379a00000000000000000000000000000000000000000000000000000000081526004016108ef9061366a565b60405180910390fd5b6000835167ffffffffffffffff81111561093b577f4e487b7100000000000000000000000000000000000000000000000000000000600052604160045260246000fd5b6040519080825280602002602001820160405280156109695781602001602082028036833780820191505090505b50905060005b8451811015610a5857610a028582815181106109b4577f4e487b7100000000000000000000000000000000000000000000000000000000600052603260045260246000fd5b60200260200101518583815181106109f5577f4e487b7100000000000000000000000000000000000000000000000000000000600052603260045260246000fd5b6020026020010151610500565b828281518110610a3b577f4e487b7100000000000000000000000000000000000000000000000000000000600052603260045260246000fd5b60200260200101818152505080610a51906139cd565b905061096f565b508091505092915050565b610a6b611218565b73ffffffffffffffffffffffffffffffffffffffff168373ffffffffffffffffffffffffffffffffffffffff161480610ab15750610ab083610aab611218565b610ee4565b5b610af0576040517f08c379a0000000000000000000000000000000000000000000000000000000008152600401610ae79061354a565b60405180910390fd5b610afb83838361159a565b505050565b610b08611218565b73ffffffffffffffffffffffffffffffffffffffff16610b26610bac565b73ffffffffffffffffffffffffffffffffffffffff1614610b7c576040517f08c379a0000000000000000000000000000000000000000000000000000000008152600401610b73906135ea565b60405180910390fd5b610b866000611897565b565b60058181548110610b9857600080fd5b906000526020600020016000915090505481565b6000600360009054906101000a900473ffffffffffffffffffffffffffffffffffffffff16905090565b6004543411610c1a576040517f08c379a0000000000000000000000000000000000000000000000000000000008152600401610c119061360a565b60405180910390fd5b60068181548110610c54577f4e487b7100000000000000000000000000000000000000000000000000000000600052603260045260246000fd5b906000526020600020015460058281548110610c99577f4e487b7100000000000000000000000000000000000000000000000000000000600052603260045260246000fd5b906000526020600020015410610ce4576040517f08c379a0000000000000000000000000000000000000000000000000000000008152600401610cdb9061362a565b60405180910390fd5b610d00338260016040518060200160405280600081525061195d565b600160058281548110610d3c577f4e487b7100000000000000000000000000000000000000000000000000000000600052603260045260246000fd5b906000526020600020016000828254610d55919061385e565b92505081905550610d7f6040518060600160405280602581526020016140a3602591398233611af3565b7fceef10b103b9edb2875c75340d0792311a01f9c436249fb2032b51c41183e5de3382604051610db0929190613331565b60405180910390a150565b610dcd610dc6611218565b8383611b92565b5050565b60606005805480602002602001604051908101604052809291908181526020018280548015610e1f57602002820191906000526020600020905b815481526020019060010190808311610e0b575b5050505050905090565b60045481565b610e776040518060400160405280600281526020017f2573000000000000000000000000000000000000000000000000000000000000815250610e728433610ee4565b611cff565b610e8382826001611111565b610ea76040518060600160405280603581526020016140c860359139828433611d9b565b7f882bf1cfce179a946ed5ddac926348126e4142af1c22ba936506358713cc1e723382604051610ed8929190613331565b60405180910390a15050565b6000600160008473ffffffffffffffffffffffffffffffffffffffff1673ffffffffffffffffffffffffffffffffffffffff16815260200190815260200160002060008373ffffffffffffffffffffffffffffffffffffffff1673ffffffffffffffffffffffffffffffffffffffff16815260200190815260200160002060009054906101000a900460ff16905092915050565b610f80611218565b73ffffffffffffffffffffffffffffffffffffffff168573ffffffffffffffffffffffffffffffffffffffff161480610fc65750610fc585610fc0611218565b610ee4565b5b611005576040517f08c379a0000000000000000000000000000000000000000000000000000000008152600401610ffc9061354a565b60405180910390fd5b6110128585858585611e3d565b5050505050565b611021611218565b73ffffffffffffffffffffffffffffffffffffffff1661103f610bac565b73ffffffffffffffffffffffffffffffffffffffff1614611095576040517f08c379a000000000000000000000000000000000000000000000000000000000815260040161108c906135ea565b60405180910390fd5b600073ffffffffffffffffffffffffffffffffffffffff168173ffffffffffffffffffffffffffffffffffffffff161415611105576040517f08c379a00000000000000000000000000000000000000000000000000000000081526004016110fc9061350a565b60405180910390fd5b61110e81611897565b50565b611119611218565b73ffffffffffffffffffffffffffffffffffffffff168373ffffffffffffffffffffffffffffffffffffffff16148061115f575061115e83611159611218565b610ee4565b5b61119e576040517f08c379a00000000000000000000000000000000000000000000000000000000081526004016111959061354a565b60405180910390fd5b6111a98383836120bf565b505050565b60007f01ffc9a7000000000000000000000000000000000000000000000000000000007bffffffffffffffffffffffffffffffffffffffffffffffffffffffff1916827bffffffffffffffffffffffffffffffffffffffffffffffffffffffff1916149050919050565b600033905090565b80600290805190602001906112369291906127b4565b5050565b815183511461127e576040517f08c379a00000000000000000000000000000000000000000000000000000000081526004016112759061368a565b60405180910390fd5b600073ffffffffffffffffffffffffffffffffffffffff168473ffffffffffffffffffffffffffffffffffffffff1614156112ee576040517f08c379a00000000000000000000000000000000000000000000000000000000081526004016112e59061356a565b60405180910390fd5b60006112f8611218565b90506113088187878787876122dc565b60005b845181101561150557600085828151811061134f577f4e487b7100000000000000000000000000000000000000000000000000000000600052603260045260246000fd5b602002602001015190506000858381518110611394577f4e487b7100000000000000000000000000000000000000000000000000000000600052603260045260246000fd5b60200260200101519050600080600084815260200190815260200160002060008b73ffffffffffffffffffffffffffffffffffffffff1673ffffffffffffffffffffffffffffffffffffffff16815260200190815260200160002054905081811015611435576040517f08c379a000000000000000000000000000000000000000000000000000000000815260040161142c906135ca565b60405180910390fd5b81810360008085815260200190815260200160002060008c73ffffffffffffffffffffffffffffffffffffffff1673ffffffffffffffffffffffffffffffffffffffff168152602001908152602001600020819055508160008085815260200190815260200160002060008b73ffffffffffffffffffffffffffffffffffffffff1673ffffffffffffffffffffffffffffffffffffffff16815260200190815260200160002060008282546114ea919061385e565b92505081905550505050806114fe906139cd565b905061130b565b508473ffffffffffffffffffffffffffffffffffffffff168673ffffffffffffffffffffffffffffffffffffffff168273ffffffffffffffffffffffffffffffffffffffff167f4a39dc06d4c0dbc64b70af90fd698a233a518aa5d07e595d983b8c0526c8f7fb878760405161157c92919061337c565b60405180910390a46115928187878787876122e4565b505050505050565b600073ffffffffffffffffffffffffffffffffffffffff168373ffffffffffffffffffffffffffffffffffffffff16141561160a576040517f08c379a0000000000000000000000000000000000000000000000000000000008152600401611601906135aa565b60405180910390fd5b805182511461164e576040517f08c379a00000000000000000000000000000000000000000000000000000000081526004016116459061368a565b60405180910390fd5b6000611658611218565b9050611678818560008686604051806020016040528060008152506122dc565b60005b83518110156118115760008482815181106116bf577f4e487b7100000000000000000000000000000000000000000000000000000000600052603260045260246000fd5b602002602001015190506000848381518110611704577f4e487b7100000000000000000000000000000000000000000000000000000000600052603260045260246000fd5b60200260200101519050600080600084815260200190815260200160002060008973ffffffffffffffffffffffffffffffffffffffff1673ffffffffffffffffffffffffffffffffffffffff168152602001908152602001600020549050818110156117a5576040517f08c379a000000000000000000000000000000000000000000000000000000000815260040161179c9061352a565b60405180910390fd5b81810360008085815260200190815260200160002060008a73ffffffffffffffffffffffffffffffffffffffff1673ffffffffffffffffffffffffffffffffffffffff168152602001908152602001600020819055505050508080611809906139cd565b91505061167b565b50600073ffffffffffffffffffffffffffffffffffffffff168473ffffffffffffffffffffffffffffffffffffffff168273ffffffffffffffffffffffffffffffffffffffff167f4a39dc06d4c0dbc64b70af90fd698a233a518aa5d07e595d983b8c0526c8f7fb868660405161188992919061337c565b60405180910390a450505050565b6000600360009054906101000a900473ffffffffffffffffffffffffffffffffffffffff16905081600360006101000a81548173ffffffffffffffffffffffffffffffffffffffff021916908373ffffffffffffffffffffffffffffffffffffffff1602179055508173ffffffffffffffffffffffffffffffffffffffff168173ffffffffffffffffffffffffffffffffffffffff167f8be0079c531659141344cd1fd0a4f28419497f9722a3daafe3b4186f6b6457e060405160405180910390a35050565b600073ffffffffffffffffffffffffffffffffffffffff168473ffffffffffffffffffffffffffffffffffffffff1614156119cd576040517f08c379a00000000000000000000000000000000000000000000000000000000081526004016119c4906136aa565b60405180910390fd5b60006119d7611218565b90506119f8816000876119e9886124cb565b6119f2886124cb565b876122dc565b8260008086815260200190815260200160002060008773ffffffffffffffffffffffffffffffffffffffff1673ffffffffffffffffffffffffffffffffffffffff1681526020019081526020016000206000828254611a57919061385e565b925050819055508473ffffffffffffffffffffffffffffffffffffffff16600073ffffffffffffffffffffffffffffffffffffffff168273ffffffffffffffffffffffffffffffffffffffff167fc3d58168c5ae7397731d063d5bbf3d657854427343f4c083240f7aacaa2d0f628787604051611ad59291906136e5565b60405180910390a4611aec81600087878787612591565b5050505050565b611b8d838383604051602401611b0b93929190613420565b6040516020818303038152906040527fe3849f79000000000000000000000000000000000000000000000000000000007bffffffffffffffffffffffffffffffffffffffffffffffffffffffff19166020820180517bffffffffffffffffffffffffffffffffffffffffffffffffffffffff8381831617835250505050612778565b505050565b8173ffffffffffffffffffffffffffffffffffffffff168373ffffffffffffffffffffffffffffffffffffffff161415611c01576040517f08c379a0000000000000000000000000000000000000000000000000000000008152600401611bf89061364a565b60405180910390fd5b80600160008573ffffffffffffffffffffffffffffffffffffffff1673ffffffffffffffffffffffffffffffffffffffff16815260200190815260200160002060008473ffffffffffffffffffffffffffffffffffffffff1673ffffffffffffffffffffffffffffffffffffffff16815260200190815260200160002060006101000a81548160ff0219169083151502179055508173ffffffffffffffffffffffffffffffffffffffff168373ffffffffffffffffffffffffffffffffffffffff167f17307eab39ab6107e8899845ad3d59bd9653f200f220920489ca2b5937696c3183604051611cf291906133b3565b60405180910390a3505050565b611d978282604051602401611d159291906133f0565b6040516020818303038152906040527fc3b55635000000000000000000000000000000000000000000000000000000007bffffffffffffffffffffffffffffffffffffffffffffffffffffffff19166020820180517bffffffffffffffffffffffffffffffffffffffffffffffffffffffff8381831617835250505050612778565b5050565b611e3784848484604051602401611db5949392919061345e565b6040516020818303038152906040527feac89281000000000000000000000000000000000000000000000000000000007bffffffffffffffffffffffffffffffffffffffffffffffffffffffff19166020820180517bffffffffffffffffffffffffffffffffffffffffffffffffffffffff8381831617835250505050612778565b50505050565b600073ffffffffffffffffffffffffffffffffffffffff168473ffffffffffffffffffffffffffffffffffffffff161415611ead576040517f08c379a0000000000000000000000000000000000000000000000000000000008152600401611ea49061356a565b60405180910390fd5b6000611eb7611218565b9050611ed7818787611ec8886124cb565b611ed1886124cb565b876122dc565b600080600086815260200190815260200160002060008873ffffffffffffffffffffffffffffffffffffffff1673ffffffffffffffffffffffffffffffffffffffff16815260200190815260200160002054905083811015611f6e576040517f08c379a0000000000000000000000000000000000000000000000000000000008152600401611f65906135ca565b60405180910390fd5b83810360008087815260200190815260200160002060008973ffffffffffffffffffffffffffffffffffffffff1673ffffffffffffffffffffffffffffffffffffffff168152602001908152602001600020819055508360008087815260200190815260200160002060008873ffffffffffffffffffffffffffffffffffffffff1673ffffffffffffffffffffffffffffffffffffffff1681526020019081526020016000206000828254612023919061385e565b925050819055508573ffffffffffffffffffffffffffffffffffffffff168773ffffffffffffffffffffffffffffffffffffffff168373ffffffffffffffffffffffffffffffffffffffff167fc3d58168c5ae7397731d063d5bbf3d657854427343f4c083240f7aacaa2d0f6288886040516120a09291906136e5565b60405180910390a46120b6828888888888612591565b50505050505050565b600073ffffffffffffffffffffffffffffffffffffffff168373ffffffffffffffffffffffffffffffffffffffff16141561212f576040517f08c379a0000000000000000000000000000000000000000000000000000000008152600401612126906135aa565b60405180910390fd5b6000612139611218565b90506121698185600061214b876124cb565b612154876124cb565b604051806020016040528060008152506122dc565b600080600085815260200190815260200160002060008673ffffffffffffffffffffffffffffffffffffffff1673ffffffffffffffffffffffffffffffffffffffff16815260200190815260200160002054905082811015612200576040517f08c379a00000000000000000000000000000000000000000000000000000000081526004016121f79061352a565b60405180910390fd5b82810360008086815260200190815260200160002060008773ffffffffffffffffffffffffffffffffffffffff1673ffffffffffffffffffffffffffffffffffffffff16815260200190815260200160002081905550600073ffffffffffffffffffffffffffffffffffffffff168573ffffffffffffffffffffffffffffffffffffffff168373ffffffffffffffffffffffffffffffffffffffff167fc3d58168c5ae7397731d063d5bbf3d657854427343f4c083240f7aacaa2d0f6287876040516122cd9291906136e5565b60405180910390a45050505050565b505050505050565b6123038473ffffffffffffffffffffffffffffffffffffffff166127a1565b156124c3578373ffffffffffffffffffffffffffffffffffffffff1663bc197c8187878686866040518663ffffffff1660e01b815260040161234995949392919061326f565b602060405180830381600087803b15801561236357600080fd5b505af192505050801561239457506040513d601f19601f820116820180604052508101906123919190612e4a565b60015b61243a576123a0613aa3565b806308c379a014156123fd57506123b5613fb0565b806123c057506123ff565b806040517f08c379a00000000000000000000000000000000000000000000000000000000081526004016123f491906133ce565b60405180910390fd5b505b6040517f08c379a0000000000000000000000000000000000000000000000000000000008152600401612431906134aa565b60405180910390fd5b63bc197c8160e01b7bffffffffffffffffffffffffffffffffffffffffffffffffffffffff1916817bffffffffffffffffffffffffffffffffffffffffffffffffffffffff1916146124c1576040517f08c379a00000000000000000000000000000000000000000000000000000000081526004016124b8906134ca565b60405180910390fd5b505b505050505050565b60606000600167ffffffffffffffff811115612510577f4e487b7100000000000000000000000000000000000000000000000000000000600052604160045260246000fd5b60405190808252806020026020018201604052801561253e5781602001602082028036833780820191505090505b509050828160008151811061257c577f4e487b7100000000000000000000000000000000000000000000000000000000600052603260045260246000fd5b60200260200101818152505080915050919050565b6125b08473ffffffffffffffffffffffffffffffffffffffff166127a1565b15612770578373ffffffffffffffffffffffffffffffffffffffff1663f23a6e6187878686866040518663ffffffff1660e01b81526004016125f69594939291906132d7565b602060405180830381600087803b15801561261057600080fd5b505af192505050801561264157506040513d601f19601f8201168201806040525081019061263e9190612e4a565b60015b6126e75761264d613aa3565b806308c379a014156126aa5750612662613fb0565b8061266d57506126ac565b806040517f08c379a00000000000000000000000000000000000000000000000000000000081526004016126a191906133ce565b60405180910390fd5b505b6040517f08c379a00000000000000000000000000000000000000000000000000000000081526004016126de906134aa565b60405180910390fd5b63f23a6e6160e01b7bffffffffffffffffffffffffffffffffffffffffffffffffffffffff1916817bffffffffffffffffffffffffffffffffffffffffffffffffffffffff19161461276e576040517f08c379a0000000000000000000000000000000000000000000000000000000008152600401612765906134ca565b60405180910390fd5b505b505050505050565b60008151905060006a636f6e736f6c652e6c6f679050602083016000808483855afa5050505050565b600080823b905060008111915050919050565b8280546127c09061396a565b90600052602060002090601f0160209004810192826127e25760008555612829565b82601f106127fb57805160ff1916838001178555612829565b82800160010185558215612829579182015b8281111561282857825182559160200191906001019061280d565b5b509050612836919061283a565b5090565b5b8082111561285357600081600090555060010161283b565b5090565b600061286a61286584613733565b61370e565b9050808382526020820190508285602086028201111561288957600080fd5b60005b858110156128b9578161289f88826129ab565b84526020840193506020830192505060018101905061288c565b5050509392505050565b60006128d66128d18461375f565b61370e565b905080838252602082019050828560208602820111156128f557600080fd5b60005b85811015612925578161290b8882612aa7565b8452602084019350602083019250506001810190506128f8565b5050509392505050565b600061294261293d8461378b565b61370e565b90508281526020810184848401111561295a57600080fd5b612965848285613928565b509392505050565b600061298061297b846137bc565b61370e565b90508281526020810184848401111561299857600080fd5b6129a3848285613928565b509392505050565b6000813590506129ba81614046565b92915050565b600082601f8301126129d157600080fd5b81356129e1848260208601612857565b91505092915050565b600082601f8301126129fb57600080fd5b8135612a0b8482602086016128c3565b91505092915050565b600081359050612a238161405d565b92915050565b600081359050612a3881614074565b92915050565b600081519050612a4d81614074565b92915050565b600082601f830112612a6457600080fd5b8135612a7484826020860161292f565b91505092915050565b600082601f830112612a8e57600080fd5b8135612a9e84826020860161296d565b91505092915050565b600081359050612ab68161408b565b92915050565b600060208284031215612ace57600080fd5b6000612adc848285016129ab565b91505092915050565b60008060408385031215612af857600080fd5b6000612b06858286016129ab565b9250506020612b17858286016129ab565b9150509250929050565b600080600080600060a08688031215612b3957600080fd5b6000612b47888289016129ab565b9550506020612b58888289016129ab565b945050604086013567ffffffffffffffff811115612b7557600080fd5b612b81888289016129ea565b935050606086013567ffffffffffffffff811115612b9e57600080fd5b612baa888289016129ea565b925050608086013567ffffffffffffffff811115612bc757600080fd5b612bd388828901612a53565b9150509295509295909350565b600080600080600060a08688031215612bf857600080fd5b6000612c06888289016129ab565b9550506020612c17888289016129ab565b9450506040612c2888828901612aa7565b9350506060612c3988828901612aa7565b925050608086013567ffffffffffffffff811115612c5657600080fd5b612c6288828901612a53565b9150509295509295909350565b600080600060608486031215612c8457600080fd5b6000612c92868287016129ab565b935050602084013567ffffffffffffffff811115612caf57600080fd5b612cbb868287016129ea565b925050604084013567ffffffffffffffff811115612cd857600080fd5b612ce4868287016129ea565b9150509250925092565b60008060408385031215612d0157600080fd5b6000612d0f858286016129ab565b9250506020612d2085828601612a14565b9150509250929050565b60008060408385031215612d3d57600080fd5b6000612d4b858286016129ab565b9250506020612d5c85828601612aa7565b9150509250929050565b600080600060608486031215612d7b57600080fd5b6000612d89868287016129ab565b9350506020612d9a86828701612aa7565b9250506040612dab86828701612aa7565b9150509250925092565b60008060408385031215612dc857600080fd5b600083013567ffffffffffffffff811115612de257600080fd5b612dee858286016129c0565b925050602083013567ffffffffffffffff811115612e0b57600080fd5b612e17858286016129ea565b9150509250929050565b600060208284031215612e3357600080fd5b6000612e4184828501612a29565b91505092915050565b600060208284031215612e5c57600080fd5b6000612e6a84828501612a3e565b91505092915050565b600060208284031215612e8557600080fd5b600082013567ffffffffffffffff811115612e9f57600080fd5b612eab84828501612a7d565b91505092915050565b600060208284031215612ec657600080fd5b6000612ed484828501612aa7565b91505092915050565b6000612ee98383613236565b60208301905092915050565b612efe816138b4565b82525050565b6000612f0f826137fd565b612f19818561382b565b9350612f24836137ed565b8060005b83811015612f55578151612f3c8882612edd565b9750612f478361381e565b925050600181019050612f28565b5085935050505092915050565b612f6b816138c6565b82525050565b6000612f7c82613808565b612f86818561383c565b9350612f96818560208601613937565b612f9f81613ac5565b840191505092915050565b6000612fb582613813565b612fbf818561384d565b9350612fcf818560208601613937565b612fd881613ac5565b840191505092915050565b6000612ff060348361384d565b9150612ffb82613ae3565b604082019050919050565b600061301360288361384d565b915061301e82613b32565b604082019050919050565b6000613036602b8361384d565b915061304182613b81565b604082019050919050565b600061305960268361384d565b915061306482613bd0565b604082019050919050565b600061307c60248361384d565b915061308782613c1f565b604082019050919050565b600061309f60298361384d565b91506130aa82613c6e565b604082019050919050565b60006130c260258361384d565b91506130cd82613cbd565b604082019050919050565b60006130e560328361384d565b91506130f082613d0c565b604082019050919050565b600061310860238361384d565b915061311382613d5b565b604082019050919050565b600061312b602a8361384d565b915061313682613daa565b604082019050919050565b600061314e60208361384d565b915061315982613df9565b602082019050919050565b600061317160138361384d565b915061317c82613e22565b602082019050919050565b600061319460088361384d565b915061319f82613e4b565b602082019050919050565b60006131b760298361384d565b91506131c282613e74565b604082019050919050565b60006131da60298361384d565b91506131e582613ec3565b604082019050919050565b60006131fd60288361384d565b915061320882613f12565b604082019050919050565b600061322060218361384d565b915061322b82613f61565b604082019050919050565b61323f8161391e565b82525050565b61324e8161391e565b82525050565b60006020820190506132696000830184612ef5565b92915050565b600060a0820190506132846000830188612ef5565b6132916020830187612ef5565b81810360408301526132a38186612f04565b905081810360608301526132b78185612f04565b905081810360808301526132cb8184612f71565b90509695505050505050565b600060a0820190506132ec6000830188612ef5565b6132f96020830187612ef5565b6133066040830186613245565b6133136060830185613245565b81810360808301526133258184612f71565b90509695505050505050565b60006040820190506133466000830185612ef5565b6133536020830184613245565b9392505050565b600060208201905081810360008301526133748184612f04565b905092915050565b600060408201905081810360008301526133968185612f04565b905081810360208301526133aa8184612f04565b90509392505050565b60006020820190506133c86000830184612f62565b92915050565b600060208201905081810360008301526133e88184612faa565b905092915050565b6000604082019050818103600083015261340a8185612faa565b90506134196020830184612f62565b9392505050565b6000606082019050818103600083015261343a8186612faa565b90506134496020830185613245565b6134566040830184612ef5565b949350505050565b600060808201905081810360008301526134788187612faa565b90506134876020830186613245565b6134946040830185612ef5565b6134a16060830184612ef5565b95945050505050565b600060208201905081810360008301526134c381612fe3565b9050919050565b600060208201905081810360008301526134e381613006565b9050919050565b6000602082019050818103600083015261350381613029565b9050919050565b600060208201905081810360008301526135238161304c565b9050919050565b600060208201905081810360008301526135438161306f565b9050919050565b6000602082019050818103600083015261356381613092565b9050919050565b60006020820190508181036000830152613583816130b5565b9050919050565b600060208201905081810360008301526135a3816130d8565b9050919050565b600060208201905081810360008301526135c3816130fb565b9050919050565b600060208201905081810360008301526135e38161311e565b9050919050565b6000602082019050818103600083015261360381613141565b9050919050565b6000602082019050818103600083015261362381613164565b9050919050565b6000602082019050818103600083015261364381613187565b9050919050565b60006020820190508181036000830152613663816131aa565b9050919050565b60006020820190508181036000830152613683816131cd565b9050919050565b600060208201905081810360008301526136a3816131f0565b9050919050565b600060208201905081810360008301526136c381613213565b9050919050565b60006020820190506136df6000830184613245565b92915050565b60006040820190506136fa6000830185613245565b6137076020830184613245565b9392505050565b6000613718613729565b9050613724828261399c565b919050565b6000604051905090565b600067ffffffffffffffff82111561374e5761374d613a74565b5b602082029050602081019050919050565b600067ffffffffffffffff82111561377a57613779613a74565b5b602082029050602081019050919050565b600067ffffffffffffffff8211156137a6576137a5613a74565b5b6137af82613ac5565b9050602081019050919050565b600067ffffffffffffffff8211156137d7576137d6613a74565b5b6137e082613ac5565b9050602081019050919050565b6000819050602082019050919050565b600081519050919050565b600081519050919050565b600081519050919050565b6000602082019050919050565b600082825260208201905092915050565b600082825260208201905092915050565b600082825260208201905092915050565b60006138698261391e565b91506138748361391e565b9250827fffffffffffffffffffffffffffffffffffffffffffffffffffffffffffffffff038211156138a9576138a8613a16565b5b828201905092915050565b60006138bf826138fe565b9050919050565b60008115159050919050565b60007fffffffff0000000000000000000000000000000000000000000000000000000082169050919050565b600073ffffffffffffffffffffffffffffffffffffffff82169050919050565b6000819050919050565b82818337600083830152505050565b60005b8381101561395557808201518184015260208101905061393a565b83811115613964576000848401525b50505050565b6000600282049050600182168061398257607f821691505b6020821081141561399657613995613a45565b5b50919050565b6139a582613ac5565b810181811067ffffffffffffffff821117156139c4576139c3613a74565b5b80604052505050565b60006139d88261391e565b91507fffffffffffffffffffffffffffffffffffffffffffffffffffffffffffffffff821415613a0b57613a0a613a16565b5b600182019050919050565b7f4e487b7100000000000000000000000000000000000000000000000000000000600052601160045260246000fd5b7f4e487b7100000000000000000000000000000000000000000000000000000000600052602260045260246000fd5b7f4e487b7100000000000000000000000000000000000000000000000000000000600052604160045260246000fd5b600060033d1115613ac25760046000803e613abf600051613ad6565b90505b90565b6000601f19601f8301169050919050565b60008160e01c9050919050565b7f455243313135353a207472616e7366657220746f206e6f6e204552433131353560008201527f526563656976657220696d706c656d656e746572000000000000000000000000602082015250565b7f455243313135353a204552433131353552656365697665722072656a6563746560008201527f6420746f6b656e73000000000000000000000000000000000000000000000000602082015250565b7f455243313135353a2062616c616e636520717565727920666f7220746865207a60008201527f65726f2061646472657373000000000000000000000000000000000000000000602082015250565b7f4f776e61626c653a206e6577206f776e657220697320746865207a65726f206160008201527f6464726573730000000000000000000000000000000000000000000000000000602082015250565b7f455243313135353a206275726e20616d6f756e7420657863656564732062616c60008201527f616e636500000000000000000000000000000000000000000000000000000000602082015250565b7f455243313135353a2063616c6c6572206973206e6f74206f776e6572206e6f7260008201527f20617070726f7665640000000000000000000000000000000000000000000000602082015250565b7f455243313135353a207472616e7366657220746f20746865207a65726f20616460008201527f6472657373000000000000000000000000000000000000000000000000000000602082015250565b7f455243313135353a207472616e736665722063616c6c6572206973206e6f742060008201527f6f776e6572206e6f7220617070726f7665640000000000000000000000000000602082015250565b7f455243313135353a206275726e2066726f6d20746865207a65726f206164647260008201527f6573730000000000000000000000000000000000000000000000000000000000602082015250565b7f455243313135353a20696e73756666696369656e742062616c616e636520666f60008201527f72207472616e7366657200000000000000000000000000000000000000000000602082015250565b7f4f776e61626c653a2063616c6c6572206973206e6f7420746865206f776e6572600082015250565b7f4e6f7420656e6f756768204554482073656e7400000000000000000000000000600082015250565b7f536f6c64206f7574000000000000000000000000000000000000000000000000600082015250565b7f455243313135353a2073657474696e6720617070726f76616c2073746174757360008201527f20666f722073656c660000000000000000000000000000000000000000000000602082015250565b7f455243313135353a206163636f756e747320616e6420696473206c656e67746860008201527f206d69736d617463680000000000000000000000000000000000000000000000602082015250565b7f455243313135353a2069647320616e6420616d6f756e7473206c656e6774682060008201527f6d69736d61746368000000000000000000000000000000000000000000000000602082015250565b7f455243313135353a206d696e7420746f20746865207a65726f2061646472657360008201527f7300000000000000000000000000000000000000000000000000000000000000602082015250565b600060443d1015613fc057614043565b613fc8613729565b60043d036004823e80513d602482011167ffffffffffffffff82111715613ff0575050614043565b808201805167ffffffffffffffff81111561400e5750505050614043565b80602083010160043d03850181111561402b575050505050614043565b61403a8260200185018661399c565b82955050505050505b90565b61404f816138b4565b811461405a57600080fd5b50565b614066816138c6565b811461407157600080fd5b50565b61407d816138d2565b811461408857600080fd5b50565b6140948161391e565b811461409f57600080fd5b5056fe416e204e465420772f20494420257320686173206265656e206d696e74656420746f202573416e204e465420772f20494420257320686173206265656e206275726e6564206f6e206163636f756e742025732066726f6d202573a264697066735822122013e66339166ab44e7a240910ed23b5a97a29ea0de6030ea5dcd3d7942310de5b64736f6c6343000804003368747470733a2f2f73616d62696c6c696e6768616d2e6769746875622e696f2f746573742d6a736f6e2f7b69647d2e6a736f6e",
    "linkReferences": {},
    "deployedLinkReferences": {}
}